{
  "abi": [
    {
      "type": "constructor",
      "inputs": [
        {
          "name": "_version",
          "type": "string",
          "internalType": "string"
        },
        {
          "name": "_permissionController",
          "type": "address",
          "internalType": "contract IPermissionController"
        },
        {
          "name": "_releaseManager",
          "type": "address",
          "internalType": "contract IReleaseManager"
        },
        {
          "name": "_computeAVSRegistrar",
          "type": "address",
          "internalType": "contract IComputeAVSRegistrar"
        },
        {
          "name": "_computeOperator",
          "type": "address",
          "internalType": "contract IComputeOperator"
        },
        {
          "name": "_appBeacon",
          "type": "address",
          "internalType": "contract IBeacon"
        }
      ],
      "stateMutability": "nonpayable"
    },
    {
      "type": "function",
      "name": "API_PERMISSION_TYPEHASH",
      "inputs": [],
      "outputs": [
        {
          "name": "",
          "type": "bytes32",
          "internalType": "bytes32"
        }
      ],
      "stateMutability": "view"
    },
    {
      "type": "function",
      "name": "appBeacon",
      "inputs": [],
      "outputs": [
        {
          "name": "",
          "type": "address",
          "internalType": "contract IBeacon"
        }
      ],
      "stateMutability": "view"
    },
    {
      "type": "function",
      "name": "calculateApiPermissionDigestHash",
      "inputs": [
        {
          "name": "permission",
          "type": "bytes4",
          "internalType": "bytes4"
        },
        {
          "name": "expiry",
          "type": "uint256",
          "internalType": "uint256"
        }
      ],
      "outputs": [
        {
          "name": "",
          "type": "bytes32",
          "internalType": "bytes32"
        }
      ],
      "stateMutability": "view"
    },
    {
      "type": "function",
      "name": "calculateAppId",
      "inputs": [
        {
          "name": "deployer",
          "type": "address",
          "internalType": "address"
        },
        {
          "name": "salt",
          "type": "bytes32",
          "internalType": "bytes32"
        }
      ],
      "outputs": [
        {
          "name": "",
          "type": "address",
          "internalType": "contract IApp"
        }
      ],
      "stateMutability": "view"
    },
    {
      "type": "function",
      "name": "computeAVSRegistrar",
      "inputs": [],
      "outputs": [
        {
          "name": "",
          "type": "address",
          "internalType": "contract IComputeAVSRegistrar"
        }
      ],
      "stateMutability": "view"
    },
    {
      "type": "function",
      "name": "computeOperator",
      "inputs": [],
      "outputs": [
        {
          "name": "",
          "type": "address",
          "internalType": "contract IComputeOperator"
        }
      ],
      "stateMutability": "view"
    },
    {
      "type": "function",
      "name": "createApp",
      "inputs": [
        {
          "name": "salt",
          "type": "bytes32",
          "internalType": "bytes32"
        },
        {
          "name": "release",
          "type": "tuple",
          "internalType": "struct IAppController.Release",
          "components": [
            {
              "name": "rmsRelease",
              "type": "tuple",
              "internalType": "struct IReleaseManagerTypes.Release",
              "components": [
                {
                  "name": "artifacts",
                  "type": "tuple[]",
                  "internalType": "struct IReleaseManagerTypes.Artifact[]",
                  "components": [
                    {
                      "name": "digest",
                      "type": "bytes32",
                      "internalType": "bytes32"
                    },
                    {
                      "name": "registry",
                      "type": "string",
                      "internalType": "string"
                    }
                  ]
                },
                {
                  "name": "upgradeByTime",
                  "type": "uint32",
                  "internalType": "uint32"
                }
              ]
            },
            {
              "name": "publicEnv",
              "type": "bytes",
              "internalType": "bytes"
            },
            {
              "name": "encryptedEnv",
              "type": "bytes",
              "internalType": "bytes"
            }
          ]
        }
      ],
      "outputs": [
        {
          "name": "app",
          "type": "address",
          "internalType": "contract IApp"
        }
      ],
      "stateMutability": "nonpayable"
    },
    {
      "type": "function",
      "name": "domainSeparator",
      "inputs": [],
      "outputs": [
        {
          "name": "",
          "type": "bytes32",
          "internalType": "bytes32"
        }
      ],
      "stateMutability": "view"
    },
    {
      "type": "function",
      "name": "getActiveAppCount",
      "inputs": [
        {
          "name": "user",
          "type": "address",
          "internalType": "address"
        }
      ],
      "outputs": [
        {
          "name": "",
          "type": "uint32",
          "internalType": "uint32"
        }
      ],
      "stateMutability": "view"
    },
    {
      "type": "function",
      "name": "getAppCreator",
      "inputs": [
        {
          "name": "app",
          "type": "address",
          "internalType": "contract IApp"
        }
      ],
      "outputs": [
        {
          "name": "",
          "type": "address",
          "internalType": "address"
        }
      ],
      "stateMutability": "view"
    },
    {
      "type": "function",
      "name": "getAppLatestReleaseBlockNumber",
      "inputs": [
        {
          "name": "app",
          "type": "address",
          "internalType": "contract IApp"
        }
      ],
      "outputs": [
        {
          "name": "",
          "type": "uint32",
          "internalType": "uint32"
        }
      ],
      "stateMutability": "view"
    },
    {
      "type": "function",
      "name": "getAppOperatorSetId",
      "inputs": [
        {
          "name": "app",
          "type": "address",
          "internalType": "contract IApp"
        }
      ],
      "outputs": [
        {
          "name": "",
          "type": "uint32",
          "internalType": "uint32"
        }
      ],
      "stateMutability": "view"
    },
    {
      "type": "function",
      "name": "getAppStatus",
      "inputs": [
        {
          "name": "app",
          "type": "address",
          "internalType": "contract IApp"
        }
      ],
      "outputs": [
        {
          "name": "",
          "type": "uint8",
          "internalType": "enum IAppController.AppStatus"
        }
      ],
      "stateMutability": "view"
    },
    {
      "type": "function",
      "name": "getApps",
      "inputs": [
        {
          "name": "offset",
          "type": "uint256",
          "internalType": "uint256"
        },
        {
          "name": "limit",
          "type": "uint256",
          "internalType": "uint256"
        }
      ],
      "outputs": [
        {
          "name": "apps",
          "type": "address[]",
          "internalType": "contract IApp[]"
        },
        {
          "name": "appConfigsMem",
          "type": "tuple[]",
          "internalType": "struct IAppController.AppConfig[]",
          "components": [
            {
              "name": "creator",
              "type": "address",
              "internalType": "address"
            },
            {
              "name": "operatorSetId",
              "type": "uint32",
              "internalType": "uint32"
            },
            {
              "name": "latestReleaseBlockNumber",
              "type": "uint32",
              "internalType": "uint32"
            },
            {
              "name": "status",
              "type": "uint8",
              "internalType": "enum IAppController.AppStatus"
            }
          ]
        }
      ],
      "stateMutability": "view"
    },
    {
      "type": "function",
      "name": "getAppsByCreator",
      "inputs": [
        {
          "name": "creator",
          "type": "address",
          "internalType": "address"
        },
        {
          "name": "offset",
          "type": "uint256",
          "internalType": "uint256"
        },
        {
          "name": "limit",
          "type": "uint256",
          "internalType": "uint256"
        }
      ],
      "outputs": [
        {
          "name": "apps",
          "type": "address[]",
          "internalType": "contract IApp[]"
        },
        {
          "name": "appConfigsMem",
          "type": "tuple[]",
          "internalType": "struct IAppController.AppConfig[]",
          "components": [
            {
              "name": "creator",
              "type": "address",
              "internalType": "address"
            },
            {
              "name": "operatorSetId",
              "type": "uint32",
              "internalType": "uint32"
            },
            {
              "name": "latestReleaseBlockNumber",
              "type": "uint32",
              "internalType": "uint32"
            },
            {
              "name": "status",
              "type": "uint8",
              "internalType": "enum IAppController.AppStatus"
            }
          ]
        }
      ],
      "stateMutability": "view"
    },
    {
      "type": "function",
      "name": "getAppsByDeveloper",
      "inputs": [
        {
          "name": "developer",
          "type": "address",
          "internalType": "address"
        },
        {
          "name": "offset",
          "type": "uint256",
          "internalType": "uint256"
        },
        {
          "name": "limit",
          "type": "uint256",
          "internalType": "uint256"
        }
      ],
      "outputs": [
        {
          "name": "apps",
          "type": "address[]",
          "internalType": "contract IApp[]"
        },
        {
          "name": "appConfigsMem",
          "type": "tuple[]",
          "internalType": "struct IAppController.AppConfig[]",
          "components": [
            {
              "name": "creator",
              "type": "address",
              "internalType": "address"
            },
            {
              "name": "operatorSetId",
              "type": "uint32",
              "internalType": "uint32"
            },
            {
              "name": "latestReleaseBlockNumber",
              "type": "uint32",
              "internalType": "uint32"
            },
            {
              "name": "status",
              "type": "uint8",
              "internalType": "enum IAppController.AppStatus"
            }
          ]
        }
      ],
      "stateMutability": "view"
    },
    {
      "type": "function",
      "name": "getMaxActiveAppsPerUser",
      "inputs": [
        {
          "name": "user",
          "type": "address",
          "internalType": "address"
        }
      ],
      "outputs": [
        {
          "name": "",
          "type": "uint32",
          "internalType": "uint32"
        }
      ],
      "stateMutability": "view"
    },
    {
      "type": "function",
      "name": "globalActiveAppCount",
      "inputs": [],
      "outputs": [
        {
          "name": "",
          "type": "uint32",
          "internalType": "uint32"
        }
      ],
      "stateMutability": "view"
    },
    {
      "type": "function",
      "name": "initialize",
      "inputs": [
        {
          "name": "admin",
          "type": "address",
          "internalType": "address"
        }
      ],
      "outputs": [],
      "stateMutability": "nonpayable"
    },
    {
      "type": "function",
      "name": "maxGlobalActiveApps",
      "inputs": [],
      "outputs": [
        {
          "name": "",
          "type": "uint32",
          "internalType": "uint32"
        }
      ],
      "stateMutability": "view"
    },
    {
      "type": "function",
      "name": "permissionController",
      "inputs": [],
      "outputs": [
        {
          "name": "",
          "type": "address",
          "internalType": "contract IPermissionController"
        }
      ],
      "stateMutability": "view"
    },
    {
      "type": "function",
      "name": "releaseManager",
      "inputs": [],
      "outputs": [
        {
          "name": "",
          "type": "address",
          "internalType": "contract IReleaseManager"
        }
      ],
      "stateMutability": "view"
    },
    {
      "type": "function",
      "name": "setMaxActiveAppsPerUser",
      "inputs": [
        {
          "name": "user",
          "type": "address",
          "internalType": "address"
        },
        {
          "name": "limit",
          "type": "uint32",
          "internalType": "uint32"
        }
      ],
      "outputs": [],
      "stateMutability": "nonpayable"
    },
    {
      "type": "function",
      "name": "setMaxGlobalActiveApps",
      "inputs": [
        {
          "name": "limit",
          "type": "uint32",
          "internalType": "uint32"
        }
      ],
      "outputs": [],
      "stateMutability": "nonpayable"
    },
    {
      "type": "function",
      "name": "startApp",
      "inputs": [
        {
          "name": "app",
          "type": "address",
          "internalType": "contract IApp"
        }
      ],
      "outputs": [],
      "stateMutability": "nonpayable"
    },
    {
      "type": "function",
      "name": "stopApp",
      "inputs": [
        {
          "name": "app",
          "type": "address",
          "internalType": "contract IApp"
        }
      ],
      "outputs": [],
      "stateMutability": "nonpayable"
    },
    {
      "type": "function",
      "name": "suspend",
      "inputs": [
        {
          "name": "account",
          "type": "address",
          "internalType": "address"
        },
        {
          "name": "apps",
          "type": "address[]",
          "internalType": "contract IApp[]"
        }
      ],
      "outputs": [],
      "stateMutability": "nonpayable"
    },
    {
      "type": "function",
      "name": "terminateApp",
      "inputs": [
        {
          "name": "app",
          "type": "address",
          "internalType": "contract IApp"
        }
      ],
      "outputs": [],
      "stateMutability": "nonpayable"
    },
    {
      "type": "function",
      "name": "terminateAppByAdmin",
      "inputs": [
        {
          "name": "app",
          "type": "address",
          "internalType": "contract IApp"
        }
      ],
      "outputs": [],
      "stateMutability": "nonpayable"
    },
    {
      "type": "function",
      "name": "updateAppMetadataURI",
      "inputs": [
        {
          "name": "app",
          "type": "address",
          "internalType": "contract IApp"
        },
        {
          "name": "metadataURI",
          "type": "string",
          "internalType": "string"
        }
      ],
      "outputs": [],
      "stateMutability": "nonpayable"
    },
    {
      "type": "function",
      "name": "upgradeApp",
      "inputs": [
        {
          "name": "app",
          "type": "address",
          "internalType": "contract IApp"
        },
        {
          "name": "release",
          "type": "tuple",
          "internalType": "struct IAppController.Release",
          "components": [
            {
              "name": "rmsRelease",
              "type": "tuple",
              "internalType": "struct IReleaseManagerTypes.Release",
              "components": [
                {
                  "name": "artifacts",
                  "type": "tuple[]",
                  "internalType": "struct IReleaseManagerTypes.Artifact[]",
                  "components": [
                    {
                      "name": "digest",
                      "type": "bytes32",
                      "internalType": "bytes32"
                    },
                    {
                      "name": "registry",
                      "type": "string",
                      "internalType": "string"
                    }
                  ]
                },
                {
                  "name": "upgradeByTime",
                  "type": "uint32",
                  "internalType": "uint32"
                }
              ]
            },
            {
              "name": "publicEnv",
              "type": "bytes",
              "internalType": "bytes"
            },
            {
              "name": "encryptedEnv",
              "type": "bytes",
              "internalType": "bytes"
            }
          ]
        }
      ],
      "outputs": [
        {
          "name": "",
          "type": "uint256",
          "internalType": "uint256"
        }
      ],
      "stateMutability": "nonpayable"
    },
    {
      "type": "function",
      "name": "version",
      "inputs": [],
      "outputs": [
        {
          "name": "",
          "type": "string",
          "internalType": "string"
        }
      ],
      "stateMutability": "view"
    },
    {
      "type": "event",
      "name": "AppCreated",
      "inputs": [
        {
          "name": "creator",
          "type": "address",
          "indexed": true,
          "internalType": "address"
        },
        {
          "name": "app",
          "type": "address",
          "indexed": true,
          "internalType": "contract IApp"
        },
        {
          "name": "operatorSetId",
          "type": "uint32",
          "indexed": false,
          "internalType": "uint32"
        }
      ],
      "anonymous": false
    },
    {
      "type": "event",
      "name": "AppMetadataURIUpdated",
      "inputs": [
        {
          "name": "app",
          "type": "address",
          "indexed": true,
          "internalType": "contract IApp"
        },
        {
          "name": "metadataURI",
          "type": "string",
          "indexed": false,
          "internalType": "string"
        }
      ],
      "anonymous": false
    },
    {
      "type": "event",
      "name": "AppStarted",
      "inputs": [
        {
          "name": "app",
          "type": "address",
          "indexed": true,
          "internalType": "contract IApp"
        }
      ],
      "anonymous": false
    },
    {
      "type": "event",
      "name": "AppStopped",
      "inputs": [
        {
          "name": "app",
          "type": "address",
          "indexed": true,
          "internalType": "contract IApp"
        }
      ],
      "anonymous": false
    },
    {
      "type": "event",
      "name": "AppSuspended",
      "inputs": [
        {
          "name": "app",
          "type": "address",
          "indexed": true,
          "internalType": "contract IApp"
        }
      ],
      "anonymous": false
    },
    {
      "type": "event",
      "name": "AppTerminated",
      "inputs": [
        {
          "name": "app",
          "type": "address",
          "indexed": true,
          "internalType": "contract IApp"
        }
      ],
      "anonymous": false
    },
    {
      "type": "event",
      "name": "AppTerminatedByAdmin",
      "inputs": [
        {
          "name": "app",
          "type": "address",
          "indexed": true,
          "internalType": "contract IApp"
        }
      ],
      "anonymous": false
    },
    {
      "type": "event",
      "name": "AppUpgraded",
      "inputs": [
        {
          "name": "app",
          "type": "address",
          "indexed": true,
          "internalType": "contract IApp"
        },
        {
          "name": "rmsReleaseId",
          "type": "uint256",
          "indexed": false,
          "internalType": "uint256"
        },
        {
          "name": "release",
          "type": "tuple",
          "indexed": false,
          "internalType": "struct IAppController.Release",
          "components": [
            {
              "name": "rmsRelease",
              "type": "tuple",
              "internalType": "struct IReleaseManagerTypes.Release",
              "components": [
                {
                  "name": "artifacts",
                  "type": "tuple[]",
                  "internalType": "struct IReleaseManagerTypes.Artifact[]",
                  "components": [
                    {
                      "name": "digest",
                      "type": "bytes32",
                      "internalType": "bytes32"
                    },
                    {
                      "name": "registry",
                      "type": "string",
                      "internalType": "string"
                    }
                  ]
                },
                {
                  "name": "upgradeByTime",
                  "type": "uint32",
                  "internalType": "uint32"
                }
              ]
            },
            {
              "name": "publicEnv",
              "type": "bytes",
              "internalType": "bytes"
            },
            {
              "name": "encryptedEnv",
              "type": "bytes",
              "internalType": "bytes"
            }
          ]
        }
      ],
      "anonymous": false
    },
    {
      "type": "event",
      "name": "GlobalMaxActiveAppsSet",
      "inputs": [
        {
          "name": "limit",
          "type": "uint32",
          "indexed": false,
          "internalType": "uint32"
        }
      ],
      "anonymous": false
    },
    {
      "type": "event",
      "name": "Initialized",
      "inputs": [
        {
          "name": "version",
          "type": "uint8",
          "indexed": false,
          "internalType": "uint8"
        }
      ],
      "anonymous": false
    },
    {
      "type": "event",
      "name": "MaxActiveAppsSet",
      "inputs": [
        {
          "name": "user",
          "type": "address",
          "indexed": true,
          "internalType": "address"
        },
        {
          "name": "limit",
          "type": "uint32",
          "indexed": false,
          "internalType": "uint32"
        }
      ],
      "anonymous": false
    },
    {
      "type": "error",
      "name": "AccountHasActiveApps",
      "inputs": []
    },
    {
      "type": "error",
      "name": "AppAlreadyExists",
      "inputs": []
    },
    {
      "type": "error",
      "name": "AppDoesNotExist",
      "inputs": []
    },
    {
      "type": "error",
      "name": "GlobalMaxActiveAppsExceeded",
      "inputs": []
    },
    {
      "type": "error",
      "name": "InvalidAppStatus",
      "inputs": []
    },
    {
      "type": "error",
      "name": "InvalidPermissions",
      "inputs": []
    },
    {
      "type": "error",
      "name": "InvalidReleaseMetadataURI",
      "inputs": []
    },
    {
      "type": "error",
      "name": "InvalidShortString",
      "inputs": []
    },
    {
      "type": "error",
      "name": "InvalidSignature",
      "inputs": []
    },
    {
      "type": "error",
      "name": "MaxActiveAppsExceeded",
      "inputs": []
    },
    {
      "type": "error",
      "name": "MoreThanOneArtifact",
      "inputs": []
    },
    {
      "type": "error",
      "name": "SignatureExpired",
      "inputs": []
    },
    {
      "type": "error",
      "name": "StringTooLong",
      "inputs": [
        {
          "name": "str",
          "type": "string",
          "internalType": "string"
        }
      ]
    }
  ],
  "bytecode": {
    "object": "0x610140604052348015610010575f5ffd5b506040516160d83803806160d88339818101604052810190610032919061053c565b83828483888a806100488161017560201b60201c565b6080818152505050508073ffffffffffffffffffffffffffffffffffffffff1660a08173ffffffffffffffffffffffffffffffffffffffff1681525050508373ffffffffffffffffffffffffffffffffffffffff1660c08173ffffffffffffffffffffffffffffffffffffffff16815250508273ffffffffffffffffffffffffffffffffffffffff1660e08173ffffffffffffffffffffffffffffffffffffffff16815250508173ffffffffffffffffffffffffffffffffffffffff166101008173ffffffffffffffffffffffffffffffffffffffff16815250508073ffffffffffffffffffffffffffffffffffffffff166101208173ffffffffffffffffffffffffffffffffffffffff16815250505050505061016a6101da60201b60201c565b5050505050506107bd565b5f5f829050601f815111156101c157826040517f305a27a90000000000000000000000000000000000000000000000000000000081526004016101b89190610633565b60405180910390fd5b8051816101cd90610695565b5f1c175f1b915050919050565b5f60019054906101000a900460ff1615610229576040517f08c379a00000000000000000000000000000000000000000000000000000000081526004016102209061076b565b60405180910390fd5b60ff80165f5f9054906101000a900460ff1660ff16146102965760ff5f5f6101000a81548160ff021916908360ff1602179055507f7f26b83ff96e1f2b6a682f133852f6798a09c465da95921460cefb384740249860ff60405161028d91906107a4565b60405180910390a15b565b5f604051905090565b5f5ffd5b5f5ffd5b5f5ffd5b5f5ffd5b5f601f19601f8301169050919050565b7f4e487b71000000000000000000000000000000000000000000000000000000005f52604160045260245ffd5b6102f7826102b1565b810181811067ffffffffffffffff82111715610316576103156102c1565b5b80604052505050565b5f610328610298565b905061033482826102ee565b919050565b5f67ffffffffffffffff821115610353576103526102c1565b5b61035c826102b1565b9050602081019050919050565b8281835e5f83830152505050565b5f61038961038484610339565b61031f565b9050828152602081018484840111156103a5576103a46102ad565b5b6103b0848285610369565b509392505050565b5f82601f8301126103cc576103cb6102a9565b5b81516103dc848260208601610377565b91505092915050565b5f73ffffffffffffffffffffffffffffffffffffffff82169050919050565b5f61040e826103e5565b9050919050565b5f61041f82610404565b9050919050565b61042f81610415565b8114610439575f5ffd5b50565b5f8151905061044a81610426565b92915050565b5f61045a82610404565b9050919050565b61046a81610450565b8114610474575f5ffd5b50565b5f8151905061048581610461565b92915050565b5f61049582610404565b9050919050565b6104a58161048b565b81146104af575f5ffd5b50565b5f815190506104c08161049c565b92915050565b5f6104d082610404565b9050919050565b6104e0816104c6565b81146104ea575f5ffd5b50565b5f815190506104fb816104d7565b92915050565b5f61050b82610404565b9050919050565b61051b81610501565b8114610525575f5ffd5b50565b5f8151905061053681610512565b92915050565b5f5f5f5f5f5f60c08789031215610556576105556102a1565b5b5f87015167ffffffffffffffff811115610573576105726102a5565b5b61057f89828a016103b8565b965050602061059089828a0161043c565b95505060406105a189828a01610477565b94505060606105b289828a016104b2565b93505060806105c389828a016104ed565b92505060a06105d489828a01610528565b9150509295509295509295565b5f81519050919050565b5f82825260208201905092915050565b5f610605826105e1565b61060f81856105eb565b935061061f818560208601610369565b610628816102b1565b840191505092915050565b5f6020820190508181035f83015261064b81846105fb565b905092915050565b5f81519050919050565b5f819050602082019050919050565b5f819050919050565b5f610680825161066c565b80915050919050565b5f82821b905092915050565b5f61069f82610653565b826106a98461065d565b90506106b481610675565b925060208210156106f4576106ef7fffffffffffffffffffffffffffffffffffffffffffffffffffffffffffffffff83602003600802610689565b831692505b5050919050565b7f496e697469616c697a61626c653a20636f6e747261637420697320696e6974695f8201527f616c697a696e6700000000000000000000000000000000000000000000000000602082015250565b5f6107556027836105eb565b9150610760826106fb565b604082019050919050565b5f6020820190508181035f83015261078281610749565b9050919050565b5f60ff82169050919050565b61079e81610789565b82525050565b5f6020820190506107b75f830184610795565b92915050565b60805160a05160c05160e05161010051610120516158486108905f395f8181610ade015261229401525f81816110540152818161112b0152818161156a0152818161176b015281816117fb01528181611881015281816118c8015281816121640152612ece01525f81816107360152818161190e015261197901525f81816106e7015281816110e40152612e8701525f81816107b10152818161152e015281816115d40152818161165c015281816116e201528181612387015261320e01525f81816108b401526132b601526158485ff3fe608060405234801561000f575f5ffd5b50600436106101ee575f3560e01c80639ffbdce61161010d578063d49fec2b116100a0578063e70b81b11161006f578063e70b81b114610604578063ef6d92c614610620578063f36618ac1461063e578063f698da251461066f576101ee565b8063d49fec2b1461056c578063d5aae17814610588578063d66f7771146105b8578063d80a956b146105d4576101ee565b8063a8aa2bd3116100dc578063a8aa2bd3146104fa578063b438c14114610518578063c4d66de814610534578063cb1e6ff714610550576101ee565b80639ffbdce61461044b578063a37e7e441461047b578063a46530a2146104ac578063a60daa8f146104ca576101ee565b806365aa9a65116101855780638a52d0b5116101545780638a52d0b5146103c35780638a7f922c146103e157806390e2196b146103ff5780639690b7e71461041b576101ee565b806365aa9a651461031657806367962d48146103325780636eb2099f146103625780638099ef2e14610392576101ee565b806340f70a9e116101c157806340f70a9e1461028e5780634657e26a146102be5780634dd8ef81146102dc57806354fd4d50146102f8576101ee565b80630c2199fb146101f25780630d78573e1461022257806336b18874146102405780633fc4cbfd14610270575b5f5ffd5b61020c60048036038101906102079190613633565b61068d565b604051610219919061367c565b60405180910390f35b61022a6106e5565b60405161023791906136f0565b60405180910390f35b61025a6004803603810190610255919061373c565b610709565b604051610267919061379a565b60405180910390f35b610278610734565b60405161028591906137d3565b60405180910390f35b6102a860048036038101906102a39190613633565b610758565b6040516102b5919061367c565b60405180910390f35b6102c66107af565b6040516102d3919061380c565b60405180910390f35b6102f660048036038101906102f19190613860565b6107d3565b005b6103006108ad565b60405161030d91906138fb565b60405180910390f35b610330600480360381019061032b919061397c565b6108dd565b005b61034c60048036038101906103479190613860565b610a00565b60405161035991906139e8565b60405180910390f35b61037c60048036038101906103779190613860565b610a67565b604051610389919061367c565b60405180910390f35b6103ac60048036038101906103a79190613a34565b610abf565b6040516103ba929190613cc7565b60405180910390f35b6103cb610adc565b6040516103d89190613d1c565b60405180910390f35b6103e9610b00565b6040516103f69190613d44565b60405180910390f35b61041960048036038101906104149190613860565b610b24565b005b61043560048036038101906104309190613db2565b610bfe565b6040516104429190613d44565b60405180910390f35b61046560048036038101906104609190613860565b610c5a565b604051610472919061367c565b60405180910390f35b61049560048036038101906104909190613df0565b610cb2565b6040516104a3929190613cc7565b60405180910390f35b6104b4611032565b6040516104c1919061367c565b60405180910390f35b6104e460048036038101906104df9190613e50565b611047565b6040516104f1919061379a565b60405180910390f35b6105026113a4565b60405161050f919061367c565b60405180910390f35b610532600480360381019061052d9190613ed4565b6113ba565b005b61054e60048036038101906105499190613633565b611455565b005b61056a60048036038101906105659190613f54565b611a5a565b005b61058660048036038101906105819190613fb1565b611d5e565b005b6105a2600480360381019061059d9190613860565b611dad565b6040516105af9190613ffe565b60405180910390f35b6105d260048036038101906105cd9190613860565b611e02565b005b6105ee60048036038101906105e99190614017565b611f1f565b6040516105fb9190614080565b60405180910390f35b61061e60048036038101906106199190613860565b612000565b005b610628612162565b60405161063591906140b9565b60405180910390f35b61065860048036038101906106539190613a34565b612186565b604051610666929190613cc7565b60405180910390f35b6106776121a3565b6040516106849190613d44565b60405180910390f35b5f60045f8373ffffffffffffffffffffffffffffffffffffffff1673ffffffffffffffffffffffffffffffffffffffff1681526020019081526020015f205f0160049054906101000a900463ffffffff169050919050565b7f000000000000000000000000000000000000000000000000000000000000000081565b5f61072c6107178484612242565b61072085612274565b80519060200120612370565b905092915050565b7f000000000000000000000000000000000000000000000000000000000000000081565b5f60045f8373ffffffffffffffffffffffffffffffffffffffff1673ffffffffffffffffffffffffffffffffffffffff1681526020019081526020015f205f015f9054906101000a900463ffffffff169050919050565b7f000000000000000000000000000000000000000000000000000000000000000081565b806107dd81612384565b610813576040517f932d94f700000000000000000000000000000000000000000000000000000000815260040160405180910390fd5b8161086960035f8373ffffffffffffffffffffffffffffffffffffffff1673ffffffffffffffffffffffffffffffffffffffff1681526020019081526020015f205f01601c9054906101000a900460ff1661244e565b61089f576040517f609749e200000000000000000000000000000000000000000000000000000000815260040160405180910390fd5b6108a88361247e565b505050565b60606108d87f0000000000000000000000000000000000000000000000000000000000000000612606565b905090565b826108e781612384565b61091d576040517f932d94f700000000000000000000000000000000000000000000000000000000815260040160405180910390fd5b8361097360035f8373ffffffffffffffffffffffffffffffffffffffff1673ffffffffffffffffffffffffffffffffffffffff1681526020019081526020015f205f01601c9054906101000a900460ff1661244e565b6109a9576040517f609749e200000000000000000000000000000000000000000000000000000000815260040160405180910390fd5b8473ffffffffffffffffffffffffffffffffffffffff167fc874c4e2852c19bd03d42a5232ce93e85f2da325dddac46c2472043b7f0d7e8d85856040516109f192919061410c565b60405180910390a25050505050565b5f60035f8373ffffffffffffffffffffffffffffffffffffffff1673ffffffffffffffffffffffffffffffffffffffff1681526020019081526020015f205f015f9054906101000a900473ffffffffffffffffffffffffffffffffffffffff169050919050565b5f60035f8373ffffffffffffffffffffffffffffffffffffffff1673ffffffffffffffffffffffffffffffffffffffff1681526020019081526020015f205f0160149054906101000a900463ffffffff169050919050565b606080610ad061267886868661270e565b91509150935093915050565b7f000000000000000000000000000000000000000000000000000000000000000081565b7facd45e8bd36cea31aec6cd4552b994e6bfbda89766b3171349ace038b1b8267f81565b80610b2e81612384565b610b64576040517f932d94f700000000000000000000000000000000000000000000000000000000815260040160405180910390fd5b81610bba60035f8373ffffffffffffffffffffffffffffffffffffffff1673ffffffffffffffffffffffffffffffffffffffff1681526020019081526020015f205f01601c9054906101000a900460ff166129e8565b610bf0576040517f609749e200000000000000000000000000000000000000000000000000000000815260040160405180910390fd5b610bf983612a47565b505050565b5f610c527facd45e8bd36cea31aec6cd4552b994e6bfbda89766b3171349ace038b1b8267f8484604051602001610c379392919061413d565b60405160208183030381529060405280519060200120612afd565b905092915050565b5f60035f8373ffffffffffffffffffffffffffffffffffffffff1673ffffffffffffffffffffffffffffffffffffffff1681526020019081526020015f205f0160189054906101000a900463ffffffff169050919050565b6060805f610cc06001612b35565b9050808510610d70575f67ffffffffffffffff811115610ce357610ce2614172565b5b604051908082528060200260200182016040528015610d115781602001602082028036833780820191505090505b505f67ffffffffffffffff811115610d2c57610d2b614172565b5b604051908082528060200260200182016040528015610d6557816020015b610d52613579565b815260200190600190039081610d4a5790505b50925092505061102b565b5f818587610d7e91906141cc565b11610d94578486610d8f91906141cc565b610d96565b815b90505f8682610da591906141ff565b90508067ffffffffffffffff811115610dc157610dc0614172565b5b604051908082528060200260200182016040528015610def5781602001602082028036833780820191505090505b5094508067ffffffffffffffff811115610e0c57610e0b614172565b5b604051908082528060200260200182016040528015610e4557816020015b610e32613579565b815260200190600190039081610e2a5790505b5093505f5f90505b8181101561102657610e748189610e6491906141cc565b6001612b4890919063ffffffff16565b868281518110610e8757610e86614232565b5b602002602001019073ffffffffffffffffffffffffffffffffffffffff16908173ffffffffffffffffffffffffffffffffffffffff168152505060035f878381518110610ed757610ed6614232565b5b602002602001015173ffffffffffffffffffffffffffffffffffffffff1673ffffffffffffffffffffffffffffffffffffffff1681526020019081526020015f206040518060800160405290815f82015f9054906101000a900473ffffffffffffffffffffffffffffffffffffffff1673ffffffffffffffffffffffffffffffffffffffff1673ffffffffffffffffffffffffffffffffffffffff1681526020015f820160149054906101000a900463ffffffff1663ffffffff1663ffffffff1681526020015f820160189054906101000a900463ffffffff1663ffffffff1663ffffffff1681526020015f8201601c9054906101000a900460ff166004811115610fe557610fe4613b82565b5b6004811115610ff757610ff6613b82565b5b8152505085828151811061100e5761100d614232565b5b60200260200101819052508080600101915050610e4d565b505050505b9250929050565b60055f9054906101000a900463ffffffff1681565b5f61105133612b5f565b5f7f000000000000000000000000000000000000000000000000000000000000000073ffffffffffffffffffffffffffffffffffffffff16633a10eef76040518163ffffffff1660e01b81526004016020604051808303815f875af11580156110bc573d5f5f3e3d5ffd5b505050506040513d601f19601f820116820180604052508101906110e09190614273565b90507f000000000000000000000000000000000000000000000000000000000000000073ffffffffffffffffffffffffffffffffffffffff16634840a67c60405180604001604052807f000000000000000000000000000000000000000000000000000000000000000073ffffffffffffffffffffffffffffffffffffffff1681526020018463ffffffff168152506040518263ffffffff1660e01b815260040161118b9190614315565b5f604051808303815f87803b1580156111a2575f5ffd5b505af11580156111b4573d5f5f3e3d5ffd5b505050506111d45f6111c63387612242565b6111cf33612274565b612cf8565b91508060035f8473ffffffffffffffffffffffffffffffffffffffff1673ffffffffffffffffffffffffffffffffffffffff1681526020019081526020015f205f0160146101000a81548163ffffffff021916908363ffffffff1602179055505f60035f8473ffffffffffffffffffffffffffffffffffffffff1673ffffffffffffffffffffffffffffffffffffffff1681526020019081526020015f205f0160186101000a81548163ffffffff021916908363ffffffff1602179055503360035f8473ffffffffffffffffffffffffffffffffffffffff1673ffffffffffffffffffffffffffffffffffffffff1681526020019081526020015f205f015f6101000a81548173ffffffffffffffffffffffffffffffffffffffff021916908373ffffffffffffffffffffffffffffffffffffffff160217905550611323826001612dff90919063ffffffff16565b508173ffffffffffffffffffffffffffffffffffffffff163373ffffffffffffffffffffffffffffffffffffffff167fe9e6e5409b80e2dab7d38194fb370b2e8045a1af28177b94ddcf19d2495d758983604051611381919061367c565b60405180910390a36113938284612e2c565b5061139d8261247e565b5092915050565b600560049054906101000a900463ffffffff1681565b306113c481612384565b6113fa576040517f932d94f700000000000000000000000000000000000000000000000000000000815260040160405180910390fd5b8160055f6101000a81548163ffffffff021916908363ffffffff1602179055507fc3c99803ad2e80be7382791ca0b23147a94739b9e66a656b9c8c47f9d696341482604051611449919061367c565b60405180910390a15050565b5f5f60019054906101000a900460ff16159050808015611485575060015f5f9054906101000a900460ff1660ff16105b806114b2575061149430613083565b1580156114b1575060015f5f9054906101000a900460ff1660ff16145b5b6114f1576040517f08c379a00000000000000000000000000000000000000000000000000000000081526004016114e8906143b1565b60405180910390fd5b60015f5f6101000a81548160ff021916908360ff160217905550801561152c5760015f60016101000a81548160ff0219169083151502179055505b7f000000000000000000000000000000000000000000000000000000000000000073ffffffffffffffffffffffffffffffffffffffff1663628806ef7f00000000000000000000000000000000000000000000000000000000000000006040518263ffffffff1660e01b81526004016115a591906139e8565b5f604051808303815f87803b1580156115bc575f5ffd5b505af11580156115ce573d5f5f3e3d5ffd5b505050507f000000000000000000000000000000000000000000000000000000000000000073ffffffffffffffffffffffffffffffffffffffff1663eb5a4e8730306040518363ffffffff1660e01b815260040161162d9291906143cf565b5f604051808303815f87803b158015611644575f5ffd5b505af1158015611656573d5f5f3e3d5ffd5b505050507f000000000000000000000000000000000000000000000000000000000000000073ffffffffffffffffffffffffffffffffffffffff1663628806ef306040518263ffffffff1660e01b81526004016116b391906139e8565b5f604051808303815f87803b1580156116ca575f5ffd5b505af11580156116dc573d5f5f3e3d5ffd5b505050507f000000000000000000000000000000000000000000000000000000000000000073ffffffffffffffffffffffffffffffffffffffff1663eb5a4e8730846040518363ffffffff1660e01b815260040161173b9291906143cf565b5f604051808303815f87803b158015611752575f5ffd5b505af1158015611764573d5f5f3e3d5ffd5b505050505f7f000000000000000000000000000000000000000000000000000000000000000073ffffffffffffffffffffffffffffffffffffffff16633a10eef76040518163ffffffff1660e01b81526004016020604051808303815f875af11580156117d3573d5f5f3e3d5ffd5b505050506040513d601f19601f820116820180604052508101906117f79190614273565b90507f000000000000000000000000000000000000000000000000000000000000000073ffffffffffffffffffffffffffffffffffffffff166374da4713826040518263ffffffff1660e01b8152600401611852919061367c565b5f604051808303815f87803b158015611869575f5ffd5b505af115801561187b573d5f5f3e3d5ffd5b505050507f000000000000000000000000000000000000000000000000000000000000000073ffffffffffffffffffffffffffffffffffffffff16631017873a60405180604001604052807f000000000000000000000000000000000000000000000000000000000000000073ffffffffffffffffffffffffffffffffffffffff1681526020018463ffffffff168152507f00000000000000000000000000000000000000000000000000000000000000006040518363ffffffff1660e01b815260040161194a9291906143f6565b5f604051808303815f87803b158015611961575f5ffd5b505af1158015611973573d5f5f3e3d5ffd5b505050507f000000000000000000000000000000000000000000000000000000000000000073ffffffffffffffffffffffffffffffffffffffff16634ca62978826040518263ffffffff1660e01b81526004016119d0919061367c565b5f604051808303815f87803b1580156119e7575f5ffd5b505af11580156119f9573d5f5f3e3d5ffd5b50505050508015611a56575f5f60016101000a81548160ff0219169083151502179055507f7f26b83ff96e1f2b6a682f133852f6798a09c465da95921460cefb38474024986001604051611a4d9190614462565b60405180910390a15b5050565b8273ffffffffffffffffffffffffffffffffffffffff163373ffffffffffffffffffffffffffffffffffffffff161480611a995750611a9830612384565b5b611acf576040517f932d94f700000000000000000000000000000000000000000000000000000000815260040160405180910390fd5b5f5f90505b82829050811015611cc0575f838383818110611af357611af2614232565b5b9050602002016020810190611b089190613860565b90505f60035f8373ffffffffffffffffffffffffffffffffffffffff1673ffffffffffffffffffffffffffffffffffffffff1681526020019081526020015f206040518060800160405290815f82015f9054906101000a900473ffffffffffffffffffffffffffffffffffffffff1673ffffffffffffffffffffffffffffffffffffffff1673ffffffffffffffffffffffffffffffffffffffff1681526020015f820160149054906101000a900463ffffffff1663ffffffff1663ffffffff1681526020015f820160189054906101000a900463ffffffff1663ffffffff1663ffffffff1681526020015f8201601c9054906101000a900460ff166004811115611c1557611c14613b82565b5b6004811115611c2757611c26613b82565b5b8152505090508573ffffffffffffffffffffffffffffffffffffffff16815f015173ffffffffffffffffffffffffffffffffffffffff1614611c95576040517f609749e200000000000000000000000000000000000000000000000000000000815260040160405180910390fd5b611ca281606001516129e8565b15611cb157611cb0826130a5565b5b50508080600101915050611ad4565b505f60045f8573ffffffffffffffffffffffffffffffffffffffff1673ffffffffffffffffffffffffffffffffffffffff1681526020019081526020015f205f0160049054906101000a900463ffffffff1663ffffffff1614611d4f576040517f0b9a8c7900000000000000000000000000000000000000000000000000000000815260040160405180910390fd5b611d59835f61315c565b505050565b30611d6881612384565b611d9e576040517f932d94f700000000000000000000000000000000000000000000000000000000815260040160405180910390fd5b611da8838361315c565b505050565b5f60035f8373ffffffffffffffffffffffffffffffffffffffff1673ffffffffffffffffffffffffffffffffffffffff1681526020019081526020015f205f01601c9054906101000a900460ff169050919050565b30611e0c81612384565b611e42576040517f932d94f700000000000000000000000000000000000000000000000000000000815260040160405180910390fd5b81611e9860035f8373ffffffffffffffffffffffffffffffffffffffff1673ffffffffffffffffffffffffffffffffffffffff1681526020019081526020015f205f01601c9054906101000a900460ff166129e8565b611ece576040517f609749e200000000000000000000000000000000000000000000000000000000815260040160405180910390fd5b611ed783612a47565b8273ffffffffffffffffffffffffffffffffffffffff167f4636ad9a0a072d9c8b05a5bcda7d33256c5401515e612c25c13273b378cb280960405160405180910390a2505050565b5f82611f2a81612384565b611f60576040517f932d94f700000000000000000000000000000000000000000000000000000000815260040160405180910390fd5b83611fb660035f8373ffffffffffffffffffffffffffffffffffffffff1673ffffffffffffffffffffffffffffffffffffffff1681526020019081526020015f205f01601c9054906101000a900460ff166129e8565b611fec576040517f609749e200000000000000000000000000000000000000000000000000000000815260040160405180910390fd5b611ff68585612e2c565b9250505092915050565b8061200a81612384565b612040576040517f932d94f700000000000000000000000000000000000000000000000000000000815260040160405180910390fd5b5f60035f8473ffffffffffffffffffffffffffffffffffffffff1673ffffffffffffffffffffffffffffffffffffffff1681526020019081526020015f2090506001600481111561209457612093613b82565b5b815f01601c9054906101000a900460ff1660048111156120b7576120b6613b82565b5b146120ee576040517f609749e200000000000000000000000000000000000000000000000000000000815260040160405180910390fd5b6002815f01601c6101000a81548160ff0219169083600481111561211557612114613b82565b5b02179055508273ffffffffffffffffffffffffffffffffffffffff167f143b9e3b5aa0fb8cf19b1bdb2eb8d7a94657d4b505070c667433d322b90b1f7860405160405180910390a2505050565b7f000000000000000000000000000000000000000000000000000000000000000081565b60608061219761320b86868661270e565b91509150935093915050565b5f7f8b73c3c69bb8fe3d512ecc4cf759cc79239f7b179b0ffacaa9a75d522b39400f6040518060400160405280600a81526020017f456967656e4c61796572000000000000000000000000000000000000000000008152508051906020012061220a6132ae565b80519060200120463060405160200161222795949392919061447b565b60405160208183030381529060405280519060200120905090565b5f8282604051602001612256929190614531565b60405160208183030381529060405280519060200120905092915050565b606060405180610940016040528061090e8152602001614f0561090e91397f000000000000000000000000000000000000000000000000000000000000000063c4d66de860e01b846040516024016122cc91906139e8565b604051602081830303815290604052907bffffffffffffffffffffffffffffffffffffffffffffffffffffffff19166020820180517bffffffffffffffffffffffffffffffffffffffffffffffffffffffff838183161783525050505060405160200161233a9291906145ae565b60405160208183030381529060405260405160200161235a929190614616565b6040516020818303038152906040529050919050565b5f61237c83833061331f565b905092915050565b5f7f000000000000000000000000000000000000000000000000000000000000000073ffffffffffffffffffffffffffffffffffffffff1663df595cb88333305f357fffffffff00000000000000000000000000000000000000000000000000000000166040518563ffffffff1660e01b81526004016124079493929190614639565b6020604051808303815f875af1158015612423573d5f5f3e3d5ffd5b505050506040513d601f19601f8201168201806040525081019061244791906146b1565b9050919050565b5f5f600481111561246257612461613b82565b5b82600481111561247557612474613b82565b5b14159050919050565b5f60035f8373ffffffffffffffffffffffffffffffffffffffff1673ffffffffffffffffffffffffffffffffffffffff1681526020019081526020015f209050600360048111156124d2576124d1613b82565b5b815f01601c9054906101000a900460ff1660048111156124f5576124f4613b82565b5b0361252c576040517f609749e200000000000000000000000000000000000000000000000000000000815260040160405180910390fd5b60048081111561253f5761253e613b82565b5b815f01601c9054906101000a900460ff16600481111561256257612561613b82565b5b0361259357612592815f015f9054906101000a900473ffffffffffffffffffffffffffffffffffffffff16612b5f565b5b6001815f01601c6101000a81548160ff021916908360048111156125ba576125b9613b82565b5b02179055508173ffffffffffffffffffffffffffffffffffffffff167f8426864999f5f9244a203f75107b05f8b474838bc43ff0d8abe18ee5f442751360405160405180910390a25050565b60605f61261283613349565b90505f602067ffffffffffffffff8111156126305761262f614172565b5b6040519080825280601f01601f1916602001820160405280156126625781602001600182028036833780820191505090505b5090508181528360208201528092505050919050565b5f8173ffffffffffffffffffffffffffffffffffffffff1660035f8573ffffffffffffffffffffffffffffffffffffffff1673ffffffffffffffffffffffffffffffffffffffff1681526020019081526020015f205f015f9054906101000a900473ffffffffffffffffffffffffffffffffffffffff1673ffffffffffffffffffffffffffffffffffffffff1614905092915050565b6060805f61271c6001612b35565b90508367ffffffffffffffff81111561273857612737614172565b5b6040519080825280602002602001820160405280156127665781602001602082028036833780820191505090505b5092508367ffffffffffffffff81111561278357612782614172565b5b6040519080825280602002602001820160405280156127bc57816020015b6127a9613579565b8152602001906001900390816127a15790505b5091505f5f90505f5f90505f5f90505b83811080156127da57508682105b156129d5575f6127f4826001612b4890919063ffffffff16565b9050612804818b8d63ffffffff16565b156129c0578884101561282557838061281c906146dc565b945050506129c2565b8087848151811061283957612838614232565b5b602002602001019073ffffffffffffffffffffffffffffffffffffffff16908173ffffffffffffffffffffffffffffffffffffffff168152505060035f8273ffffffffffffffffffffffffffffffffffffffff1673ffffffffffffffffffffffffffffffffffffffff1681526020019081526020015f206040518060800160405290815f82015f9054906101000a900473ffffffffffffffffffffffffffffffffffffffff1673ffffffffffffffffffffffffffffffffffffffff1673ffffffffffffffffffffffffffffffffffffffff1681526020015f820160149054906101000a900463ffffffff1663ffffffff1663ffffffff1681526020015f820160189054906101000a900463ffffffff1663ffffffff1663ffffffff1681526020015f8201601c9054906101000a900460ff16600481111561297d5761297c613b82565b5b600481111561298f5761298e613b82565b5b815250508684815181106129a6576129a5614232565b5b602002602001018190525082806129bc906146dc565b9350505b505b80806129cd906146dc565b9150506127cc565b5080855280845250505094509492505050565b5f600160048111156129fd576129fc613b82565b5b826004811115612a1057612a0f613b82565b5b1480612a40575060026004811115612a2b57612a2a613b82565b5b826004811115612a3e57612a3d613b82565b5b145b9050919050565b6003805f8373ffffffffffffffffffffffffffffffffffffffff1673ffffffffffffffffffffffffffffffffffffffff1681526020019081526020015f205f01601c6101000a81548160ff02191690836004811115612aa957612aa8613b82565b5b0217905550612ab781613397565b8073ffffffffffffffffffffffffffffffffffffffff167f2465e924a1e9a02843493e65702fd09152c8a631caf7b9b58e4b01ee20ced41660405160405180910390a250565b5f612b066121a3565b82604051602001612b18929190614777565b604051602081830303815290604052805190602001209050919050565b5f612b41825f016134bc565b9050919050565b5f612b55835f01836134cb565b5f1c905092915050565b5f60045f8373ffffffffffffffffffffffffffffffffffffffff1673ffffffffffffffffffffffffffffffffffffffff1681526020019081526020015f20905060055f9054906101000a900463ffffffff1663ffffffff16600560049054906101000a900463ffffffff1663ffffffff1610612c07576040517f42ca568f00000000000000000000000000000000000000000000000000000000815260040160405180910390fd5b805f015f9054906101000a900463ffffffff1663ffffffff16815f0160049054906101000a900463ffffffff1663ffffffff1610612c71576040517f82d7ade600000000000000000000000000000000000000000000000000000000815260040160405180910390fd5b6005600481819054906101000a900463ffffffff1680929190612c93906147ad565b91906101000a81548163ffffffff021916908363ffffffff16021790555050805f01600481819054906101000a900463ffffffff1680929190612cd5906147ad565b91906101000a81548163ffffffff021916908363ffffffff160217905550505050565b5f83471015612d3c576040517f08c379a0000000000000000000000000000000000000000000000000000000008152600401612d3390614822565b60405180910390fd5b5f825103612d7f576040517f08c379a0000000000000000000000000000000000000000000000000000000008152600401612d769061488a565b60405180910390fd5b8282516020840186f590505f73ffffffffffffffffffffffffffffffffffffffff168173ffffffffffffffffffffffffffffffffffffffff1603612df8576040517f08c379a0000000000000000000000000000000000000000000000000000000008152600401612def906148f2565b60405180910390fd5b9392505050565b5f612e24835f018373ffffffffffffffffffffffffffffffffffffffff165f1b6134f2565b905092915050565b5f600182805f0190612e3e919061491c565b805f0190612e4c9190614943565b905014612e85576040517f98c82cef00000000000000000000000000000000000000000000000000000000815260040160405180910390fd5b7f000000000000000000000000000000000000000000000000000000000000000073ffffffffffffffffffffffffffffffffffffffff16637c09ea8260405180604001604052807f000000000000000000000000000000000000000000000000000000000000000073ffffffffffffffffffffffffffffffffffffffff16815260200160035f8873ffffffffffffffffffffffffffffffffffffffff1673ffffffffffffffffffffffffffffffffffffffff1681526020019081526020015f205f0160149054906101000a900463ffffffff1663ffffffff1681525084805f0190612f70919061491c565b6040518363ffffffff1660e01b8152600401612f8d929190614c55565b6020604051808303815f875af1158015612fa9573d5f5f3e3d5ffd5b505050506040513d601f19601f82011682018060405250810190612fcd9190614c97565b90504360035f8573ffffffffffffffffffffffffffffffffffffffff1673ffffffffffffffffffffffffffffffffffffffff1681526020019081526020015f205f0160186101000a81548163ffffffff021916908363ffffffff1602179055508273ffffffffffffffffffffffffffffffffffffffff167fb5d2b7df0352a87a587a430bfceab43859b3b3c404f0425c4c1ab0675ed57b948284604051613075929190614e4a565b60405180910390a292915050565b5f5f8273ffffffffffffffffffffffffffffffffffffffff163b119050919050565b600460035f8373ffffffffffffffffffffffffffffffffffffffff1673ffffffffffffffffffffffffffffffffffffffff1681526020019081526020015f205f01601c6101000a81548160ff0219169083600481111561310857613107613b82565b5b021790555061311681613397565b8073ffffffffffffffffffffffffffffffffffffffff167fbb85757a09bd73484c9fb6857c3e9f8dbf92c3e22ce1655213c9481dacf81c6260405160405180910390a250565b8060045f8473ffffffffffffffffffffffffffffffffffffffff1673ffffffffffffffffffffffffffffffffffffffff1681526020019081526020015f205f015f6101000a81548163ffffffff021916908363ffffffff1602179055508173ffffffffffffffffffffffffffffffffffffffff167f708c955faa87ece750a9700c153a20797167e2fcbde9fca9186801f874663a99826040516131ff919061367c565b60405180910390a25050565b5f7f000000000000000000000000000000000000000000000000000000000000000073ffffffffffffffffffffffffffffffffffffffff16639100674584846040518363ffffffff1660e01b81526004016132679291906143cf565b602060405180830381865afa158015613282573d5f5f3e3d5ffd5b505050506040513d601f19601f820116820180604052508101906132a691906146b1565b905092915050565b60605f6132da7f0000000000000000000000000000000000000000000000000000000000000000612606565b9050805f815181106132ef576132ee614232565b5b602001015160f81c60f81b60405160200161330a9190614ec3565b60405160208183030381529060405291505090565b5f604051836040820152846020820152828152600b810160ff815360558120925050509392505050565b5f5f60ff835f1c169050601f81111561338e576040517fb3512b0c00000000000000000000000000000000000000000000000000000000815260040160405180910390fd5b80915050919050565b6005600481819054906101000a900463ffffffff16809291906133b990614edd565b91906101000a81548163ffffffff021916908363ffffffff160217905550505f60035f8373ffffffffffffffffffffffffffffffffffffffff1673ffffffffffffffffffffffffffffffffffffffff1681526020019081526020015f205f015f9054906101000a900473ffffffffffffffffffffffffffffffffffffffff16905060045f8273ffffffffffffffffffffffffffffffffffffffff1673ffffffffffffffffffffffffffffffffffffffff1681526020019081526020015f205f01600481819054906101000a900463ffffffff168092919061349990614edd565b91906101000a81548163ffffffff021916908363ffffffff160217905550505050565b5f815f01805490509050919050565b5f825f0182815481106134e1576134e0614232565b5b905f5260205f200154905092915050565b5f6134fd8383613559565b61354f57825f0182908060018154018082558091505060019003905f5260205f20015f9091909190915055825f0180549050836001015f8481526020019081526020015f208190555060019050613553565b5f90505b92915050565b5f5f836001015f8481526020019081526020015f20541415905092915050565b60405180608001604052805f73ffffffffffffffffffffffffffffffffffffffff1681526020015f63ffffffff1681526020015f63ffffffff1681526020015f60048111156135cb576135ca613b82565b5b81525090565b5f5ffd5b5f5ffd5b5f73ffffffffffffffffffffffffffffffffffffffff82169050919050565b5f613602826135d9565b9050919050565b613612816135f8565b811461361c575f5ffd5b50565b5f8135905061362d81613609565b92915050565b5f60208284031215613648576136476135d1565b5b5f6136558482850161361f565b91505092915050565b5f63ffffffff82169050919050565b6136768161365e565b82525050565b5f60208201905061368f5f83018461366d565b92915050565b5f819050919050565b5f6136b86136b36136ae846135d9565b613695565b6135d9565b9050919050565b5f6136c98261369e565b9050919050565b5f6136da826136bf565b9050919050565b6136ea816136d0565b82525050565b5f6020820190506137035f8301846136e1565b92915050565b5f819050919050565b61371b81613709565b8114613725575f5ffd5b50565b5f8135905061373681613712565b92915050565b5f5f60408385031215613752576137516135d1565b5b5f61375f8582860161361f565b925050602061377085828601613728565b9150509250929050565b5f613784826136bf565b9050919050565b6137948161377a565b82525050565b5f6020820190506137ad5f83018461378b565b92915050565b5f6137bd826136bf565b9050919050565b6137cd816137b3565b82525050565b5f6020820190506137e65f8301846137c4565b92915050565b5f6137f6826136bf565b9050919050565b613806816137ec565b82525050565b5f60208201905061381f5f8301846137fd565b92915050565b5f61382f826135f8565b9050919050565b61383f81613825565b8114613849575f5ffd5b50565b5f8135905061385a81613836565b92915050565b5f60208284031215613875576138746135d1565b5b5f6138828482850161384c565b91505092915050565b5f81519050919050565b5f82825260208201905092915050565b8281835e5f83830152505050565b5f601f19601f8301169050919050565b5f6138cd8261388b565b6138d78185613895565b93506138e78185602086016138a5565b6138f0816138b3565b840191505092915050565b5f6020820190508181035f83015261391381846138c3565b905092915050565b5f5ffd5b5f5ffd5b5f5ffd5b5f5f83601f84011261393c5761393b61391b565b5b8235905067ffffffffffffffff8111156139595761395861391f565b5b60208301915083600182028301111561397557613974613923565b5b9250929050565b5f5f5f60408486031215613993576139926135d1565b5b5f6139a08682870161384c565b935050602084013567ffffffffffffffff8111156139c1576139c06135d5565b5b6139cd86828701613927565b92509250509250925092565b6139e2816135f8565b82525050565b5f6020820190506139fb5f8301846139d9565b92915050565b5f819050919050565b613a1381613a01565b8114613a1d575f5ffd5b50565b5f81359050613a2e81613a0a565b92915050565b5f5f5f60608486031215613a4b57613a4a6135d1565b5b5f613a588682870161361f565b9350506020613a6986828701613a20565b9250506040613a7a86828701613a20565b9150509250925092565b5f81519050919050565b5f82825260208201905092915050565b5f819050602082019050919050565b613ab68161377a565b82525050565b5f613ac78383613aad565b60208301905092915050565b5f602082019050919050565b5f613ae982613a84565b613af38185613a8e565b9350613afe83613a9e565b805f5b83811015613b2e578151613b158882613abc565b9750613b2083613ad3565b925050600181019050613b01565b5085935050505092915050565b5f81519050919050565b5f82825260208201905092915050565b5f819050602082019050919050565b613b6d816135f8565b82525050565b613b7c8161365e565b82525050565b7f4e487b71000000000000000000000000000000000000000000000000000000005f52602160045260245ffd5b60058110613bc057613bbf613b82565b5b50565b5f819050613bd082613baf565b919050565b5f613bdf82613bc3565b9050919050565b613bef81613bd5565b82525050565b608082015f820151613c095f850182613b64565b506020820151613c1c6020850182613b73565b506040820151613c2f6040850182613b73565b506060820151613c426060850182613be6565b50505050565b5f613c538383613bf5565b60808301905092915050565b5f602082019050919050565b5f613c7582613b3b565b613c7f8185613b45565b9350613c8a83613b55565b805f5b83811015613cba578151613ca18882613c48565b9750613cac83613c5f565b925050600181019050613c8d565b5085935050505092915050565b5f6040820190508181035f830152613cdf8185613adf565b90508181036020830152613cf38184613c6b565b90509392505050565b5f613d06826136bf565b9050919050565b613d1681613cfc565b82525050565b5f602082019050613d2f5f830184613d0d565b92915050565b613d3e81613709565b82525050565b5f602082019050613d575f830184613d35565b92915050565b5f7fffffffff0000000000000000000000000000000000000000000000000000000082169050919050565b613d9181613d5d565b8114613d9b575f5ffd5b50565b5f81359050613dac81613d88565b92915050565b5f5f60408385031215613dc857613dc76135d1565b5b5f613dd585828601613d9e565b9250506020613de685828601613a20565b9150509250929050565b5f5f60408385031215613e0657613e056135d1565b5b5f613e1385828601613a20565b9250506020613e2485828601613a20565b9150509250929050565b5f5ffd5b5f60608284031215613e4757613e46613e2e565b5b81905092915050565b5f5f60408385031215613e6657613e656135d1565b5b5f613e7385828601613728565b925050602083013567ffffffffffffffff811115613e9457613e936135d5565b5b613ea085828601613e32565b9150509250929050565b613eb38161365e565b8114613ebd575f5ffd5b50565b5f81359050613ece81613eaa565b92915050565b5f60208284031215613ee957613ee86135d1565b5b5f613ef684828501613ec0565b91505092915050565b5f5f83601f840112613f1457613f1361391b565b5b8235905067ffffffffffffffff811115613f3157613f3061391f565b5b602083019150836020820283011115613f4d57613f4c613923565b5b9250929050565b5f5f5f60408486031215613f6b57613f6a6135d1565b5b5f613f788682870161361f565b935050602084013567ffffffffffffffff811115613f9957613f986135d5565b5b613fa586828701613eff565b92509250509250925092565b5f5f60408385031215613fc757613fc66135d1565b5b5f613fd48582860161361f565b9250506020613fe585828601613ec0565b9150509250929050565b613ff881613bd5565b82525050565b5f6020820190506140115f830184613fef565b92915050565b5f5f6040838503121561402d5761402c6135d1565b5b5f61403a8582860161384c565b925050602083013567ffffffffffffffff81111561405b5761405a6135d5565b5b61406785828601613e32565b9150509250929050565b61407a81613a01565b82525050565b5f6020820190506140935f830184614071565b92915050565b5f6140a3826136bf565b9050919050565b6140b381614099565b82525050565b5f6020820190506140cc5f8301846140aa565b92915050565b828183375f83830152505050565b5f6140eb8385613895565b93506140f88385846140d2565b614101836138b3565b840190509392505050565b5f6020820190508181035f8301526141258184866140e0565b90509392505050565b61413781613d5d565b82525050565b5f6060820190506141505f830186613d35565b61415d602083018561412e565b61416a6040830184614071565b949350505050565b7f4e487b71000000000000000000000000000000000000000000000000000000005f52604160045260245ffd5b7f4e487b71000000000000000000000000000000000000000000000000000000005f52601160045260245ffd5b5f6141d682613a01565b91506141e183613a01565b92508282019050808211156141f9576141f861419f565b5b92915050565b5f61420982613a01565b915061421483613a01565b925082820390508181111561422c5761422b61419f565b5b92915050565b7f4e487b71000000000000000000000000000000000000000000000000000000005f52603260045260245ffd5b5f8151905061426d81613eaa565b92915050565b5f60208284031215614288576142876135d1565b5b5f6142958482850161425f565b91505092915050565b604082015f8201516142b25f850182613b64565b5060208201516142c56020850182613b73565b50505050565b7f68747470733a2f2f656967656e636c6f75642e78797a000000000000000000005f82015250565b5f6142ff601683613895565b915061430a826142cb565b602082019050919050565b5f6060820190506143285f83018461429e565b8181036040830152614339816142f3565b905092915050565b7f496e697469616c697a61626c653a20636f6e747261637420697320616c7265615f8201527f647920696e697469616c697a6564000000000000000000000000000000000000602082015250565b5f61439b602e83613895565b91506143a682614341565b604082019050919050565b5f6020820190508181035f8301526143c88161438f565b9050919050565b5f6040820190506143e25f8301856139d9565b6143ef60208301846139d9565b9392505050565b5f6060820190506144095f83018561429e565b61441660408301846139d9565b9392505050565b5f819050919050565b5f60ff82169050919050565b5f61444c6144476144428461441d565b613695565b614426565b9050919050565b61445c81614432565b82525050565b5f6020820190506144755f830184614453565b92915050565b5f60a08201905061448e5f830188613d35565b61449b6020830187613d35565b6144a86040830186613d35565b6144b56060830185614071565b6144c260808301846139d9565b9695505050505050565b5f8160601b9050919050565b5f6144e2826144cc565b9050919050565b5f6144f3826144d8565b9050919050565b61450b614506826135f8565b6144e9565b82525050565b5f819050919050565b61452b61452682613709565b614511565b82525050565b5f61453c82856144fa565b60148201915061454c828461451a565b6020820191508190509392505050565b5f81519050919050565b5f82825260208201905092915050565b5f6145808261455c565b61458a8185614566565b935061459a8185602086016138a5565b6145a3816138b3565b840191505092915050565b5f6040820190506145c15f830185613d0d565b81810360208301526145d38184614576565b90509392505050565b5f81905092915050565b5f6145f08261455c565b6145fa81856145dc565b935061460a8185602086016138a5565b80840191505092915050565b5f61462182856145e6565b915061462d82846145e6565b91508190509392505050565b5f60808201905061464c5f8301876139d9565b61465960208301866139d9565b61466660408301856139d9565b614673606083018461412e565b95945050505050565b5f8115159050919050565b6146908161467c565b811461469a575f5ffd5b50565b5f815190506146ab81614687565b92915050565b5f602082840312156146c6576146c56135d1565b5b5f6146d38482850161469d565b91505092915050565b5f6146e682613a01565b91507fffffffffffffffffffffffffffffffffffffffffffffffffffffffffffffffff82036147185761471761419f565b5b600182019050919050565b5f81905092915050565b7f19010000000000000000000000000000000000000000000000000000000000005f82015250565b5f614761600283614723565b915061476c8261472d565b600282019050919050565b5f61478182614755565b915061478d828561451a565b60208201915061479d828461451a565b6020820191508190509392505050565b5f6147b78261365e565b915063ffffffff82036147cd576147cc61419f565b5b600182019050919050565b7f437265617465323a20696e73756666696369656e742062616c616e63650000005f82015250565b5f61480c601d83613895565b9150614817826147d8565b602082019050919050565b5f6020820190508181035f83015261483981614800565b9050919050565b7f437265617465323a2062797465636f6465206c656e677468206973207a65726f5f82015250565b5f614874602083613895565b915061487f82614840565b602082019050919050565b5f6020820190508181035f8301526148a181614868565b9050919050565b7f437265617465323a204661696c6564206f6e206465706c6f79000000000000005f82015250565b5f6148dc601983613895565b91506148e7826148a8565b602082019050919050565b5f6020820190508181035f830152614909816148d0565b9050919050565b5f5ffd5b5f5ffd5b5f5ffd5b5f8235600160400383360303811261493757614936614910565b5b80830191505092915050565b5f5f8335600160200384360303811261495f5761495e614910565b5b80840192508235915067ffffffffffffffff82111561498157614980614914565b5b60208301925060208202360383131561499d5761499c614918565b5b509250929050565b5f5ffd5b5f5ffd5b5f5ffd5b5f5f833560016020038436030381126149cd576149cc6149ad565b5b83810192508235915060208301925067ffffffffffffffff8211156149f5576149f46149a5565b5b602082023603831315614a0b57614a0a6149a9565b5b509250929050565b5f82825260208201905092915050565b5f819050919050565b5f614a3a6020840184613728565b905092915050565b614a4b81613709565b82525050565b5f5f83356001602003843603038112614a6d57614a6c6149ad565b5b83810192508235915060208301925067ffffffffffffffff821115614a9557614a946149a5565b5b600182023603831315614aab57614aaa6149a9565b5b509250929050565b5f82825260208201905092915050565b5f614ace8385614ab3565b9350614adb8385846140d2565b614ae4836138b3565b840190509392505050565b5f60408301614b005f840184614a2c565b614b0c5f860182614a42565b50614b1a6020840184614a51565b8583036020870152614b2d838284614ac3565b925050508091505092915050565b5f614b468383614aef565b905092915050565b5f82356001604003833603038112614b6957614b686149ad565b5b82810191505092915050565b5f602082019050919050565b5f614b8c8385614a13565b935083602084028501614b9e84614a23565b805f5b87811015614be1578484038952614bb88284614b4e565b614bc28582614b3b565b9450614bcd83614b75565b925060208a01995050600181019050614ba1565b50829750879450505050509392505050565b5f614c016020840184613ec0565b905092915050565b5f60408301614c1a5f8401846149b1565b8583035f870152614c2c838284614b81565b92505050614c3d6020840184614bf3565b614c4a6020860182613b73565b508091505092915050565b5f606082019050614c685f83018561429e565b8181036040830152614c7a8184614c09565b90509392505050565b5f81519050614c9181613a0a565b92915050565b5f60208284031215614cac57614cab6135d1565b5b5f614cb984828501614c83565b91505092915050565b5f82356001604003833603038112614cdd57614cdc6149ad565b5b82810191505092915050565b5f60408301614cfa5f8401846149b1565b8583035f870152614d0c838284614b81565b92505050614d1d6020840184614bf3565b614d2a6020860182613b73565b508091505092915050565b5f5f83356001602003843603038112614d5157614d506149ad565b5b83810192508235915060208301925067ffffffffffffffff821115614d7957614d786149a5565b5b600182023603831315614d8f57614d8e6149a9565b5b509250929050565b5f82825260208201905092915050565b5f614db28385614d97565b9350614dbf8385846140d2565b614dc8836138b3565b840190509392505050565b5f60608301614de45f840184614cc2565b8482035f860152614df58282614ce9565b915050614e056020840184614d35565b8583036020870152614e18838284614da7565b92505050614e296040840184614d35565b8583036040870152614e3c838284614da7565b925050508091505092915050565b5f604082019050614e5d5f830185614071565b8181036020830152614e6f8184614dd3565b90509392505050565b5f7fff0000000000000000000000000000000000000000000000000000000000000082169050919050565b5f819050919050565b614ebd614eb882614e78565b614ea3565b82525050565b5f614ece8284614eac565b60018201915081905092915050565b5f614ee78261365e565b91505f8203614ef957614ef861419f565b5b60018203905091905056fe608060405260405161090e38038061090e83398101604081905261002291610460565b61002e82826000610035565b505061058a565b61003e83610100565b6040516001600160a01b038416907f1cf3b03a6cf19fa2baba4df148e9dcabedea7f8a5c07840e207e5c089be95d3e90600090a260008251118061007f5750805b156100fb576100f9836001600160a01b0316635c60da1b6040518163ffffffff1660e01b8152600401602060405180830381865afa1580156100c5573d6000803e3d6000fd5b505050506040513d601f19601f820116820180604052508101906100e99190610520565b836102a360201b6100291760201c565b505b505050565b610113816102cf60201b6100551760201c565b6101725760405162461bcd60e51b815260206004820152602560248201527f455243313936373a206e657720626561636f6e206973206e6f74206120636f6e6044820152641d1c9858dd60da1b60648201526084015b60405180910390fd5b6101e6816001600160a01b0316635c60da1b6040518163ffffffff1660e01b8152600401602060405180830381865afa1580156101b3573d6000803e3d6000fd5b505050506040513d601f19601f820116820180604052508101906101d79190610520565b6102cf60201b6100551760201c565b61024b5760405162461bcd60e51b815260206004820152603060248201527f455243313936373a20626561636f6e20696d706c656d656e746174696f6e206960448201526f1cc81b9bdd08184818dbdb9d1c9858dd60821b6064820152608401610169565b806102827fa3f0ad74e5423aebfd80d3ef4346578335a9a72aeaee59ff6cb3582b35133d5060001b6102de60201b6100641760201c565b80546001600160a01b0319166001600160a01b039290921691909117905550565b60606102c883836040518060600160405280602781526020016108e7602791396102e1565b9392505050565b6001600160a01b03163b151590565b90565b6060600080856001600160a01b0316856040516102fe919061053b565b600060405180830381855af49150503d8060008114610339576040519150601f19603f3d011682016040523d82523d6000602084013e61033e565b606091505b5090925090506103508683838761035a565b9695505050505050565b606083156103c65782516103bf576001600160a01b0385163b6103bf5760405162461bcd60e51b815260206004820152601d60248201527f416464726573733a2063616c6c20746f206e6f6e2d636f6e74726163740000006044820152606401610169565b50816103d0565b6103d083836103d8565b949350505050565b8151156103e85781518083602001fd5b8060405162461bcd60e51b81526004016101699190610557565b80516001600160a01b038116811461041957600080fd5b919050565b634e487b7160e01b600052604160045260246000fd5b60005b8381101561044f578181015183820152602001610437565b838111156100f95750506000910152565b6000806040838503121561047357600080fd5b61047c83610402565b60208401519092506001600160401b038082111561049957600080fd5b818501915085601f8301126104ad57600080fd5b8151818111156104bf576104bf61041e565b604051601f8201601f19908116603f011681019083821181831017156104e7576104e761041e565b8160405282815288602084870101111561050057600080fd5b610511836020830160208801610434565b80955050505050509250929050565b60006020828403121561053257600080fd5b6102c882610402565b6000825161054d818460208701610434565b9190910192915050565b6020815260008251806020840152610576816040850160208701610434565b601f01601f19169190910160400192915050565b61034e806105996000396000f3fe60806040523661001357610011610017565b005b6100115b610027610022610067565b610100565b565b606061004e83836040518060600160405280602781526020016102f260279139610124565b9392505050565b6001600160a01b03163b151590565b90565b600061009a7fa3f0ad74e5423aebfd80d3ef4346578335a9a72aeaee59ff6cb3582b35133d50546001600160a01b031690565b6001600160a01b0316635c60da1b6040518163ffffffff1660e01b8152600401602060405180830381865afa1580156100d7573d6000803e3d6000fd5b505050506040513d601f19601f820116820180604052508101906100fb9190610249565b905090565b3660008037600080366000845af43d6000803e80801561011f573d6000f35b3d6000fd5b6060600080856001600160a01b03168560405161014191906102a2565b600060405180830381855af49150503d806000811461017c576040519150601f19603f3d011682016040523d82523d6000602084013e610181565b606091505b50915091506101928683838761019c565b9695505050505050565b6060831561020d578251610206576001600160a01b0385163b6102065760405162461bcd60e51b815260206004820152601d60248201527f416464726573733a2063616c6c20746f206e6f6e2d636f6e747261637400000060448201526064015b60405180910390fd5b5081610217565b610217838361021f565b949350505050565b81511561022f5781518083602001fd5b8060405162461bcd60e51b81526004016101fd91906102be565b60006020828403121561025b57600080fd5b81516001600160a01b038116811461004e57600080fd5b60005b8381101561028d578181015183820152602001610275565b8381111561029c576000848401525b50505050565b600082516102b4818460208701610272565b9190910192915050565b60208152600082518060208401526102dd816040850160208701610272565b601f01601f1916919091016040019291505056fe416464726573733a206c6f772d6c6576656c2064656c65676174652063616c6c206661696c6564a2646970667358221220d51e81d3bc5ed20a26aeb05dce7e825c503b2061aa78628027300c8d65b9d89a64736f6c634300080c0033416464726573733a206c6f772d6c6576656c2064656c65676174652063616c6c206661696c6564a2646970667358221220b64e3db3c693b44fbd1bc13ebe175aef68e366fb22a4046f228787b1983b4fde64736f6c634300081c0033",
    "linkReferences": {}
  },
  "methodIdentifiers": {
    "API_PERMISSION_TYPEHASH()": "8a7f922c",
    "appBeacon()": "8a52d0b5",
    "calculateApiPermissionDigestHash(bytes4,uint256)": "9690b7e7",
    "calculateAppId(address,bytes32)": "36b18874",
    "computeAVSRegistrar()": "ef6d92c6",
    "computeOperator()": "3fc4cbfd",
    "createApp(bytes32,(((bytes32,string)[],uint32),bytes,bytes))": "a60daa8f",
    "domainSeparator()": "f698da25",
    "getActiveAppCount(address)": "0c2199fb",
    "getAppCreator(address)": "67962d48",
    "getAppLatestReleaseBlockNumber(address)": "9ffbdce6",
    "getAppOperatorSetId(address)": "6eb2099f",
    "getAppStatus(address)": "d5aae178",
    "getApps(uint256,uint256)": "a37e7e44",
    "getAppsByCreator(address,uint256,uint256)": "8099ef2e",
    "getAppsByDeveloper(address,uint256,uint256)": "f36618ac",
    "getMaxActiveAppsPerUser(address)": "40f70a9e",
    "globalActiveAppCount()": "a8aa2bd3",
    "initialize(address)": "c4d66de8",
    "maxGlobalActiveApps()": "a46530a2",
    "permissionController()": "4657e26a",
    "releaseManager()": "0d78573e",
    "setMaxActiveAppsPerUser(address,uint32)": "d49fec2b",
    "setMaxGlobalActiveApps(uint32)": "b438c141",
    "startApp(address)": "4dd8ef81",
    "stopApp(address)": "e70b81b1",
    "suspend(address,address[])": "cb1e6ff7",
    "terminateApp(address)": "90e2196b",
    "terminateAppByAdmin(address)": "d66f7771",
    "updateAppMetadataURI(address,string)": "65aa9a65",
    "upgradeApp(address,(((bytes32,string)[],uint32),bytes,bytes))": "d80a956b",
    "version()": "54fd4d50"
  },
  "id": 117
}