{
  "abi": [
    {
      "type": "constructor",
      "inputs": [
        {
          "name": "_version",
          "type": "string",
          "internalType": "string"
        },
        {
          "name": "_delegationManager",
          "type": "address",
          "internalType": "contract IDelegationManager"
        },
        {
          "name": "_allocationManager",
          "type": "address",
          "internalType": "contract IAllocationManager"
        },
        {
          "name": "_permissionController",
          "type": "address",
          "internalType": "contract IPermissionController"
        },
        {
          "name": "_appController",
          "type": "address",
          "internalType": "address"
        },
        {
          "name": "_computeAVSRegistrar",
          "type": "address",
          "internalType": "address"
        }
      ],
      "stateMutability": "nonpayable"
    },
    {
      "type": "function",
      "name": "allocationManager",
      "inputs": [],
      "outputs": [
        {
          "name": "",
          "type": "address",
          "internalType": "contract IAllocationManager"
        }
      ],
      "stateMutability": "view"
    },
    {
      "type": "function",
      "name": "appController",
      "inputs": [],
      "outputs": [
        {
          "name": "",
          "type": "address",
          "internalType": "address"
        }
      ],
      "stateMutability": "view"
    },
    {
      "type": "function",
      "name": "computeAVSRegistrar",
      "inputs": [],
      "outputs": [
        {
          "name": "",
          "type": "address",
          "internalType": "address"
        }
      ],
      "stateMutability": "view"
    },
    {
      "type": "function",
      "name": "delegationManager",
      "inputs": [],
      "outputs": [
        {
          "name": "",
          "type": "address",
          "internalType": "contract IDelegationManager"
        }
      ],
      "stateMutability": "view"
    },
    {
      "type": "function",
      "name": "initialize",
      "inputs": [
        {
          "name": "operatorMetadataURI",
          "type": "string",
          "internalType": "string"
        }
      ],
      "outputs": [],
      "stateMutability": "nonpayable"
    },
    {
      "type": "function",
      "name": "permissionController",
      "inputs": [],
      "outputs": [
        {
          "name": "",
          "type": "address",
          "internalType": "contract IPermissionController"
        }
      ],
      "stateMutability": "view"
    },
    {
      "type": "function",
      "name": "registerForOperatorSet",
      "inputs": [
        {
          "name": "operatorSetId",
          "type": "uint32",
          "internalType": "uint32"
        }
      ],
      "outputs": [],
      "stateMutability": "nonpayable"
    },
    {
      "type": "function",
      "name": "version",
      "inputs": [],
      "outputs": [
        {
          "name": "",
          "type": "string",
          "internalType": "string"
        }
      ],
      "stateMutability": "view"
    },
    {
      "type": "event",
      "name": "Initialized",
      "inputs": [
        {
          "name": "version",
          "type": "uint8",
          "indexed": false,
          "internalType": "uint8"
        }
      ],
      "anonymous": false
    },
    {
      "type": "error",
      "name": "InvalidShortString",
      "inputs": []
    },
    {
      "type": "error",
      "name": "NotAppController",
      "inputs": []
    },
    {
      "type": "error",
      "name": "NotComputeAVS",
      "inputs": []
    },
    {
      "type": "error",
      "name": "StringTooLong",
      "inputs": [
        {
          "name": "str",
          "type": "string",
          "internalType": "string"
        }
      ]
    }
  ],
  "bytecode": {
    "object": "0x610140604052348015610010575f5ffd5b506040516115a83803806115a8833981810160405281019061003291906104ee565b84848484848a6100478161017360201b60201c565b60808181525050508473ffffffffffffffffffffffffffffffffffffffff1660a08173ffffffffffffffffffffffffffffffffffffffff16815250508373ffffffffffffffffffffffffffffffffffffffff1660c08173ffffffffffffffffffffffffffffffffffffffff16815250508273ffffffffffffffffffffffffffffffffffffffff1660e08173ffffffffffffffffffffffffffffffffffffffff16815250508173ffffffffffffffffffffffffffffffffffffffff166101008173ffffffffffffffffffffffffffffffffffffffff16815250508073ffffffffffffffffffffffffffffffffffffffff166101208173ffffffffffffffffffffffffffffffffffffffff168152505050505050506101686101d860201b60201c565b50505050505061076f565b5f5f829050601f815111156101bf57826040517f305a27a90000000000000000000000000000000000000000000000000000000081526004016101b691906105e5565b60405180910390fd5b8051816101cb90610647565b5f1c175f1b915050919050565b5f60019054906101000a900460ff1615610227576040517f08c379a000000000000000000000000000000000000000000000000000000000815260040161021e9061071d565b60405180910390fd5b60ff80165f5f9054906101000a900460ff1660ff16146102945760ff5f5f6101000a81548160ff021916908360ff1602179055507f7f26b83ff96e1f2b6a682f133852f6798a09c465da95921460cefb384740249860ff60405161028b9190610756565b60405180910390a15b565b5f604051905090565b5f5ffd5b5f5ffd5b5f5ffd5b5f5ffd5b5f601f19601f8301169050919050565b7f4e487b71000000000000000000000000000000000000000000000000000000005f52604160045260245ffd5b6102f5826102af565b810181811067ffffffffffffffff82111715610314576103136102bf565b5b80604052505050565b5f610326610296565b905061033282826102ec565b919050565b5f67ffffffffffffffff821115610351576103506102bf565b5b61035a826102af565b9050602081019050919050565b8281835e5f83830152505050565b5f61038761038284610337565b61031d565b9050828152602081018484840111156103a3576103a26102ab565b5b6103ae848285610367565b509392505050565b5f82601f8301126103ca576103c96102a7565b5b81516103da848260208601610375565b91505092915050565b5f73ffffffffffffffffffffffffffffffffffffffff82169050919050565b5f61040c826103e3565b9050919050565b5f61041d82610402565b9050919050565b61042d81610413565b8114610437575f5ffd5b50565b5f8151905061044881610424565b92915050565b5f61045882610402565b9050919050565b6104688161044e565b8114610472575f5ffd5b50565b5f815190506104838161045f565b92915050565b5f61049382610402565b9050919050565b6104a381610489565b81146104ad575f5ffd5b50565b5f815190506104be8161049a565b92915050565b6104cd81610402565b81146104d7575f5ffd5b50565b5f815190506104e8816104c4565b92915050565b5f5f5f5f5f5f60c087890312156105085761050761029f565b5b5f87015167ffffffffffffffff811115610525576105246102a3565b5b61053189828a016103b6565b965050602061054289828a0161043a565b955050604061055389828a01610475565b945050606061056489828a016104b0565b935050608061057589828a016104da565b92505060a061058689828a016104da565b9150509295509295509295565b5f81519050919050565b5f82825260208201905092915050565b5f6105b782610593565b6105c1818561059d565b93506105d1818560208601610367565b6105da816102af565b840191505092915050565b5f6020820190508181035f8301526105fd81846105ad565b905092915050565b5f81519050919050565b5f819050602082019050919050565b5f819050919050565b5f610632825161061e565b80915050919050565b5f82821b905092915050565b5f61065182610605565b8261065b8461060f565b905061066681610627565b925060208210156106a6576106a17fffffffffffffffffffffffffffffffffffffffffffffffffffffffffffffffff8360200360080261063b565b831692505b5050919050565b7f496e697469616c697a61626c653a20636f6e747261637420697320696e6974695f8201527f616c697a696e6700000000000000000000000000000000000000000000000000602082015250565b5f61070760278361059d565b9150610712826106ad565b604082019050919050565b5f6020820190508181035f830152610734816106fb565b9050919050565b5f60ff82169050919050565b6107508161073b565b82525050565b5f6020820190506107695f830184610747565b92915050565b60805160a05160c05160e0516101005161012051610dd66107d25f395f81816102a8015261046501525f818161019c01526103f901525f61017801525f818161033c015261041d01525f8181610441015261056001525f6103ce0152610dd65ff3fe608060405234801561000f575f5ffd5b5060043610610086575f3560e01c8063ca8aa7c711610059578063ca8aa7c714610100578063ea4d3c9b1461011e578063ef6d92c61461013c578063f62d18881461015a57610086565b80634657e26a1461008a5780634ca62978146100a857806354fd4d50146100c45780637ede3ba7146100e2575b5f5ffd5b610092610176565b60405161009f91906107a3565b60405180910390f35b6100c260048036038101906100bd91906107fd565b61019a565b005b6100cc6103c7565b6040516100d99190610898565b60405180910390f35b6100ea6103f7565b6040516100f791906108d8565b60405180910390f35b61010861041b565b6040516101159190610911565b60405180910390f35b61012661043f565b604051610133919061094a565b60405180910390f35b610144610463565b60405161015191906108d8565b60405180910390f35b610174600480360381019061016f91906109c4565b610487565b005b7f000000000000000000000000000000000000000000000000000000000000000081565b7f000000000000000000000000000000000000000000000000000000000000000073ffffffffffffffffffffffffffffffffffffffff163373ffffffffffffffffffffffffffffffffffffffff161461021f576040517f626e239300000000000000000000000000000000000000000000000000000000815260040160405180910390fd5b5f600167ffffffffffffffff81111561023b5761023a610a0f565b5b6040519080825280602002602001820160405280156102695781602001602082028036833780820191505090505b50905081815f815181106102805761027f610a3c565b5b602002602001019063ffffffff16908163ffffffff16815250505f60405180606001604052807f000000000000000000000000000000000000000000000000000000000000000073ffffffffffffffffffffffffffffffffffffffff1681526020018381526020015f67ffffffffffffffff81111561030257610301610a0f565b5b6040519080825280601f01601f1916602001820160405280156103345781602001600182028036833780820191505090505b5081525090507f000000000000000000000000000000000000000000000000000000000000000073ffffffffffffffffffffffffffffffffffffffff1663adc2e3d930836040518363ffffffff1660e01b8152600401610395929190610bd5565b5f604051808303815f87803b1580156103ac575f5ffd5b505af11580156103be573d5f5f3e3d5ffd5b50505050505050565b60606103f27f0000000000000000000000000000000000000000000000000000000000000000610647565b905090565b7f000000000000000000000000000000000000000000000000000000000000000081565b7f000000000000000000000000000000000000000000000000000000000000000081565b7f000000000000000000000000000000000000000000000000000000000000000081565b7f000000000000000000000000000000000000000000000000000000000000000081565b5f5f60019054906101000a900460ff161590508080156104b7575060015f5f9054906101000a900460ff1660ff16105b806104e457506104c6306106b9565b1580156104e3575060015f5f9054906101000a900460ff1660ff16145b5b610523576040517f08c379a000000000000000000000000000000000000000000000000000000000815260040161051a90610c73565b60405180910390fd5b60015f5f6101000a81548160ff021916908360ff160217905550801561055e5760015f60016101000a81548160ff0219169083151502179055505b7f000000000000000000000000000000000000000000000000000000000000000073ffffffffffffffffffffffffffffffffffffffff16632aa6d8885f5f86866040518563ffffffff1660e01b81526004016105bd9493929190610d04565b5f604051808303815f87803b1580156105d4575f5ffd5b505af11580156105e6573d5f5f3e3d5ffd5b505050508015610642575f5f60016101000a81548160ff0219169083151502179055507f7f26b83ff96e1f2b6a682f133852f6798a09c465da95921460cefb384740249860016040516106399190610d87565b60405180910390a15b505050565b60605f610653836106db565b90505f602067ffffffffffffffff81111561067157610670610a0f565b5b6040519080825280601f01601f1916602001820160405280156106a35781602001600182028036833780820191505090505b5090508181528360208201528092505050919050565b5f5f8273ffffffffffffffffffffffffffffffffffffffff163b119050919050565b5f5f60ff835f1c169050601f811115610720576040517fb3512b0c00000000000000000000000000000000000000000000000000000000815260040160405180910390fd5b80915050919050565b5f73ffffffffffffffffffffffffffffffffffffffff82169050919050565b5f819050919050565b5f61076b61076661076184610729565b610748565b610729565b9050919050565b5f61077c82610751565b9050919050565b5f61078d82610772565b9050919050565b61079d81610783565b82525050565b5f6020820190506107b65f830184610794565b92915050565b5f5ffd5b5f5ffd5b5f63ffffffff82169050919050565b6107dc816107c4565b81146107e6575f5ffd5b50565b5f813590506107f7816107d3565b92915050565b5f60208284031215610812576108116107bc565b5b5f61081f848285016107e9565b91505092915050565b5f81519050919050565b5f82825260208201905092915050565b8281835e5f83830152505050565b5f601f19601f8301169050919050565b5f61086a82610828565b6108748185610832565b9350610884818560208601610842565b61088d81610850565b840191505092915050565b5f6020820190508181035f8301526108b08184610860565b905092915050565b5f6108c282610729565b9050919050565b6108d2816108b8565b82525050565b5f6020820190506108eb5f8301846108c9565b92915050565b5f6108fb82610772565b9050919050565b61090b816108f1565b82525050565b5f6020820190506109245f830184610902565b92915050565b5f61093482610772565b9050919050565b6109448161092a565b82525050565b5f60208201905061095d5f83018461093b565b92915050565b5f5ffd5b5f5ffd5b5f5ffd5b5f5f83601f84011261098457610983610963565b5b8235905067ffffffffffffffff8111156109a1576109a0610967565b5b6020830191508360018202830111156109bd576109bc61096b565b5b9250929050565b5f5f602083850312156109da576109d96107bc565b5b5f83013567ffffffffffffffff8111156109f7576109f66107c0565b5b610a038582860161096f565b92509250509250929050565b7f4e487b71000000000000000000000000000000000000000000000000000000005f52604160045260245ffd5b7f4e487b71000000000000000000000000000000000000000000000000000000005f52603260045260245ffd5b610a72816108b8565b82525050565b5f81519050919050565b5f82825260208201905092915050565b5f819050602082019050919050565b610aaa816107c4565b82525050565b5f610abb8383610aa1565b60208301905092915050565b5f602082019050919050565b5f610add82610a78565b610ae78185610a82565b9350610af283610a92565b805f5b83811015610b22578151610b098882610ab0565b9750610b1483610ac7565b925050600181019050610af5565b5085935050505092915050565b5f81519050919050565b5f82825260208201905092915050565b5f610b5382610b2f565b610b5d8185610b39565b9350610b6d818560208601610842565b610b7681610850565b840191505092915050565b5f606083015f830151610b965f860182610a69565b5060208301518482036020860152610bae8282610ad3565b91505060408301518482036040860152610bc88282610b49565b9150508091505092915050565b5f604082019050610be85f8301856108c9565b8181036020830152610bfa8184610b81565b90509392505050565b7f496e697469616c697a61626c653a20636f6e747261637420697320616c7265615f8201527f647920696e697469616c697a6564000000000000000000000000000000000000602082015250565b5f610c5d602e83610832565b9150610c6882610c03565b604082019050919050565b5f6020820190508181035f830152610c8a81610c51565b9050919050565b5f819050919050565b5f610cb4610caf610caa84610c91565b610748565b6107c4565b9050919050565b610cc481610c9a565b82525050565b828183375f83830152505050565b5f610ce38385610832565b9350610cf0838584610cca565b610cf983610850565b840190509392505050565b5f606082019050610d175f8301876108c9565b610d246020830186610cbb565b8181036040830152610d37818486610cd8565b905095945050505050565b5f819050919050565b5f60ff82169050919050565b5f610d71610d6c610d6784610d42565b610748565b610d4b565b9050919050565b610d8181610d57565b82525050565b5f602082019050610d9a5f830184610d78565b9291505056fea2646970667358221220c76db1583751f3dbe94ee59405740b2a5556b693e18c7c885ed3ad9578edf0a564736f6c634300081b0033",
    "linkReferences": {}
  },
  "methodIdentifiers": {
    "allocationManager()": "ca8aa7c7",
    "appController()": "7ede3ba7",
    "computeAVSRegistrar()": "ef6d92c6",
    "delegationManager()": "ea4d3c9b",
    "initialize(string)": "f62d1888",
    "permissionController()": "4657e26a",
    "registerForOperatorSet(uint32)": "4ca62978",
    "version()": "54fd4d50"
  },
  "id": 137
}