{
  "abi": [
    {
      "type": "constructor",
      "inputs": [
        {
          "name": "_version",
          "type": "string",
          "internalType": "string"
        },
        {
          "name": "_permissionController",
          "type": "address",
          "internalType": "contract IPermissionController"
        },
        {
          "name": "_releaseManager",
          "type": "address",
          "internalType": "contract IReleaseManager"
        },
        {
          "name": "_computeAVSRegistrar",
          "type": "address",
          "internalType": "contract IComputeAVSRegistrar"
        },
        {
          "name": "_computeOperator",
          "type": "address",
          "internalType": "contract IComputeOperator"
        },
        {
          "name": "_appBeacon",
          "type": "address",
          "internalType": "contract IBeacon"
        }
      ],
      "stateMutability": "nonpayable"
    },
    {
      "type": "function",
      "name": "API_PERMISSION_TYPEHASH",
      "inputs": [],
      "outputs": [
        {
          "name": "",
          "type": "bytes32",
          "internalType": "bytes32"
        }
      ],
      "stateMutability": "view"
    },
    {
      "type": "function",
      "name": "appBeacon",
      "inputs": [],
      "outputs": [
        {
          "name": "",
          "type": "address",
          "internalType": "contract IBeacon"
        }
      ],
      "stateMutability": "view"
    },
    {
      "type": "function",
      "name": "calculateApiPermissionDigestHash",
      "inputs": [
        {
          "name": "permission",
          "type": "bytes4",
          "internalType": "bytes4"
        },
        {
          "name": "expiry",
          "type": "uint256",
          "internalType": "uint256"
        }
      ],
      "outputs": [
        {
          "name": "",
          "type": "bytes32",
          "internalType": "bytes32"
        }
      ],
      "stateMutability": "view"
    },
    {
      "type": "function",
      "name": "calculateAppId",
      "inputs": [
        {
          "name": "deployer",
          "type": "address",
          "internalType": "address"
        },
        {
          "name": "salt",
          "type": "bytes32",
          "internalType": "bytes32"
        }
      ],
      "outputs": [
        {
          "name": "",
          "type": "address",
          "internalType": "contract IApp"
        }
      ],
      "stateMutability": "view"
    },
    {
      "type": "function",
      "name": "computeAVSRegistrar",
      "inputs": [],
      "outputs": [
        {
          "name": "",
          "type": "address",
          "internalType": "contract IComputeAVSRegistrar"
        }
      ],
      "stateMutability": "view"
    },
    {
      "type": "function",
      "name": "computeOperator",
      "inputs": [],
      "outputs": [
        {
          "name": "",
          "type": "address",
          "internalType": "contract IComputeOperator"
        }
      ],
      "stateMutability": "view"
    },
    {
      "type": "function",
      "name": "createApp",
      "inputs": [
        {
          "name": "salt",
          "type": "bytes32",
          "internalType": "bytes32"
        },
        {
          "name": "release",
          "type": "tuple",
          "internalType": "struct IAppController.Release",
          "components": [
            {
              "name": "rmsRelease",
              "type": "tuple",
              "internalType": "struct IReleaseManagerTypes.Release",
              "components": [
                {
                  "name": "artifacts",
                  "type": "tuple[]",
                  "internalType": "struct IReleaseManagerTypes.Artifact[]",
                  "components": [
                    {
                      "name": "digest",
                      "type": "bytes32",
                      "internalType": "bytes32"
                    },
                    {
                      "name": "registry",
                      "type": "string",
                      "internalType": "string"
                    }
                  ]
                },
                {
                  "name": "upgradeByTime",
                  "type": "uint32",
                  "internalType": "uint32"
                }
              ]
            },
            {
              "name": "publicEnv",
              "type": "bytes",
              "internalType": "bytes"
            },
            {
              "name": "encryptedEnv",
              "type": "bytes",
              "internalType": "bytes"
            }
          ]
        }
      ],
      "outputs": [
        {
          "name": "app",
          "type": "address",
          "internalType": "contract IApp"
        }
      ],
      "stateMutability": "nonpayable"
    },
    {
      "type": "function",
      "name": "createAppWithIsolatedBilling",
      "inputs": [
        {
          "name": "salt",
          "type": "bytes32",
          "internalType": "bytes32"
        },
        {
          "name": "release",
          "type": "tuple",
          "internalType": "struct IAppController.Release",
          "components": [
            {
              "name": "rmsRelease",
              "type": "tuple",
              "internalType": "struct IReleaseManagerTypes.Release",
              "components": [
                {
                  "name": "artifacts",
                  "type": "tuple[]",
                  "internalType": "struct IReleaseManagerTypes.Artifact[]",
                  "components": [
                    {
                      "name": "digest",
                      "type": "bytes32",
                      "internalType": "bytes32"
                    },
                    {
                      "name": "registry",
                      "type": "string",
                      "internalType": "string"
                    }
                  ]
                },
                {
                  "name": "upgradeByTime",
                  "type": "uint32",
                  "internalType": "uint32"
                }
              ]
            },
            {
              "name": "publicEnv",
              "type": "bytes",
              "internalType": "bytes"
            },
            {
              "name": "encryptedEnv",
              "type": "bytes",
              "internalType": "bytes"
            }
          ]
        }
      ],
      "outputs": [
        {
          "name": "app",
          "type": "address",
          "internalType": "contract IApp"
        }
      ],
      "stateMutability": "nonpayable"
    },
    {
      "type": "function",
      "name": "domainSeparator",
      "inputs": [],
      "outputs": [
        {
          "name": "",
          "type": "bytes32",
          "internalType": "bytes32"
        }
      ],
      "stateMutability": "view"
    },
    {
      "type": "function",
      "name": "getActiveAppCount",
      "inputs": [
        {
          "name": "user",
          "type": "address",
          "internalType": "address"
        }
      ],
      "outputs": [
        {
          "name": "",
          "type": "uint32",
          "internalType": "uint32"
        }
      ],
      "stateMutability": "view"
    },
    {
      "type": "function",
      "name": "getAppCreator",
      "inputs": [
        {
          "name": "app",
          "type": "address",
          "internalType": "contract IApp"
        }
      ],
      "outputs": [
        {
          "name": "",
          "type": "address",
          "internalType": "address"
        }
      ],
      "stateMutability": "view"
    },
    {
      "type": "function",
      "name": "getAppLatestReleaseBlockNumber",
      "inputs": [
        {
          "name": "app",
          "type": "address",
          "internalType": "contract IApp"
        }
      ],
      "outputs": [
        {
          "name": "",
          "type": "uint32",
          "internalType": "uint32"
        }
      ],
      "stateMutability": "view"
    },
    {
      "type": "function",
      "name": "getAppOperatorSetId",
      "inputs": [
        {
          "name": "app",
          "type": "address",
          "internalType": "contract IApp"
        }
      ],
      "outputs": [
        {
          "name": "",
          "type": "uint32",
          "internalType": "uint32"
        }
      ],
      "stateMutability": "view"
    },
    {
      "type": "function",
      "name": "getAppStatus",
      "inputs": [
        {
          "name": "app",
          "type": "address",
          "internalType": "contract IApp"
        }
      ],
      "outputs": [
        {
          "name": "",
          "type": "uint8",
          "internalType": "enum IAppController.AppStatus"
        }
      ],
      "stateMutability": "view"
    },
    {
      "type": "function",
      "name": "getApps",
      "inputs": [
        {
          "name": "offset",
          "type": "uint256",
          "internalType": "uint256"
        },
        {
          "name": "limit",
          "type": "uint256",
          "internalType": "uint256"
        }
      ],
      "outputs": [
        {
          "name": "apps",
          "type": "address[]",
          "internalType": "contract IApp[]"
        },
        {
          "name": "appConfigsMem",
          "type": "tuple[]",
          "internalType": "struct IAppController.AppConfig[]",
          "components": [
            {
              "name": "creator",
              "type": "address",
              "internalType": "address"
            },
            {
              "name": "operatorSetId",
              "type": "uint32",
              "internalType": "uint32"
            },
            {
              "name": "latestReleaseBlockNumber",
              "type": "uint32",
              "internalType": "uint32"
            },
            {
              "name": "status",
              "type": "uint8",
              "internalType": "enum IAppController.AppStatus"
            }
          ]
        }
      ],
      "stateMutability": "view"
    },
    {
      "type": "function",
      "name": "getAppsByBillingAccount",
      "inputs": [
        {
          "name": "account",
          "type": "address",
          "internalType": "address"
        },
        {
          "name": "offset",
          "type": "uint256",
          "internalType": "uint256"
        },
        {
          "name": "limit",
          "type": "uint256",
          "internalType": "uint256"
        }
      ],
      "outputs": [
        {
          "name": "apps",
          "type": "address[]",
          "internalType": "contract IApp[]"
        },
        {
          "name": "appConfigsMem",
          "type": "tuple[]",
          "internalType": "struct IAppController.AppConfig[]",
          "components": [
            {
              "name": "creator",
              "type": "address",
              "internalType": "address"
            },
            {
              "name": "operatorSetId",
              "type": "uint32",
              "internalType": "uint32"
            },
            {
              "name": "latestReleaseBlockNumber",
              "type": "uint32",
              "internalType": "uint32"
            },
            {
              "name": "status",
              "type": "uint8",
              "internalType": "enum IAppController.AppStatus"
            }
          ]
        }
      ],
      "stateMutability": "view"
    },
    {
      "type": "function",
      "name": "getAppsByCreator",
      "inputs": [
        {
          "name": "creator",
          "type": "address",
          "internalType": "address"
        },
        {
          "name": "offset",
          "type": "uint256",
          "internalType": "uint256"
        },
        {
          "name": "limit",
          "type": "uint256",
          "internalType": "uint256"
        }
      ],
      "outputs": [
        {
          "name": "apps",
          "type": "address[]",
          "internalType": "contract IApp[]"
        },
        {
          "name": "appConfigsMem",
          "type": "tuple[]",
          "internalType": "struct IAppController.AppConfig[]",
          "components": [
            {
              "name": "creator",
              "type": "address",
              "internalType": "address"
            },
            {
              "name": "operatorSetId",
              "type": "uint32",
              "internalType": "uint32"
            },
            {
              "name": "latestReleaseBlockNumber",
              "type": "uint32",
              "internalType": "uint32"
            },
            {
              "name": "status",
              "type": "uint8",
              "internalType": "enum IAppController.AppStatus"
            }
          ]
        }
      ],
      "stateMutability": "view"
    },
    {
      "type": "function",
      "name": "getAppsByDeveloper",
      "inputs": [
        {
          "name": "developer",
          "type": "address",
          "internalType": "address"
        },
        {
          "name": "offset",
          "type": "uint256",
          "internalType": "uint256"
        },
        {
          "name": "limit",
          "type": "uint256",
          "internalType": "uint256"
        }
      ],
      "outputs": [
        {
          "name": "apps",
          "type": "address[]",
          "internalType": "contract IApp[]"
        },
        {
          "name": "appConfigsMem",
          "type": "tuple[]",
          "internalType": "struct IAppController.AppConfig[]",
          "components": [
            {
              "name": "creator",
              "type": "address",
              "internalType": "address"
            },
            {
              "name": "operatorSetId",
              "type": "uint32",
              "internalType": "uint32"
            },
            {
              "name": "latestReleaseBlockNumber",
              "type": "uint32",
              "internalType": "uint32"
            },
            {
              "name": "status",
              "type": "uint8",
              "internalType": "enum IAppController.AppStatus"
            }
          ]
        }
      ],
      "stateMutability": "view"
    },
    {
      "type": "function",
      "name": "getBillingType",
      "inputs": [
        {
          "name": "app",
          "type": "address",
          "internalType": "contract IApp"
        }
      ],
      "outputs": [
        {
          "name": "",
          "type": "uint8",
          "internalType": "enum IAppController.BillingType"
        }
      ],
      "stateMutability": "view"
    },
    {
      "type": "function",
      "name": "getMaxActiveAppsPerUser",
      "inputs": [
        {
          "name": "user",
          "type": "address",
          "internalType": "address"
        }
      ],
      "outputs": [
        {
          "name": "",
          "type": "uint32",
          "internalType": "uint32"
        }
      ],
      "stateMutability": "view"
    },
    {
      "type": "function",
      "name": "globalActiveAppCount",
      "inputs": [],
      "outputs": [
        {
          "name": "",
          "type": "uint32",
          "internalType": "uint32"
        }
      ],
      "stateMutability": "view"
    },
    {
      "type": "function",
      "name": "initialize",
      "inputs": [
        {
          "name": "admin",
          "type": "address",
          "internalType": "address"
        }
      ],
      "outputs": [],
      "stateMutability": "nonpayable"
    },
    {
      "type": "function",
      "name": "maxGlobalActiveApps",
      "inputs": [],
      "outputs": [
        {
          "name": "",
          "type": "uint32",
          "internalType": "uint32"
        }
      ],
      "stateMutability": "view"
    },
    {
      "type": "function",
      "name": "permissionController",
      "inputs": [],
      "outputs": [
        {
          "name": "",
          "type": "address",
          "internalType": "contract IPermissionController"
        }
      ],
      "stateMutability": "view"
    },
    {
      "type": "function",
      "name": "releaseManager",
      "inputs": [],
      "outputs": [
        {
          "name": "",
          "type": "address",
          "internalType": "contract IReleaseManager"
        }
      ],
      "stateMutability": "view"
    },
    {
      "type": "function",
      "name": "setMaxActiveAppsPerUser",
      "inputs": [
        {
          "name": "user",
          "type": "address",
          "internalType": "address"
        },
        {
          "name": "limit",
          "type": "uint32",
          "internalType": "uint32"
        }
      ],
      "outputs": [],
      "stateMutability": "nonpayable"
    },
    {
      "type": "function",
      "name": "setMaxGlobalActiveApps",
      "inputs": [
        {
          "name": "limit",
          "type": "uint32",
          "internalType": "uint32"
        }
      ],
      "outputs": [],
      "stateMutability": "nonpayable"
    },
    {
      "type": "function",
      "name": "startApp",
      "inputs": [
        {
          "name": "app",
          "type": "address",
          "internalType": "contract IApp"
        }
      ],
      "outputs": [],
      "stateMutability": "nonpayable"
    },
    {
      "type": "function",
      "name": "stopApp",
      "inputs": [
        {
          "name": "app",
          "type": "address",
          "internalType": "contract IApp"
        }
      ],
      "outputs": [],
      "stateMutability": "nonpayable"
    },
    {
      "type": "function",
      "name": "suspend",
      "inputs": [
        {
          "name": "account",
          "type": "address",
          "internalType": "address"
        },
        {
          "name": "apps",
          "type": "address[]",
          "internalType": "contract IApp[]"
        }
      ],
      "outputs": [],
      "stateMutability": "nonpayable"
    },
    {
      "type": "function",
      "name": "terminateApp",
      "inputs": [
        {
          "name": "app",
          "type": "address",
          "internalType": "contract IApp"
        }
      ],
      "outputs": [],
      "stateMutability": "nonpayable"
    },
    {
      "type": "function",
      "name": "terminateAppByAdmin",
      "inputs": [
        {
          "name": "app",
          "type": "address",
          "internalType": "contract IApp"
        }
      ],
      "outputs": [],
      "stateMutability": "nonpayable"
    },
    {
      "type": "function",
      "name": "updateAppMetadataURI",
      "inputs": [
        {
          "name": "app",
          "type": "address",
          "internalType": "contract IApp"
        },
        {
          "name": "metadataURI",
          "type": "string",
          "internalType": "string"
        }
      ],
      "outputs": [],
      "stateMutability": "nonpayable"
    },
    {
      "type": "function",
      "name": "upgradeApp",
      "inputs": [
        {
          "name": "app",
          "type": "address",
          "internalType": "contract IApp"
        },
        {
          "name": "release",
          "type": "tuple",
          "internalType": "struct IAppController.Release",
          "components": [
            {
              "name": "rmsRelease",
              "type": "tuple",
              "internalType": "struct IReleaseManagerTypes.Release",
              "components": [
                {
                  "name": "artifacts",
                  "type": "tuple[]",
                  "internalType": "struct IReleaseManagerTypes.Artifact[]",
                  "components": [
                    {
                      "name": "digest",
                      "type": "bytes32",
                      "internalType": "bytes32"
                    },
                    {
                      "name": "registry",
                      "type": "string",
                      "internalType": "string"
                    }
                  ]
                },
                {
                  "name": "upgradeByTime",
                  "type": "uint32",
                  "internalType": "uint32"
                }
              ]
            },
            {
              "name": "publicEnv",
              "type": "bytes",
              "internalType": "bytes"
            },
            {
              "name": "encryptedEnv",
              "type": "bytes",
              "internalType": "bytes"
            }
          ]
        }
      ],
      "outputs": [
        {
          "name": "",
          "type": "uint256",
          "internalType": "uint256"
        }
      ],
      "stateMutability": "nonpayable"
    },
    {
      "type": "function",
      "name": "version",
      "inputs": [],
      "outputs": [
        {
          "name": "",
          "type": "string",
          "internalType": "string"
        }
      ],
      "stateMutability": "view"
    },
    {
      "type": "event",
      "name": "AppCreated",
      "inputs": [
        {
          "name": "creator",
          "type": "address",
          "indexed": true,
          "internalType": "address"
        },
        {
          "name": "app",
          "type": "address",
          "indexed": true,
          "internalType": "contract IApp"
        },
        {
          "name": "operatorSetId",
          "type": "uint32",
          "indexed": false,
          "internalType": "uint32"
        }
      ],
      "anonymous": false
    },
    {
      "type": "event",
      "name": "AppMetadataURIUpdated",
      "inputs": [
        {
          "name": "app",
          "type": "address",
          "indexed": true,
          "internalType": "contract IApp"
        },
        {
          "name": "metadataURI",
          "type": "string",
          "indexed": false,
          "internalType": "string"
        }
      ],
      "anonymous": false
    },
    {
      "type": "event",
      "name": "AppStarted",
      "inputs": [
        {
          "name": "app",
          "type": "address",
          "indexed": true,
          "internalType": "contract IApp"
        }
      ],
      "anonymous": false
    },
    {
      "type": "event",
      "name": "AppStopped",
      "inputs": [
        {
          "name": "app",
          "type": "address",
          "indexed": true,
          "internalType": "contract IApp"
        }
      ],
      "anonymous": false
    },
    {
      "type": "event",
      "name": "AppSuspended",
      "inputs": [
        {
          "name": "app",
          "type": "address",
          "indexed": true,
          "internalType": "contract IApp"
        }
      ],
      "anonymous": false
    },
    {
      "type": "event",
      "name": "AppTerminated",
      "inputs": [
        {
          "name": "app",
          "type": "address",
          "indexed": true,
          "internalType": "contract IApp"
        }
      ],
      "anonymous": false
    },
    {
      "type": "event",
      "name": "AppTerminatedByAdmin",
      "inputs": [
        {
          "name": "app",
          "type": "address",
          "indexed": true,
          "internalType": "contract IApp"
        }
      ],
      "anonymous": false
    },
    {
      "type": "event",
      "name": "AppUpgraded",
      "inputs": [
        {
          "name": "app",
          "type": "address",
          "indexed": true,
          "internalType": "contract IApp"
        },
        {
          "name": "rmsReleaseId",
          "type": "uint256",
          "indexed": false,
          "internalType": "uint256"
        },
        {
          "name": "release",
          "type": "tuple",
          "indexed": false,
          "internalType": "struct IAppController.Release",
          "components": [
            {
              "name": "rmsRelease",
              "type": "tuple",
              "internalType": "struct IReleaseManagerTypes.Release",
              "components": [
                {
                  "name": "artifacts",
                  "type": "tuple[]",
                  "internalType": "struct IReleaseManagerTypes.Artifact[]",
                  "components": [
                    {
                      "name": "digest",
                      "type": "bytes32",
                      "internalType": "bytes32"
                    },
                    {
                      "name": "registry",
                      "type": "string",
                      "internalType": "string"
                    }
                  ]
                },
                {
                  "name": "upgradeByTime",
                  "type": "uint32",
                  "internalType": "uint32"
                }
              ]
            },
            {
              "name": "publicEnv",
              "type": "bytes",
              "internalType": "bytes"
            },
            {
              "name": "encryptedEnv",
              "type": "bytes",
              "internalType": "bytes"
            }
          ]
        }
      ],
      "anonymous": false
    },
    {
      "type": "event",
      "name": "GlobalMaxActiveAppsSet",
      "inputs": [
        {
          "name": "limit",
          "type": "uint32",
          "indexed": false,
          "internalType": "uint32"
        }
      ],
      "anonymous": false
    },
    {
      "type": "event",
      "name": "Initialized",
      "inputs": [
        {
          "name": "version",
          "type": "uint8",
          "indexed": false,
          "internalType": "uint8"
        }
      ],
      "anonymous": false
    },
    {
      "type": "event",
      "name": "MaxActiveAppsSet",
      "inputs": [
        {
          "name": "user",
          "type": "address",
          "indexed": true,
          "internalType": "address"
        },
        {
          "name": "limit",
          "type": "uint32",
          "indexed": false,
          "internalType": "uint32"
        }
      ],
      "anonymous": false
    },
    {
      "type": "error",
      "name": "AccountHasActiveApps",
      "inputs": []
    },
    {
      "type": "error",
      "name": "AppAlreadyExists",
      "inputs": []
    },
    {
      "type": "error",
      "name": "AppDoesNotExist",
      "inputs": []
    },
    {
      "type": "error",
      "name": "GlobalMaxActiveAppsExceeded",
      "inputs": []
    },
    {
      "type": "error",
      "name": "InvalidAppStatus",
      "inputs": []
    },
    {
      "type": "error",
      "name": "InvalidPermissions",
      "inputs": []
    },
    {
      "type": "error",
      "name": "InvalidReleaseMetadataURI",
      "inputs": []
    },
    {
      "type": "error",
      "name": "InvalidShortString",
      "inputs": []
    },
    {
      "type": "error",
      "name": "InvalidSignature",
      "inputs": []
    },
    {
      "type": "error",
      "name": "MaxActiveAppsExceeded",
      "inputs": []
    },
    {
      "type": "error",
      "name": "MoreThanOneArtifact",
      "inputs": []
    },
    {
      "type": "error",
      "name": "SignatureExpired",
      "inputs": []
    },
    {
      "type": "error",
      "name": "StringTooLong",
      "inputs": [
        {
          "name": "str",
          "type": "string",
          "internalType": "string"
        }
      ]
    }
  ],
  "bytecode": {
    "object": "0x610140604052348015610010575f5ffd5b506040516162c93803806162c98339818101604052810190610032919061053c565b83828483888a806100488161017560201b60201c565b6080818152505050508073ffffffffffffffffffffffffffffffffffffffff1660a08173ffffffffffffffffffffffffffffffffffffffff1681525050508373ffffffffffffffffffffffffffffffffffffffff1660c08173ffffffffffffffffffffffffffffffffffffffff16815250508273ffffffffffffffffffffffffffffffffffffffff1660e08173ffffffffffffffffffffffffffffffffffffffff16815250508173ffffffffffffffffffffffffffffffffffffffff166101008173ffffffffffffffffffffffffffffffffffffffff16815250508073ffffffffffffffffffffffffffffffffffffffff166101208173ffffffffffffffffffffffffffffffffffffffff16815250505050505061016a6101da60201b60201c565b5050505050506107bd565b5f5f829050601f815111156101c157826040517f305a27a90000000000000000000000000000000000000000000000000000000081526004016101b89190610633565b60405180910390fd5b8051816101cd90610695565b5f1c175f1b915050919050565b5f60019054906101000a900460ff1615610229576040517f08c379a00000000000000000000000000000000000000000000000000000000081526004016102209061076b565b60405180910390fd5b60ff80165f5f9054906101000a900460ff1660ff16146102965760ff5f5f6101000a81548160ff021916908360ff1602179055507f7f26b83ff96e1f2b6a682f133852f6798a09c465da95921460cefb384740249860ff60405161028d91906107a4565b60405180910390a15b565b5f604051905090565b5f5ffd5b5f5ffd5b5f5ffd5b5f5ffd5b5f601f19601f8301169050919050565b7f4e487b71000000000000000000000000000000000000000000000000000000005f52604160045260245ffd5b6102f7826102b1565b810181811067ffffffffffffffff82111715610316576103156102c1565b5b80604052505050565b5f610328610298565b905061033482826102ee565b919050565b5f67ffffffffffffffff821115610353576103526102c1565b5b61035c826102b1565b9050602081019050919050565b8281835e5f83830152505050565b5f61038961038484610339565b61031f565b9050828152602081018484840111156103a5576103a46102ad565b5b6103b0848285610369565b509392505050565b5f82601f8301126103cc576103cb6102a9565b5b81516103dc848260208601610377565b91505092915050565b5f73ffffffffffffffffffffffffffffffffffffffff82169050919050565b5f61040e826103e5565b9050919050565b5f61041f82610404565b9050919050565b61042f81610415565b8114610439575f5ffd5b50565b5f8151905061044a81610426565b92915050565b5f61045a82610404565b9050919050565b61046a81610450565b8114610474575f5ffd5b50565b5f8151905061048581610461565b92915050565b5f61049582610404565b9050919050565b6104a58161048b565b81146104af575f5ffd5b50565b5f815190506104c08161049c565b92915050565b5f6104d082610404565b9050919050565b6104e0816104c6565b81146104ea575f5ffd5b50565b5f815190506104fb816104d7565b92915050565b5f61050b82610404565b9050919050565b61051b81610501565b8114610525575f5ffd5b50565b5f8151905061053681610512565b92915050565b5f5f5f5f5f5f60c08789031215610556576105556102a1565b5b5f87015167ffffffffffffffff811115610573576105726102a5565b5b61057f89828a016103b8565b965050602061059089828a0161043c565b95505060406105a189828a01610477565b94505060606105b289828a016104b2565b93505060806105c389828a016104ed565b92505060a06105d489828a01610528565b9150509295509295509295565b5f81519050919050565b5f82825260208201905092915050565b5f610605826105e1565b61060f81856105eb565b935061061f818560208601610369565b610628816102b1565b840191505092915050565b5f6020820190508181035f83015261064b81846105fb565b905092915050565b5f81519050919050565b5f819050602082019050919050565b5f819050919050565b5f610680825161066c565b80915050919050565b5f82821b905092915050565b5f61069f82610653565b826106a98461065d565b90506106b481610675565b925060208210156106f4576106ef7fffffffffffffffffffffffffffffffffffffffffffffffffffffffffffffffff83602003600802610689565b831692505b5050919050565b7f496e697469616c697a61626c653a20636f6e747261637420697320696e6974695f8201527f616c697a696e6700000000000000000000000000000000000000000000000000602082015250565b5f6107556027836105eb565b9150610760826106fb565b604082019050919050565b5f6020820190508181035f83015261078281610749565b9050919050565b5f60ff82169050919050565b61079e81610789565b82525050565b5f6020820190506107b75f830184610795565b92915050565b60805160a05160c05160e0516101005161012051615a396108905f395f8181610c0c015261203901525f818161127d0152818161147e0152818161150e01528181611594015281816115db01528181611f09015281816125a001528181612677015261304a01525f81816107e801528181611621015261168c01525f818161079901528181612630015261300301525f818161086301528181611241015281816112e70152818161136f015281816113f50152818161212c015261324201525f818161096601526132ea0152615a395ff3fe608060405234801561000f575f5ffd5b506004361061020f575f3560e01c80639690b7e711610123578063d49fec2b116100ab578063dbb1c4e11161007a578063dbb1c4e114610685578063e70b81b1146106b6578063ef6d92c6146106d2578063f36618ac146106f0578063f698da25146107215761020f565b8063d49fec2b146105ed578063d5aae17814610609578063d66f777114610639578063d80a956b146106555761020f565b8063a60daa8f116100f2578063a60daa8f1461054b578063a8aa2bd31461057b578063b438c14114610599578063c4d66de8146105b5578063cb1e6ff7146105d15761020f565b80639690b7e71461049c5780639ffbdce6146104cc578063a37e7e44146104fc578063a46530a21461052d5761020f565b8063559cf359116101a65780638099ef2e116101755780638099ef2e146103e357806385e9babb146104145780638a52d0b5146104445780638a7f922c1461046257806390e2196b146104805761020f565b8063559cf3591461033757806365aa9a651461036757806367962d48146103835780636eb2099f146103b35761020f565b806340f70a9e116101e257806340f70a9e146102af5780634657e26a146102df5780634dd8ef81146102fd57806354fd4d50146103195761020f565b80630c2199fb146102135780630d78573e1461024357806336b18874146102615780633fc4cbfd14610291575b5f5ffd5b61022d600480360381019061022891906137ee565b61073f565b60405161023a9190613837565b60405180910390f35b61024b610797565b60405161025891906138ab565b60405180910390f35b61027b600480360381019061027691906138f7565b6107bb565b6040516102889190613955565b60405180910390f35b6102996107e6565b6040516102a6919061398e565b60405180910390f35b6102c960048036038101906102c491906137ee565b61080a565b6040516102d69190613837565b60405180910390f35b6102e7610861565b6040516102f491906139c7565b60405180910390f35b61031760048036038101906103129190613a1b565b610885565b005b61032161095f565b60405161032e9190613ab6565b60405180910390f35b610351600480360381019061034c9190613af8565b61098f565b60405161035e9190613955565b60405180910390f35b610381600480360381019061037c9190613bb3565b6109b6565b005b61039d60048036038101906103989190613a1b565b610ad9565b6040516103aa9190613c1f565b60405180910390f35b6103cd60048036038101906103c89190613a1b565b610b40565b6040516103da9190613837565b60405180910390f35b6103fd60048036038101906103f89190613c6b565b610b98565b60405161040b929190613efe565b60405180910390f35b61042e60048036038101906104299190613a1b565b610bb5565b60405161043b9190613f79565b60405180910390f35b61044c610c0a565b6040516104599190613fb2565b60405180910390f35b61046a610c2e565b6040516104779190613fda565b60405180910390f35b61049a60048036038101906104959190613a1b565b610c52565b005b6104b660048036038101906104b19190614048565b610d2c565b6040516104c39190613fda565b60405180910390f35b6104e660048036038101906104e19190613a1b565b610d88565b6040516104f39190613837565b60405180910390f35b61051660048036038101906105119190614086565b610de0565b604051610524929190613efe565b60405180910390f35b610535611085565b6040516105429190613837565b60405180910390f35b61056560048036038101906105609190613af8565b61109a565b6040516105729190613955565b60405180910390f35b6105836110b7565b6040516105909190613837565b60405180910390f35b6105b360048036038101906105ae91906140ee565b6110cd565b005b6105cf60048036038101906105ca91906137ee565b611168565b005b6105eb60048036038101906105e6919061416e565b61176d565b005b610607600480360381019061060291906141cb565b611ae6565b005b610623600480360381019061061e9190613a1b565b611b35565b6040516106309190614218565b60405180910390f35b610653600480360381019061064e9190613a1b565b611b8a565b005b61066f600480360381019061066a9190614231565b611ca7565b60405161067c919061429a565b60405180910390f35b61069f600480360381019061069a9190613c6b565b611d88565b6040516106ad929190613efe565b60405180910390f35b6106d060048036038101906106cb9190613a1b565b611da5565b005b6106da611f07565b6040516106e791906142d3565b60405180910390f35b61070a60048036038101906107059190613c6b565b611f2b565b604051610718929190613efe565b60405180910390f35b610729611f48565b6040516107369190613fda565b60405180910390f35b5f60045f8373ffffffffffffffffffffffffffffffffffffffff1673ffffffffffffffffffffffffffffffffffffffff1681526020019081526020015f205f0160049054906101000a900463ffffffff169050919050565b7f000000000000000000000000000000000000000000000000000000000000000081565b5f6107de6107c98484611fe7565b6107d285612019565b80519060200120612115565b905092915050565b7f000000000000000000000000000000000000000000000000000000000000000081565b5f60045f8373ffffffffffffffffffffffffffffffffffffffff1673ffffffffffffffffffffffffffffffffffffffff1681526020019081526020015f205f015f9054906101000a900463ffffffff169050919050565b7f000000000000000000000000000000000000000000000000000000000000000081565b8061088f81612129565b6108c5576040517f932d94f700000000000000000000000000000000000000000000000000000000815260040160405180910390fd5b8161091b60035f8373ffffffffffffffffffffffffffffffffffffffff1673ffffffffffffffffffffffffffffffffffffffff1681526020019081526020015f205f01601c9054906101000a900460ff166121f3565b610951576040517f609749e200000000000000000000000000000000000000000000000000000000815260040160405180910390fd5b61095a83612223565b505050565b606061098a7f0000000000000000000000000000000000000000000000000000000000000000612391565b905090565b5f6109a261099d33856107bb565b612403565b6109ae8383600161259c565b905092915050565b826109c081612129565b6109f6576040517f932d94f700000000000000000000000000000000000000000000000000000000815260040160405180910390fd5b83610a4c60035f8373ffffffffffffffffffffffffffffffffffffffff1673ffffffffffffffffffffffffffffffffffffffff1681526020019081526020015f205f01601c9054906101000a900460ff166121f3565b610a82576040517f609749e200000000000000000000000000000000000000000000000000000000815260040160405180910390fd5b8473ffffffffffffffffffffffffffffffffffffffff167fc874c4e2852c19bd03d42a5232ce93e85f2da325dddac46c2472043b7f0d7e8d8585604051610aca929190614326565b60405180910390a25050505050565b5f60035f8373ffffffffffffffffffffffffffffffffffffffff1673ffffffffffffffffffffffffffffffffffffffff1681526020019081526020015f205f015f9054906101000a900473ffffffffffffffffffffffffffffffffffffffff169050919050565b5f60035f8373ffffffffffffffffffffffffffffffffffffffff1673ffffffffffffffffffffffffffffffffffffffff1681526020019081526020015f205f0160149054906101000a900463ffffffff169050919050565b606080610ba96129588686866129ee565b91509150935093915050565b5f60035f8373ffffffffffffffffffffffffffffffffffffffff1673ffffffffffffffffffffffffffffffffffffffff1681526020019081526020015f205f01601d9054906101000a900460ff169050919050565b7f000000000000000000000000000000000000000000000000000000000000000081565b7facd45e8bd36cea31aec6cd4552b994e6bfbda89766b3171349ace038b1b8267f81565b80610c5c81612129565b610c92576040517f932d94f700000000000000000000000000000000000000000000000000000000815260040160405180910390fd5b81610ce860035f8373ffffffffffffffffffffffffffffffffffffffff1673ffffffffffffffffffffffffffffffffffffffff1681526020019081526020015f205f01601c9054906101000a900460ff16612bed565b610d1e576040517f609749e200000000000000000000000000000000000000000000000000000000815260040160405180910390fd5b610d2783612c4c565b505050565b5f610d807facd45e8bd36cea31aec6cd4552b994e6bfbda89766b3171349ace038b1b8267f8484604051602001610d6593929190614357565b60405160208183030381529060405280519060200120612d02565b905092915050565b5f60035f8373ffffffffffffffffffffffffffffffffffffffff1673ffffffffffffffffffffffffffffffffffffffff1681526020019081526020015f205f0160189054906101000a900463ffffffff169050919050565b6060805f610dee6001612d3a565b9050808510610e9e575f67ffffffffffffffff811115610e1157610e1061438c565b5b604051908082528060200260200182016040528015610e3f5781602001602082028036833780820191505090505b505f67ffffffffffffffff811115610e5a57610e5961438c565b5b604051908082528060200260200182016040528015610e9357816020015b610e80613734565b815260200190600190039081610e785790505b50925092505061107e565b5f818587610eac91906143e6565b11610ec2578486610ebd91906143e6565b610ec4565b815b90505f8682610ed39190614419565b90508067ffffffffffffffff811115610eef57610eee61438c565b5b604051908082528060200260200182016040528015610f1d5781602001602082028036833780820191505090505b5094508067ffffffffffffffff811115610f3a57610f3961438c565b5b604051908082528060200260200182016040528015610f7357816020015b610f60613734565b815260200190600190039081610f585790505b5093505f5f90505b8181101561107957610fa28189610f9291906143e6565b6001612d4d90919063ffffffff16565b868281518110610fb557610fb461444c565b5b602002602001019073ffffffffffffffffffffffffffffffffffffffff16908173ffffffffffffffffffffffffffffffffffffffff168152505061104e60035f8884815181106110085761100761444c565b5b602002602001015173ffffffffffffffffffffffffffffffffffffffff1673ffffffffffffffffffffffffffffffffffffffff1681526020019081526020015f20612d64565b8582815181106110615761106061444c565b5b60200260200101819052508080600101915050610f7b565b505050505b9250929050565b60055f9054906101000a900463ffffffff1681565b5f6110a433612403565b6110af83835f61259c565b905092915050565b600560049054906101000a900463ffffffff1681565b306110d781612129565b61110d576040517f932d94f700000000000000000000000000000000000000000000000000000000815260040160405180910390fd5b8160055f6101000a81548163ffffffff021916908363ffffffff1602179055507fc3c99803ad2e80be7382791ca0b23147a94739b9e66a656b9c8c47f9d69634148260405161115c9190613837565b60405180910390a15050565b5f5f60019054906101000a900460ff16159050808015611198575060015f5f9054906101000a900460ff1660ff16105b806111c557506111a730612e20565b1580156111c4575060015f5f9054906101000a900460ff1660ff16145b5b611204576040517f08c379a00000000000000000000000000000000000000000000000000000000081526004016111fb906144e9565b60405180910390fd5b60015f5f6101000a81548160ff021916908360ff160217905550801561123f5760015f60016101000a81548160ff0219169083151502179055505b7f000000000000000000000000000000000000000000000000000000000000000073ffffffffffffffffffffffffffffffffffffffff1663628806ef7f00000000000000000000000000000000000000000000000000000000000000006040518263ffffffff1660e01b81526004016112b89190613c1f565b5f604051808303815f87803b1580156112cf575f5ffd5b505af11580156112e1573d5f5f3e3d5ffd5b505050507f000000000000000000000000000000000000000000000000000000000000000073ffffffffffffffffffffffffffffffffffffffff1663eb5a4e8730306040518363ffffffff1660e01b8152600401611340929190614507565b5f604051808303815f87803b158015611357575f5ffd5b505af1158015611369573d5f5f3e3d5ffd5b505050507f000000000000000000000000000000000000000000000000000000000000000073ffffffffffffffffffffffffffffffffffffffff1663628806ef306040518263ffffffff1660e01b81526004016113c69190613c1f565b5f604051808303815f87803b1580156113dd575f5ffd5b505af11580156113ef573d5f5f3e3d5ffd5b505050507f000000000000000000000000000000000000000000000000000000000000000073ffffffffffffffffffffffffffffffffffffffff1663eb5a4e8730846040518363ffffffff1660e01b815260040161144e929190614507565b5f604051808303815f87803b158015611465575f5ffd5b505af1158015611477573d5f5f3e3d5ffd5b505050505f7f000000000000000000000000000000000000000000000000000000000000000073ffffffffffffffffffffffffffffffffffffffff16633a10eef76040518163ffffffff1660e01b81526004016020604051808303815f875af11580156114e6573d5f5f3e3d5ffd5b505050506040513d601f19601f8201168201806040525081019061150a9190614542565b90507f000000000000000000000000000000000000000000000000000000000000000073ffffffffffffffffffffffffffffffffffffffff166374da4713826040518263ffffffff1660e01b81526004016115659190613837565b5f604051808303815f87803b15801561157c575f5ffd5b505af115801561158e573d5f5f3e3d5ffd5b505050507f000000000000000000000000000000000000000000000000000000000000000073ffffffffffffffffffffffffffffffffffffffff16631017873a60405180604001604052807f000000000000000000000000000000000000000000000000000000000000000073ffffffffffffffffffffffffffffffffffffffff1681526020018463ffffffff168152507f00000000000000000000000000000000000000000000000000000000000000006040518363ffffffff1660e01b815260040161165d92919061459a565b5f604051808303815f87803b158015611674575f5ffd5b505af1158015611686573d5f5f3e3d5ffd5b505050507f000000000000000000000000000000000000000000000000000000000000000073ffffffffffffffffffffffffffffffffffffffff16634ca62978826040518263ffffffff1660e01b81526004016116e39190613837565b5f604051808303815f87803b1580156116fa575f5ffd5b505af115801561170c573d5f5f3e3d5ffd5b50505050508015611769575f5f60016101000a81548160ff0219169083151502179055507f7f26b83ff96e1f2b6a682f133852f6798a09c465da95921460cefb384740249860016040516117609190614606565b60405180910390a15b5050565b8273ffffffffffffffffffffffffffffffffffffffff163373ffffffffffffffffffffffffffffffffffffffff1614806117ac57506117ab30612129565b5b6117e2576040517f932d94f700000000000000000000000000000000000000000000000000000000815260040160405180910390fd5b5f5f90505b82829050811015611a48575f8383838181106118065761180561444c565b5b905060200201602081019061181b9190613a1b565b90505f60035f8373ffffffffffffffffffffffffffffffffffffffff1673ffffffffffffffffffffffffffffffffffffffff1681526020019081526020015f206040518060a00160405290815f82015f9054906101000a900473ffffffffffffffffffffffffffffffffffffffff1673ffffffffffffffffffffffffffffffffffffffff1673ffffffffffffffffffffffffffffffffffffffff1681526020015f820160149054906101000a900463ffffffff1663ffffffff1663ffffffff1681526020015f820160189054906101000a900463ffffffff1663ffffffff1663ffffffff1681526020015f8201601c9054906101000a900460ff16600481111561192857611927613db9565b5b600481111561193a57611939613db9565b5b81526020015f8201601d9054906101000a900460ff16600181111561196257611961613db9565b5b600181111561197457611973613db9565b5b8152505090505f60018081111561198e5761198d613db9565b5b826080015160018111156119a5576119a4613db9565b5b146119b357815f01516119b5565b825b90508673ffffffffffffffffffffffffffffffffffffffff168173ffffffffffffffffffffffffffffffffffffffff1614611a1c576040517f609749e200000000000000000000000000000000000000000000000000000000815260040160405180910390fd5b611a298260600151612bed565b15611a3857611a3783612e42565b5b50505080806001019150506117e7565b505f60045f8573ffffffffffffffffffffffffffffffffffffffff1673ffffffffffffffffffffffffffffffffffffffff1681526020019081526020015f205f0160049054906101000a900463ffffffff1663ffffffff1614611ad7576040517f0b9a8c7900000000000000000000000000000000000000000000000000000000815260040160405180910390fd5b611ae1835f612ef9565b505050565b30611af081612129565b611b26576040517f932d94f700000000000000000000000000000000000000000000000000000000815260040160405180910390fd5b611b308383612ef9565b505050565b5f60035f8373ffffffffffffffffffffffffffffffffffffffff1673ffffffffffffffffffffffffffffffffffffffff1681526020019081526020015f205f01601c9054906101000a900460ff169050919050565b30611b9481612129565b611bca576040517f932d94f700000000000000000000000000000000000000000000000000000000815260040160405180910390fd5b81611c2060035f8373ffffffffffffffffffffffffffffffffffffffff1673ffffffffffffffffffffffffffffffffffffffff1681526020019081526020015f205f01601c9054906101000a900460ff16612bed565b611c56576040517f609749e200000000000000000000000000000000000000000000000000000000815260040160405180910390fd5b611c5f83612c4c565b8273ffffffffffffffffffffffffffffffffffffffff167f4636ad9a0a072d9c8b05a5bcda7d33256c5401515e612c25c13273b378cb280960405160405180910390a2505050565b5f82611cb281612129565b611ce8576040517f932d94f700000000000000000000000000000000000000000000000000000000815260040160405180910390fd5b83611d3e60035f8373ffffffffffffffffffffffffffffffffffffffff1673ffffffffffffffffffffffffffffffffffffffff1681526020019081526020015f205f01601c9054906101000a900460ff16612bed565b611d74576040517f609749e200000000000000000000000000000000000000000000000000000000815260040160405180910390fd5b611d7e8585612fa8565b9250505092915050565b606080611d996131ff8686866129ee565b91509150935093915050565b80611daf81612129565b611de5576040517f932d94f700000000000000000000000000000000000000000000000000000000815260040160405180910390fd5b5f60035f8473ffffffffffffffffffffffffffffffffffffffff1673ffffffffffffffffffffffffffffffffffffffff1681526020019081526020015f20905060016004811115611e3957611e38613db9565b5b815f01601c9054906101000a900460ff166004811115611e5c57611e5b613db9565b5b14611e93576040517f609749e200000000000000000000000000000000000000000000000000000000815260040160405180910390fd5b6002815f01601c6101000a81548160ff02191690836004811115611eba57611eb9613db9565b5b02179055508273ffffffffffffffffffffffffffffffffffffffff167f143b9e3b5aa0fb8cf19b1bdb2eb8d7a94657d4b505070c667433d322b90b1f7860405160405180910390a2505050565b7f000000000000000000000000000000000000000000000000000000000000000081565b606080611f3c61323f8686866129ee565b91509150935093915050565b5f7f8b73c3c69bb8fe3d512ecc4cf759cc79239f7b179b0ffacaa9a75d522b39400f6040518060400160405280600a81526020017f456967656e4c617965720000000000000000000000000000000000000000000081525080519060200120611faf6132e2565b805190602001204630604051602001611fcc95949392919061461f565b60405160208183030381529060405280519060200120905090565b5f8282604051602001611ffb9291906146d5565b60405160208183030381529060405280519060200120905092915050565b606060405180610940016040528061090e815260200161511f61090e91397f000000000000000000000000000000000000000000000000000000000000000063c4d66de860e01b846040516024016120719190613c1f565b604051602081830303815290604052907bffffffffffffffffffffffffffffffffffffffffffffffffffffffff19166020820180517bffffffffffffffffffffffffffffffffffffffffffffffffffffffff83818316178352505050506040516020016120df929190614752565b6040516020818303038152906040526040516020016120ff9291906147ba565b6040516020818303038152906040529050919050565b5f612121838330613353565b905092915050565b5f7f000000000000000000000000000000000000000000000000000000000000000073ffffffffffffffffffffffffffffffffffffffff1663df595cb88333305f357fffffffff00000000000000000000000000000000000000000000000000000000166040518563ffffffff1660e01b81526004016121ac94939291906147dd565b6020604051808303815f875af11580156121c8573d5f5f3e3d5ffd5b505050506040513d601f19601f820116820180604052508101906121ec9190614855565b9050919050565b5f5f600481111561220757612206613db9565b5b82600481111561221a57612219613db9565b5b14159050919050565b5f60035f8373ffffffffffffffffffffffffffffffffffffffff1673ffffffffffffffffffffffffffffffffffffffff1681526020019081526020015f2090506003600481111561227757612276613db9565b5b815f01601c9054906101000a900460ff16600481111561229a57612299613db9565b5b036122d1576040517f609749e200000000000000000000000000000000000000000000000000000000815260040160405180910390fd5b6004808111156122e4576122e3613db9565b5b815f01601c9054906101000a900460ff16600481111561230757612306613db9565b5b0361231e5761231d6123188361337d565b612403565b5b6001815f01601c6101000a81548160ff0219169083600481111561234557612344613db9565b5b02179055508173ffffffffffffffffffffffffffffffffffffffff167f8426864999f5f9244a203f75107b05f8b474838bc43ff0d8abe18ee5f442751360405160405180910390a25050565b60605f61239d8361342b565b90505f602067ffffffffffffffff8111156123bb576123ba61438c565b5b6040519080825280601f01601f1916602001820160405280156123ed5781602001600182028036833780820191505090505b5090508181528360208201528092505050919050565b5f60045f8373ffffffffffffffffffffffffffffffffffffffff1673ffffffffffffffffffffffffffffffffffffffff1681526020019081526020015f20905060055f9054906101000a900463ffffffff1663ffffffff16600560049054906101000a900463ffffffff1663ffffffff16106124ab576040517f42ca568f00000000000000000000000000000000000000000000000000000000815260040160405180910390fd5b805f015f9054906101000a900463ffffffff1663ffffffff16815f0160049054906101000a900463ffffffff1663ffffffff1610612515576040517f82d7ade600000000000000000000000000000000000000000000000000000000815260040160405180910390fd5b6005600481819054906101000a900463ffffffff168092919061253790614880565b91906101000a81548163ffffffff021916908363ffffffff16021790555050805f01600481819054906101000a900463ffffffff168092919061257990614880565b91906101000a81548163ffffffff021916908363ffffffff160217905550505050565b5f5f7f000000000000000000000000000000000000000000000000000000000000000073ffffffffffffffffffffffffffffffffffffffff16633a10eef76040518163ffffffff1660e01b81526004016020604051808303815f875af1158015612608573d5f5f3e3d5ffd5b505050506040513d601f19601f8201168201806040525081019061262c9190614542565b90507f000000000000000000000000000000000000000000000000000000000000000073ffffffffffffffffffffffffffffffffffffffff16634840a67c60405180604001604052807f000000000000000000000000000000000000000000000000000000000000000073ffffffffffffffffffffffffffffffffffffffff1681526020018463ffffffff168152506040518263ffffffff1660e01b81526004016126d791906148f5565b5f604051808303815f87803b1580156126ee575f5ffd5b505af1158015612700573d5f5f3e3d5ffd5b505050506127205f6127123388611fe7565b61271b33612019565b613479565b91508060035f8473ffffffffffffffffffffffffffffffffffffffff1673ffffffffffffffffffffffffffffffffffffffff1681526020019081526020015f205f0160146101000a81548163ffffffff021916908363ffffffff1602179055505f60035f8473ffffffffffffffffffffffffffffffffffffffff1673ffffffffffffffffffffffffffffffffffffffff1681526020019081526020015f205f0160186101000a81548163ffffffff021916908363ffffffff1602179055503360035f8473ffffffffffffffffffffffffffffffffffffffff1673ffffffffffffffffffffffffffffffffffffffff1681526020019081526020015f205f015f6101000a81548173ffffffffffffffffffffffffffffffffffffffff021916908373ffffffffffffffffffffffffffffffffffffffff1602179055508260035f8473ffffffffffffffffffffffffffffffffffffffff1673ffffffffffffffffffffffffffffffffffffffff1681526020019081526020015f205f01601d6101000a81548160ff021916908360018111156128bd576128bc613db9565b5b02179055506128d682600161358090919063ffffffff16565b508173ffffffffffffffffffffffffffffffffffffffff163373ffffffffffffffffffffffffffffffffffffffff167fe9e6e5409b80e2dab7d38194fb370b2e8045a1af28177b94ddcf19d2495d7589836040516129349190613837565b60405180910390a36129468285612fa8565b5061295082612223565b509392505050565b5f8173ffffffffffffffffffffffffffffffffffffffff1660035f8573ffffffffffffffffffffffffffffffffffffffff1673ffffffffffffffffffffffffffffffffffffffff1681526020019081526020015f205f015f9054906101000a900473ffffffffffffffffffffffffffffffffffffffff1673ffffffffffffffffffffffffffffffffffffffff1614905092915050565b6060805f6129fc6001612d3a565b90508367ffffffffffffffff811115612a1857612a1761438c565b5b604051908082528060200260200182016040528015612a465781602001602082028036833780820191505090505b5092508367ffffffffffffffff811115612a6357612a6261438c565b5b604051908082528060200260200182016040528015612a9c57816020015b612a89613734565b815260200190600190039081612a815790505b5091505f5f90505f5f90505f5f90505b8381108015612aba57508682105b15612bda575f612ad4826001612d4d90919063ffffffff16565b9050612ae4818b8d63ffffffff16565b15612bc55788841015612b05578380612afc90614921565b94505050612bc7565b80878481518110612b1957612b1861444c565b5b602002602001019073ffffffffffffffffffffffffffffffffffffffff16908173ffffffffffffffffffffffffffffffffffffffff1681525050612b9860035f8373ffffffffffffffffffffffffffffffffffffffff1673ffffffffffffffffffffffffffffffffffffffff1681526020019081526020015f20612d64565b868481518110612bab57612baa61444c565b5b60200260200101819052508280612bc190614921565b9350505b505b8080612bd290614921565b915050612aac565b5080855280845250505094509492505050565b5f60016004811115612c0257612c01613db9565b5b826004811115612c1557612c14613db9565b5b1480612c45575060026004811115612c3057612c2f613db9565b5b826004811115612c4357612c42613db9565b5b145b9050919050565b6003805f8373ffffffffffffffffffffffffffffffffffffffff1673ffffffffffffffffffffffffffffffffffffffff1681526020019081526020015f205f01601c6101000a81548160ff02191690836004811115612cae57612cad613db9565b5b0217905550612cbc816135ad565b8073ffffffffffffffffffffffffffffffffffffffff167f2465e924a1e9a02843493e65702fd09152c8a631caf7b9b58e4b01ee20ced41660405160405180910390a250565b5f612d0b611f48565b82604051602001612d1d9291906149bc565b604051602081830303815290604052805190602001209050919050565b5f612d46825f01613677565b9050919050565b5f612d5a835f0183613686565b5f1c905092915050565b612d6c613734565b6040518060800160405280835f015f9054906101000a900473ffffffffffffffffffffffffffffffffffffffff1673ffffffffffffffffffffffffffffffffffffffff168152602001835f0160149054906101000a900463ffffffff1663ffffffff168152602001835f0160189054906101000a900463ffffffff1663ffffffff168152602001835f01601c9054906101000a900460ff166004811115612e1657612e15613db9565b5b8152509050919050565b5f5f8273ffffffffffffffffffffffffffffffffffffffff163b119050919050565b600460035f8373ffffffffffffffffffffffffffffffffffffffff1673ffffffffffffffffffffffffffffffffffffffff1681526020019081526020015f205f01601c6101000a81548160ff02191690836004811115612ea557612ea4613db9565b5b0217905550612eb3816135ad565b8073ffffffffffffffffffffffffffffffffffffffff167fbb85757a09bd73484c9fb6857c3e9f8dbf92c3e22ce1655213c9481dacf81c6260405160405180910390a250565b8060045f8473ffffffffffffffffffffffffffffffffffffffff1673ffffffffffffffffffffffffffffffffffffffff1681526020019081526020015f205f015f6101000a81548163ffffffff021916908363ffffffff1602179055508173ffffffffffffffffffffffffffffffffffffffff167f708c955faa87ece750a9700c153a20797167e2fcbde9fca9186801f874663a9982604051612f9c9190613837565b60405180910390a25050565b5f600182805f0190612fba91906149fe565b805f0190612fc89190614a25565b905014613001576040517f98c82cef00000000000000000000000000000000000000000000000000000000815260040160405180910390fd5b7f000000000000000000000000000000000000000000000000000000000000000073ffffffffffffffffffffffffffffffffffffffff16637c09ea8260405180604001604052807f000000000000000000000000000000000000000000000000000000000000000073ffffffffffffffffffffffffffffffffffffffff16815260200160035f8873ffffffffffffffffffffffffffffffffffffffff1673ffffffffffffffffffffffffffffffffffffffff1681526020019081526020015f205f0160149054906101000a900463ffffffff1663ffffffff1681525084805f01906130ec91906149fe565b6040518363ffffffff1660e01b8152600401613109929190614d37565b6020604051808303815f875af1158015613125573d5f5f3e3d5ffd5b505050506040513d601f19601f820116820180604052508101906131499190614d79565b90504360035f8573ffffffffffffffffffffffffffffffffffffffff1673ffffffffffffffffffffffffffffffffffffffff1681526020019081526020015f205f0160186101000a81548163ffffffff021916908363ffffffff1602179055508273ffffffffffffffffffffffffffffffffffffffff167fb5d2b7df0352a87a587a430bfceab43859b3b3c404f0425c4c1ab0675ed57b9482846040516131f1929190614f2c565b60405180910390a292915050565b5f8173ffffffffffffffffffffffffffffffffffffffff166132208461337d565b73ffffffffffffffffffffffffffffffffffffffff1614905092915050565b5f7f000000000000000000000000000000000000000000000000000000000000000073ffffffffffffffffffffffffffffffffffffffff16639100674584846040518363ffffffff1660e01b815260040161329b929190614507565b602060405180830381865afa1580156132b6573d5f5f3e3d5ffd5b505050506040513d601f19601f820116820180604052508101906132da9190614855565b905092915050565b60605f61330e7f0000000000000000000000000000000000000000000000000000000000000000612391565b9050805f815181106133235761332261444c565b5b602001015160f81c60f81b60405160200161333e9190614fa5565b60405160208183030381529060405291505090565b5f604051836040820152846020820152828152600b810160ff815360558120925050509392505050565b5f5f60035f8473ffffffffffffffffffffffffffffffffffffffff1673ffffffffffffffffffffffffffffffffffffffff1681526020019081526020015f2090506001808111156133d1576133d0613db9565b5b815f01601d9054906101000a900460ff1660018111156133f4576133f3613db9565b5b1461342157805f015f9054906101000a900473ffffffffffffffffffffffffffffffffffffffff16613423565b825b915050919050565b5f5f60ff835f1c169050601f811115613470576040517fb3512b0c00000000000000000000000000000000000000000000000000000000815260040160405180910390fd5b80915050919050565b5f834710156134bd576040517f08c379a00000000000000000000000000000000000000000000000000000000081526004016134b490615009565b60405180910390fd5b5f825103613500576040517f08c379a00000000000000000000000000000000000000000000000000000000081526004016134f790615071565b60405180910390fd5b8282516020840186f590505f73ffffffffffffffffffffffffffffffffffffffff168173ffffffffffffffffffffffffffffffffffffffff1603613579576040517f08c379a0000000000000000000000000000000000000000000000000000000008152600401613570906150d9565b60405180910390fd5b9392505050565b5f6135a5835f018373ffffffffffffffffffffffffffffffffffffffff165f1b6136ad565b905092915050565b6005600481819054906101000a900463ffffffff16809291906135cf906150f7565b91906101000a81548163ffffffff021916908363ffffffff1602179055505060045f6135fa8361337d565b73ffffffffffffffffffffffffffffffffffffffff1673ffffffffffffffffffffffffffffffffffffffff1681526020019081526020015f205f01600481819054906101000a900463ffffffff1680929190613655906150f7565b91906101000a81548163ffffffff021916908363ffffffff1602179055505050565b5f815f01805490509050919050565b5f825f01828154811061369c5761369b61444c565b5b905f5260205f200154905092915050565b5f6136b88383613714565b61370a57825f0182908060018154018082558091505060019003905f5260205f20015f9091909190915055825f0180549050836001015f8481526020019081526020015f20819055506001905061370e565b5f90505b92915050565b5f5f836001015f8481526020019081526020015f20541415905092915050565b60405180608001604052805f73ffffffffffffffffffffffffffffffffffffffff1681526020015f63ffffffff1681526020015f63ffffffff1681526020015f600481111561378657613785613db9565b5b81525090565b5f5ffd5b5f5ffd5b5f73ffffffffffffffffffffffffffffffffffffffff82169050919050565b5f6137bd82613794565b9050919050565b6137cd816137b3565b81146137d7575f5ffd5b50565b5f813590506137e8816137c4565b92915050565b5f602082840312156138035761380261378c565b5b5f613810848285016137da565b91505092915050565b5f63ffffffff82169050919050565b61383181613819565b82525050565b5f60208201905061384a5f830184613828565b92915050565b5f819050919050565b5f61387361386e61386984613794565b613850565b613794565b9050919050565b5f61388482613859565b9050919050565b5f6138958261387a565b9050919050565b6138a58161388b565b82525050565b5f6020820190506138be5f83018461389c565b92915050565b5f819050919050565b6138d6816138c4565b81146138e0575f5ffd5b50565b5f813590506138f1816138cd565b92915050565b5f5f6040838503121561390d5761390c61378c565b5b5f61391a858286016137da565b925050602061392b858286016138e3565b9150509250929050565b5f61393f8261387a565b9050919050565b61394f81613935565b82525050565b5f6020820190506139685f830184613946565b92915050565b5f6139788261387a565b9050919050565b6139888161396e565b82525050565b5f6020820190506139a15f83018461397f565b92915050565b5f6139b18261387a565b9050919050565b6139c1816139a7565b82525050565b5f6020820190506139da5f8301846139b8565b92915050565b5f6139ea826137b3565b9050919050565b6139fa816139e0565b8114613a04575f5ffd5b50565b5f81359050613a15816139f1565b92915050565b5f60208284031215613a3057613a2f61378c565b5b5f613a3d84828501613a07565b91505092915050565b5f81519050919050565b5f82825260208201905092915050565b8281835e5f83830152505050565b5f601f19601f8301169050919050565b5f613a8882613a46565b613a928185613a50565b9350613aa2818560208601613a60565b613aab81613a6e565b840191505092915050565b5f6020820190508181035f830152613ace8184613a7e565b905092915050565b5f5ffd5b5f60608284031215613aef57613aee613ad6565b5b81905092915050565b5f5f60408385031215613b0e57613b0d61378c565b5b5f613b1b858286016138e3565b925050602083013567ffffffffffffffff811115613b3c57613b3b613790565b5b613b4885828601613ada565b9150509250929050565b5f5ffd5b5f5ffd5b5f5ffd5b5f5f83601f840112613b7357613b72613b52565b5b8235905067ffffffffffffffff811115613b9057613b8f613b56565b5b602083019150836001820283011115613bac57613bab613b5a565b5b9250929050565b5f5f5f60408486031215613bca57613bc961378c565b5b5f613bd786828701613a07565b935050602084013567ffffffffffffffff811115613bf857613bf7613790565b5b613c0486828701613b5e565b92509250509250925092565b613c19816137b3565b82525050565b5f602082019050613c325f830184613c10565b92915050565b5f819050919050565b613c4a81613c38565b8114613c54575f5ffd5b50565b5f81359050613c6581613c41565b92915050565b5f5f5f60608486031215613c8257613c8161378c565b5b5f613c8f868287016137da565b9350506020613ca086828701613c57565b9250506040613cb186828701613c57565b9150509250925092565b5f81519050919050565b5f82825260208201905092915050565b5f819050602082019050919050565b613ced81613935565b82525050565b5f613cfe8383613ce4565b60208301905092915050565b5f602082019050919050565b5f613d2082613cbb565b613d2a8185613cc5565b9350613d3583613cd5565b805f5b83811015613d65578151613d4c8882613cf3565b9750613d5783613d0a565b925050600181019050613d38565b5085935050505092915050565b5f81519050919050565b5f82825260208201905092915050565b5f819050602082019050919050565b613da4816137b3565b82525050565b613db381613819565b82525050565b7f4e487b71000000000000000000000000000000000000000000000000000000005f52602160045260245ffd5b60058110613df757613df6613db9565b5b50565b5f819050613e0782613de6565b919050565b5f613e1682613dfa565b9050919050565b613e2681613e0c565b82525050565b608082015f820151613e405f850182613d9b565b506020820151613e536020850182613daa565b506040820151613e666040850182613daa565b506060820151613e796060850182613e1d565b50505050565b5f613e8a8383613e2c565b60808301905092915050565b5f602082019050919050565b5f613eac82613d72565b613eb68185613d7c565b9350613ec183613d8c565b805f5b83811015613ef1578151613ed88882613e7f565b9750613ee383613e96565b925050600181019050613ec4565b5085935050505092915050565b5f6040820190508181035f830152613f168185613d16565b90508181036020830152613f2a8184613ea2565b90509392505050565b60028110613f4457613f43613db9565b5b50565b5f819050613f5482613f33565b919050565b5f613f6382613f47565b9050919050565b613f7381613f59565b82525050565b5f602082019050613f8c5f830184613f6a565b92915050565b5f613f9c8261387a565b9050919050565b613fac81613f92565b82525050565b5f602082019050613fc55f830184613fa3565b92915050565b613fd4816138c4565b82525050565b5f602082019050613fed5f830184613fcb565b92915050565b5f7fffffffff0000000000000000000000000000000000000000000000000000000082169050919050565b61402781613ff3565b8114614031575f5ffd5b50565b5f813590506140428161401e565b92915050565b5f5f6040838503121561405e5761405d61378c565b5b5f61406b85828601614034565b925050602061407c85828601613c57565b9150509250929050565b5f5f6040838503121561409c5761409b61378c565b5b5f6140a985828601613c57565b92505060206140ba85828601613c57565b9150509250929050565b6140cd81613819565b81146140d7575f5ffd5b50565b5f813590506140e8816140c4565b92915050565b5f602082840312156141035761410261378c565b5b5f614110848285016140da565b91505092915050565b5f5f83601f84011261412e5761412d613b52565b5b8235905067ffffffffffffffff81111561414b5761414a613b56565b5b60208301915083602082028301111561416757614166613b5a565b5b9250929050565b5f5f5f604084860312156141855761418461378c565b5b5f614192868287016137da565b935050602084013567ffffffffffffffff8111156141b3576141b2613790565b5b6141bf86828701614119565b92509250509250925092565b5f5f604083850312156141e1576141e061378c565b5b5f6141ee858286016137da565b92505060206141ff858286016140da565b9150509250929050565b61421281613e0c565b82525050565b5f60208201905061422b5f830184614209565b92915050565b5f5f604083850312156142475761424661378c565b5b5f61425485828601613a07565b925050602083013567ffffffffffffffff81111561427557614274613790565b5b61428185828601613ada565b9150509250929050565b61429481613c38565b82525050565b5f6020820190506142ad5f83018461428b565b92915050565b5f6142bd8261387a565b9050919050565b6142cd816142b3565b82525050565b5f6020820190506142e65f8301846142c4565b92915050565b828183375f83830152505050565b5f6143058385613a50565b93506143128385846142ec565b61431b83613a6e565b840190509392505050565b5f6020820190508181035f83015261433f8184866142fa565b90509392505050565b61435181613ff3565b82525050565b5f60608201905061436a5f830186613fcb565b6143776020830185614348565b614384604083018461428b565b949350505050565b7f4e487b71000000000000000000000000000000000000000000000000000000005f52604160045260245ffd5b7f4e487b71000000000000000000000000000000000000000000000000000000005f52601160045260245ffd5b5f6143f082613c38565b91506143fb83613c38565b9250828201905080821115614413576144126143b9565b5b92915050565b5f61442382613c38565b915061442e83613c38565b9250828203905081811115614446576144456143b9565b5b92915050565b7f4e487b71000000000000000000000000000000000000000000000000000000005f52603260045260245ffd5b7f496e697469616c697a61626c653a20636f6e747261637420697320616c7265615f8201527f647920696e697469616c697a6564000000000000000000000000000000000000602082015250565b5f6144d3602e83613a50565b91506144de82614479565b604082019050919050565b5f6020820190508181035f830152614500816144c7565b9050919050565b5f60408201905061451a5f830185613c10565b6145276020830184613c10565b9392505050565b5f8151905061453c816140c4565b92915050565b5f602082840312156145575761455661378c565b5b5f6145648482850161452e565b91505092915050565b604082015f8201516145815f850182613d9b565b5060208201516145946020850182613daa565b50505050565b5f6060820190506145ad5f83018561456d565b6145ba6040830184613c10565b9392505050565b5f819050919050565b5f60ff82169050919050565b5f6145f06145eb6145e6846145c1565b613850565b6145ca565b9050919050565b614600816145d6565b82525050565b5f6020820190506146195f8301846145f7565b92915050565b5f60a0820190506146325f830188613fcb565b61463f6020830187613fcb565b61464c6040830186613fcb565b614659606083018561428b565b6146666080830184613c10565b9695505050505050565b5f8160601b9050919050565b5f61468682614670565b9050919050565b5f6146978261467c565b9050919050565b6146af6146aa826137b3565b61468d565b82525050565b5f819050919050565b6146cf6146ca826138c4565b6146b5565b82525050565b5f6146e0828561469e565b6014820191506146f082846146be565b6020820191508190509392505050565b5f81519050919050565b5f82825260208201905092915050565b5f61472482614700565b61472e818561470a565b935061473e818560208601613a60565b61474781613a6e565b840191505092915050565b5f6040820190506147655f830185613fa3565b8181036020830152614777818461471a565b90509392505050565b5f81905092915050565b5f61479482614700565b61479e8185614780565b93506147ae818560208601613a60565b80840191505092915050565b5f6147c5828561478a565b91506147d1828461478a565b91508190509392505050565b5f6080820190506147f05f830187613c10565b6147fd6020830186613c10565b61480a6040830185613c10565b6148176060830184614348565b95945050505050565b5f8115159050919050565b61483481614820565b811461483e575f5ffd5b50565b5f8151905061484f8161482b565b92915050565b5f6020828403121561486a5761486961378c565b5b5f61487784828501614841565b91505092915050565b5f61488a82613819565b915063ffffffff82036148a05761489f6143b9565b5b600182019050919050565b7f68747470733a2f2f656967656e636c6f75642e78797a000000000000000000005f82015250565b5f6148df601683613a50565b91506148ea826148ab565b602082019050919050565b5f6060820190506149085f83018461456d565b8181036040830152614919816148d3565b905092915050565b5f61492b82613c38565b91507fffffffffffffffffffffffffffffffffffffffffffffffffffffffffffffffff820361495d5761495c6143b9565b5b600182019050919050565b5f81905092915050565b7f19010000000000000000000000000000000000000000000000000000000000005f82015250565b5f6149a6600283614968565b91506149b182614972565b600282019050919050565b5f6149c68261499a565b91506149d282856146be565b6020820191506149e282846146be565b6020820191508190509392505050565b5f5ffd5b5f5ffd5b5f5ffd5b5f82356001604003833603038112614a1957614a186149f2565b5b80830191505092915050565b5f5f83356001602003843603038112614a4157614a406149f2565b5b80840192508235915067ffffffffffffffff821115614a6357614a626149f6565b5b602083019250602082023603831315614a7f57614a7e6149fa565b5b509250929050565b5f5ffd5b5f5ffd5b5f5ffd5b5f5f83356001602003843603038112614aaf57614aae614a8f565b5b83810192508235915060208301925067ffffffffffffffff821115614ad757614ad6614a87565b5b602082023603831315614aed57614aec614a8b565b5b509250929050565b5f82825260208201905092915050565b5f819050919050565b5f614b1c60208401846138e3565b905092915050565b614b2d816138c4565b82525050565b5f5f83356001602003843603038112614b4f57614b4e614a8f565b5b83810192508235915060208301925067ffffffffffffffff821115614b7757614b76614a87565b5b600182023603831315614b8d57614b8c614a8b565b5b509250929050565b5f82825260208201905092915050565b5f614bb08385614b95565b9350614bbd8385846142ec565b614bc683613a6e565b840190509392505050565b5f60408301614be25f840184614b0e565b614bee5f860182614b24565b50614bfc6020840184614b33565b8583036020870152614c0f838284614ba5565b925050508091505092915050565b5f614c288383614bd1565b905092915050565b5f82356001604003833603038112614c4b57614c4a614a8f565b5b82810191505092915050565b5f602082019050919050565b5f614c6e8385614af5565b935083602084028501614c8084614b05565b805f5b87811015614cc3578484038952614c9a8284614c30565b614ca48582614c1d565b9450614caf83614c57565b925060208a01995050600181019050614c83565b50829750879450505050509392505050565b5f614ce360208401846140da565b905092915050565b5f60408301614cfc5f840184614a93565b8583035f870152614d0e838284614c63565b92505050614d1f6020840184614cd5565b614d2c6020860182613daa565b508091505092915050565b5f606082019050614d4a5f83018561456d565b8181036040830152614d5c8184614ceb565b90509392505050565b5f81519050614d7381613c41565b92915050565b5f60208284031215614d8e57614d8d61378c565b5b5f614d9b84828501614d65565b91505092915050565b5f82356001604003833603038112614dbf57614dbe614a8f565b5b82810191505092915050565b5f60408301614ddc5f840184614a93565b8583035f870152614dee838284614c63565b92505050614dff6020840184614cd5565b614e0c6020860182613daa565b508091505092915050565b5f5f83356001602003843603038112614e3357614e32614a8f565b5b83810192508235915060208301925067ffffffffffffffff821115614e5b57614e5a614a87565b5b600182023603831315614e7157614e70614a8b565b5b509250929050565b5f82825260208201905092915050565b5f614e948385614e79565b9350614ea18385846142ec565b614eaa83613a6e565b840190509392505050565b5f60608301614ec65f840184614da4565b8482035f860152614ed78282614dcb565b915050614ee76020840184614e17565b8583036020870152614efa838284614e89565b92505050614f0b6040840184614e17565b8583036040870152614f1e838284614e89565b925050508091505092915050565b5f604082019050614f3f5f83018561428b565b8181036020830152614f518184614eb5565b90509392505050565b5f7fff0000000000000000000000000000000000000000000000000000000000000082169050919050565b5f819050919050565b614f9f614f9a82614f5a565b614f85565b82525050565b5f614fb08284614f8e565b60018201915081905092915050565b7f437265617465323a20696e73756666696369656e742062616c616e63650000005f82015250565b5f614ff3601d83613a50565b9150614ffe82614fbf565b602082019050919050565b5f6020820190508181035f83015261502081614fe7565b9050919050565b7f437265617465323a2062797465636f6465206c656e677468206973207a65726f5f82015250565b5f61505b602083613a50565b915061506682615027565b602082019050919050565b5f6020820190508181035f8301526150888161504f565b9050919050565b7f437265617465323a204661696c6564206f6e206465706c6f79000000000000005f82015250565b5f6150c3601983613a50565b91506150ce8261508f565b602082019050919050565b5f6020820190508181035f8301526150f0816150b7565b9050919050565b5f61510182613819565b91505f8203615113576151126143b9565b5b60018203905091905056fe608060405260405161090e38038061090e83398101604081905261002291610460565b61002e82826000610035565b505061058a565b61003e83610100565b6040516001600160a01b038416907f1cf3b03a6cf19fa2baba4df148e9dcabedea7f8a5c07840e207e5c089be95d3e90600090a260008251118061007f5750805b156100fb576100f9836001600160a01b0316635c60da1b6040518163ffffffff1660e01b8152600401602060405180830381865afa1580156100c5573d6000803e3d6000fd5b505050506040513d601f19601f820116820180604052508101906100e99190610520565b836102a360201b6100291760201c565b505b505050565b610113816102cf60201b6100551760201c565b6101725760405162461bcd60e51b815260206004820152602560248201527f455243313936373a206e657720626561636f6e206973206e6f74206120636f6e6044820152641d1c9858dd60da1b60648201526084015b60405180910390fd5b6101e6816001600160a01b0316635c60da1b6040518163ffffffff1660e01b8152600401602060405180830381865afa1580156101b3573d6000803e3d6000fd5b505050506040513d601f19601f820116820180604052508101906101d79190610520565b6102cf60201b6100551760201c565b61024b5760405162461bcd60e51b815260206004820152603060248201527f455243313936373a20626561636f6e20696d706c656d656e746174696f6e206960448201526f1cc81b9bdd08184818dbdb9d1c9858dd60821b6064820152608401610169565b806102827fa3f0ad74e5423aebfd80d3ef4346578335a9a72aeaee59ff6cb3582b35133d5060001b6102de60201b6100641760201c565b80546001600160a01b0319166001600160a01b039290921691909117905550565b60606102c883836040518060600160405280602781526020016108e7602791396102e1565b9392505050565b6001600160a01b03163b151590565b90565b6060600080856001600160a01b0316856040516102fe919061053b565b600060405180830381855af49150503d8060008114610339576040519150601f19603f3d011682016040523d82523d6000602084013e61033e565b606091505b5090925090506103508683838761035a565b9695505050505050565b606083156103c65782516103bf576001600160a01b0385163b6103bf5760405162461bcd60e51b815260206004820152601d60248201527f416464726573733a2063616c6c20746f206e6f6e2d636f6e74726163740000006044820152606401610169565b50816103d0565b6103d083836103d8565b949350505050565b8151156103e85781518083602001fd5b8060405162461bcd60e51b81526004016101699190610557565b80516001600160a01b038116811461041957600080fd5b919050565b634e487b7160e01b600052604160045260246000fd5b60005b8381101561044f578181015183820152602001610437565b838111156100f95750506000910152565b6000806040838503121561047357600080fd5b61047c83610402565b60208401519092506001600160401b038082111561049957600080fd5b818501915085601f8301126104ad57600080fd5b8151818111156104bf576104bf61041e565b604051601f8201601f19908116603f011681019083821181831017156104e7576104e761041e565b8160405282815288602084870101111561050057600080fd5b610511836020830160208801610434565b80955050505050509250929050565b60006020828403121561053257600080fd5b6102c882610402565b6000825161054d818460208701610434565b9190910192915050565b6020815260008251806020840152610576816040850160208701610434565b601f01601f19169190910160400192915050565b61034e806105996000396000f3fe60806040523661001357610011610017565b005b6100115b610027610022610067565b610100565b565b606061004e83836040518060600160405280602781526020016102f260279139610124565b9392505050565b6001600160a01b03163b151590565b90565b600061009a7fa3f0ad74e5423aebfd80d3ef4346578335a9a72aeaee59ff6cb3582b35133d50546001600160a01b031690565b6001600160a01b0316635c60da1b6040518163ffffffff1660e01b8152600401602060405180830381865afa1580156100d7573d6000803e3d6000fd5b505050506040513d601f19601f820116820180604052508101906100fb9190610249565b905090565b3660008037600080366000845af43d6000803e80801561011f573d6000f35b3d6000fd5b6060600080856001600160a01b03168560405161014191906102a2565b600060405180830381855af49150503d806000811461017c576040519150601f19603f3d011682016040523d82523d6000602084013e610181565b606091505b50915091506101928683838761019c565b9695505050505050565b6060831561020d578251610206576001600160a01b0385163b6102065760405162461bcd60e51b815260206004820152601d60248201527f416464726573733a2063616c6c20746f206e6f6e2d636f6e747261637400000060448201526064015b60405180910390fd5b5081610217565b610217838361021f565b949350505050565b81511561022f5781518083602001fd5b8060405162461bcd60e51b81526004016101fd91906102be565b60006020828403121561025b57600080fd5b81516001600160a01b038116811461004e57600080fd5b60005b8381101561028d578181015183820152602001610275565b8381111561029c576000848401525b50505050565b600082516102b4818460208701610272565b9190910192915050565b60208152600082518060208401526102dd816040850160208701610272565b601f01601f1916919091016040019291505056fe416464726573733a206c6f772d6c6576656c2064656c65676174652063616c6c206661696c6564a2646970667358221220d51e81d3bc5ed20a26aeb05dce7e825c503b2061aa78628027300c8d65b9d89a64736f6c634300080c0033416464726573733a206c6f772d6c6576656c2064656c65676174652063616c6c206661696c6564a164736f6c6343000821000a",
    "linkReferences": {}
  },
  "methodIdentifiers": {
    "API_PERMISSION_TYPEHASH()": "8a7f922c",
    "appBeacon()": "8a52d0b5",
    "calculateApiPermissionDigestHash(bytes4,uint256)": "9690b7e7",
    "calculateAppId(address,bytes32)": "36b18874",
    "computeAVSRegistrar()": "ef6d92c6",
    "computeOperator()": "3fc4cbfd",
    "createApp(bytes32,(((bytes32,string)[],uint32),bytes,bytes))": "a60daa8f",
    "createAppWithIsolatedBilling(bytes32,(((bytes32,string)[],uint32),bytes,bytes))": "559cf359",
    "domainSeparator()": "f698da25",
    "getActiveAppCount(address)": "0c2199fb",
    "getAppCreator(address)": "67962d48",
    "getAppLatestReleaseBlockNumber(address)": "9ffbdce6",
    "getAppOperatorSetId(address)": "6eb2099f",
    "getAppStatus(address)": "d5aae178",
    "getApps(uint256,uint256)": "a37e7e44",
    "getAppsByBillingAccount(address,uint256,uint256)": "dbb1c4e1",
    "getAppsByCreator(address,uint256,uint256)": "8099ef2e",
    "getAppsByDeveloper(address,uint256,uint256)": "f36618ac",
    "getBillingType(address)": "85e9babb",
    "getMaxActiveAppsPerUser(address)": "40f70a9e",
    "globalActiveAppCount()": "a8aa2bd3",
    "initialize(address)": "c4d66de8",
    "maxGlobalActiveApps()": "a46530a2",
    "permissionController()": "4657e26a",
    "releaseManager()": "0d78573e",
    "setMaxActiveAppsPerUser(address,uint32)": "d49fec2b",
    "setMaxGlobalActiveApps(uint32)": "b438c141",
    "startApp(address)": "4dd8ef81",
    "stopApp(address)": "e70b81b1",
    "suspend(address,address[])": "cb1e6ff7",
    "terminateApp(address)": "90e2196b",
    "terminateAppByAdmin(address)": "d66f7771",
    "updateAppMetadataURI(address,string)": "65aa9a65",
    "upgradeApp(address,(((bytes32,string)[],uint32),bytes,bytes))": "d80a956b",
    "version()": "54fd4d50"
  },
  "id": 142
}