{
  "abi": [
    {
      "type": "constructor",
      "inputs": [],
      "stateMutability": "nonpayable"
    },
    {
      "type": "function",
      "name": "addImage",
      "inputs": [
        {
          "name": "platform",
          "type": "uint8",
          "internalType": "enum IImageAllowlist.Platform"
        },
        {
          "name": "image",
          "type": "tuple",
          "internalType": "struct IImageAllowlist.Image",
          "components": [
            {
              "name": "pcrs",
              "type": "tuple[]",
              "internalType": "struct IImageAllowlist.PCR[]",
              "components": [
                {
                  "name": "index",
                  "type": "uint8",
                  "internalType": "uint8"
                },
                {
                  "name": "value",
                  "type": "bytes32",
                  "internalType": "bytes32"
                }
              ]
            },
            {
              "name": "version",
              "type": "string",
              "internalType": "string"
            },
            {
              "name": "description",
              "type": "string",
              "internalType": "string"
            }
          ]
        }
      ],
      "outputs": [
        {
          "name": "",
          "type": "bytes32",
          "internalType": "bytes32"
        }
      ],
      "stateMutability": "nonpayable"
    },
    {
      "type": "function",
      "name": "addImages",
      "inputs": [
        {
          "name": "platform",
          "type": "uint8",
          "internalType": "enum IImageAllowlist.Platform"
        },
        {
          "name": "images_",
          "type": "tuple[]",
          "internalType": "struct IImageAllowlist.Image[]",
          "components": [
            {
              "name": "pcrs",
              "type": "tuple[]",
              "internalType": "struct IImageAllowlist.PCR[]",
              "components": [
                {
                  "name": "index",
                  "type": "uint8",
                  "internalType": "uint8"
                },
                {
                  "name": "value",
                  "type": "bytes32",
                  "internalType": "bytes32"
                }
              ]
            },
            {
              "name": "version",
              "type": "string",
              "internalType": "string"
            },
            {
              "name": "description",
              "type": "string",
              "internalType": "string"
            }
          ]
        }
      ],
      "outputs": [
        {
          "name": "keys",
          "type": "bytes32[]",
          "internalType": "bytes32[]"
        }
      ],
      "stateMutability": "nonpayable"
    },
    {
      "type": "function",
      "name": "images",
      "inputs": [
        {
          "name": "",
          "type": "uint8",
          "internalType": "enum IImageAllowlist.Platform"
        },
        {
          "name": "",
          "type": "bytes32",
          "internalType": "bytes32"
        }
      ],
      "outputs": [
        {
          "name": "",
          "type": "bool",
          "internalType": "bool"
        }
      ],
      "stateMutability": "view"
    },
    {
      "type": "function",
      "name": "initialize",
      "inputs": [
        {
          "name": "initialOwner",
          "type": "address",
          "internalType": "address"
        }
      ],
      "outputs": [],
      "stateMutability": "nonpayable"
    },
    {
      "type": "function",
      "name": "isImageAllowed",
      "inputs": [
        {
          "name": "platform",
          "type": "uint8",
          "internalType": "enum IImageAllowlist.Platform"
        },
        {
          "name": "pcrs",
          "type": "tuple[]",
          "internalType": "struct IImageAllowlist.PCR[]",
          "components": [
            {
              "name": "index",
              "type": "uint8",
              "internalType": "uint8"
            },
            {
              "name": "value",
              "type": "bytes32",
              "internalType": "bytes32"
            }
          ]
        }
      ],
      "outputs": [
        {
          "name": "",
          "type": "bool",
          "internalType": "bool"
        }
      ],
      "stateMutability": "view"
    },
    {
      "type": "function",
      "name": "isTCBValid",
      "inputs": [
        {
          "name": "platform",
          "type": "uint8",
          "internalType": "enum IImageAllowlist.Platform"
        },
        {
          "name": "tcb",
          "type": "uint64",
          "internalType": "uint64"
        }
      ],
      "outputs": [
        {
          "name": "",
          "type": "bool",
          "internalType": "bool"
        }
      ],
      "stateMutability": "view"
    },
    {
      "type": "function",
      "name": "minimumTCB",
      "inputs": [
        {
          "name": "",
          "type": "uint8",
          "internalType": "enum IImageAllowlist.Platform"
        }
      ],
      "outputs": [
        {
          "name": "",
          "type": "uint64",
          "internalType": "uint64"
        }
      ],
      "stateMutability": "view"
    },
    {
      "type": "function",
      "name": "owner",
      "inputs": [],
      "outputs": [
        {
          "name": "",
          "type": "address",
          "internalType": "address"
        }
      ],
      "stateMutability": "view"
    },
    {
      "type": "function",
      "name": "removeImage",
      "inputs": [
        {
          "name": "platform",
          "type": "uint8",
          "internalType": "enum IImageAllowlist.Platform"
        },
        {
          "name": "key",
          "type": "bytes32",
          "internalType": "bytes32"
        }
      ],
      "outputs": [],
      "stateMutability": "nonpayable"
    },
    {
      "type": "function",
      "name": "removeImages",
      "inputs": [
        {
          "name": "platform",
          "type": "uint8",
          "internalType": "enum IImageAllowlist.Platform"
        },
        {
          "name": "keys",
          "type": "bytes32[]",
          "internalType": "bytes32[]"
        }
      ],
      "outputs": [],
      "stateMutability": "nonpayable"
    },
    {
      "type": "function",
      "name": "renounceOwnership",
      "inputs": [],
      "outputs": [],
      "stateMutability": "nonpayable"
    },
    {
      "type": "function",
      "name": "setMinimumTCB",
      "inputs": [
        {
          "name": "platform",
          "type": "uint8",
          "internalType": "enum IImageAllowlist.Platform"
        },
        {
          "name": "tcb",
          "type": "uint64",
          "internalType": "uint64"
        }
      ],
      "outputs": [],
      "stateMutability": "nonpayable"
    },
    {
      "type": "function",
      "name": "transferOwnership",
      "inputs": [
        {
          "name": "newOwner",
          "type": "address",
          "internalType": "address"
        }
      ],
      "outputs": [],
      "stateMutability": "nonpayable"
    },
    {
      "type": "event",
      "name": "ImageAdded",
      "inputs": [
        {
          "name": "platform",
          "type": "uint8",
          "indexed": true,
          "internalType": "enum IImageAllowlist.Platform"
        },
        {
          "name": "key",
          "type": "bytes32",
          "indexed": true,
          "internalType": "bytes32"
        },
        {
          "name": "version",
          "type": "string",
          "indexed": false,
          "internalType": "string"
        },
        {
          "name": "description",
          "type": "string",
          "indexed": false,
          "internalType": "string"
        }
      ],
      "anonymous": false
    },
    {
      "type": "event",
      "name": "ImageRemoved",
      "inputs": [
        {
          "name": "platform",
          "type": "uint8",
          "indexed": true,
          "internalType": "enum IImageAllowlist.Platform"
        },
        {
          "name": "key",
          "type": "bytes32",
          "indexed": true,
          "internalType": "bytes32"
        }
      ],
      "anonymous": false
    },
    {
      "type": "event",
      "name": "Initialized",
      "inputs": [
        {
          "name": "version",
          "type": "uint8",
          "indexed": false,
          "internalType": "uint8"
        }
      ],
      "anonymous": false
    },
    {
      "type": "event",
      "name": "MinimumTCBUpdated",
      "inputs": [
        {
          "name": "platform",
          "type": "uint8",
          "indexed": true,
          "internalType": "enum IImageAllowlist.Platform"
        },
        {
          "name": "tcb",
          "type": "uint64",
          "indexed": false,
          "internalType": "uint64"
        }
      ],
      "anonymous": false
    },
    {
      "type": "event",
      "name": "OwnershipTransferred",
      "inputs": [
        {
          "name": "previousOwner",
          "type": "address",
          "indexed": true,
          "internalType": "address"
        },
        {
          "name": "newOwner",
          "type": "address",
          "indexed": true,
          "internalType": "address"
        }
      ],
      "anonymous": false
    },
    {
      "type": "error",
      "name": "EmptyPCRs",
      "inputs": []
    },
    {
      "type": "error",
      "name": "ImageNotFound",
      "inputs": []
    },
    {
      "type": "error",
      "name": "NotSorted",
      "inputs": []
    }
  ],
  "bytecode": {
    "object": "0x608060405234801561000f575f5ffd5b5061001e61002360201b60201c565b6101b3565b5f60019054906101000a900460ff1615610072576040517f08c379a000000000000000000000000000000000000000000000000000000000815260040161006990610161565b60405180910390fd5b60ff80165f5f9054906101000a900460ff1660ff16146100df5760ff5f5f6101000a81548160ff021916908360ff1602179055507f7f26b83ff96e1f2b6a682f133852f6798a09c465da95921460cefb384740249860ff6040516100d6919061019a565b60405180910390a15b565b5f82825260208201905092915050565b7f496e697469616c697a61626c653a20636f6e747261637420697320696e6974695f8201527f616c697a696e6700000000000000000000000000000000000000000000000000602082015250565b5f61014b6027836100e1565b9150610156826100f1565b604082019050919050565b5f6020820190508181035f8301526101788161013f565b9050919050565b5f60ff82169050919050565b6101948161017f565b82525050565b5f6020820190506101ad5f83018461018b565b92915050565b61187c806101c05f395ff3fe608060405234801561000f575f5ffd5b50600436106100cd575f3560e01c8063715018a61161008a578063c4d66de811610064578063c4d66de814610221578063d79799b51461023d578063f2fde38b14610259578063ffc2585d14610275576100cd565b8063715018a6146101dd5780638da5cb5b146101e7578063a54c828714610205576100cd565b8063036257e2146100d1578063188675b3146100ed5780632d5a1daf1461011d57806343e3dd051461014d5780634a4f02de1461017d5780634ec8d4fa146101ad575b5f5ffd5b6100eb60048036038101906100e69190610cf1565b6102a5565b005b61010760048036038101906101029190610d90565b6102bb565b6040516101149190610ea4565b60405180910390f35b61013760048036038101906101329190610f19565b610385565b6040516101449190610f90565b60405180910390f35b61016760048036038101906101629190610fe6565b6103e9565b6040516101749190610f90565b60405180910390f35b61019760048036038101906101929190610cf1565b610452565b6040516101a49190610f90565b60405180910390f35b6101c760048036038101906101c29190611024565b61047c565b6040516101d4919061105e565b60405180910390f35b6101e56104a0565b005b6101ef6104b3565b6040516101fc91906110b6565b60405180910390f35b61021f600480360381019061021a9190610fe6565b6104db565b005b61023b600480360381019061023691906110f9565b61058c565b005b61025760048036038101906102529190611179565b6106c8565b005b610273600480360381019061026e91906110f9565b610716565b005b61028f600480360381019061028a91906111f8565b610798565b60405161029c9190611261565b60405180910390f35b6102ad6107b3565b6102b78282610831565b5050565b60606102c56107b3565b8282905067ffffffffffffffff8111156102e2576102e161127a565b5b6040519080825280602002602001820160405280156103105781602001602082028036833780820191505090505b5090505f5f90505b8383905081101561037d576103518585858481811061033a576103396112a7565b5b905060200281019061034c91906112e0565b610957565b828281518110610364576103636112a7565b5b6020026020010181815250508080600101915050610318565b509392505050565b5f60655f85600281111561039c5761039b611307565b5b60028111156103ae576103ad611307565b5b81526020019081526020015f205f6103c68585610ad6565b81526020019081526020015f205f9054906101000a900460ff1690509392505050565b5f60665f846002811115610400576103ff611307565b5b600281111561041257610411611307565b5b81526020019081526020015f205f9054906101000a900467ffffffffffffffff1667ffffffffffffffff168267ffffffffffffffff161015905092915050565b6065602052815f5260405f20602052805f5260405f205f915091509054906101000a900460ff1681565b6066602052805f5260405f205f915054906101000a900467ffffffffffffffff1681565b6104a86107b3565b6104b15f610b08565b565b5f60335f9054906101000a900473ffffffffffffffffffffffffffffffffffffffff16905090565b6104e36107b3565b8060665f8460028111156104fa576104f9611307565b5b600281111561050c5761050b611307565b5b81526020019081526020015f205f6101000a81548167ffffffffffffffff021916908367ffffffffffffffff16021790555081600281111561055157610550611307565b5b7faf8be91f34cee8255c2e461ce2588f8ffa3e5c01d2f0ec91b0f4a010bce9a39282604051610580919061105e565b60405180910390a25050565b5f5f60019054906101000a900460ff161590508080156105bc575060015f5f9054906101000a900460ff1660ff16105b806105e957506105cb30610bcb565b1580156105e8575060015f5f9054906101000a900460ff1660ff16145b5b610628576040517f08c379a000000000000000000000000000000000000000000000000000000000815260040161061f906113b4565b60405180910390fd5b60015f5f6101000a81548160ff021916908360ff16021790555080156106635760015f60016101000a81548160ff0219169083151502179055505b61066c82610b08565b80156106c4575f5f60016101000a81548160ff0219169083151502179055507f7f26b83ff96e1f2b6a682f133852f6798a09c465da95921460cefb384740249860016040516106bb9190611420565b60405180910390a15b5050565b6106d06107b3565b5f5f90505b8282905081101561071057610703848484848181106106f7576106f66112a7565b5b90506020020135610831565b80806001019150506106d5565b50505050565b61071e6107b3565b5f73ffffffffffffffffffffffffffffffffffffffff168173ffffffffffffffffffffffffffffffffffffffff160361078c576040517f08c379a0000000000000000000000000000000000000000000000000000000008152600401610783906114a9565b60405180910390fd5b61079581610b08565b50565b5f6107a16107b3565b6107ab8383610957565b905092915050565b6107bb610bed565b73ffffffffffffffffffffffffffffffffffffffff166107d96104b3565b73ffffffffffffffffffffffffffffffffffffffff161461082f576040517f08c379a000000000000000000000000000000000000000000000000000000000815260040161082690611511565b60405180910390fd5b565b60655f83600281111561084757610846611307565b5b600281111561085957610858611307565b5b81526020019081526020015f205f8281526020019081526020015f205f9054906101000a900460ff166108b8576040517f264a7c1300000000000000000000000000000000000000000000000000000000815260040160405180910390fd5b5f60655f8460028111156108cf576108ce611307565b5b60028111156108e1576108e0611307565b5b81526020019081526020015f205f8381526020019081526020015f205f6101000a81548160ff0219169083151502179055508082600281111561092757610926611307565b5b7fd855ac1cd71d5bd4e672e802d6eac6dc10e971cf55a870ee15586de49aeb3e7760405160405180910390a35050565b5f5f82805f0190610968919061152f565b9050036109a1576040517f6e14331900000000000000000000000000000000000000000000000000000000815260040160405180910390fd5b6109b882805f01906109b3919061152f565b610bf4565b6109ee576040517fba50f91100000000000000000000000000000000000000000000000000000000815260040160405180910390fd5b610a0582805f0190610a00919061152f565b610ad6565b9050600160655f856002811115610a1f57610a1e611307565b5b6002811115610a3157610a30611307565b5b81526020019081526020015f205f8381526020019081526020015f205f6101000a81548160ff02191690831515021790555080836002811115610a7757610a76611307565b5b7f4e54da158c3f3db628647ffcc4dde7cfb80f110852579df816369378d1f0e460848060200190610aa89190611591565b868060400190610ab89190611591565b604051610ac8949392919061163d565b60405180910390a392915050565b5f8282604051602001610aea9291906117b9565b60405160208183030381529060405280519060200120905092915050565b5f60335f9054906101000a900473ffffffffffffffffffffffffffffffffffffffff1690508160335f6101000a81548173ffffffffffffffffffffffffffffffffffffffff021916908373ffffffffffffffffffffffffffffffffffffffff1602179055508173ffffffffffffffffffffffffffffffffffffffff168173ffffffffffffffffffffffffffffffffffffffff167f8be0079c531659141344cd1fd0a4f28419497f9722a3daafe3b4186f6b6457e060405160405180910390a35050565b5f5f8273ffffffffffffffffffffffffffffffffffffffff163b119050919050565b5f33905090565b5f5f600190505b83839050811015610c87578383600183610c159190611811565b818110610c2557610c246112a7565b5b9050604002015f016020810190610c3c9190611844565b60ff16848483818110610c5257610c516112a7565b5b9050604002015f016020810190610c699190611844565b60ff1611610c7a575f915050610c8d565b8080600101915050610bfb565b50600190505b92915050565b5f5ffd5b5f5ffd5b60038110610ca7575f5ffd5b50565b5f81359050610cb881610c9b565b92915050565b5f819050919050565b610cd081610cbe565b8114610cda575f5ffd5b50565b5f81359050610ceb81610cc7565b92915050565b5f5f60408385031215610d0757610d06610c93565b5b5f610d1485828601610caa565b9250506020610d2585828601610cdd565b9150509250929050565b5f5ffd5b5f5ffd5b5f5ffd5b5f5f83601f840112610d5057610d4f610d2f565b5b8235905067ffffffffffffffff811115610d6d57610d6c610d33565b5b602083019150836020820283011115610d8957610d88610d37565b5b9250929050565b5f5f5f60408486031215610da757610da6610c93565b5b5f610db486828701610caa565b935050602084013567ffffffffffffffff811115610dd557610dd4610c97565b5b610de186828701610d3b565b92509250509250925092565b5f81519050919050565b5f82825260208201905092915050565b5f819050602082019050919050565b610e1f81610cbe565b82525050565b5f610e308383610e16565b60208301905092915050565b5f602082019050919050565b5f610e5282610ded565b610e5c8185610df7565b9350610e6783610e07565b805f5b83811015610e97578151610e7e8882610e25565b9750610e8983610e3c565b925050600181019050610e6a565b5085935050505092915050565b5f6020820190508181035f830152610ebc8184610e48565b905092915050565b5f5f83601f840112610ed957610ed8610d2f565b5b8235905067ffffffffffffffff811115610ef657610ef5610d33565b5b602083019150836040820283011115610f1257610f11610d37565b5b9250929050565b5f5f5f60408486031215610f3057610f2f610c93565b5b5f610f3d86828701610caa565b935050602084013567ffffffffffffffff811115610f5e57610f5d610c97565b5b610f6a86828701610ec4565b92509250509250925092565b5f8115159050919050565b610f8a81610f76565b82525050565b5f602082019050610fa35f830184610f81565b92915050565b5f67ffffffffffffffff82169050919050565b610fc581610fa9565b8114610fcf575f5ffd5b50565b5f81359050610fe081610fbc565b92915050565b5f5f60408385031215610ffc57610ffb610c93565b5b5f61100985828601610caa565b925050602061101a85828601610fd2565b9150509250929050565b5f6020828403121561103957611038610c93565b5b5f61104684828501610caa565b91505092915050565b61105881610fa9565b82525050565b5f6020820190506110715f83018461104f565b92915050565b5f73ffffffffffffffffffffffffffffffffffffffff82169050919050565b5f6110a082611077565b9050919050565b6110b081611096565b82525050565b5f6020820190506110c95f8301846110a7565b92915050565b6110d881611096565b81146110e2575f5ffd5b50565b5f813590506110f3816110cf565b92915050565b5f6020828403121561110e5761110d610c93565b5b5f61111b848285016110e5565b91505092915050565b5f5f83601f84011261113957611138610d2f565b5b8235905067ffffffffffffffff81111561115657611155610d33565b5b60208301915083602082028301111561117257611171610d37565b5b9250929050565b5f5f5f604084860312156111905761118f610c93565b5b5f61119d86828701610caa565b935050602084013567ffffffffffffffff8111156111be576111bd610c97565b5b6111ca86828701611124565b92509250509250925092565b5f5ffd5b5f606082840312156111ef576111ee6111d6565b5b81905092915050565b5f5f6040838503121561120e5761120d610c93565b5b5f61121b85828601610caa565b925050602083013567ffffffffffffffff81111561123c5761123b610c97565b5b611248858286016111da565b9150509250929050565b61125b81610cbe565b82525050565b5f6020820190506112745f830184611252565b92915050565b7f4e487b71000000000000000000000000000000000000000000000000000000005f52604160045260245ffd5b7f4e487b71000000000000000000000000000000000000000000000000000000005f52603260045260245ffd5b5f5ffd5b5f5ffd5b5f5ffd5b5f823560016060038336030381126112fb576112fa6112d4565b5b80830191505092915050565b7f4e487b71000000000000000000000000000000000000000000000000000000005f52602160045260245ffd5b5f82825260208201905092915050565b7f496e697469616c697a61626c653a20636f6e747261637420697320616c7265615f8201527f647920696e697469616c697a6564000000000000000000000000000000000000602082015250565b5f61139e602e83611334565b91506113a982611344565b604082019050919050565b5f6020820190508181035f8301526113cb81611392565b9050919050565b5f819050919050565b5f60ff82169050919050565b5f819050919050565b5f61140a611405611400846113d2565b6113e7565b6113db565b9050919050565b61141a816113f0565b82525050565b5f6020820190506114335f830184611411565b92915050565b7f4f776e61626c653a206e6577206f776e657220697320746865207a65726f20615f8201527f6464726573730000000000000000000000000000000000000000000000000000602082015250565b5f611493602683611334565b915061149e82611439565b604082019050919050565b5f6020820190508181035f8301526114c081611487565b9050919050565b7f4f776e61626c653a2063616c6c6572206973206e6f7420746865206f776e65725f82015250565b5f6114fb602083611334565b9150611506826114c7565b602082019050919050565b5f6020820190508181035f830152611528816114ef565b9050919050565b5f5f8335600160200384360303811261154b5761154a6112d4565b5b80840192508235915067ffffffffffffffff82111561156d5761156c6112d8565b5b602083019250604082023603831315611589576115886112dc565b5b509250929050565b5f5f833560016020038436030381126115ad576115ac6112d4565b5b80840192508235915067ffffffffffffffff8211156115cf576115ce6112d8565b5b6020830192506001820236038313156115eb576115ea6112dc565b5b509250929050565b828183375f83830152505050565b5f601f19601f8301169050919050565b5f61161c8385611334565b93506116298385846115f3565b61163283611601565b840190509392505050565b5f6040820190508181035f830152611656818688611611565b9050818103602083015261166b818486611611565b905095945050505050565b5f82825260208201905092915050565b5f819050919050565b611698816113db565b81146116a2575f5ffd5b50565b5f813590506116b38161168f565b92915050565b5f6116c760208401846116a5565b905092915050565b6116d8816113db565b82525050565b5f6116ec6020840184610cdd565b905092915050565b604082016117045f8301836116b9565b6117105f8501826116cf565b5061171e60208301836116de565b61172b6020850182610e16565b50505050565b5f61173c83836116f4565b60408301905092915050565b5f82905092915050565b5f604082019050919050565b5f6117698385611676565b935061177482611686565b805f5b858110156117ac576117898284611748565b6117938882611731565b975061179e83611752565b925050600181019050611777565b5085925050509392505050565b5f6020820190508181035f8301526117d281848661175e565b90509392505050565b5f819050919050565b7f4e487b71000000000000000000000000000000000000000000000000000000005f52601160045260245ffd5b5f61181b826117db565b9150611826836117db565b925082820390508181111561183e5761183d6117e4565b5b92915050565b5f6020828403121561185957611858610c93565b5b5f611866848285016116a5565b9150509291505056fea164736f6c6343000821000a",
    "linkReferences": {}
  },
  "methodIdentifiers": {
    "addImage(uint8,((uint8,bytes32)[],string,string))": "ffc2585d",
    "addImages(uint8,((uint8,bytes32)[],string,string)[])": "188675b3",
    "images(uint8,bytes32)": "4a4f02de",
    "initialize(address)": "c4d66de8",
    "isImageAllowed(uint8,(uint8,bytes32)[])": "2d5a1daf",
    "isTCBValid(uint8,uint64)": "43e3dd05",
    "minimumTCB(uint8)": "4ec8d4fa",
    "owner()": "8da5cb5b",
    "removeImage(uint8,bytes32)": "036257e2",
    "removeImages(uint8,bytes32[])": "d79799b5",
    "renounceOwnership()": "715018a6",
    "setMinimumTCB(uint8,uint64)": "a54c8287",
    "transferOwnership(address)": "f2fde38b"
  },
  "id": 122
}