{
  "abi": [
    {
      "type": "constructor",
      "inputs": [
        {
          "name": "_usdc",
          "type": "address",
          "internalType": "contract IERC20"
        },
        {
          "name": "_treasury",
          "type": "address",
          "internalType": "address"
        }
      ],
      "stateMutability": "nonpayable"
    },
    {
      "type": "function",
      "name": "initialize",
      "inputs": [
        {
          "name": "initialOwner",
          "type": "address",
          "internalType": "address"
        },
        {
          "name": "_minimumPurchase",
          "type": "uint256",
          "internalType": "uint256"
        }
      ],
      "outputs": [],
      "stateMutability": "nonpayable"
    },
    {
      "type": "function",
      "name": "minimumPurchase",
      "inputs": [],
      "outputs": [
        {
          "name": "",
          "type": "uint256",
          "internalType": "uint256"
        }
      ],
      "stateMutability": "view"
    },
    {
      "type": "function",
      "name": "owner",
      "inputs": [],
      "outputs": [
        {
          "name": "",
          "type": "address",
          "internalType": "address"
        }
      ],
      "stateMutability": "view"
    },
    {
      "type": "function",
      "name": "purchaseCredits",
      "inputs": [
        {
          "name": "amount",
          "type": "uint256",
          "internalType": "uint256"
        }
      ],
      "outputs": [],
      "stateMutability": "nonpayable"
    },
    {
      "type": "function",
      "name": "purchaseCreditsFor",
      "inputs": [
        {
          "name": "amount",
          "type": "uint256",
          "internalType": "uint256"
        },
        {
          "name": "account",
          "type": "address",
          "internalType": "address"
        }
      ],
      "outputs": [],
      "stateMutability": "nonpayable"
    },
    {
      "type": "function",
      "name": "renounceOwnership",
      "inputs": [],
      "outputs": [],
      "stateMutability": "nonpayable"
    },
    {
      "type": "function",
      "name": "setMinimumPurchaseFor",
      "inputs": [
        {
          "name": "newMinimum",
          "type": "uint256",
          "internalType": "uint256"
        }
      ],
      "outputs": [],
      "stateMutability": "nonpayable"
    },
    {
      "type": "function",
      "name": "sweep",
      "inputs": [
        {
          "name": "token",
          "type": "address",
          "internalType": "contract IERC20"
        }
      ],
      "outputs": [],
      "stateMutability": "nonpayable"
    },
    {
      "type": "function",
      "name": "transferOwnership",
      "inputs": [
        {
          "name": "newOwner",
          "type": "address",
          "internalType": "address"
        }
      ],
      "outputs": [],
      "stateMutability": "nonpayable"
    },
    {
      "type": "function",
      "name": "treasury",
      "inputs": [],
      "outputs": [
        {
          "name": "",
          "type": "address",
          "internalType": "address"
        }
      ],
      "stateMutability": "view"
    },
    {
      "type": "function",
      "name": "usdc",
      "inputs": [],
      "outputs": [
        {
          "name": "",
          "type": "address",
          "internalType": "contract IERC20"
        }
      ],
      "stateMutability": "view"
    },
    {
      "type": "event",
      "name": "CreditsPurchased",
      "inputs": [
        {
          "name": "purchaser",
          "type": "address",
          "indexed": true,
          "internalType": "address"
        },
        {
          "name": "account",
          "type": "address",
          "indexed": true,
          "internalType": "address"
        },
        {
          "name": "amount",
          "type": "uint256",
          "indexed": false,
          "internalType": "uint256"
        }
      ],
      "anonymous": false
    },
    {
      "type": "event",
      "name": "Initialized",
      "inputs": [
        {
          "name": "version",
          "type": "uint8",
          "indexed": false,
          "internalType": "uint8"
        }
      ],
      "anonymous": false
    },
    {
      "type": "event",
      "name": "MinimumPurchaseSet",
      "inputs": [
        {
          "name": "oldMinimum",
          "type": "uint256",
          "indexed": false,
          "internalType": "uint256"
        },
        {
          "name": "newMinimum",
          "type": "uint256",
          "indexed": false,
          "internalType": "uint256"
        }
      ],
      "anonymous": false
    },
    {
      "type": "event",
      "name": "OwnershipTransferred",
      "inputs": [
        {
          "name": "previousOwner",
          "type": "address",
          "indexed": true,
          "internalType": "address"
        },
        {
          "name": "newOwner",
          "type": "address",
          "indexed": true,
          "internalType": "address"
        }
      ],
      "anonymous": false
    },
    {
      "type": "error",
      "name": "BelowMinimumPurchase",
      "inputs": []
    },
    {
      "type": "error",
      "name": "ZeroAddress",
      "inputs": []
    }
  ],
  "bytecode": {
    "object": "0x60c060405234801561000f575f5ffd5b50604051611897380380611897833981810160405281019061003191906102d3565b81815f73ffffffffffffffffffffffffffffffffffffffff168273ffffffffffffffffffffffffffffffffffffffff1603610098576040517fd92e233d00000000000000000000000000000000000000000000000000000000815260040160405180910390fd5b5f73ffffffffffffffffffffffffffffffffffffffff168173ffffffffffffffffffffffffffffffffffffffff16036100fd576040517fd92e233d00000000000000000000000000000000000000000000000000000000815260040160405180910390fd5b8173ffffffffffffffffffffffffffffffffffffffff1660808173ffffffffffffffffffffffffffffffffffffffff16815250508073ffffffffffffffffffffffffffffffffffffffff1660a08173ffffffffffffffffffffffffffffffffffffffff1681525050505061017561017c60201b60201c565b50506103e3565b5f60019054906101000a900460ff16156101cb576040517f08c379a00000000000000000000000000000000000000000000000000000000081526004016101c290610391565b60405180910390fd5b60ff80165f5f9054906101000a900460ff1660ff16146102385760ff5f5f6101000a81548160ff021916908360ff1602179055507f7f26b83ff96e1f2b6a682f133852f6798a09c465da95921460cefb384740249860ff60405161022f91906103ca565b60405180910390a15b565b5f5ffd5b5f73ffffffffffffffffffffffffffffffffffffffff82169050919050565b5f6102678261023e565b9050919050565b5f6102788261025d565b9050919050565b6102888161026e565b8114610292575f5ffd5b50565b5f815190506102a38161027f565b92915050565b6102b28161025d565b81146102bc575f5ffd5b50565b5f815190506102cd816102a9565b92915050565b5f5f604083850312156102e9576102e861023a565b5b5f6102f685828601610295565b9250506020610307858286016102bf565b9150509250929050565b5f82825260208201905092915050565b7f496e697469616c697a61626c653a20636f6e747261637420697320696e6974695f8201527f616c697a696e6700000000000000000000000000000000000000000000000000602082015250565b5f61037b602783610311565b915061038682610321565b604082019050919050565b5f6020820190508181035f8301526103a88161036f565b9050919050565b5f60ff82169050919050565b6103c4816103af565b82525050565b5f6020820190506103dd5f8301846103bb565b92915050565b60805160a05161147e6104195f395f81816102650152818161032801526105bc01525f818161030401526105de015261147e5ff3fe608060405234801561000f575f5ffd5b50600436106100a7575f3560e01c80638da5cb5b1161006f5780638da5cb5b14610129578063aa2de6c314610147578063bef101fb14610165578063cd6dc68714610181578063dfeddbc31461019d578063f2fde38b146101b9576100a7565b806301681a62146100ab5780633a7f6b4e146100c75780633e413bee146100e357806361d027b314610101578063715018a61461011f575b5f5ffd5b6100c560048036038101906100c09190610c81565b6101d5565b005b6100e160048036038101906100dc9190610cdf565b6102b0565b005b6100eb610302565b6040516100f89190610d65565b60405180910390f35b610109610326565b6040516101169190610d8d565b60405180910390f35b61012761034a565b005b61013161035d565b60405161013e9190610d8d565b60405180910390f35b61014f610385565b60405161015c9190610db5565b60405180910390f35b61017f600480360381019061017a9190610cdf565b61038b565b005b61019b60048036038101906101969190610df8565b610398565b005b6101b760048036038101906101b29190610e36565b610515565b005b6101d360048036038101906101ce9190610e74565b61068c565b005b6101dd61070e565b5f8173ffffffffffffffffffffffffffffffffffffffff166370a08231306040518263ffffffff1660e01b81526004016102179190610d8d565b602060405180830381865afa158015610232573d5f5f3e3d5ffd5b505050506040513d601f19601f820116820180604052508101906102569190610eb3565b90505f8111156102ac576102ab7f0000000000000000000000000000000000000000000000000000000000000000828473ffffffffffffffffffffffffffffffffffffffff1661078c9092919063ffffffff16565b5b5050565b6102b861070e565b5f6065549050816065819055507f5e8b575e5cb7032880f0fdfd3328e9bd70ecd2170c4875aa0eb267d553866b0381836040516102f6929190610ede565b60405180910390a15050565b7f000000000000000000000000000000000000000000000000000000000000000081565b7f000000000000000000000000000000000000000000000000000000000000000081565b61035261070e565b61035b5f610812565b565b5f60335f9054906101000a900473ffffffffffffffffffffffffffffffffffffffff16905090565b60655481565b6103958133610515565b50565b5f5f60019054906101000a900460ff161590508080156103c8575060015f5f9054906101000a900460ff1660ff16105b806103f557506103d7306108d5565b1580156103f4575060015f5f9054906101000a900460ff1660ff16145b5b610434576040517f08c379a000000000000000000000000000000000000000000000000000000000815260040161042b90610f85565b60405180910390fd5b60015f5f6101000a81548160ff021916908360ff160217905550801561046f5760015f60016101000a81548160ff0219169083151502179055505b61047883610812565b816065819055507f5e8b575e5cb7032880f0fdfd3328e9bd70ecd2170c4875aa0eb267d553866b035f836040516104b0929190610fdc565b60405180910390a18015610510575f5f60016101000a81548160ff0219169083151502179055507f7f26b83ff96e1f2b6a682f133852f6798a09c465da95921460cefb384740249860016040516105079190611048565b60405180910390a15b505050565b5f73ffffffffffffffffffffffffffffffffffffffff168173ffffffffffffffffffffffffffffffffffffffff160361057a576040517fd92e233d00000000000000000000000000000000000000000000000000000000815260040160405180910390fd5b6065548210156105b6576040517ffcd2aaeb00000000000000000000000000000000000000000000000000000000815260040160405180910390fd5b610623337f0000000000000000000000000000000000000000000000000000000000000000847f000000000000000000000000000000000000000000000000000000000000000073ffffffffffffffffffffffffffffffffffffffff166108f7909392919063ffffffff16565b8073ffffffffffffffffffffffffffffffffffffffff163373ffffffffffffffffffffffffffffffffffffffff167f04297192211dd6ce4c4f2aac1d314a51360598d084022b5e7a4148b2dabc9898846040516106809190610db5565b60405180910390a35050565b61069461070e565b5f73ffffffffffffffffffffffffffffffffffffffff168173ffffffffffffffffffffffffffffffffffffffff1603610702576040517f08c379a00000000000000000000000000000000000000000000000000000000081526004016106f9906110d1565b60405180910390fd5b61070b81610812565b50565b610716610980565b73ffffffffffffffffffffffffffffffffffffffff1661073461035d565b73ffffffffffffffffffffffffffffffffffffffff161461078a576040517f08c379a000000000000000000000000000000000000000000000000000000000815260040161078190611139565b60405180910390fd5b565b61080d8363a9059cbb60e01b84846040516024016107ab929190611157565b604051602081830303815290604052907bffffffffffffffffffffffffffffffffffffffffffffffffffffffff19166020820180517bffffffffffffffffffffffffffffffffffffffffffffffffffffffff8381831617835250505050610987565b505050565b5f60335f9054906101000a900473ffffffffffffffffffffffffffffffffffffffff1690508160335f6101000a81548173ffffffffffffffffffffffffffffffffffffffff021916908373ffffffffffffffffffffffffffffffffffffffff1602179055508173ffffffffffffffffffffffffffffffffffffffff168173ffffffffffffffffffffffffffffffffffffffff167f8be0079c531659141344cd1fd0a4f28419497f9722a3daafe3b4186f6b6457e060405160405180910390a35050565b5f5f8273ffffffffffffffffffffffffffffffffffffffff163b119050919050565b61097a846323b872dd60e01b8585856040516024016109189392919061117e565b604051602081830303815290604052907bffffffffffffffffffffffffffffffffffffffffffffffffffffffff19166020820180517bffffffffffffffffffffffffffffffffffffffffffffffffffffffff8381831617835250505050610987565b50505050565b5f33905090565b5f6109e8826040518060400160405280602081526020017f5361666545524332303a206c6f772d6c6576656c2063616c6c206661696c65648152508573ffffffffffffffffffffffffffffffffffffffff16610a4d9092919063ffffffff16565b90505f81511480610a09575080806020019051810190610a0891906111e8565b5b610a48576040517f08c379a0000000000000000000000000000000000000000000000000000000008152600401610a3f90611283565b60405180910390fd5b505050565b6060610a5b84845f85610a64565b90509392505050565b606082471015610aa9576040517f08c379a0000000000000000000000000000000000000000000000000000000008152600401610aa090611311565b60405180910390fd5b5f5f8673ffffffffffffffffffffffffffffffffffffffff168587604051610ad19190611381565b5f6040518083038185875af1925050503d805f8114610b0b576040519150601f19603f3d011682016040523d82523d5f602084013e610b10565b606091505b5091509150610b2187838387610b2d565b92505050949350505050565b60608315610b8e575f835103610b8657610b4685610ba1565b610b85576040517f08c379a0000000000000000000000000000000000000000000000000000000008152600401610b7c906113e1565b60405180910390fd5b5b829050610b99565b610b988383610bc3565b5b949350505050565b5f5f8273ffffffffffffffffffffffffffffffffffffffff163b119050919050565b5f82511115610bd55781518083602001fd5b806040517f08c379a0000000000000000000000000000000000000000000000000000000008152600401610c099190611451565b60405180910390fd5b5f5ffd5b5f73ffffffffffffffffffffffffffffffffffffffff82169050919050565b5f610c3f82610c16565b9050919050565b5f610c5082610c35565b9050919050565b610c6081610c46565b8114610c6a575f5ffd5b50565b5f81359050610c7b81610c57565b92915050565b5f60208284031215610c9657610c95610c12565b5b5f610ca384828501610c6d565b91505092915050565b5f819050919050565b610cbe81610cac565b8114610cc8575f5ffd5b50565b5f81359050610cd981610cb5565b92915050565b5f60208284031215610cf457610cf3610c12565b5b5f610d0184828501610ccb565b91505092915050565b5f819050919050565b5f610d2d610d28610d2384610c16565b610d0a565b610c16565b9050919050565b5f610d3e82610d13565b9050919050565b5f610d4f82610d34565b9050919050565b610d5f81610d45565b82525050565b5f602082019050610d785f830184610d56565b92915050565b610d8781610c35565b82525050565b5f602082019050610da05f830184610d7e565b92915050565b610daf81610cac565b82525050565b5f602082019050610dc85f830184610da6565b92915050565b610dd781610c35565b8114610de1575f5ffd5b50565b5f81359050610df281610dce565b92915050565b5f5f60408385031215610e0e57610e0d610c12565b5b5f610e1b85828601610de4565b9250506020610e2c85828601610ccb565b9150509250929050565b5f5f60408385031215610e4c57610e4b610c12565b5b5f610e5985828601610ccb565b9250506020610e6a85828601610de4565b9150509250929050565b5f60208284031215610e8957610e88610c12565b5b5f610e9684828501610de4565b91505092915050565b5f81519050610ead81610cb5565b92915050565b5f60208284031215610ec857610ec7610c12565b5b5f610ed584828501610e9f565b91505092915050565b5f604082019050610ef15f830185610da6565b610efe6020830184610da6565b9392505050565b5f82825260208201905092915050565b7f496e697469616c697a61626c653a20636f6e747261637420697320616c7265615f8201527f647920696e697469616c697a6564000000000000000000000000000000000000602082015250565b5f610f6f602e83610f05565b9150610f7a82610f15565b604082019050919050565b5f6020820190508181035f830152610f9c81610f63565b9050919050565b5f819050919050565b5f610fc6610fc1610fbc84610fa3565b610d0a565b610cac565b9050919050565b610fd681610fac565b82525050565b5f604082019050610fef5f830185610fcd565b610ffc6020830184610da6565b9392505050565b5f819050919050565b5f60ff82169050919050565b5f61103261102d61102884611003565b610d0a565b61100c565b9050919050565b61104281611018565b82525050565b5f60208201905061105b5f830184611039565b92915050565b7f4f776e61626c653a206e6577206f776e657220697320746865207a65726f20615f8201527f6464726573730000000000000000000000000000000000000000000000000000602082015250565b5f6110bb602683610f05565b91506110c682611061565b604082019050919050565b5f6020820190508181035f8301526110e8816110af565b9050919050565b7f4f776e61626c653a2063616c6c6572206973206e6f7420746865206f776e65725f82015250565b5f611123602083610f05565b915061112e826110ef565b602082019050919050565b5f6020820190508181035f83015261115081611117565b9050919050565b5f60408201905061116a5f830185610d7e565b6111776020830184610da6565b9392505050565b5f6060820190506111915f830186610d7e565b61119e6020830185610d7e565b6111ab6040830184610da6565b949350505050565b5f8115159050919050565b6111c7816111b3565b81146111d1575f5ffd5b50565b5f815190506111e2816111be565b92915050565b5f602082840312156111fd576111fc610c12565b5b5f61120a848285016111d4565b91505092915050565b7f5361666545524332303a204552433230206f7065726174696f6e20646964206e5f8201527f6f74207375636365656400000000000000000000000000000000000000000000602082015250565b5f61126d602a83610f05565b915061127882611213565b604082019050919050565b5f6020820190508181035f83015261129a81611261565b9050919050565b7f416464726573733a20696e73756666696369656e742062616c616e636520666f5f8201527f722063616c6c0000000000000000000000000000000000000000000000000000602082015250565b5f6112fb602683610f05565b9150611306826112a1565b604082019050919050565b5f6020820190508181035f830152611328816112ef565b9050919050565b5f81519050919050565b5f81905092915050565b8281835e5f83830152505050565b5f61135b8261132f565b6113658185611339565b9350611375818560208601611343565b80840191505092915050565b5f61138c8284611351565b915081905092915050565b7f416464726573733a2063616c6c20746f206e6f6e2d636f6e74726163740000005f82015250565b5f6113cb601d83610f05565b91506113d682611397565b602082019050919050565b5f6020820190508181035f8301526113f8816113bf565b9050919050565b5f81519050919050565b5f601f19601f8301169050919050565b5f611423826113ff565b61142d8185610f05565b935061143d818560208601611343565b61144681611409565b840191505092915050565b5f6020820190508181035f8301526114698184611419565b90509291505056fea164736f6c6343000821000a",
    "linkReferences": {}
  },
  "methodIdentifiers": {
    "initialize(address,uint256)": "cd6dc687",
    "minimumPurchase()": "aa2de6c3",
    "owner()": "8da5cb5b",
    "purchaseCredits(uint256)": "bef101fb",
    "purchaseCreditsFor(uint256,address)": "dfeddbc3",
    "renounceOwnership()": "715018a6",
    "setMinimumPurchaseFor(uint256)": "3a7f6b4e",
    "sweep(address)": "01681a62",
    "transferOwnership(address)": "f2fde38b",
    "treasury()": "61d027b3",
    "usdc()": "3e413bee"
  },
  "id": 123
}