{
  "abi": [
    {
      "type": "constructor",
      "inputs": [
        {
          "name": "_version",
          "type": "string",
          "internalType": "string"
        },
        {
          "name": "_permissionController",
          "type": "address",
          "internalType": "contract IPermissionController"
        },
        {
          "name": "_releaseManager",
          "type": "address",
          "internalType": "contract IReleaseManager"
        },
        {
          "name": "_computeAVSRegistrar",
          "type": "address",
          "internalType": "contract IComputeAVSRegistrar"
        },
        {
          "name": "_computeOperator",
          "type": "address",
          "internalType": "contract IComputeOperator"
        },
        {
          "name": "_appBeacon",
          "type": "address",
          "internalType": "contract IBeacon"
        }
      ],
      "stateMutability": "nonpayable"
    },
    {
      "type": "function",
      "name": "API_PERMISSION_TYPEHASH",
      "inputs": [],
      "outputs": [
        {
          "name": "",
          "type": "bytes32",
          "internalType": "bytes32"
        }
      ],
      "stateMutability": "view"
    },
    {
      "type": "function",
      "name": "appBeacon",
      "inputs": [],
      "outputs": [
        {
          "name": "",
          "type": "address",
          "internalType": "contract IBeacon"
        }
      ],
      "stateMutability": "view"
    },
    {
      "type": "function",
      "name": "calculateApiPermissionDigestHash",
      "inputs": [
        {
          "name": "permission",
          "type": "bytes4",
          "internalType": "bytes4"
        },
        {
          "name": "expiry",
          "type": "uint256",
          "internalType": "uint256"
        }
      ],
      "outputs": [
        {
          "name": "",
          "type": "bytes32",
          "internalType": "bytes32"
        }
      ],
      "stateMutability": "view"
    },
    {
      "type": "function",
      "name": "calculateAppId",
      "inputs": [
        {
          "name": "deployer",
          "type": "address",
          "internalType": "address"
        },
        {
          "name": "salt",
          "type": "bytes32",
          "internalType": "bytes32"
        }
      ],
      "outputs": [
        {
          "name": "",
          "type": "address",
          "internalType": "contract IApp"
        }
      ],
      "stateMutability": "view"
    },
    {
      "type": "function",
      "name": "computeAVSRegistrar",
      "inputs": [],
      "outputs": [
        {
          "name": "",
          "type": "address",
          "internalType": "contract IComputeAVSRegistrar"
        }
      ],
      "stateMutability": "view"
    },
    {
      "type": "function",
      "name": "computeOperator",
      "inputs": [],
      "outputs": [
        {
          "name": "",
          "type": "address",
          "internalType": "contract IComputeOperator"
        }
      ],
      "stateMutability": "view"
    },
    {
      "type": "function",
      "name": "createApp",
      "inputs": [
        {
          "name": "salt",
          "type": "bytes32",
          "internalType": "bytes32"
        },
        {
          "name": "release",
          "type": "tuple",
          "internalType": "struct IAppController.Release",
          "components": [
            {
              "name": "rmsRelease",
              "type": "tuple",
              "internalType": "struct IReleaseManagerTypes.Release",
              "components": [
                {
                  "name": "artifacts",
                  "type": "tuple[]",
                  "internalType": "struct IReleaseManagerTypes.Artifact[]",
                  "components": [
                    {
                      "name": "digest",
                      "type": "bytes32",
                      "internalType": "bytes32"
                    },
                    {
                      "name": "registry",
                      "type": "string",
                      "internalType": "string"
                    }
                  ]
                },
                {
                  "name": "upgradeByTime",
                  "type": "uint32",
                  "internalType": "uint32"
                }
              ]
            },
            {
              "name": "publicEnv",
              "type": "bytes",
              "internalType": "bytes"
            },
            {
              "name": "encryptedEnv",
              "type": "bytes",
              "internalType": "bytes"
            }
          ]
        }
      ],
      "outputs": [
        {
          "name": "app",
          "type": "address",
          "internalType": "contract IApp"
        }
      ],
      "stateMutability": "nonpayable"
    },
    {
      "type": "function",
      "name": "createAppWithIsolatedBilling",
      "inputs": [
        {
          "name": "salt",
          "type": "bytes32",
          "internalType": "bytes32"
        },
        {
          "name": "release",
          "type": "tuple",
          "internalType": "struct IAppController.Release",
          "components": [
            {
              "name": "rmsRelease",
              "type": "tuple",
              "internalType": "struct IReleaseManagerTypes.Release",
              "components": [
                {
                  "name": "artifacts",
                  "type": "tuple[]",
                  "internalType": "struct IReleaseManagerTypes.Artifact[]",
                  "components": [
                    {
                      "name": "digest",
                      "type": "bytes32",
                      "internalType": "bytes32"
                    },
                    {
                      "name": "registry",
                      "type": "string",
                      "internalType": "string"
                    }
                  ]
                },
                {
                  "name": "upgradeByTime",
                  "type": "uint32",
                  "internalType": "uint32"
                }
              ]
            },
            {
              "name": "publicEnv",
              "type": "bytes",
              "internalType": "bytes"
            },
            {
              "name": "encryptedEnv",
              "type": "bytes",
              "internalType": "bytes"
            }
          ]
        }
      ],
      "outputs": [
        {
          "name": "app",
          "type": "address",
          "internalType": "contract IApp"
        }
      ],
      "stateMutability": "nonpayable"
    },
    {
      "type": "function",
      "name": "domainSeparator",
      "inputs": [],
      "outputs": [
        {
          "name": "",
          "type": "bytes32",
          "internalType": "bytes32"
        }
      ],
      "stateMutability": "view"
    },
    {
      "type": "function",
      "name": "getActiveAppCount",
      "inputs": [
        {
          "name": "user",
          "type": "address",
          "internalType": "address"
        }
      ],
      "outputs": [
        {
          "name": "",
          "type": "uint32",
          "internalType": "uint32"
        }
      ],
      "stateMutability": "view"
    },
    {
      "type": "function",
      "name": "getAppCreator",
      "inputs": [
        {
          "name": "app",
          "type": "address",
          "internalType": "contract IApp"
        }
      ],
      "outputs": [
        {
          "name": "",
          "type": "address",
          "internalType": "address"
        }
      ],
      "stateMutability": "view"
    },
    {
      "type": "function",
      "name": "getAppLatestReleaseBlockNumber",
      "inputs": [
        {
          "name": "app",
          "type": "address",
          "internalType": "contract IApp"
        }
      ],
      "outputs": [
        {
          "name": "",
          "type": "uint32",
          "internalType": "uint32"
        }
      ],
      "stateMutability": "view"
    },
    {
      "type": "function",
      "name": "getAppOperatorSetId",
      "inputs": [
        {
          "name": "app",
          "type": "address",
          "internalType": "contract IApp"
        }
      ],
      "outputs": [
        {
          "name": "",
          "type": "uint32",
          "internalType": "uint32"
        }
      ],
      "stateMutability": "view"
    },
    {
      "type": "function",
      "name": "getAppStatus",
      "inputs": [
        {
          "name": "app",
          "type": "address",
          "internalType": "contract IApp"
        }
      ],
      "outputs": [
        {
          "name": "",
          "type": "uint8",
          "internalType": "enum IAppController.AppStatus"
        }
      ],
      "stateMutability": "view"
    },
    {
      "type": "function",
      "name": "getApps",
      "inputs": [
        {
          "name": "offset",
          "type": "uint256",
          "internalType": "uint256"
        },
        {
          "name": "limit",
          "type": "uint256",
          "internalType": "uint256"
        }
      ],
      "outputs": [
        {
          "name": "apps",
          "type": "address[]",
          "internalType": "contract IApp[]"
        },
        {
          "name": "appConfigsMem",
          "type": "tuple[]",
          "internalType": "struct IAppController.AppConfig[]",
          "components": [
            {
              "name": "creator",
              "type": "address",
              "internalType": "address"
            },
            {
              "name": "operatorSetId",
              "type": "uint32",
              "internalType": "uint32"
            },
            {
              "name": "latestReleaseBlockNumber",
              "type": "uint32",
              "internalType": "uint32"
            },
            {
              "name": "status",
              "type": "uint8",
              "internalType": "enum IAppController.AppStatus"
            }
          ]
        }
      ],
      "stateMutability": "view"
    },
    {
      "type": "function",
      "name": "getAppsByBillingAccount",
      "inputs": [
        {
          "name": "account",
          "type": "address",
          "internalType": "address"
        },
        {
          "name": "offset",
          "type": "uint256",
          "internalType": "uint256"
        },
        {
          "name": "limit",
          "type": "uint256",
          "internalType": "uint256"
        }
      ],
      "outputs": [
        {
          "name": "apps",
          "type": "address[]",
          "internalType": "contract IApp[]"
        },
        {
          "name": "appConfigsMem",
          "type": "tuple[]",
          "internalType": "struct IAppController.AppConfig[]",
          "components": [
            {
              "name": "creator",
              "type": "address",
              "internalType": "address"
            },
            {
              "name": "operatorSetId",
              "type": "uint32",
              "internalType": "uint32"
            },
            {
              "name": "latestReleaseBlockNumber",
              "type": "uint32",
              "internalType": "uint32"
            },
            {
              "name": "status",
              "type": "uint8",
              "internalType": "enum IAppController.AppStatus"
            }
          ]
        }
      ],
      "stateMutability": "view"
    },
    {
      "type": "function",
      "name": "getAppsByCreator",
      "inputs": [
        {
          "name": "creator",
          "type": "address",
          "internalType": "address"
        },
        {
          "name": "offset",
          "type": "uint256",
          "internalType": "uint256"
        },
        {
          "name": "limit",
          "type": "uint256",
          "internalType": "uint256"
        }
      ],
      "outputs": [
        {
          "name": "apps",
          "type": "address[]",
          "internalType": "contract IApp[]"
        },
        {
          "name": "appConfigsMem",
          "type": "tuple[]",
          "internalType": "struct IAppController.AppConfig[]",
          "components": [
            {
              "name": "creator",
              "type": "address",
              "internalType": "address"
            },
            {
              "name": "operatorSetId",
              "type": "uint32",
              "internalType": "uint32"
            },
            {
              "name": "latestReleaseBlockNumber",
              "type": "uint32",
              "internalType": "uint32"
            },
            {
              "name": "status",
              "type": "uint8",
              "internalType": "enum IAppController.AppStatus"
            }
          ]
        }
      ],
      "stateMutability": "view"
    },
    {
      "type": "function",
      "name": "getAppsByDeveloper",
      "inputs": [
        {
          "name": "developer",
          "type": "address",
          "internalType": "address"
        },
        {
          "name": "offset",
          "type": "uint256",
          "internalType": "uint256"
        },
        {
          "name": "limit",
          "type": "uint256",
          "internalType": "uint256"
        }
      ],
      "outputs": [
        {
          "name": "apps",
          "type": "address[]",
          "internalType": "contract IApp[]"
        },
        {
          "name": "appConfigsMem",
          "type": "tuple[]",
          "internalType": "struct IAppController.AppConfig[]",
          "components": [
            {
              "name": "creator",
              "type": "address",
              "internalType": "address"
            },
            {
              "name": "operatorSetId",
              "type": "uint32",
              "internalType": "uint32"
            },
            {
              "name": "latestReleaseBlockNumber",
              "type": "uint32",
              "internalType": "uint32"
            },
            {
              "name": "status",
              "type": "uint8",
              "internalType": "enum IAppController.AppStatus"
            }
          ]
        }
      ],
      "stateMutability": "view"
    },
    {
      "type": "function",
      "name": "getBillingAccount",
      "inputs": [
        {
          "name": "app",
          "type": "address",
          "internalType": "contract IApp"
        }
      ],
      "outputs": [
        {
          "name": "",
          "type": "address",
          "internalType": "address"
        }
      ],
      "stateMutability": "view"
    },
    {
      "type": "function",
      "name": "getBillingType",
      "inputs": [
        {
          "name": "app",
          "type": "address",
          "internalType": "contract IApp"
        }
      ],
      "outputs": [
        {
          "name": "",
          "type": "uint8",
          "internalType": "enum IAppController.BillingType"
        }
      ],
      "stateMutability": "view"
    },
    {
      "type": "function",
      "name": "getMaxActiveAppsPerUser",
      "inputs": [
        {
          "name": "user",
          "type": "address",
          "internalType": "address"
        }
      ],
      "outputs": [
        {
          "name": "",
          "type": "uint32",
          "internalType": "uint32"
        }
      ],
      "stateMutability": "view"
    },
    {
      "type": "function",
      "name": "globalActiveAppCount",
      "inputs": [],
      "outputs": [
        {
          "name": "",
          "type": "uint32",
          "internalType": "uint32"
        }
      ],
      "stateMutability": "view"
    },
    {
      "type": "function",
      "name": "initialize",
      "inputs": [
        {
          "name": "admin",
          "type": "address",
          "internalType": "address"
        }
      ],
      "outputs": [],
      "stateMutability": "nonpayable"
    },
    {
      "type": "function",
      "name": "maxGlobalActiveApps",
      "inputs": [],
      "outputs": [
        {
          "name": "",
          "type": "uint32",
          "internalType": "uint32"
        }
      ],
      "stateMutability": "view"
    },
    {
      "type": "function",
      "name": "permissionController",
      "inputs": [],
      "outputs": [
        {
          "name": "",
          "type": "address",
          "internalType": "contract IPermissionController"
        }
      ],
      "stateMutability": "view"
    },
    {
      "type": "function",
      "name": "releaseManager",
      "inputs": [],
      "outputs": [
        {
          "name": "",
          "type": "address",
          "internalType": "contract IReleaseManager"
        }
      ],
      "stateMutability": "view"
    },
    {
      "type": "function",
      "name": "setMaxActiveAppsPerUser",
      "inputs": [
        {
          "name": "user",
          "type": "address",
          "internalType": "address"
        },
        {
          "name": "limit",
          "type": "uint32",
          "internalType": "uint32"
        }
      ],
      "outputs": [],
      "stateMutability": "nonpayable"
    },
    {
      "type": "function",
      "name": "setMaxGlobalActiveApps",
      "inputs": [
        {
          "name": "limit",
          "type": "uint32",
          "internalType": "uint32"
        }
      ],
      "outputs": [],
      "stateMutability": "nonpayable"
    },
    {
      "type": "function",
      "name": "startApp",
      "inputs": [
        {
          "name": "app",
          "type": "address",
          "internalType": "contract IApp"
        }
      ],
      "outputs": [],
      "stateMutability": "nonpayable"
    },
    {
      "type": "function",
      "name": "stopApp",
      "inputs": [
        {
          "name": "app",
          "type": "address",
          "internalType": "contract IApp"
        }
      ],
      "outputs": [],
      "stateMutability": "nonpayable"
    },
    {
      "type": "function",
      "name": "suspend",
      "inputs": [
        {
          "name": "account",
          "type": "address",
          "internalType": "address"
        },
        {
          "name": "apps",
          "type": "address[]",
          "internalType": "contract IApp[]"
        }
      ],
      "outputs": [],
      "stateMutability": "nonpayable"
    },
    {
      "type": "function",
      "name": "terminateApp",
      "inputs": [
        {
          "name": "app",
          "type": "address",
          "internalType": "contract IApp"
        }
      ],
      "outputs": [],
      "stateMutability": "nonpayable"
    },
    {
      "type": "function",
      "name": "terminateAppByAdmin",
      "inputs": [
        {
          "name": "app",
          "type": "address",
          "internalType": "contract IApp"
        }
      ],
      "outputs": [],
      "stateMutability": "nonpayable"
    },
    {
      "type": "function",
      "name": "updateAppMetadataURI",
      "inputs": [
        {
          "name": "app",
          "type": "address",
          "internalType": "contract IApp"
        },
        {
          "name": "metadataURI",
          "type": "string",
          "internalType": "string"
        }
      ],
      "outputs": [],
      "stateMutability": "nonpayable"
    },
    {
      "type": "function",
      "name": "upgradeApp",
      "inputs": [
        {
          "name": "app",
          "type": "address",
          "internalType": "contract IApp"
        },
        {
          "name": "release",
          "type": "tuple",
          "internalType": "struct IAppController.Release",
          "components": [
            {
              "name": "rmsRelease",
              "type": "tuple",
              "internalType": "struct IReleaseManagerTypes.Release",
              "components": [
                {
                  "name": "artifacts",
                  "type": "tuple[]",
                  "internalType": "struct IReleaseManagerTypes.Artifact[]",
                  "components": [
                    {
                      "name": "digest",
                      "type": "bytes32",
                      "internalType": "bytes32"
                    },
                    {
                      "name": "registry",
                      "type": "string",
                      "internalType": "string"
                    }
                  ]
                },
                {
                  "name": "upgradeByTime",
                  "type": "uint32",
                  "internalType": "uint32"
                }
              ]
            },
            {
              "name": "publicEnv",
              "type": "bytes",
              "internalType": "bytes"
            },
            {
              "name": "encryptedEnv",
              "type": "bytes",
              "internalType": "bytes"
            }
          ]
        }
      ],
      "outputs": [
        {
          "name": "",
          "type": "uint256",
          "internalType": "uint256"
        }
      ],
      "stateMutability": "nonpayable"
    },
    {
      "type": "function",
      "name": "version",
      "inputs": [],
      "outputs": [
        {
          "name": "",
          "type": "string",
          "internalType": "string"
        }
      ],
      "stateMutability": "view"
    },
    {
      "type": "event",
      "name": "AppCreated",
      "inputs": [
        {
          "name": "creator",
          "type": "address",
          "indexed": true,
          "internalType": "address"
        },
        {
          "name": "app",
          "type": "address",
          "indexed": true,
          "internalType": "contract IApp"
        },
        {
          "name": "operatorSetId",
          "type": "uint32",
          "indexed": false,
          "internalType": "uint32"
        }
      ],
      "anonymous": false
    },
    {
      "type": "event",
      "name": "AppMetadataURIUpdated",
      "inputs": [
        {
          "name": "app",
          "type": "address",
          "indexed": true,
          "internalType": "contract IApp"
        },
        {
          "name": "metadataURI",
          "type": "string",
          "indexed": false,
          "internalType": "string"
        }
      ],
      "anonymous": false
    },
    {
      "type": "event",
      "name": "AppStarted",
      "inputs": [
        {
          "name": "app",
          "type": "address",
          "indexed": true,
          "internalType": "contract IApp"
        }
      ],
      "anonymous": false
    },
    {
      "type": "event",
      "name": "AppStopped",
      "inputs": [
        {
          "name": "app",
          "type": "address",
          "indexed": true,
          "internalType": "contract IApp"
        }
      ],
      "anonymous": false
    },
    {
      "type": "event",
      "name": "AppSuspended",
      "inputs": [
        {
          "name": "app",
          "type": "address",
          "indexed": true,
          "internalType": "contract IApp"
        }
      ],
      "anonymous": false
    },
    {
      "type": "event",
      "name": "AppTerminated",
      "inputs": [
        {
          "name": "app",
          "type": "address",
          "indexed": true,
          "internalType": "contract IApp"
        }
      ],
      "anonymous": false
    },
    {
      "type": "event",
      "name": "AppTerminatedByAdmin",
      "inputs": [
        {
          "name": "app",
          "type": "address",
          "indexed": true,
          "internalType": "contract IApp"
        }
      ],
      "anonymous": false
    },
    {
      "type": "event",
      "name": "AppUpgraded",
      "inputs": [
        {
          "name": "app",
          "type": "address",
          "indexed": true,
          "internalType": "contract IApp"
        },
        {
          "name": "rmsReleaseId",
          "type": "uint256",
          "indexed": false,
          "internalType": "uint256"
        },
        {
          "name": "release",
          "type": "tuple",
          "indexed": false,
          "internalType": "struct IAppController.Release",
          "components": [
            {
              "name": "rmsRelease",
              "type": "tuple",
              "internalType": "struct IReleaseManagerTypes.Release",
              "components": [
                {
                  "name": "artifacts",
                  "type": "tuple[]",
                  "internalType": "struct IReleaseManagerTypes.Artifact[]",
                  "components": [
                    {
                      "name": "digest",
                      "type": "bytes32",
                      "internalType": "bytes32"
                    },
                    {
                      "name": "registry",
                      "type": "string",
                      "internalType": "string"
                    }
                  ]
                },
                {
                  "name": "upgradeByTime",
                  "type": "uint32",
                  "internalType": "uint32"
                }
              ]
            },
            {
              "name": "publicEnv",
              "type": "bytes",
              "internalType": "bytes"
            },
            {
              "name": "encryptedEnv",
              "type": "bytes",
              "internalType": "bytes"
            }
          ]
        }
      ],
      "anonymous": false
    },
    {
      "type": "event",
      "name": "GlobalMaxActiveAppsSet",
      "inputs": [
        {
          "name": "limit",
          "type": "uint32",
          "indexed": false,
          "internalType": "uint32"
        }
      ],
      "anonymous": false
    },
    {
      "type": "event",
      "name": "Initialized",
      "inputs": [
        {
          "name": "version",
          "type": "uint8",
          "indexed": false,
          "internalType": "uint8"
        }
      ],
      "anonymous": false
    },
    {
      "type": "event",
      "name": "MaxActiveAppsSet",
      "inputs": [
        {
          "name": "user",
          "type": "address",
          "indexed": true,
          "internalType": "address"
        },
        {
          "name": "limit",
          "type": "uint32",
          "indexed": false,
          "internalType": "uint32"
        }
      ],
      "anonymous": false
    },
    {
      "type": "error",
      "name": "AccountHasActiveApps",
      "inputs": []
    },
    {
      "type": "error",
      "name": "AppAlreadyExists",
      "inputs": []
    },
    {
      "type": "error",
      "name": "AppDoesNotExist",
      "inputs": []
    },
    {
      "type": "error",
      "name": "GlobalMaxActiveAppsExceeded",
      "inputs": []
    },
    {
      "type": "error",
      "name": "InvalidAppStatus",
      "inputs": []
    },
    {
      "type": "error",
      "name": "InvalidPermissions",
      "inputs": []
    },
    {
      "type": "error",
      "name": "InvalidReleaseMetadataURI",
      "inputs": []
    },
    {
      "type": "error",
      "name": "InvalidShortString",
      "inputs": []
    },
    {
      "type": "error",
      "name": "InvalidSignature",
      "inputs": []
    },
    {
      "type": "error",
      "name": "MaxActiveAppsExceeded",
      "inputs": []
    },
    {
      "type": "error",
      "name": "MoreThanOneArtifact",
      "inputs": []
    },
    {
      "type": "error",
      "name": "SignatureExpired",
      "inputs": []
    },
    {
      "type": "error",
      "name": "StringTooLong",
      "inputs": [
        {
          "name": "str",
          "type": "string",
          "internalType": "string"
        }
      ]
    }
  ],
  "bytecode": {
    "object": "0x610140604052348015610010575f5ffd5b506040516163043803806163048339818101604052810190610032919061053c565b83828483888a806100488161017560201b60201c565b6080818152505050508073ffffffffffffffffffffffffffffffffffffffff1660a08173ffffffffffffffffffffffffffffffffffffffff1681525050508373ffffffffffffffffffffffffffffffffffffffff1660c08173ffffffffffffffffffffffffffffffffffffffff16815250508273ffffffffffffffffffffffffffffffffffffffff1660e08173ffffffffffffffffffffffffffffffffffffffff16815250508173ffffffffffffffffffffffffffffffffffffffff166101008173ffffffffffffffffffffffffffffffffffffffff16815250508073ffffffffffffffffffffffffffffffffffffffff166101208173ffffffffffffffffffffffffffffffffffffffff16815250505050505061016a6101da60201b60201c565b5050505050506107bd565b5f5f829050601f815111156101c157826040517f305a27a90000000000000000000000000000000000000000000000000000000081526004016101b89190610633565b60405180910390fd5b8051816101cd90610695565b5f1c175f1b915050919050565b5f60019054906101000a900460ff1615610229576040517f08c379a00000000000000000000000000000000000000000000000000000000081526004016102209061076b565b60405180910390fd5b60ff80165f5f9054906101000a900460ff1660ff16146102965760ff5f5f6101000a81548160ff021916908360ff1602179055507f7f26b83ff96e1f2b6a682f133852f6798a09c465da95921460cefb384740249860ff60405161028d91906107a4565b60405180910390a15b565b5f604051905090565b5f5ffd5b5f5ffd5b5f5ffd5b5f5ffd5b5f601f19601f8301169050919050565b7f4e487b71000000000000000000000000000000000000000000000000000000005f52604160045260245ffd5b6102f7826102b1565b810181811067ffffffffffffffff82111715610316576103156102c1565b5b80604052505050565b5f610328610298565b905061033482826102ee565b919050565b5f67ffffffffffffffff821115610353576103526102c1565b5b61035c826102b1565b9050602081019050919050565b8281835e5f83830152505050565b5f61038961038484610339565b61031f565b9050828152602081018484840111156103a5576103a46102ad565b5b6103b0848285610369565b509392505050565b5f82601f8301126103cc576103cb6102a9565b5b81516103dc848260208601610377565b91505092915050565b5f73ffffffffffffffffffffffffffffffffffffffff82169050919050565b5f61040e826103e5565b9050919050565b5f61041f82610404565b9050919050565b61042f81610415565b8114610439575f5ffd5b50565b5f8151905061044a81610426565b92915050565b5f61045a82610404565b9050919050565b61046a81610450565b8114610474575f5ffd5b50565b5f8151905061048581610461565b92915050565b5f61049582610404565b9050919050565b6104a58161048b565b81146104af575f5ffd5b50565b5f815190506104c08161049c565b92915050565b5f6104d082610404565b9050919050565b6104e0816104c6565b81146104ea575f5ffd5b50565b5f815190506104fb816104d7565b92915050565b5f61050b82610404565b9050919050565b61051b81610501565b8114610525575f5ffd5b50565b5f8151905061053681610512565b92915050565b5f5f5f5f5f5f60c08789031215610556576105556102a1565b5b5f87015167ffffffffffffffff811115610573576105726102a5565b5b61057f89828a016103b8565b965050602061059089828a0161043c565b95505060406105a189828a01610477565b94505060606105b289828a016104b2565b93505060806105c389828a016104ed565b92505060a06105d489828a01610528565b9150509295509295509295565b5f81519050919050565b5f82825260208201905092915050565b5f610605826105e1565b61060f81856105eb565b935061061f818560208601610369565b610628816102b1565b840191505092915050565b5f6020820190508181035f83015261064b81846105fb565b905092915050565b5f81519050919050565b5f819050602082019050919050565b5f819050919050565b5f610680825161066c565b80915050919050565b5f82821b905092915050565b5f61069f82610653565b826106a98461065d565b90506106b481610675565b925060208210156106f4576106ef7fffffffffffffffffffffffffffffffffffffffffffffffffffffffffffffffff83602003600802610689565b831692505b5050919050565b7f496e697469616c697a61626c653a20636f6e747261637420697320696e6974695f8201527f616c697a696e6700000000000000000000000000000000000000000000000000602082015250565b5f6107556027836105eb565b9150610760826106fb565b604082019050919050565b5f6020820190508181035f83015261078281610749565b9050919050565b5f60ff82169050919050565b61079e81610789565b82525050565b5f6020820190506107b75f830184610795565b92915050565b60805160a05160c05160e0516101005161012051615a746108905f395f8181610cf5015261212201525f818161136601528181611567015281816115f70152818161167d015281816116c401528181611ff20152818161268901528181612760015261313301525f81816108d10152818161170a015261177501525f81816107d40152818161271901526130ec01525f818161094c0152818161132a015281816113d001528181611458015281816114de01528181612215015261332b01525f8181610a4f01526133d30152615a745ff3fe608060405234801561000f575f5ffd5b506004361061021a575f3560e01c80639690b7e711610123578063d49fec2b116100ab578063dbb1c4e11161007a578063dbb1c4e1146106c0578063e70b81b1146106f1578063ef6d92c61461070d578063f36618ac1461072b578063f698da251461075c5761021a565b8063d49fec2b14610628578063d5aae17814610644578063d66f777114610674578063d80a956b146106905761021a565b8063a60daa8f116100f2578063a60daa8f14610586578063a8aa2bd3146105b6578063b438c141146105d4578063c4d66de8146105f0578063cb1e6ff71461060c5761021a565b80639690b7e7146104d75780639ffbdce614610507578063a37e7e4414610537578063a46530a2146105685761021a565b8063559cf359116101a65780638099ef2e116101755780638099ef2e1461041e57806385e9babb1461044f5780638a52d0b51461047f5780638a7f922c1461049d57806390e2196b146104bb5761021a565b8063559cf3591461037257806365aa9a65146103a257806367962d48146103be5780636eb2099f146103ee5761021a565b80633fc4cbfd116101ed5780633fc4cbfd146102cc57806340f70a9e146102ea5780634657e26a1461031a5780634dd8ef811461033857806354fd4d50146103545761021a565b80630c2199fb1461021e5780630d78573e1461024e57806336b188741461026c5780633e0321151461029c575b5f5ffd5b61023860048036038101906102339190613829565b61077a565b6040516102459190613872565b60405180910390f35b6102566107d2565b60405161026391906138e6565b60405180910390f35b61028660048036038101906102819190613932565b6107f6565b6040516102939190613990565b60405180910390f35b6102b660048036038101906102b191906139e4565b610821565b6040516102c39190613a1e565b60405180910390f35b6102d46108cf565b6040516102e19190613a57565b60405180910390f35b61030460048036038101906102ff9190613829565b6108f3565b6040516103119190613872565b60405180910390f35b61032261094a565b60405161032f9190613a90565b60405180910390f35b610352600480360381019061034d91906139e4565b61096e565b005b61035c610a48565b6040516103699190613b19565b60405180910390f35b61038c60048036038101906103879190613b5b565b610a78565b6040516103999190613990565b60405180910390f35b6103bc60048036038101906103b79190613c16565b610a9f565b005b6103d860048036038101906103d391906139e4565b610bc2565b6040516103e59190613a1e565b60405180910390f35b610408600480360381019061040391906139e4565b610c29565b6040516104159190613872565b60405180910390f35b61043860048036038101906104339190613ca6565b610c81565b604051610446929190613f39565b60405180910390f35b610469600480360381019061046491906139e4565b610c9e565b6040516104769190613fb4565b60405180910390f35b610487610cf3565b6040516104949190613fed565b60405180910390f35b6104a5610d17565b6040516104b29190614015565b60405180910390f35b6104d560048036038101906104d091906139e4565b610d3b565b005b6104f160048036038101906104ec9190614083565b610e15565b6040516104fe9190614015565b60405180910390f35b610521600480360381019061051c91906139e4565b610e71565b60405161052e9190613872565b60405180910390f35b610551600480360381019061054c91906140c1565b610ec9565b60405161055f929190613f39565b60405180910390f35b61057061116e565b60405161057d9190613872565b60405180910390f35b6105a0600480360381019061059b9190613b5b565b611183565b6040516105ad9190613990565b60405180910390f35b6105be6111a0565b6040516105cb9190613872565b60405180910390f35b6105ee60048036038101906105e99190614129565b6111b6565b005b61060a60048036038101906106059190613829565b611251565b005b610626600480360381019061062191906141a9565b611856565b005b610642600480360381019061063d9190614206565b611bcf565b005b61065e600480360381019061065991906139e4565b611c1e565b60405161066b9190614253565b60405180910390f35b61068e600480360381019061068991906139e4565b611c73565b005b6106aa60048036038101906106a5919061426c565b611d90565b6040516106b791906142d5565b60405180910390f35b6106da60048036038101906106d59190613ca6565b611e71565b6040516106e8929190613f39565b60405180910390f35b61070b600480360381019061070691906139e4565b611e8e565b005b610715611ff0565b604051610722919061430e565b60405180910390f35b61074560048036038101906107409190613ca6565b612014565b604051610753929190613f39565b60405180910390f35b610764612031565b6040516107719190614015565b60405180910390f35b5f60045f8373ffffffffffffffffffffffffffffffffffffffff1673ffffffffffffffffffffffffffffffffffffffff1681526020019081526020015f205f0160049054906101000a900463ffffffff169050919050565b7f000000000000000000000000000000000000000000000000000000000000000081565b5f61081961080484846120d0565b61080d85612102565b805190602001206121fe565b905092915050565b5f5f60035f8473ffffffffffffffffffffffffffffffffffffffff1673ffffffffffffffffffffffffffffffffffffffff1681526020019081526020015f20905060018081111561087557610874613df4565b5b815f01601d9054906101000a900460ff16600181111561089857610897613df4565b5b146108c557805f015f9054906101000a900473ffffffffffffffffffffffffffffffffffffffff166108c7565b825b915050919050565b7f000000000000000000000000000000000000000000000000000000000000000081565b5f60045f8373ffffffffffffffffffffffffffffffffffffffff1673ffffffffffffffffffffffffffffffffffffffff1681526020019081526020015f205f015f9054906101000a900463ffffffff169050919050565b7f000000000000000000000000000000000000000000000000000000000000000081565b8061097881612212565b6109ae576040517f932d94f700000000000000000000000000000000000000000000000000000000815260040160405180910390fd5b81610a0460035f8373ffffffffffffffffffffffffffffffffffffffff1673ffffffffffffffffffffffffffffffffffffffff1681526020019081526020015f205f01601c9054906101000a900460ff166122dc565b610a3a576040517f609749e200000000000000000000000000000000000000000000000000000000815260040160405180910390fd5b610a438361230c565b505050565b6060610a737f000000000000000000000000000000000000000000000000000000000000000061247a565b905090565b5f610a8b610a8633856107f6565b6124ec565b610a9783836001612685565b905092915050565b82610aa981612212565b610adf576040517f932d94f700000000000000000000000000000000000000000000000000000000815260040160405180910390fd5b83610b3560035f8373ffffffffffffffffffffffffffffffffffffffff1673ffffffffffffffffffffffffffffffffffffffff1681526020019081526020015f205f01601c9054906101000a900460ff166122dc565b610b6b576040517f609749e200000000000000000000000000000000000000000000000000000000815260040160405180910390fd5b8473ffffffffffffffffffffffffffffffffffffffff167fc874c4e2852c19bd03d42a5232ce93e85f2da325dddac46c2472043b7f0d7e8d8585604051610bb3929190614361565b60405180910390a25050505050565b5f60035f8373ffffffffffffffffffffffffffffffffffffffff1673ffffffffffffffffffffffffffffffffffffffff1681526020019081526020015f205f015f9054906101000a900473ffffffffffffffffffffffffffffffffffffffff169050919050565b5f60035f8373ffffffffffffffffffffffffffffffffffffffff1673ffffffffffffffffffffffffffffffffffffffff1681526020019081526020015f205f0160149054906101000a900463ffffffff169050919050565b606080610c92612a41868686612ad7565b91509150935093915050565b5f60035f8373ffffffffffffffffffffffffffffffffffffffff1673ffffffffffffffffffffffffffffffffffffffff1681526020019081526020015f205f01601d9054906101000a900460ff169050919050565b7f000000000000000000000000000000000000000000000000000000000000000081565b7facd45e8bd36cea31aec6cd4552b994e6bfbda89766b3171349ace038b1b8267f81565b80610d4581612212565b610d7b576040517f932d94f700000000000000000000000000000000000000000000000000000000815260040160405180910390fd5b81610dd160035f8373ffffffffffffffffffffffffffffffffffffffff1673ffffffffffffffffffffffffffffffffffffffff1681526020019081526020015f205f01601c9054906101000a900460ff16612cd6565b610e07576040517f609749e200000000000000000000000000000000000000000000000000000000815260040160405180910390fd5b610e1083612d35565b505050565b5f610e697facd45e8bd36cea31aec6cd4552b994e6bfbda89766b3171349ace038b1b8267f8484604051602001610e4e93929190614392565b60405160208183030381529060405280519060200120612deb565b905092915050565b5f60035f8373ffffffffffffffffffffffffffffffffffffffff1673ffffffffffffffffffffffffffffffffffffffff1681526020019081526020015f205f0160189054906101000a900463ffffffff169050919050565b6060805f610ed76001612e23565b9050808510610f87575f67ffffffffffffffff811115610efa57610ef96143c7565b5b604051908082528060200260200182016040528015610f285781602001602082028036833780820191505090505b505f67ffffffffffffffff811115610f4357610f426143c7565b5b604051908082528060200260200182016040528015610f7c57816020015b610f6961376f565b815260200190600190039081610f615790505b509250925050611167565b5f818587610f959190614421565b11610fab578486610fa69190614421565b610fad565b815b90505f8682610fbc9190614454565b90508067ffffffffffffffff811115610fd857610fd76143c7565b5b6040519080825280602002602001820160405280156110065781602001602082028036833780820191505090505b5094508067ffffffffffffffff811115611023576110226143c7565b5b60405190808252806020026020018201604052801561105c57816020015b61104961376f565b8152602001906001900390816110415790505b5093505f5f90505b818110156111625761108b818961107b9190614421565b6001612e3690919063ffffffff16565b86828151811061109e5761109d614487565b5b602002602001019073ffffffffffffffffffffffffffffffffffffffff16908173ffffffffffffffffffffffffffffffffffffffff168152505061113760035f8884815181106110f1576110f0614487565b5b602002602001015173ffffffffffffffffffffffffffffffffffffffff1673ffffffffffffffffffffffffffffffffffffffff1681526020019081526020015f20612e4d565b85828151811061114a57611149614487565b5b60200260200101819052508080600101915050611064565b505050505b9250929050565b60055f9054906101000a900463ffffffff1681565b5f61118d336124ec565b61119883835f612685565b905092915050565b600560049054906101000a900463ffffffff1681565b306111c081612212565b6111f6576040517f932d94f700000000000000000000000000000000000000000000000000000000815260040160405180910390fd5b8160055f6101000a81548163ffffffff021916908363ffffffff1602179055507fc3c99803ad2e80be7382791ca0b23147a94739b9e66a656b9c8c47f9d6963414826040516112459190613872565b60405180910390a15050565b5f5f60019054906101000a900460ff16159050808015611281575060015f5f9054906101000a900460ff1660ff16105b806112ae575061129030612f09565b1580156112ad575060015f5f9054906101000a900460ff1660ff16145b5b6112ed576040517f08c379a00000000000000000000000000000000000000000000000000000000081526004016112e490614524565b60405180910390fd5b60015f5f6101000a81548160ff021916908360ff16021790555080156113285760015f60016101000a81548160ff0219169083151502179055505b7f000000000000000000000000000000000000000000000000000000000000000073ffffffffffffffffffffffffffffffffffffffff1663628806ef7f00000000000000000000000000000000000000000000000000000000000000006040518263ffffffff1660e01b81526004016113a19190613a1e565b5f604051808303815f87803b1580156113b8575f5ffd5b505af11580156113ca573d5f5f3e3d5ffd5b505050507f000000000000000000000000000000000000000000000000000000000000000073ffffffffffffffffffffffffffffffffffffffff1663eb5a4e8730306040518363ffffffff1660e01b8152600401611429929190614542565b5f604051808303815f87803b158015611440575f5ffd5b505af1158015611452573d5f5f3e3d5ffd5b505050507f000000000000000000000000000000000000000000000000000000000000000073ffffffffffffffffffffffffffffffffffffffff1663628806ef306040518263ffffffff1660e01b81526004016114af9190613a1e565b5f604051808303815f87803b1580156114c6575f5ffd5b505af11580156114d8573d5f5f3e3d5ffd5b505050507f000000000000000000000000000000000000000000000000000000000000000073ffffffffffffffffffffffffffffffffffffffff1663eb5a4e8730846040518363ffffffff1660e01b8152600401611537929190614542565b5f604051808303815f87803b15801561154e575f5ffd5b505af1158015611560573d5f5f3e3d5ffd5b505050505f7f000000000000000000000000000000000000000000000000000000000000000073ffffffffffffffffffffffffffffffffffffffff16633a10eef76040518163ffffffff1660e01b81526004016020604051808303815f875af11580156115cf573d5f5f3e3d5ffd5b505050506040513d601f19601f820116820180604052508101906115f3919061457d565b90507f000000000000000000000000000000000000000000000000000000000000000073ffffffffffffffffffffffffffffffffffffffff166374da4713826040518263ffffffff1660e01b815260040161164e9190613872565b5f604051808303815f87803b158015611665575f5ffd5b505af1158015611677573d5f5f3e3d5ffd5b505050507f000000000000000000000000000000000000000000000000000000000000000073ffffffffffffffffffffffffffffffffffffffff16631017873a60405180604001604052807f000000000000000000000000000000000000000000000000000000000000000073ffffffffffffffffffffffffffffffffffffffff1681526020018463ffffffff168152507f00000000000000000000000000000000000000000000000000000000000000006040518363ffffffff1660e01b81526004016117469291906145d5565b5f604051808303815f87803b15801561175d575f5ffd5b505af115801561176f573d5f5f3e3d5ffd5b505050507f000000000000000000000000000000000000000000000000000000000000000073ffffffffffffffffffffffffffffffffffffffff16634ca62978826040518263ffffffff1660e01b81526004016117cc9190613872565b5f604051808303815f87803b1580156117e3575f5ffd5b505af11580156117f5573d5f5f3e3d5ffd5b50505050508015611852575f5f60016101000a81548160ff0219169083151502179055507f7f26b83ff96e1f2b6a682f133852f6798a09c465da95921460cefb384740249860016040516118499190614641565b60405180910390a15b5050565b8273ffffffffffffffffffffffffffffffffffffffff163373ffffffffffffffffffffffffffffffffffffffff161480611895575061189430612212565b5b6118cb576040517f932d94f700000000000000000000000000000000000000000000000000000000815260040160405180910390fd5b5f5f90505b82829050811015611b31575f8383838181106118ef576118ee614487565b5b905060200201602081019061190491906139e4565b90505f60035f8373ffffffffffffffffffffffffffffffffffffffff1673ffffffffffffffffffffffffffffffffffffffff1681526020019081526020015f206040518060a00160405290815f82015f9054906101000a900473ffffffffffffffffffffffffffffffffffffffff1673ffffffffffffffffffffffffffffffffffffffff1673ffffffffffffffffffffffffffffffffffffffff1681526020015f820160149054906101000a900463ffffffff1663ffffffff1663ffffffff1681526020015f820160189054906101000a900463ffffffff1663ffffffff1663ffffffff1681526020015f8201601c9054906101000a900460ff166004811115611a1157611a10613df4565b5b6004811115611a2357611a22613df4565b5b81526020015f8201601d9054906101000a900460ff166001811115611a4b57611a4a613df4565b5b6001811115611a5d57611a5c613df4565b5b8152505090505f600180811115611a7757611a76613df4565b5b82608001516001811115611a8e57611a8d613df4565b5b14611a9c57815f0151611a9e565b825b90508673ffffffffffffffffffffffffffffffffffffffff168173ffffffffffffffffffffffffffffffffffffffff1614611b05576040517f609749e200000000000000000000000000000000000000000000000000000000815260040160405180910390fd5b611b128260600151612cd6565b15611b2157611b2083612f2b565b5b50505080806001019150506118d0565b505f60045f8573ffffffffffffffffffffffffffffffffffffffff1673ffffffffffffffffffffffffffffffffffffffff1681526020019081526020015f205f0160049054906101000a900463ffffffff1663ffffffff1614611bc0576040517f0b9a8c7900000000000000000000000000000000000000000000000000000000815260040160405180910390fd5b611bca835f612fe2565b505050565b30611bd981612212565b611c0f576040517f932d94f700000000000000000000000000000000000000000000000000000000815260040160405180910390fd5b611c198383612fe2565b505050565b5f60035f8373ffffffffffffffffffffffffffffffffffffffff1673ffffffffffffffffffffffffffffffffffffffff1681526020019081526020015f205f01601c9054906101000a900460ff169050919050565b30611c7d81612212565b611cb3576040517f932d94f700000000000000000000000000000000000000000000000000000000815260040160405180910390fd5b81611d0960035f8373ffffffffffffffffffffffffffffffffffffffff1673ffffffffffffffffffffffffffffffffffffffff1681526020019081526020015f205f01601c9054906101000a900460ff16612cd6565b611d3f576040517f609749e200000000000000000000000000000000000000000000000000000000815260040160405180910390fd5b611d4883612d35565b8273ffffffffffffffffffffffffffffffffffffffff167f4636ad9a0a072d9c8b05a5bcda7d33256c5401515e612c25c13273b378cb280960405160405180910390a2505050565b5f82611d9b81612212565b611dd1576040517f932d94f700000000000000000000000000000000000000000000000000000000815260040160405180910390fd5b83611e2760035f8373ffffffffffffffffffffffffffffffffffffffff1673ffffffffffffffffffffffffffffffffffffffff1681526020019081526020015f205f01601c9054906101000a900460ff16612cd6565b611e5d576040517f609749e200000000000000000000000000000000000000000000000000000000815260040160405180910390fd5b611e678585613091565b9250505092915050565b606080611e826132e8868686612ad7565b91509150935093915050565b80611e9881612212565b611ece576040517f932d94f700000000000000000000000000000000000000000000000000000000815260040160405180910390fd5b5f60035f8473ffffffffffffffffffffffffffffffffffffffff1673ffffffffffffffffffffffffffffffffffffffff1681526020019081526020015f20905060016004811115611f2257611f21613df4565b5b815f01601c9054906101000a900460ff166004811115611f4557611f44613df4565b5b14611f7c576040517f609749e200000000000000000000000000000000000000000000000000000000815260040160405180910390fd5b6002815f01601c6101000a81548160ff02191690836004811115611fa357611fa2613df4565b5b02179055508273ffffffffffffffffffffffffffffffffffffffff167f143b9e3b5aa0fb8cf19b1bdb2eb8d7a94657d4b505070c667433d322b90b1f7860405160405180910390a2505050565b7f000000000000000000000000000000000000000000000000000000000000000081565b606080612025613328868686612ad7565b91509150935093915050565b5f7f8b73c3c69bb8fe3d512ecc4cf759cc79239f7b179b0ffacaa9a75d522b39400f6040518060400160405280600a81526020017f456967656e4c6179657200000000000000000000000000000000000000000000815250805190602001206120986133cb565b8051906020012046306040516020016120b595949392919061465a565b60405160208183030381529060405280519060200120905090565b5f82826040516020016120e4929190614710565b60405160208183030381529060405280519060200120905092915050565b606060405180610940016040528061090e815260200161515a61090e91397f000000000000000000000000000000000000000000000000000000000000000063c4d66de860e01b8460405160240161215a9190613a1e565b604051602081830303815290604052907bffffffffffffffffffffffffffffffffffffffffffffffffffffffff19166020820180517bffffffffffffffffffffffffffffffffffffffffffffffffffffffff83818316178352505050506040516020016121c892919061478d565b6040516020818303038152906040526040516020016121e89291906147f5565b6040516020818303038152906040529050919050565b5f61220a83833061343c565b905092915050565b5f7f000000000000000000000000000000000000000000000000000000000000000073ffffffffffffffffffffffffffffffffffffffff1663df595cb88333305f357fffffffff00000000000000000000000000000000000000000000000000000000166040518563ffffffff1660e01b81526004016122959493929190614818565b6020604051808303815f875af11580156122b1573d5f5f3e3d5ffd5b505050506040513d601f19601f820116820180604052508101906122d59190614890565b9050919050565b5f5f60048111156122f0576122ef613df4565b5b82600481111561230357612302613df4565b5b14159050919050565b5f60035f8373ffffffffffffffffffffffffffffffffffffffff1673ffffffffffffffffffffffffffffffffffffffff1681526020019081526020015f209050600360048111156123605761235f613df4565b5b815f01601c9054906101000a900460ff16600481111561238357612382613df4565b5b036123ba576040517f609749e200000000000000000000000000000000000000000000000000000000815260040160405180910390fd5b6004808111156123cd576123cc613df4565b5b815f01601c9054906101000a900460ff1660048111156123f0576123ef613df4565b5b036124075761240661240183610821565b6124ec565b5b6001815f01601c6101000a81548160ff0219169083600481111561242e5761242d613df4565b5b02179055508173ffffffffffffffffffffffffffffffffffffffff167f8426864999f5f9244a203f75107b05f8b474838bc43ff0d8abe18ee5f442751360405160405180910390a25050565b60605f61248683613466565b90505f602067ffffffffffffffff8111156124a4576124a36143c7565b5b6040519080825280601f01601f1916602001820160405280156124d65781602001600182028036833780820191505090505b5090508181528360208201528092505050919050565b5f60045f8373ffffffffffffffffffffffffffffffffffffffff1673ffffffffffffffffffffffffffffffffffffffff1681526020019081526020015f20905060055f9054906101000a900463ffffffff1663ffffffff16600560049054906101000a900463ffffffff1663ffffffff1610612594576040517f42ca568f00000000000000000000000000000000000000000000000000000000815260040160405180910390fd5b805f015f9054906101000a900463ffffffff1663ffffffff16815f0160049054906101000a900463ffffffff1663ffffffff16106125fe576040517f82d7ade600000000000000000000000000000000000000000000000000000000815260040160405180910390fd5b6005600481819054906101000a900463ffffffff1680929190612620906148bb565b91906101000a81548163ffffffff021916908363ffffffff16021790555050805f01600481819054906101000a900463ffffffff1680929190612662906148bb565b91906101000a81548163ffffffff021916908363ffffffff160217905550505050565b5f5f7f000000000000000000000000000000000000000000000000000000000000000073ffffffffffffffffffffffffffffffffffffffff16633a10eef76040518163ffffffff1660e01b81526004016020604051808303815f875af11580156126f1573d5f5f3e3d5ffd5b505050506040513d601f19601f82011682018060405250810190612715919061457d565b90507f000000000000000000000000000000000000000000000000000000000000000073ffffffffffffffffffffffffffffffffffffffff16634840a67c60405180604001604052807f000000000000000000000000000000000000000000000000000000000000000073ffffffffffffffffffffffffffffffffffffffff1681526020018463ffffffff168152506040518263ffffffff1660e01b81526004016127c09190614930565b5f604051808303815f87803b1580156127d7575f5ffd5b505af11580156127e9573d5f5f3e3d5ffd5b505050506128095f6127fb33886120d0565b61280433612102565b6134b4565b91508060035f8473ffffffffffffffffffffffffffffffffffffffff1673ffffffffffffffffffffffffffffffffffffffff1681526020019081526020015f205f0160146101000a81548163ffffffff021916908363ffffffff1602179055505f60035f8473ffffffffffffffffffffffffffffffffffffffff1673ffffffffffffffffffffffffffffffffffffffff1681526020019081526020015f205f0160186101000a81548163ffffffff021916908363ffffffff1602179055503360035f8473ffffffffffffffffffffffffffffffffffffffff1673ffffffffffffffffffffffffffffffffffffffff1681526020019081526020015f205f015f6101000a81548173ffffffffffffffffffffffffffffffffffffffff021916908373ffffffffffffffffffffffffffffffffffffffff1602179055508260035f8473ffffffffffffffffffffffffffffffffffffffff1673ffffffffffffffffffffffffffffffffffffffff1681526020019081526020015f205f01601d6101000a81548160ff021916908360018111156129a6576129a5613df4565b5b02179055506129bf8260016135bb90919063ffffffff16565b508173ffffffffffffffffffffffffffffffffffffffff163373ffffffffffffffffffffffffffffffffffffffff167fe9e6e5409b80e2dab7d38194fb370b2e8045a1af28177b94ddcf19d2495d758983604051612a1d9190613872565b60405180910390a3612a2f8285613091565b50612a398261230c565b509392505050565b5f8173ffffffffffffffffffffffffffffffffffffffff1660035f8573ffffffffffffffffffffffffffffffffffffffff1673ffffffffffffffffffffffffffffffffffffffff1681526020019081526020015f205f015f9054906101000a900473ffffffffffffffffffffffffffffffffffffffff1673ffffffffffffffffffffffffffffffffffffffff1614905092915050565b6060805f612ae56001612e23565b90508367ffffffffffffffff811115612b0157612b006143c7565b5b604051908082528060200260200182016040528015612b2f5781602001602082028036833780820191505090505b5092508367ffffffffffffffff811115612b4c57612b4b6143c7565b5b604051908082528060200260200182016040528015612b8557816020015b612b7261376f565b815260200190600190039081612b6a5790505b5091505f5f90505f5f90505f5f90505b8381108015612ba357508682105b15612cc3575f612bbd826001612e3690919063ffffffff16565b9050612bcd818b8d63ffffffff16565b15612cae5788841015612bee578380612be59061495c565b94505050612cb0565b80878481518110612c0257612c01614487565b5b602002602001019073ffffffffffffffffffffffffffffffffffffffff16908173ffffffffffffffffffffffffffffffffffffffff1681525050612c8160035f8373ffffffffffffffffffffffffffffffffffffffff1673ffffffffffffffffffffffffffffffffffffffff1681526020019081526020015f20612e4d565b868481518110612c9457612c93614487565b5b60200260200101819052508280612caa9061495c565b9350505b505b8080612cbb9061495c565b915050612b95565b5080855280845250505094509492505050565b5f60016004811115612ceb57612cea613df4565b5b826004811115612cfe57612cfd613df4565b5b1480612d2e575060026004811115612d1957612d18613df4565b5b826004811115612d2c57612d2b613df4565b5b145b9050919050565b6003805f8373ffffffffffffffffffffffffffffffffffffffff1673ffffffffffffffffffffffffffffffffffffffff1681526020019081526020015f205f01601c6101000a81548160ff02191690836004811115612d9757612d96613df4565b5b0217905550612da5816135e8565b8073ffffffffffffffffffffffffffffffffffffffff167f2465e924a1e9a02843493e65702fd09152c8a631caf7b9b58e4b01ee20ced41660405160405180910390a250565b5f612df4612031565b82604051602001612e069291906149f7565b604051602081830303815290604052805190602001209050919050565b5f612e2f825f016136b2565b9050919050565b5f612e43835f01836136c1565b5f1c905092915050565b612e5561376f565b6040518060800160405280835f015f9054906101000a900473ffffffffffffffffffffffffffffffffffffffff1673ffffffffffffffffffffffffffffffffffffffff168152602001835f0160149054906101000a900463ffffffff1663ffffffff168152602001835f0160189054906101000a900463ffffffff1663ffffffff168152602001835f01601c9054906101000a900460ff166004811115612eff57612efe613df4565b5b8152509050919050565b5f5f8273ffffffffffffffffffffffffffffffffffffffff163b119050919050565b600460035f8373ffffffffffffffffffffffffffffffffffffffff1673ffffffffffffffffffffffffffffffffffffffff1681526020019081526020015f205f01601c6101000a81548160ff02191690836004811115612f8e57612f8d613df4565b5b0217905550612f9c816135e8565b8073ffffffffffffffffffffffffffffffffffffffff167fbb85757a09bd73484c9fb6857c3e9f8dbf92c3e22ce1655213c9481dacf81c6260405160405180910390a250565b8060045f8473ffffffffffffffffffffffffffffffffffffffff1673ffffffffffffffffffffffffffffffffffffffff1681526020019081526020015f205f015f6101000a81548163ffffffff021916908363ffffffff1602179055508173ffffffffffffffffffffffffffffffffffffffff167f708c955faa87ece750a9700c153a20797167e2fcbde9fca9186801f874663a99826040516130859190613872565b60405180910390a25050565b5f600182805f01906130a39190614a39565b805f01906130b19190614a60565b9050146130ea576040517f98c82cef00000000000000000000000000000000000000000000000000000000815260040160405180910390fd5b7f000000000000000000000000000000000000000000000000000000000000000073ffffffffffffffffffffffffffffffffffffffff16637c09ea8260405180604001604052807f000000000000000000000000000000000000000000000000000000000000000073ffffffffffffffffffffffffffffffffffffffff16815260200160035f8873ffffffffffffffffffffffffffffffffffffffff1673ffffffffffffffffffffffffffffffffffffffff1681526020019081526020015f205f0160149054906101000a900463ffffffff1663ffffffff1681525084805f01906131d59190614a39565b6040518363ffffffff1660e01b81526004016131f2929190614d72565b6020604051808303815f875af115801561320e573d5f5f3e3d5ffd5b505050506040513d601f19601f820116820180604052508101906132329190614db4565b90504360035f8573ffffffffffffffffffffffffffffffffffffffff1673ffffffffffffffffffffffffffffffffffffffff1681526020019081526020015f205f0160186101000a81548163ffffffff021916908363ffffffff1602179055508273ffffffffffffffffffffffffffffffffffffffff167fb5d2b7df0352a87a587a430bfceab43859b3b3c404f0425c4c1ab0675ed57b9482846040516132da929190614f67565b60405180910390a292915050565b5f8173ffffffffffffffffffffffffffffffffffffffff1661330984610821565b73ffffffffffffffffffffffffffffffffffffffff1614905092915050565b5f7f000000000000000000000000000000000000000000000000000000000000000073ffffffffffffffffffffffffffffffffffffffff16639100674584846040518363ffffffff1660e01b8152600401613384929190614542565b602060405180830381865afa15801561339f573d5f5f3e3d5ffd5b505050506040513d601f19601f820116820180604052508101906133c39190614890565b905092915050565b60605f6133f77f000000000000000000000000000000000000000000000000000000000000000061247a565b9050805f8151811061340c5761340b614487565b5b602001015160f81c60f81b6040516020016134279190614fe0565b60405160208183030381529060405291505090565b5f604051836040820152846020820152828152600b810160ff815360558120925050509392505050565b5f5f60ff835f1c169050601f8111156134ab576040517fb3512b0c00000000000000000000000000000000000000000000000000000000815260040160405180910390fd5b80915050919050565b5f834710156134f8576040517f08c379a00000000000000000000000000000000000000000000000000000000081526004016134ef90615044565b60405180910390fd5b5f82510361353b576040517f08c379a0000000000000000000000000000000000000000000000000000000008152600401613532906150ac565b60405180910390fd5b8282516020840186f590505f73ffffffffffffffffffffffffffffffffffffffff168173ffffffffffffffffffffffffffffffffffffffff16036135b4576040517f08c379a00000000000000000000000000000000000000000000000000000000081526004016135ab90615114565b60405180910390fd5b9392505050565b5f6135e0835f018373ffffffffffffffffffffffffffffffffffffffff165f1b6136e8565b905092915050565b6005600481819054906101000a900463ffffffff168092919061360a90615132565b91906101000a81548163ffffffff021916908363ffffffff1602179055505060045f61363583610821565b73ffffffffffffffffffffffffffffffffffffffff1673ffffffffffffffffffffffffffffffffffffffff1681526020019081526020015f205f01600481819054906101000a900463ffffffff168092919061369090615132565b91906101000a81548163ffffffff021916908363ffffffff1602179055505050565b5f815f01805490509050919050565b5f825f0182815481106136d7576136d6614487565b5b905f5260205f200154905092915050565b5f6136f3838361374f565b61374557825f0182908060018154018082558091505060019003905f5260205f20015f9091909190915055825f0180549050836001015f8481526020019081526020015f208190555060019050613749565b5f90505b92915050565b5f5f836001015f8481526020019081526020015f20541415905092915050565b60405180608001604052805f73ffffffffffffffffffffffffffffffffffffffff1681526020015f63ffffffff1681526020015f63ffffffff1681526020015f60048111156137c1576137c0613df4565b5b81525090565b5f5ffd5b5f5ffd5b5f73ffffffffffffffffffffffffffffffffffffffff82169050919050565b5f6137f8826137cf565b9050919050565b613808816137ee565b8114613812575f5ffd5b50565b5f81359050613823816137ff565b92915050565b5f6020828403121561383e5761383d6137c7565b5b5f61384b84828501613815565b91505092915050565b5f63ffffffff82169050919050565b61386c81613854565b82525050565b5f6020820190506138855f830184613863565b92915050565b5f819050919050565b5f6138ae6138a96138a4846137cf565b61388b565b6137cf565b9050919050565b5f6138bf82613894565b9050919050565b5f6138d0826138b5565b9050919050565b6138e0816138c6565b82525050565b5f6020820190506138f95f8301846138d7565b92915050565b5f819050919050565b613911816138ff565b811461391b575f5ffd5b50565b5f8135905061392c81613908565b92915050565b5f5f60408385031215613948576139476137c7565b5b5f61395585828601613815565b92505060206139668582860161391e565b9150509250929050565b5f61397a826138b5565b9050919050565b61398a81613970565b82525050565b5f6020820190506139a35f830184613981565b92915050565b5f6139b3826137ee565b9050919050565b6139c3816139a9565b81146139cd575f5ffd5b50565b5f813590506139de816139ba565b92915050565b5f602082840312156139f9576139f86137c7565b5b5f613a06848285016139d0565b91505092915050565b613a18816137ee565b82525050565b5f602082019050613a315f830184613a0f565b92915050565b5f613a41826138b5565b9050919050565b613a5181613a37565b82525050565b5f602082019050613a6a5f830184613a48565b92915050565b5f613a7a826138b5565b9050919050565b613a8a81613a70565b82525050565b5f602082019050613aa35f830184613a81565b92915050565b5f81519050919050565b5f82825260208201905092915050565b8281835e5f83830152505050565b5f601f19601f8301169050919050565b5f613aeb82613aa9565b613af58185613ab3565b9350613b05818560208601613ac3565b613b0e81613ad1565b840191505092915050565b5f6020820190508181035f830152613b318184613ae1565b905092915050565b5f5ffd5b5f60608284031215613b5257613b51613b39565b5b81905092915050565b5f5f60408385031215613b7157613b706137c7565b5b5f613b7e8582860161391e565b925050602083013567ffffffffffffffff811115613b9f57613b9e6137cb565b5b613bab85828601613b3d565b9150509250929050565b5f5ffd5b5f5ffd5b5f5ffd5b5f5f83601f840112613bd657613bd5613bb5565b5b8235905067ffffffffffffffff811115613bf357613bf2613bb9565b5b602083019150836001820283011115613c0f57613c0e613bbd565b5b9250929050565b5f5f5f60408486031215613c2d57613c2c6137c7565b5b5f613c3a868287016139d0565b935050602084013567ffffffffffffffff811115613c5b57613c5a6137cb565b5b613c6786828701613bc1565b92509250509250925092565b5f819050919050565b613c8581613c73565b8114613c8f575f5ffd5b50565b5f81359050613ca081613c7c565b92915050565b5f5f5f60608486031215613cbd57613cbc6137c7565b5b5f613cca86828701613815565b9350506020613cdb86828701613c92565b9250506040613cec86828701613c92565b9150509250925092565b5f81519050919050565b5f82825260208201905092915050565b5f819050602082019050919050565b613d2881613970565b82525050565b5f613d398383613d1f565b60208301905092915050565b5f602082019050919050565b5f613d5b82613cf6565b613d658185613d00565b9350613d7083613d10565b805f5b83811015613da0578151613d878882613d2e565b9750613d9283613d45565b925050600181019050613d73565b5085935050505092915050565b5f81519050919050565b5f82825260208201905092915050565b5f819050602082019050919050565b613ddf816137ee565b82525050565b613dee81613854565b82525050565b7f4e487b71000000000000000000000000000000000000000000000000000000005f52602160045260245ffd5b60058110613e3257613e31613df4565b5b50565b5f819050613e4282613e21565b919050565b5f613e5182613e35565b9050919050565b613e6181613e47565b82525050565b608082015f820151613e7b5f850182613dd6565b506020820151613e8e6020850182613de5565b506040820151613ea16040850182613de5565b506060820151613eb46060850182613e58565b50505050565b5f613ec58383613e67565b60808301905092915050565b5f602082019050919050565b5f613ee782613dad565b613ef18185613db7565b9350613efc83613dc7565b805f5b83811015613f2c578151613f138882613eba565b9750613f1e83613ed1565b925050600181019050613eff565b5085935050505092915050565b5f6040820190508181035f830152613f518185613d51565b90508181036020830152613f658184613edd565b90509392505050565b60028110613f7f57613f7e613df4565b5b50565b5f819050613f8f82613f6e565b919050565b5f613f9e82613f82565b9050919050565b613fae81613f94565b82525050565b5f602082019050613fc75f830184613fa5565b92915050565b5f613fd7826138b5565b9050919050565b613fe781613fcd565b82525050565b5f6020820190506140005f830184613fde565b92915050565b61400f816138ff565b82525050565b5f6020820190506140285f830184614006565b92915050565b5f7fffffffff0000000000000000000000000000000000000000000000000000000082169050919050565b6140628161402e565b811461406c575f5ffd5b50565b5f8135905061407d81614059565b92915050565b5f5f60408385031215614099576140986137c7565b5b5f6140a68582860161406f565b92505060206140b785828601613c92565b9150509250929050565b5f5f604083850312156140d7576140d66137c7565b5b5f6140e485828601613c92565b92505060206140f585828601613c92565b9150509250929050565b61410881613854565b8114614112575f5ffd5b50565b5f81359050614123816140ff565b92915050565b5f6020828403121561413e5761413d6137c7565b5b5f61414b84828501614115565b91505092915050565b5f5f83601f84011261416957614168613bb5565b5b8235905067ffffffffffffffff81111561418657614185613bb9565b5b6020830191508360208202830111156141a2576141a1613bbd565b5b9250929050565b5f5f5f604084860312156141c0576141bf6137c7565b5b5f6141cd86828701613815565b935050602084013567ffffffffffffffff8111156141ee576141ed6137cb565b5b6141fa86828701614154565b92509250509250925092565b5f5f6040838503121561421c5761421b6137c7565b5b5f61422985828601613815565b925050602061423a85828601614115565b9150509250929050565b61424d81613e47565b82525050565b5f6020820190506142665f830184614244565b92915050565b5f5f60408385031215614282576142816137c7565b5b5f61428f858286016139d0565b925050602083013567ffffffffffffffff8111156142b0576142af6137cb565b5b6142bc85828601613b3d565b9150509250929050565b6142cf81613c73565b82525050565b5f6020820190506142e85f8301846142c6565b92915050565b5f6142f8826138b5565b9050919050565b614308816142ee565b82525050565b5f6020820190506143215f8301846142ff565b92915050565b828183375f83830152505050565b5f6143408385613ab3565b935061434d838584614327565b61435683613ad1565b840190509392505050565b5f6020820190508181035f83015261437a818486614335565b90509392505050565b61438c8161402e565b82525050565b5f6060820190506143a55f830186614006565b6143b26020830185614383565b6143bf60408301846142c6565b949350505050565b7f4e487b71000000000000000000000000000000000000000000000000000000005f52604160045260245ffd5b7f4e487b71000000000000000000000000000000000000000000000000000000005f52601160045260245ffd5b5f61442b82613c73565b915061443683613c73565b925082820190508082111561444e5761444d6143f4565b5b92915050565b5f61445e82613c73565b915061446983613c73565b9250828203905081811115614481576144806143f4565b5b92915050565b7f4e487b71000000000000000000000000000000000000000000000000000000005f52603260045260245ffd5b7f496e697469616c697a61626c653a20636f6e747261637420697320616c7265615f8201527f647920696e697469616c697a6564000000000000000000000000000000000000602082015250565b5f61450e602e83613ab3565b9150614519826144b4565b604082019050919050565b5f6020820190508181035f83015261453b81614502565b9050919050565b5f6040820190506145555f830185613a0f565b6145626020830184613a0f565b9392505050565b5f81519050614577816140ff565b92915050565b5f60208284031215614592576145916137c7565b5b5f61459f84828501614569565b91505092915050565b604082015f8201516145bc5f850182613dd6565b5060208201516145cf6020850182613de5565b50505050565b5f6060820190506145e85f8301856145a8565b6145f56040830184613a0f565b9392505050565b5f819050919050565b5f60ff82169050919050565b5f61462b614626614621846145fc565b61388b565b614605565b9050919050565b61463b81614611565b82525050565b5f6020820190506146545f830184614632565b92915050565b5f60a08201905061466d5f830188614006565b61467a6020830187614006565b6146876040830186614006565b61469460608301856142c6565b6146a16080830184613a0f565b9695505050505050565b5f8160601b9050919050565b5f6146c1826146ab565b9050919050565b5f6146d2826146b7565b9050919050565b6146ea6146e5826137ee565b6146c8565b82525050565b5f819050919050565b61470a614705826138ff565b6146f0565b82525050565b5f61471b82856146d9565b60148201915061472b82846146f9565b6020820191508190509392505050565b5f81519050919050565b5f82825260208201905092915050565b5f61475f8261473b565b6147698185614745565b9350614779818560208601613ac3565b61478281613ad1565b840191505092915050565b5f6040820190506147a05f830185613fde565b81810360208301526147b28184614755565b90509392505050565b5f81905092915050565b5f6147cf8261473b565b6147d981856147bb565b93506147e9818560208601613ac3565b80840191505092915050565b5f61480082856147c5565b915061480c82846147c5565b91508190509392505050565b5f60808201905061482b5f830187613a0f565b6148386020830186613a0f565b6148456040830185613a0f565b6148526060830184614383565b95945050505050565b5f8115159050919050565b61486f8161485b565b8114614879575f5ffd5b50565b5f8151905061488a81614866565b92915050565b5f602082840312156148a5576148a46137c7565b5b5f6148b28482850161487c565b91505092915050565b5f6148c582613854565b915063ffffffff82036148db576148da6143f4565b5b600182019050919050565b7f68747470733a2f2f656967656e636c6f75642e78797a000000000000000000005f82015250565b5f61491a601683613ab3565b9150614925826148e6565b602082019050919050565b5f6060820190506149435f8301846145a8565b81810360408301526149548161490e565b905092915050565b5f61496682613c73565b91507fffffffffffffffffffffffffffffffffffffffffffffffffffffffffffffffff8203614998576149976143f4565b5b600182019050919050565b5f81905092915050565b7f19010000000000000000000000000000000000000000000000000000000000005f82015250565b5f6149e16002836149a3565b91506149ec826149ad565b600282019050919050565b5f614a01826149d5565b9150614a0d82856146f9565b602082019150614a1d82846146f9565b6020820191508190509392505050565b5f5ffd5b5f5ffd5b5f5ffd5b5f82356001604003833603038112614a5457614a53614a2d565b5b80830191505092915050565b5f5f83356001602003843603038112614a7c57614a7b614a2d565b5b80840192508235915067ffffffffffffffff821115614a9e57614a9d614a31565b5b602083019250602082023603831315614aba57614ab9614a35565b5b509250929050565b5f5ffd5b5f5ffd5b5f5ffd5b5f5f83356001602003843603038112614aea57614ae9614aca565b5b83810192508235915060208301925067ffffffffffffffff821115614b1257614b11614ac2565b5b602082023603831315614b2857614b27614ac6565b5b509250929050565b5f82825260208201905092915050565b5f819050919050565b5f614b57602084018461391e565b905092915050565b614b68816138ff565b82525050565b5f5f83356001602003843603038112614b8a57614b89614aca565b5b83810192508235915060208301925067ffffffffffffffff821115614bb257614bb1614ac2565b5b600182023603831315614bc857614bc7614ac6565b5b509250929050565b5f82825260208201905092915050565b5f614beb8385614bd0565b9350614bf8838584614327565b614c0183613ad1565b840190509392505050565b5f60408301614c1d5f840184614b49565b614c295f860182614b5f565b50614c376020840184614b6e565b8583036020870152614c4a838284614be0565b925050508091505092915050565b5f614c638383614c0c565b905092915050565b5f82356001604003833603038112614c8657614c85614aca565b5b82810191505092915050565b5f602082019050919050565b5f614ca98385614b30565b935083602084028501614cbb84614b40565b805f5b87811015614cfe578484038952614cd58284614c6b565b614cdf8582614c58565b9450614cea83614c92565b925060208a01995050600181019050614cbe565b50829750879450505050509392505050565b5f614d1e6020840184614115565b905092915050565b5f60408301614d375f840184614ace565b8583035f870152614d49838284614c9e565b92505050614d5a6020840184614d10565b614d676020860182613de5565b508091505092915050565b5f606082019050614d855f8301856145a8565b8181036040830152614d978184614d26565b90509392505050565b5f81519050614dae81613c7c565b92915050565b5f60208284031215614dc957614dc86137c7565b5b5f614dd684828501614da0565b91505092915050565b5f82356001604003833603038112614dfa57614df9614aca565b5b82810191505092915050565b5f60408301614e175f840184614ace565b8583035f870152614e29838284614c9e565b92505050614e3a6020840184614d10565b614e476020860182613de5565b508091505092915050565b5f5f83356001602003843603038112614e6e57614e6d614aca565b5b83810192508235915060208301925067ffffffffffffffff821115614e9657614e95614ac2565b5b600182023603831315614eac57614eab614ac6565b5b509250929050565b5f82825260208201905092915050565b5f614ecf8385614eb4565b9350614edc838584614327565b614ee583613ad1565b840190509392505050565b5f60608301614f015f840184614ddf565b8482035f860152614f128282614e06565b915050614f226020840184614e52565b8583036020870152614f35838284614ec4565b92505050614f466040840184614e52565b8583036040870152614f59838284614ec4565b925050508091505092915050565b5f604082019050614f7a5f8301856142c6565b8181036020830152614f8c8184614ef0565b90509392505050565b5f7fff0000000000000000000000000000000000000000000000000000000000000082169050919050565b5f819050919050565b614fda614fd582614f95565b614fc0565b82525050565b5f614feb8284614fc9565b60018201915081905092915050565b7f437265617465323a20696e73756666696369656e742062616c616e63650000005f82015250565b5f61502e601d83613ab3565b915061503982614ffa565b602082019050919050565b5f6020820190508181035f83015261505b81615022565b9050919050565b7f437265617465323a2062797465636f6465206c656e677468206973207a65726f5f82015250565b5f615096602083613ab3565b91506150a182615062565b602082019050919050565b5f6020820190508181035f8301526150c38161508a565b9050919050565b7f437265617465323a204661696c6564206f6e206465706c6f79000000000000005f82015250565b5f6150fe601983613ab3565b9150615109826150ca565b602082019050919050565b5f6020820190508181035f83015261512b816150f2565b9050919050565b5f61513c82613854565b91505f820361514e5761514d6143f4565b5b60018203905091905056fe608060405260405161090e38038061090e83398101604081905261002291610460565b61002e82826000610035565b505061058a565b61003e83610100565b6040516001600160a01b038416907f1cf3b03a6cf19fa2baba4df148e9dcabedea7f8a5c07840e207e5c089be95d3e90600090a260008251118061007f5750805b156100fb576100f9836001600160a01b0316635c60da1b6040518163ffffffff1660e01b8152600401602060405180830381865afa1580156100c5573d6000803e3d6000fd5b505050506040513d601f19601f820116820180604052508101906100e99190610520565b836102a360201b6100291760201c565b505b505050565b610113816102cf60201b6100551760201c565b6101725760405162461bcd60e51b815260206004820152602560248201527f455243313936373a206e657720626561636f6e206973206e6f74206120636f6e6044820152641d1c9858dd60da1b60648201526084015b60405180910390fd5b6101e6816001600160a01b0316635c60da1b6040518163ffffffff1660e01b8152600401602060405180830381865afa1580156101b3573d6000803e3d6000fd5b505050506040513d601f19601f820116820180604052508101906101d79190610520565b6102cf60201b6100551760201c565b61024b5760405162461bcd60e51b815260206004820152603060248201527f455243313936373a20626561636f6e20696d706c656d656e746174696f6e206960448201526f1cc81b9bdd08184818dbdb9d1c9858dd60821b6064820152608401610169565b806102827fa3f0ad74e5423aebfd80d3ef4346578335a9a72aeaee59ff6cb3582b35133d5060001b6102de60201b6100641760201c565b80546001600160a01b0319166001600160a01b039290921691909117905550565b60606102c883836040518060600160405280602781526020016108e7602791396102e1565b9392505050565b6001600160a01b03163b151590565b90565b6060600080856001600160a01b0316856040516102fe919061053b565b600060405180830381855af49150503d8060008114610339576040519150601f19603f3d011682016040523d82523d6000602084013e61033e565b606091505b5090925090506103508683838761035a565b9695505050505050565b606083156103c65782516103bf576001600160a01b0385163b6103bf5760405162461bcd60e51b815260206004820152601d60248201527f416464726573733a2063616c6c20746f206e6f6e2d636f6e74726163740000006044820152606401610169565b50816103d0565b6103d083836103d8565b949350505050565b8151156103e85781518083602001fd5b8060405162461bcd60e51b81526004016101699190610557565b80516001600160a01b038116811461041957600080fd5b919050565b634e487b7160e01b600052604160045260246000fd5b60005b8381101561044f578181015183820152602001610437565b838111156100f95750506000910152565b6000806040838503121561047357600080fd5b61047c83610402565b60208401519092506001600160401b038082111561049957600080fd5b818501915085601f8301126104ad57600080fd5b8151818111156104bf576104bf61041e565b604051601f8201601f19908116603f011681019083821181831017156104e7576104e761041e565b8160405282815288602084870101111561050057600080fd5b610511836020830160208801610434565b80955050505050509250929050565b60006020828403121561053257600080fd5b6102c882610402565b6000825161054d818460208701610434565b9190910192915050565b6020815260008251806020840152610576816040850160208701610434565b601f01601f19169190910160400192915050565b61034e806105996000396000f3fe60806040523661001357610011610017565b005b6100115b610027610022610067565b610100565b565b606061004e83836040518060600160405280602781526020016102f260279139610124565b9392505050565b6001600160a01b03163b151590565b90565b600061009a7fa3f0ad74e5423aebfd80d3ef4346578335a9a72aeaee59ff6cb3582b35133d50546001600160a01b031690565b6001600160a01b0316635c60da1b6040518163ffffffff1660e01b8152600401602060405180830381865afa1580156100d7573d6000803e3d6000fd5b505050506040513d601f19601f820116820180604052508101906100fb9190610249565b905090565b3660008037600080366000845af43d6000803e80801561011f573d6000f35b3d6000fd5b6060600080856001600160a01b03168560405161014191906102a2565b600060405180830381855af49150503d806000811461017c576040519150601f19603f3d011682016040523d82523d6000602084013e610181565b606091505b50915091506101928683838761019c565b9695505050505050565b6060831561020d578251610206576001600160a01b0385163b6102065760405162461bcd60e51b815260206004820152601d60248201527f416464726573733a2063616c6c20746f206e6f6e2d636f6e747261637400000060448201526064015b60405180910390fd5b5081610217565b610217838361021f565b949350505050565b81511561022f5781518083602001fd5b8060405162461bcd60e51b81526004016101fd91906102be565b60006020828403121561025b57600080fd5b81516001600160a01b038116811461004e57600080fd5b60005b8381101561028d578181015183820152602001610275565b8381111561029c576000848401525b50505050565b600082516102b4818460208701610272565b9190910192915050565b60208152600082518060208401526102dd816040850160208701610272565b601f01601f1916919091016040019291505056fe416464726573733a206c6f772d6c6576656c2064656c65676174652063616c6c206661696c6564a2646970667358221220d51e81d3bc5ed20a26aeb05dce7e825c503b2061aa78628027300c8d65b9d89a64736f6c634300080c0033416464726573733a206c6f772d6c6576656c2064656c65676174652063616c6c206661696c6564a164736f6c6343000821000a",
    "linkReferences": {}
  },
  "methodIdentifiers": {
    "API_PERMISSION_TYPEHASH()": "8a7f922c",
    "appBeacon()": "8a52d0b5",
    "calculateApiPermissionDigestHash(bytes4,uint256)": "9690b7e7",
    "calculateAppId(address,bytes32)": "36b18874",
    "computeAVSRegistrar()": "ef6d92c6",
    "computeOperator()": "3fc4cbfd",
    "createApp(bytes32,(((bytes32,string)[],uint32),bytes,bytes))": "a60daa8f",
    "createAppWithIsolatedBilling(bytes32,(((bytes32,string)[],uint32),bytes,bytes))": "559cf359",
    "domainSeparator()": "f698da25",
    "getActiveAppCount(address)": "0c2199fb",
    "getAppCreator(address)": "67962d48",
    "getAppLatestReleaseBlockNumber(address)": "9ffbdce6",
    "getAppOperatorSetId(address)": "6eb2099f",
    "getAppStatus(address)": "d5aae178",
    "getApps(uint256,uint256)": "a37e7e44",
    "getAppsByBillingAccount(address,uint256,uint256)": "dbb1c4e1",
    "getAppsByCreator(address,uint256,uint256)": "8099ef2e",
    "getAppsByDeveloper(address,uint256,uint256)": "f36618ac",
    "getBillingAccount(address)": "3e032115",
    "getBillingType(address)": "85e9babb",
    "getMaxActiveAppsPerUser(address)": "40f70a9e",
    "globalActiveAppCount()": "a8aa2bd3",
    "initialize(address)": "c4d66de8",
    "maxGlobalActiveApps()": "a46530a2",
    "permissionController()": "4657e26a",
    "releaseManager()": "0d78573e",
    "setMaxActiveAppsPerUser(address,uint32)": "d49fec2b",
    "setMaxGlobalActiveApps(uint32)": "b438c141",
    "startApp(address)": "4dd8ef81",
    "stopApp(address)": "e70b81b1",
    "suspend(address,address[])": "cb1e6ff7",
    "terminateApp(address)": "90e2196b",
    "terminateAppByAdmin(address)": "d66f7771",
    "updateAppMetadataURI(address,string)": "65aa9a65",
    "upgradeApp(address,(((bytes32,string)[],uint32),bytes,bytes))": "d80a956b",
    "version()": "54fd4d50"
  },
  "id": 119
}