{
  "abi": [
    {
      "type": "constructor",
      "inputs": [
        {
          "name": "_version",
          "type": "string",
          "internalType": "string"
        },
        {
          "name": "_allocationManager",
          "type": "address",
          "internalType": "contract IAllocationManager"
        },
        {
          "name": "_permissionController",
          "type": "address",
          "internalType": "contract IPermissionController"
        },
        {
          "name": "_keyRegistrar",
          "type": "address",
          "internalType": "contract IKeyRegistrar"
        },
        {
          "name": "_appController",
          "type": "address",
          "internalType": "contract IAppController"
        }
      ],
      "stateMutability": "nonpayable"
    },
    {
      "type": "function",
      "name": "addOperatorToAllowlist",
      "inputs": [
        {
          "name": "operatorSet",
          "type": "tuple",
          "internalType": "struct OperatorSet",
          "components": [
            {
              "name": "avs",
              "type": "address",
              "internalType": "address"
            },
            {
              "name": "id",
              "type": "uint32",
              "internalType": "uint32"
            }
          ]
        },
        {
          "name": "operator",
          "type": "address",
          "internalType": "address"
        }
      ],
      "outputs": [],
      "stateMutability": "nonpayable"
    },
    {
      "type": "function",
      "name": "allocationManager",
      "inputs": [],
      "outputs": [
        {
          "name": "",
          "type": "address",
          "internalType": "contract IAllocationManager"
        }
      ],
      "stateMutability": "view"
    },
    {
      "type": "function",
      "name": "appController",
      "inputs": [],
      "outputs": [
        {
          "name": "",
          "type": "address",
          "internalType": "contract IAppController"
        }
      ],
      "stateMutability": "view"
    },
    {
      "type": "function",
      "name": "assignOperatorSetId",
      "inputs": [],
      "outputs": [
        {
          "name": "operatorSetId",
          "type": "uint32",
          "internalType": "uint32"
        }
      ],
      "stateMutability": "nonpayable"
    },
    {
      "type": "function",
      "name": "avs",
      "inputs": [],
      "outputs": [
        {
          "name": "",
          "type": "address",
          "internalType": "address"
        }
      ],
      "stateMutability": "view"
    },
    {
      "type": "function",
      "name": "createOperatorSet",
      "inputs": [
        {
          "name": "operatorSetId",
          "type": "uint32",
          "internalType": "uint32"
        }
      ],
      "outputs": [],
      "stateMutability": "nonpayable"
    },
    {
      "type": "function",
      "name": "deregisterOperator",
      "inputs": [
        {
          "name": "operator",
          "type": "address",
          "internalType": "address"
        },
        {
          "name": "",
          "type": "address",
          "internalType": "address"
        },
        {
          "name": "operatorSetIds",
          "type": "uint32[]",
          "internalType": "uint32[]"
        }
      ],
      "outputs": [],
      "stateMutability": "nonpayable"
    },
    {
      "type": "function",
      "name": "getAllowedOperators",
      "inputs": [
        {
          "name": "operatorSet",
          "type": "tuple",
          "internalType": "struct OperatorSet",
          "components": [
            {
              "name": "avs",
              "type": "address",
              "internalType": "address"
            },
            {
              "name": "id",
              "type": "uint32",
              "internalType": "uint32"
            }
          ]
        }
      ],
      "outputs": [
        {
          "name": "",
          "type": "address[]",
          "internalType": "address[]"
        }
      ],
      "stateMutability": "view"
    },
    {
      "type": "function",
      "name": "initialize",
      "inputs": [
        {
          "name": "metadataURI",
          "type": "string",
          "internalType": "string"
        }
      ],
      "outputs": [],
      "stateMutability": "nonpayable"
    },
    {
      "type": "function",
      "name": "isOperatorAllowed",
      "inputs": [
        {
          "name": "operatorSet",
          "type": "tuple",
          "internalType": "struct OperatorSet",
          "components": [
            {
              "name": "avs",
              "type": "address",
              "internalType": "address"
            },
            {
              "name": "id",
              "type": "uint32",
              "internalType": "uint32"
            }
          ]
        },
        {
          "name": "operator",
          "type": "address",
          "internalType": "address"
        }
      ],
      "outputs": [
        {
          "name": "",
          "type": "bool",
          "internalType": "bool"
        }
      ],
      "stateMutability": "view"
    },
    {
      "type": "function",
      "name": "keyRegistrar",
      "inputs": [],
      "outputs": [
        {
          "name": "",
          "type": "address",
          "internalType": "contract IKeyRegistrar"
        }
      ],
      "stateMutability": "view"
    },
    {
      "type": "function",
      "name": "nextOperatorSetId",
      "inputs": [],
      "outputs": [
        {
          "name": "",
          "type": "uint32",
          "internalType": "uint32"
        }
      ],
      "stateMutability": "view"
    },
    {
      "type": "function",
      "name": "owner",
      "inputs": [],
      "outputs": [
        {
          "name": "",
          "type": "address",
          "internalType": "address"
        }
      ],
      "stateMutability": "view"
    },
    {
      "type": "function",
      "name": "permissionController",
      "inputs": [],
      "outputs": [
        {
          "name": "",
          "type": "address",
          "internalType": "contract IPermissionController"
        }
      ],
      "stateMutability": "view"
    },
    {
      "type": "function",
      "name": "registerOperator",
      "inputs": [
        {
          "name": "operator",
          "type": "address",
          "internalType": "address"
        },
        {
          "name": "",
          "type": "address",
          "internalType": "address"
        },
        {
          "name": "operatorSetIds",
          "type": "uint32[]",
          "internalType": "uint32[]"
        },
        {
          "name": "data",
          "type": "bytes",
          "internalType": "bytes"
        }
      ],
      "outputs": [],
      "stateMutability": "nonpayable"
    },
    {
      "type": "function",
      "name": "removeOperatorFromAllowlist",
      "inputs": [
        {
          "name": "operatorSet",
          "type": "tuple",
          "internalType": "struct OperatorSet",
          "components": [
            {
              "name": "avs",
              "type": "address",
              "internalType": "address"
            },
            {
              "name": "id",
              "type": "uint32",
              "internalType": "uint32"
            }
          ]
        },
        {
          "name": "operator",
          "type": "address",
          "internalType": "address"
        }
      ],
      "outputs": [],
      "stateMutability": "nonpayable"
    },
    {
      "type": "function",
      "name": "renounceOwnership",
      "inputs": [],
      "outputs": [],
      "stateMutability": "nonpayable"
    },
    {
      "type": "function",
      "name": "supportsAVS",
      "inputs": [
        {
          "name": "_avs",
          "type": "address",
          "internalType": "address"
        }
      ],
      "outputs": [
        {
          "name": "",
          "type": "bool",
          "internalType": "bool"
        }
      ],
      "stateMutability": "view"
    },
    {
      "type": "function",
      "name": "transferOwnership",
      "inputs": [
        {
          "name": "newOwner",
          "type": "address",
          "internalType": "address"
        }
      ],
      "outputs": [],
      "stateMutability": "nonpayable"
    },
    {
      "type": "function",
      "name": "version",
      "inputs": [],
      "outputs": [
        {
          "name": "",
          "type": "string",
          "internalType": "string"
        }
      ],
      "stateMutability": "view"
    },
    {
      "type": "event",
      "name": "Initialized",
      "inputs": [
        {
          "name": "version",
          "type": "uint8",
          "indexed": false,
          "internalType": "uint8"
        }
      ],
      "anonymous": false
    },
    {
      "type": "event",
      "name": "OperatorAddedToAllowlist",
      "inputs": [
        {
          "name": "operatorSet",
          "type": "tuple",
          "indexed": true,
          "internalType": "struct OperatorSet",
          "components": [
            {
              "name": "avs",
              "type": "address",
              "internalType": "address"
            },
            {
              "name": "id",
              "type": "uint32",
              "internalType": "uint32"
            }
          ]
        },
        {
          "name": "operator",
          "type": "address",
          "indexed": true,
          "internalType": "address"
        }
      ],
      "anonymous": false
    },
    {
      "type": "event",
      "name": "OperatorDeregistered",
      "inputs": [
        {
          "name": "operator",
          "type": "address",
          "indexed": true,
          "internalType": "address"
        },
        {
          "name": "operatorSetIds",
          "type": "uint32[]",
          "indexed": false,
          "internalType": "uint32[]"
        }
      ],
      "anonymous": false
    },
    {
      "type": "event",
      "name": "OperatorRegistered",
      "inputs": [
        {
          "name": "operator",
          "type": "address",
          "indexed": true,
          "internalType": "address"
        },
        {
          "name": "operatorSetIds",
          "type": "uint32[]",
          "indexed": false,
          "internalType": "uint32[]"
        }
      ],
      "anonymous": false
    },
    {
      "type": "event",
      "name": "OperatorRemovedFromAllowlist",
      "inputs": [
        {
          "name": "operatorSet",
          "type": "tuple",
          "indexed": true,
          "internalType": "struct OperatorSet",
          "components": [
            {
              "name": "avs",
              "type": "address",
              "internalType": "address"
            },
            {
              "name": "id",
              "type": "uint32",
              "internalType": "uint32"
            }
          ]
        },
        {
          "name": "operator",
          "type": "address",
          "indexed": true,
          "internalType": "address"
        }
      ],
      "anonymous": false
    },
    {
      "type": "event",
      "name": "OwnershipTransferred",
      "inputs": [
        {
          "name": "previousOwner",
          "type": "address",
          "indexed": true,
          "internalType": "address"
        },
        {
          "name": "newOwner",
          "type": "address",
          "indexed": true,
          "internalType": "address"
        }
      ],
      "anonymous": false
    },
    {
      "type": "error",
      "name": "InvalidShortString",
      "inputs": []
    },
    {
      "type": "error",
      "name": "KeyNotRegistered",
      "inputs": []
    },
    {
      "type": "error",
      "name": "NotAllocationManager",
      "inputs": []
    },
    {
      "type": "error",
      "name": "NotAppController",
      "inputs": []
    },
    {
      "type": "error",
      "name": "OperatorAlreadyInAllowlist",
      "inputs": []
    },
    {
      "type": "error",
      "name": "OperatorNotInAllowlist",
      "inputs": []
    },
    {
      "type": "error",
      "name": "OperatorSetIdNotAssigned",
      "inputs": []
    },
    {
      "type": "error",
      "name": "StringTooLong",
      "inputs": [
        {
          "name": "str",
          "type": "string",
          "internalType": "string"
        }
      ]
    }
  ],
  "bytecode": {
    "object": "0x610120604052348015610010575f5ffd5b50604051613110380380613110833981810160405281019061003291906104d9565b8281858481818a6100488161014d60201b60201c565b60808181525050508173ffffffffffffffffffffffffffffffffffffffff1660a08173ffffffffffffffffffffffffffffffffffffffff16815250508073ffffffffffffffffffffffffffffffffffffffff1660c08173ffffffffffffffffffffffffffffffffffffffff168152505050506100c86101b260201b60201c565b50508173ffffffffffffffffffffffffffffffffffffffff1660e08173ffffffffffffffffffffffffffffffffffffffff16815250508073ffffffffffffffffffffffffffffffffffffffff166101008173ffffffffffffffffffffffffffffffffffffffff168152505050506101436101b260201b60201c565b5050505050610748565b5f5f829050601f8151111561019957826040517f305a27a900000000000000000000000000000000000000000000000000000000815260040161019091906105be565b60405180910390fd5b8051816101a590610620565b5f1c175f1b915050919050565b5f60019054906101000a900460ff1615610201576040517f08c379a00000000000000000000000000000000000000000000000000000000081526004016101f8906106f6565b60405180910390fd5b60ff80165f5f9054906101000a900460ff1660ff161461026e5760ff5f5f6101000a81548160ff021916908360ff1602179055507f7f26b83ff96e1f2b6a682f133852f6798a09c465da95921460cefb384740249860ff604051610265919061072f565b60405180910390a15b565b5f604051905090565b5f5ffd5b5f5ffd5b5f5ffd5b5f5ffd5b5f601f19601f8301169050919050565b7f4e487b71000000000000000000000000000000000000000000000000000000005f52604160045260245ffd5b6102cf82610289565b810181811067ffffffffffffffff821117156102ee576102ed610299565b5b80604052505050565b5f610300610270565b905061030c82826102c6565b919050565b5f67ffffffffffffffff82111561032b5761032a610299565b5b61033482610289565b9050602081019050919050565b8281835e5f83830152505050565b5f61036161035c84610311565b6102f7565b90508281526020810184848401111561037d5761037c610285565b5b610388848285610341565b509392505050565b5f82601f8301126103a4576103a3610281565b5b81516103b484826020860161034f565b91505092915050565b5f73ffffffffffffffffffffffffffffffffffffffff82169050919050565b5f6103e6826103bd565b9050919050565b5f6103f7826103dc565b9050919050565b610407816103ed565b8114610411575f5ffd5b50565b5f81519050610422816103fe565b92915050565b5f610432826103dc565b9050919050565b61044281610428565b811461044c575f5ffd5b50565b5f8151905061045d81610439565b92915050565b5f61046d826103dc565b9050919050565b61047d81610463565b8114610487575f5ffd5b50565b5f8151905061049881610474565b92915050565b5f6104a8826103dc565b9050919050565b6104b88161049e565b81146104c2575f5ffd5b50565b5f815190506104d3816104af565b92915050565b5f5f5f5f5f60a086880312156104f2576104f1610279565b5b5f86015167ffffffffffffffff81111561050f5761050e61027d565b5b61051b88828901610390565b955050602061052c88828901610414565b945050604061053d8882890161044f565b935050606061054e8882890161048a565b925050608061055f888289016104c5565b9150509295509295909350565b5f81519050919050565b5f82825260208201905092915050565b5f6105908261056c565b61059a8185610576565b93506105aa818560208601610341565b6105b381610289565b840191505092915050565b5f6020820190508181035f8301526105d68184610586565b905092915050565b5f81519050919050565b5f819050602082019050919050565b5f819050919050565b5f61060b82516105f7565b80915050919050565b5f82821b905092915050565b5f61062a826105de565b82610634846105e8565b905061063f81610600565b9250602082101561067f5761067a7fffffffffffffffffffffffffffffffffffffffffffffffffffffffffffffffff83602003600802610614565b831692505b5050919050565b7f496e697469616c697a61626c653a20636f6e747261637420697320696e6974695f8201527f616c697a696e6700000000000000000000000000000000000000000000000000602082015250565b5f6106e0602783610576565b91506106eb82610686565b604082019050919050565b5f6020820190508181035f83015261070d816106d4565b9050919050565b5f60ff82169050919050565b61072981610714565b82525050565b5f6020820190506107425f830184610720565b92915050565b60805160a05160c05160e051610100516129376107d95f395f818161061a0152818161076e015281816109ae01528181610d360152610fb701525f818161070701528181610e6c01528181610ef40152610f7a01525f6106e301525f81816105280152818161092201528181610a9101528181610b8801528181610d5c0152610de401525f61073001526129375ff3fe608060405234801561000f575f5ffd5b506004361061012a575f3560e01c80637fe94e16116100ab578063ca8aa7c71161006f578063ca8aa7c7146102f6578063de1164bb14610314578063f2fde38b14610332578063f62d18881461034e578063f91ff80c1461036a5761012a565b80637fe94e161461023e578063833b3fa31461026e5780638da5cb5b1461028c578063b5265787146102aa578063c63fd502146102da5761012a565b80634657e26a116100f25780634657e26a146101be57806354fd4d50146101dc578063715018a6146101fa57806374da4713146102045780637ede3ba7146102205761012a565b80630a4d3d291461012e5780631017873a1461014a578063303ca956146101665780633a10eef7146101825780633ec45c7e146101a0575b5f5ffd5b610148600480360381019061014391906119d1565b61039a565b005b610164600480360381019061015f91906119d1565b610460565b005b610180600480360381019061017b9190611a70565b610526565b005b61018a610617565b6040516101979190611af0565b60405180910390f35b6101a86106e1565b6040516101b59190611b64565b60405180910390f35b6101c6610705565b6040516101d39190611b9d565b60405180910390f35b6101e4610729565b6040516101f19190611c16565b60405180910390f35b610202610759565b005b61021e60048036038101906102199190611c36565b61076c565b005b6102286109ac565b6040516102359190611c81565b60405180910390f35b61025860048036038101906102539190611c9a565b6109d0565b6040516102659190611d7c565b60405180910390f35b6102766109fa565b6040516102839190611af0565b60405180910390f35b610294610a0f565b6040516102a19190611dab565b60405180910390f35b6102c460048036038101906102bf9190611dc4565b610a37565b6040516102d19190611e09565b60405180910390f35b6102f460048036038101906102ef9190611e77565b610a8f565b005b6102fe610b86565b60405161030b9190611f3a565b60405180910390f35b61031c610baa565b6040516103299190611dab565b60405180910390f35b61034c60048036038101906103479190611dc4565b610bcf565b005b61036860048036038101906103639190612003565b610c51565b005b610384600480360381019061037f91906119d1565b61107c565b6040516103919190611e09565b60405180910390f35b6103a26110b0565b6103cd8160965f6103b28661112e565b81526020019081526020015f2061116e90919063ffffffff16565b610403576040517f11134b8400000000000000000000000000000000000000000000000000000000815260040160405180910390fd5b8073ffffffffffffffffffffffffffffffffffffffff168260405161042891906120c1565b60405180910390207f533bf6e1348e64eb9448930dece3436586c031d36722adbc7ccb47980912880660405160405180910390a35050565b6104686110b0565b6104938160965f6104788661112e565b81526020019081526020015f2061119b90919063ffffffff16565b6104c9576040517f86e0613f00000000000000000000000000000000000000000000000000000000815260040160405180910390fd5b8073ffffffffffffffffffffffffffffffffffffffff16826040516104ee91906120c1565b60405180910390207ffe795219771c42bdbb61ef308cc2b33e1e35b35a3364499b99b2ec2287f20c8c60405160405180910390a35050565b7f000000000000000000000000000000000000000000000000000000000000000073ffffffffffffffffffffffffffffffffffffffff163373ffffffffffffffffffffffffffffffffffffffff16146105ab576040517fd797b15400000000000000000000000000000000000000000000000000000000815260040160405180910390fd5b6105b68483836111c8565b6105c18483836111cd565b8373ffffffffffffffffffffffffffffffffffffffff167ff8aaad08ee23b49c9bb44e3bca6c7efa43442fc4281245a7f2475aa2632718d18383604051610609929190612197565b60405180910390a250505050565b5f7f000000000000000000000000000000000000000000000000000000000000000073ffffffffffffffffffffffffffffffffffffffff163373ffffffffffffffffffffffffffffffffffffffff161461069d576040517f626e239300000000000000000000000000000000000000000000000000000000815260040160405180910390fd5b60c85f81819054906101000a900463ffffffff16809291906106be906121e6565b91906101000a81548163ffffffff021916908363ffffffff160217905550905090565b7f000000000000000000000000000000000000000000000000000000000000000081565b7f000000000000000000000000000000000000000000000000000000000000000081565b60606107547f00000000000000000000000000000000000000000000000000000000000000006111d2565b905090565b6107616110b0565b61076a5f611244565b565b7f000000000000000000000000000000000000000000000000000000000000000073ffffffffffffffffffffffffffffffffffffffff163373ffffffffffffffffffffffffffffffffffffffff16146107f1576040517f626e239300000000000000000000000000000000000000000000000000000000815260040160405180910390fd5b60c85f9054906101000a900463ffffffff1663ffffffff168163ffffffff1610610847576040517f1c226c3600000000000000000000000000000000000000000000000000000000815260040160405180910390fd5b5f600167ffffffffffffffff81111561086357610862611879565b5b60405190808252806020026020018201604052801561089c57816020015b610889611835565b8152602001906001900390816108815790505b50905060405180604001604052808363ffffffff1681526020015f67ffffffffffffffff8111156108d0576108cf611879565b5b6040519080825280602002602001820160405280156108fe5781602001602082028036833780820191505090505b50815250815f8151811061091557610914612211565b5b60200260200101819052507f000000000000000000000000000000000000000000000000000000000000000073ffffffffffffffffffffffffffffffffffffffff1663261f84e030836040518363ffffffff1660e01b815260040161097b9291906123fb565b5f604051808303815f87803b158015610992575f5ffd5b505af11580156109a4573d5f5f3e3d5ffd5b505050505050565b7f000000000000000000000000000000000000000000000000000000000000000081565b60606109f360965f6109e18561112e565b81526020019081526020015f20611307565b9050919050565b60c85f9054906101000a900463ffffffff1681565b5f60645f9054906101000a900473ffffffffffffffffffffffffffffffffffffffff16905090565b5f5f60029054906101000a900473ffffffffffffffffffffffffffffffffffffffff1673ffffffffffffffffffffffffffffffffffffffff168273ffffffffffffffffffffffffffffffffffffffff16149050919050565b7f000000000000000000000000000000000000000000000000000000000000000073ffffffffffffffffffffffffffffffffffffffff163373ffffffffffffffffffffffffffffffffffffffff1614610b14576040517fd797b15400000000000000000000000000000000000000000000000000000000815260040160405180910390fd5b610b218685858585611326565b610b2e86858585856113fc565b8573ffffffffffffffffffffffffffffffffffffffff167f9efdc3d07eb312e06bf36ea85db02aec96817d7c7421f919027b240eaf34035d8585604051610b76929190612197565b60405180910390a2505050505050565b7f000000000000000000000000000000000000000000000000000000000000000081565b5f60029054906101000a900473ffffffffffffffffffffffffffffffffffffffff1681565b610bd76110b0565b5f73ffffffffffffffffffffffffffffffffffffffff168173ffffffffffffffffffffffffffffffffffffffff1603610c45576040517f08c379a0000000000000000000000000000000000000000000000000000000008152600401610c3c90612499565b60405180910390fd5b610c4e81611244565b50565b5f5f60019054906101000a900460ff16159050808015610c81575060015f5f9054906101000a900460ff1660ff16105b80610cae5750610c9030611403565b158015610cad575060015f5f9054906101000a900460ff1660ff16145b5b610ced576040517f08c379a0000000000000000000000000000000000000000000000000000000008152600401610ce490612527565b60405180910390fd5b60015f5f6101000a81548160ff021916908360ff1602179055508015610d285760015f60016101000a81548160ff0219169083151502179055505b610d3130611425565b610d5a7f00000000000000000000000000000000000000000000000000000000000000006114b6565b7f000000000000000000000000000000000000000000000000000000000000000073ffffffffffffffffffffffffffffffffffffffff1663a982182130846040518363ffffffff1660e01b8152600401610db5929190612545565b5f604051808303815f87803b158015610dcc575f5ffd5b505af1158015610dde573d5f5f3e3d5ffd5b505050507f000000000000000000000000000000000000000000000000000000000000000073ffffffffffffffffffffffffffffffffffffffff1663d3d96ff430306040518363ffffffff1660e01b8152600401610e3d929190612593565b5f604051808303815f87803b158015610e54575f5ffd5b505af1158015610e66573d5f5f3e3d5ffd5b505050507f000000000000000000000000000000000000000000000000000000000000000073ffffffffffffffffffffffffffffffffffffffff1663eb5a4e8730306040518363ffffffff1660e01b8152600401610ec59291906125ba565b5f604051808303815f87803b158015610edc575f5ffd5b505af1158015610eee573d5f5f3e3d5ffd5b505050507f000000000000000000000000000000000000000000000000000000000000000073ffffffffffffffffffffffffffffffffffffffff1663628806ef306040518263ffffffff1660e01b8152600401610f4b9190611dab565b5f604051808303815f87803b158015610f62575f5ffd5b505af1158015610f74573d5f5f3e3d5ffd5b505050507f000000000000000000000000000000000000000000000000000000000000000073ffffffffffffffffffffffffffffffffffffffff1663eb5a4e87307f00000000000000000000000000000000000000000000000000000000000000006040518363ffffffff1660e01b8152600401610ff39291906125ba565b5f604051808303815f87803b15801561100a575f5ffd5b505af115801561101c573d5f5f3e3d5ffd5b505050508015611078575f5f60016101000a81548160ff0219169083151502179055507f7f26b83ff96e1f2b6a682f133852f6798a09c465da95921460cefb3847402498600160405161106f9190612626565b60405180910390a15b5050565b5f6110a88260965f61108d8761112e565b81526020019081526020015f2061151890919063ffffffff16565b905092915050565b6110b8611545565b73ffffffffffffffffffffffffffffffffffffffff166110d6610a0f565b73ffffffffffffffffffffffffffffffffffffffff161461112c576040517f08c379a000000000000000000000000000000000000000000000000000000000815260040161112390612689565b60405180910390fd5b565b5f815f0151826020015163ffffffff1660405160200161114f929190612737565b604051602081830303815290604052611167906127a4565b9050919050565b5f611193835f018373ffffffffffffffffffffffffffffffffffffffff165f1b61154c565b905092915050565b5f6111c0835f018373ffffffffffffffffffffffffffffffffffffffff165f1b611648565b905092915050565b505050565b505050565b60605f6111de836116af565b90505f602067ffffffffffffffff8111156111fc576111fb611879565b5b6040519080825280601f01601f19166020018201604052801561122e5781602001600182028036833780820191505090505b5090508181528360208201528092505050919050565b5f60645f9054906101000a900473ffffffffffffffffffffffffffffffffffffffff1690508160645f6101000a81548173ffffffffffffffffffffffffffffffffffffffff021916908373ffffffffffffffffffffffffffffffffffffffff1602179055508173ffffffffffffffffffffffffffffffffffffffff168173ffffffffffffffffffffffffffffffffffffffff167f8be0079c531659141344cd1fd0a4f28419497f9722a3daafe3b4186f6b6457e060405160405180910390a35050565b60605f611315835f016116fd565b905060608190508092505050919050565b6113338585858585611756565b5f5b848490508163ffffffff1610156113f4576113ad60405180604001604052803073ffffffffffffffffffffffffffffffffffffffff16815260200187878563ffffffff1681811061138957611388612211565b5b905060200201602081019061139e9190611c36565b63ffffffff168152508761107c565b6113e3576040517f11134b8400000000000000000000000000000000000000000000000000000000815260040160405180910390fd5b806113ed906121e6565b9050611335565b505050505050565b5050505050565b5f5f8273ffffffffffffffffffffffffffffffffffffffff163b119050919050565b5f60019054906101000a900460ff16611473576040517f08c379a000000000000000000000000000000000000000000000000000000000815260040161146a9061287a565b60405180910390fd5b805f60026101000a81548173ffffffffffffffffffffffffffffffffffffffff021916908373ffffffffffffffffffffffffffffffffffffffff16021790555050565b5f60019054906101000a900460ff16611504576040517f08c379a00000000000000000000000000000000000000000000000000000000081526004016114fb9061287a565b60405180910390fd5b61150c61175d565b61151581611244565b50565b5f61153d835f018373ffffffffffffffffffffffffffffffffffffffff165f1b6117b5565b905092915050565b5f33905090565b5f5f836001015f8481526020019081526020015f205490505f811461163d575f60018261157991906128a1565b90505f6001865f018054905061158f91906128a1565b90508181146115f5575f865f0182815481106115ae576115ad612211565b5b905f5260205f200154905080875f0184815481106115cf576115ce612211565b5b905f5260205f20018190555083876001015f8381526020019081526020015f2081905550505b855f01805480611608576116076128d4565b5b600190038181905f5260205f20015f90559055856001015f8681526020019081526020015f205f905560019350505050611642565b5f9150505b92915050565b5f61165383836117b5565b6116a557825f0182908060018154018082558091505060019003905f5260205f20015f9091909190915055825f0180549050836001015f8481526020019081526020015f2081905550600190506116a9565b5f90505b92915050565b5f5f60ff835f1c169050601f8111156116f4576040517fb3512b0c00000000000000000000000000000000000000000000000000000000815260040160405180910390fd5b80915050919050565b6060815f0180548060200260200160405190810160405280929190818152602001828054801561174a57602002820191905f5260205f20905b815481526020019060010190808311611736575b50505050509050919050565b5050505050565b5f60019054906101000a900460ff166117ab576040517f08c379a00000000000000000000000000000000000000000000000000000000081526004016117a29061287a565b60405180910390fd5b6117b36117d5565b565b5f5f836001015f8481526020019081526020015f20541415905092915050565b5f60019054906101000a900460ff16611823576040517f08c379a000000000000000000000000000000000000000000000000000000000815260040161181a9061287a565b60405180910390fd5b61183361182e611545565b611244565b565b60405180604001604052805f63ffffffff168152602001606081525090565b5f604051905090565b5f5ffd5b5f5ffd5b5f5ffd5b5f601f19601f8301169050919050565b7f4e487b71000000000000000000000000000000000000000000000000000000005f52604160045260245ffd5b6118af82611869565b810181811067ffffffffffffffff821117156118ce576118cd611879565b5b80604052505050565b5f6118e0611854565b90506118ec82826118a6565b919050565b5f73ffffffffffffffffffffffffffffffffffffffff82169050919050565b5f61191a826118f1565b9050919050565b61192a81611910565b8114611934575f5ffd5b50565b5f8135905061194581611921565b92915050565b5f63ffffffff82169050919050565b6119638161194b565b811461196d575f5ffd5b50565b5f8135905061197e8161195a565b92915050565b5f6040828403121561199957611998611865565b5b6119a360406118d7565b90505f6119b284828501611937565b5f8301525060206119c584828501611970565b60208301525092915050565b5f5f606083850312156119e7576119e661185d565b5b5f6119f485828601611984565b9250506040611a0585828601611937565b9150509250929050565b5f5ffd5b5f5ffd5b5f5ffd5b5f5f83601f840112611a3057611a2f611a0f565b5b8235905067ffffffffffffffff811115611a4d57611a4c611a13565b5b602083019150836020820283011115611a6957611a68611a17565b5b9250929050565b5f5f5f5f60608587031215611a8857611a8761185d565b5b5f611a9587828801611937565b9450506020611aa687828801611937565b935050604085013567ffffffffffffffff811115611ac757611ac6611861565b5b611ad387828801611a1b565b925092505092959194509250565b611aea8161194b565b82525050565b5f602082019050611b035f830184611ae1565b92915050565b5f819050919050565b5f611b2c611b27611b22846118f1565b611b09565b6118f1565b9050919050565b5f611b3d82611b12565b9050919050565b5f611b4e82611b33565b9050919050565b611b5e81611b44565b82525050565b5f602082019050611b775f830184611b55565b92915050565b5f611b8782611b33565b9050919050565b611b9781611b7d565b82525050565b5f602082019050611bb05f830184611b8e565b92915050565b5f81519050919050565b5f82825260208201905092915050565b8281835e5f83830152505050565b5f611be882611bb6565b611bf28185611bc0565b9350611c02818560208601611bd0565b611c0b81611869565b840191505092915050565b5f6020820190508181035f830152611c2e8184611bde565b905092915050565b5f60208284031215611c4b57611c4a61185d565b5b5f611c5884828501611970565b91505092915050565b5f611c6b82611b33565b9050919050565b611c7b81611c61565b82525050565b5f602082019050611c945f830184611c72565b92915050565b5f60408284031215611caf57611cae61185d565b5b5f611cbc84828501611984565b91505092915050565b5f81519050919050565b5f82825260208201905092915050565b5f819050602082019050919050565b611cf781611910565b82525050565b5f611d088383611cee565b60208301905092915050565b5f602082019050919050565b5f611d2a82611cc5565b611d348185611ccf565b9350611d3f83611cdf565b805f5b83811015611d6f578151611d568882611cfd565b9750611d6183611d14565b925050600181019050611d42565b5085935050505092915050565b5f6020820190508181035f830152611d948184611d20565b905092915050565b611da581611910565b82525050565b5f602082019050611dbe5f830184611d9c565b92915050565b5f60208284031215611dd957611dd861185d565b5b5f611de684828501611937565b91505092915050565b5f8115159050919050565b611e0381611def565b82525050565b5f602082019050611e1c5f830184611dfa565b92915050565b5f5f83601f840112611e3757611e36611a0f565b5b8235905067ffffffffffffffff811115611e5457611e53611a13565b5b602083019150836001820283011115611e7057611e6f611a17565b5b9250929050565b5f5f5f5f5f5f60808789031215611e9157611e9061185d565b5b5f611e9e89828a01611937565b9650506020611eaf89828a01611937565b955050604087013567ffffffffffffffff811115611ed057611ecf611861565b5b611edc89828a01611a1b565b9450945050606087013567ffffffffffffffff811115611eff57611efe611861565b5b611f0b89828a01611e22565b92509250509295509295509295565b5f611f2482611b33565b9050919050565b611f3481611f1a565b82525050565b5f602082019050611f4d5f830184611f2b565b92915050565b5f5ffd5b5f67ffffffffffffffff821115611f7157611f70611879565b5b611f7a82611869565b9050602081019050919050565b828183375f83830152505050565b5f611fa7611fa284611f57565b6118d7565b905082815260208101848484011115611fc357611fc2611f53565b5b611fce848285611f87565b509392505050565b5f82601f830112611fea57611fe9611a0f565b5b8135611ffa848260208601611f95565b91505092915050565b5f602082840312156120185761201761185d565b5b5f82013567ffffffffffffffff81111561203557612034611861565b5b61204184828501611fd6565b91505092915050565b61205381611910565b82525050565b5f612064838361204a565b60208301905092915050565b6120798161194b565b82525050565b5f61208a8383612070565b60208301905092915050565b5f82015f8201516120a78482612059565b93505060208201516120b9848261207f565b935050505050565b5f6120cc8284612096565b60408201915081905092915050565b5f82825260208201905092915050565b5f819050919050565b6120fd8161194b565b82525050565b5f61210e83836120f4565b60208301905092915050565b5f6121286020840184611970565b905092915050565b5f602082019050919050565b5f61214783856120db565b9350612152826120eb565b805f5b8581101561218a57612167828461211a565b6121718882612103565b975061217c83612130565b925050600181019050612155565b5085925050509392505050565b5f6020820190508181035f8301526121b081848661213c565b90509392505050565b7f4e487b71000000000000000000000000000000000000000000000000000000005f52601160045260245ffd5b5f6121f08261194b565b915063ffffffff8203612206576122056121b9565b5b600182019050919050565b7f4e487b71000000000000000000000000000000000000000000000000000000005f52603260045260245ffd5b5f81519050919050565b5f82825260208201905092915050565b5f819050602082019050919050565b5f81519050919050565b5f82825260208201905092915050565b5f819050602082019050919050565b5f61229a82611b33565b9050919050565b6122aa81612290565b82525050565b5f6122bb83836122a1565b60208301905092915050565b5f602082019050919050565b5f6122dd82612267565b6122e78185612271565b93506122f283612281565b805f5b8381101561232257815161230988826122b0565b9750612314836122c7565b9250506001810190506122f5565b5085935050505092915050565b5f604083015f8301516123445f8601826120f4565b506020830151848203602086015261235c82826122d3565b9150508091505092915050565b5f612374838361232f565b905092915050565b5f602082019050919050565b5f6123928261223e565b61239c8185612248565b9350836020820285016123ae85612258565b805f5b858110156123e957848403895281516123ca8582612369565b94506123d58361237c565b925060208a019950506001810190506123b1565b50829750879550505050505092915050565b5f60408201905061240e5f830185611d9c565b81810360208301526124208184612388565b90509392505050565b7f4f776e61626c653a206e6577206f776e657220697320746865207a65726f20615f8201527f6464726573730000000000000000000000000000000000000000000000000000602082015250565b5f612483602683611bc0565b915061248e82612429565b604082019050919050565b5f6020820190508181035f8301526124b081612477565b9050919050565b7f496e697469616c697a61626c653a20636f6e747261637420697320616c7265615f8201527f647920696e697469616c697a6564000000000000000000000000000000000000602082015250565b5f612511602e83611bc0565b915061251c826124b7565b604082019050919050565b5f6020820190508181035f83015261253e81612505565b9050919050565b5f6040820190506125585f830185611d9c565b818103602083015261256a8184611bde565b90509392505050565b5f61257d82611b33565b9050919050565b61258d81612573565b82525050565b5f6040820190506125a65f830185611d9c565b6125b36020830184612584565b9392505050565b5f6040820190506125cd5f830185611d9c565b6125da6020830184611d9c565b9392505050565b5f819050919050565b5f60ff82169050919050565b5f61261061260b612606846125e1565b611b09565b6125ea565b9050919050565b612620816125f6565b82525050565b5f6020820190506126395f830184612617565b92915050565b7f4f776e61626c653a2063616c6c6572206973206e6f7420746865206f776e65725f82015250565b5f612673602083611bc0565b915061267e8261263f565b602082019050919050565b5f6020820190508181035f8301526126a081612667565b9050919050565b5f8160601b9050919050565b5f6126bd826126a7565b9050919050565b5f6126ce826126b3565b9050919050565b6126e66126e182611910565b6126c4565b82525050565b5f6bffffffffffffffffffffffff82169050919050565b5f8160a01b9050919050565b5f61271982612703565b9050919050565b61273161272c826126ec565b61270f565b82525050565b5f61274282856126d5565b6014820191506127528284612720565b600c820191508190509392505050565b5f81519050919050565b5f819050602082019050919050565b5f819050919050565b5f61278f825161277b565b80915050919050565b5f82821b905092915050565b5f6127ae82612762565b826127b88461276c565b90506127c381612784565b92506020821015612803576127fe7fffffffffffffffffffffffffffffffffffffffffffffffffffffffffffffffff83602003600802612798565b831692505b5050919050565b7f496e697469616c697a61626c653a20636f6e7472616374206973206e6f7420695f8201527f6e697469616c697a696e67000000000000000000000000000000000000000000602082015250565b5f612864602b83611bc0565b915061286f8261280a565b604082019050919050565b5f6020820190508181035f83015261289181612858565b9050919050565b5f819050919050565b5f6128ab82612898565b91506128b683612898565b92508282039050818111156128ce576128cd6121b9565b5b92915050565b7f4e487b71000000000000000000000000000000000000000000000000000000005f52603160045260245ffdfea26469706673582212207773cb944a9de1e1cf2cd1b1ae889b4df3b3094c403e0b07ab1e9914730e460d64736f6c634300081b0033",
    "linkReferences": {}
  },
  "methodIdentifiers": {
    "addOperatorToAllowlist((address,uint32),address)": "1017873a",
    "allocationManager()": "ca8aa7c7",
    "appController()": "7ede3ba7",
    "assignOperatorSetId()": "3a10eef7",
    "avs()": "de1164bb",
    "createOperatorSet(uint32)": "74da4713",
    "deregisterOperator(address,address,uint32[])": "303ca956",
    "getAllowedOperators((address,uint32))": "7fe94e16",
    "initialize(string)": "f62d1888",
    "isOperatorAllowed((address,uint32),address)": "f91ff80c",
    "keyRegistrar()": "3ec45c7e",
    "nextOperatorSetId()": "833b3fa3",
    "owner()": "8da5cb5b",
    "permissionController()": "4657e26a",
    "registerOperator(address,address,uint32[],bytes)": "c63fd502",
    "removeOperatorFromAllowlist((address,uint32),address)": "0a4d3d29",
    "renounceOwnership()": "715018a6",
    "supportsAVS(address)": "b5265787",
    "transferOwnership(address)": "f2fde38b",
    "version()": "54fd4d50"
  },
  "id": 136
}