{
  "abi": [
    {
      "type": "constructor",
      "inputs": [
        {
          "name": "_version",
          "type": "string",
          "internalType": "string"
        },
        {
          "name": "_permissionController",
          "type": "address",
          "internalType": "contract IPermissionController"
        },
        {
          "name": "_releaseManager",
          "type": "address",
          "internalType": "contract IReleaseManager"
        },
        {
          "name": "_computeAVSRegistrar",
          "type": "address",
          "internalType": "contract IComputeAVSRegistrar"
        },
        {
          "name": "_computeOperator",
          "type": "address",
          "internalType": "contract IComputeOperator"
        },
        {
          "name": "_appBeacon",
          "type": "address",
          "internalType": "contract IBeacon"
        }
      ],
      "stateMutability": "nonpayable"
    },
    {
      "type": "function",
      "name": "API_PERMISSION_TYPEHASH",
      "inputs": [],
      "outputs": [
        {
          "name": "",
          "type": "bytes32",
          "internalType": "bytes32"
        }
      ],
      "stateMutability": "view"
    },
    {
      "type": "function",
      "name": "appBeacon",
      "inputs": [],
      "outputs": [
        {
          "name": "",
          "type": "address",
          "internalType": "contract IBeacon"
        }
      ],
      "stateMutability": "view"
    },
    {
      "type": "function",
      "name": "calculateApiPermissionDigestHash",
      "inputs": [
        {
          "name": "permission",
          "type": "bytes4",
          "internalType": "bytes4"
        },
        {
          "name": "expiry",
          "type": "uint256",
          "internalType": "uint256"
        }
      ],
      "outputs": [
        {
          "name": "",
          "type": "bytes32",
          "internalType": "bytes32"
        }
      ],
      "stateMutability": "view"
    },
    {
      "type": "function",
      "name": "calculateAppId",
      "inputs": [
        {
          "name": "deployer",
          "type": "address",
          "internalType": "address"
        },
        {
          "name": "salt",
          "type": "bytes32",
          "internalType": "bytes32"
        }
      ],
      "outputs": [
        {
          "name": "",
          "type": "address",
          "internalType": "contract IApp"
        }
      ],
      "stateMutability": "view"
    },
    {
      "type": "function",
      "name": "computeAVSRegistrar",
      "inputs": [],
      "outputs": [
        {
          "name": "",
          "type": "address",
          "internalType": "contract IComputeAVSRegistrar"
        }
      ],
      "stateMutability": "view"
    },
    {
      "type": "function",
      "name": "computeOperator",
      "inputs": [],
      "outputs": [
        {
          "name": "",
          "type": "address",
          "internalType": "contract IComputeOperator"
        }
      ],
      "stateMutability": "view"
    },
    {
      "type": "function",
      "name": "createApp",
      "inputs": [
        {
          "name": "salt",
          "type": "bytes32",
          "internalType": "bytes32"
        },
        {
          "name": "release",
          "type": "tuple",
          "internalType": "struct IAppController.Release",
          "components": [
            {
              "name": "rmsRelease",
              "type": "tuple",
              "internalType": "struct IReleaseManagerTypes.Release",
              "components": [
                {
                  "name": "artifacts",
                  "type": "tuple[]",
                  "internalType": "struct IReleaseManagerTypes.Artifact[]",
                  "components": [
                    {
                      "name": "digest",
                      "type": "bytes32",
                      "internalType": "bytes32"
                    },
                    {
                      "name": "registry",
                      "type": "string",
                      "internalType": "string"
                    }
                  ]
                },
                {
                  "name": "upgradeByTime",
                  "type": "uint32",
                  "internalType": "uint32"
                }
              ]
            },
            {
              "name": "publicEnv",
              "type": "bytes",
              "internalType": "bytes"
            },
            {
              "name": "encryptedEnv",
              "type": "bytes",
              "internalType": "bytes"
            }
          ]
        }
      ],
      "outputs": [
        {
          "name": "app",
          "type": "address",
          "internalType": "contract IApp"
        }
      ],
      "stateMutability": "nonpayable"
    },
    {
      "type": "function",
      "name": "domainSeparator",
      "inputs": [],
      "outputs": [
        {
          "name": "",
          "type": "bytes32",
          "internalType": "bytes32"
        }
      ],
      "stateMutability": "view"
    },
    {
      "type": "function",
      "name": "getActiveAppCount",
      "inputs": [
        {
          "name": "user",
          "type": "address",
          "internalType": "address"
        }
      ],
      "outputs": [
        {
          "name": "",
          "type": "uint32",
          "internalType": "uint32"
        }
      ],
      "stateMutability": "view"
    },
    {
      "type": "function",
      "name": "getAppCreator",
      "inputs": [
        {
          "name": "app",
          "type": "address",
          "internalType": "contract IApp"
        }
      ],
      "outputs": [
        {
          "name": "",
          "type": "address",
          "internalType": "address"
        }
      ],
      "stateMutability": "view"
    },
    {
      "type": "function",
      "name": "getAppLatestReleaseBlockNumber",
      "inputs": [
        {
          "name": "app",
          "type": "address",
          "internalType": "contract IApp"
        }
      ],
      "outputs": [
        {
          "name": "",
          "type": "uint32",
          "internalType": "uint32"
        }
      ],
      "stateMutability": "view"
    },
    {
      "type": "function",
      "name": "getAppOperatorSetId",
      "inputs": [
        {
          "name": "app",
          "type": "address",
          "internalType": "contract IApp"
        }
      ],
      "outputs": [
        {
          "name": "",
          "type": "uint32",
          "internalType": "uint32"
        }
      ],
      "stateMutability": "view"
    },
    {
      "type": "function",
      "name": "getAppStatus",
      "inputs": [
        {
          "name": "app",
          "type": "address",
          "internalType": "contract IApp"
        }
      ],
      "outputs": [
        {
          "name": "",
          "type": "uint8",
          "internalType": "enum IAppController.AppStatus"
        }
      ],
      "stateMutability": "view"
    },
    {
      "type": "function",
      "name": "getMaxActiveAppsPerUser",
      "inputs": [
        {
          "name": "user",
          "type": "address",
          "internalType": "address"
        }
      ],
      "outputs": [
        {
          "name": "",
          "type": "uint32",
          "internalType": "uint32"
        }
      ],
      "stateMutability": "view"
    },
    {
      "type": "function",
      "name": "globalActiveAppCount",
      "inputs": [],
      "outputs": [
        {
          "name": "",
          "type": "uint32",
          "internalType": "uint32"
        }
      ],
      "stateMutability": "view"
    },
    {
      "type": "function",
      "name": "initialize",
      "inputs": [
        {
          "name": "admin",
          "type": "address",
          "internalType": "address"
        }
      ],
      "outputs": [],
      "stateMutability": "nonpayable"
    },
    {
      "type": "function",
      "name": "listApps",
      "inputs": [
        {
          "name": "developer",
          "type": "address",
          "internalType": "address"
        },
        {
          "name": "offset",
          "type": "uint256",
          "internalType": "uint256"
        },
        {
          "name": "limit",
          "type": "uint256",
          "internalType": "uint256"
        }
      ],
      "outputs": [
        {
          "name": "apps",
          "type": "address[]",
          "internalType": "contract IApp[]"
        },
        {
          "name": "appConfigsMem",
          "type": "tuple[]",
          "internalType": "struct IAppController.AppConfig[]",
          "components": [
            {
              "name": "creator",
              "type": "address",
              "internalType": "address"
            },
            {
              "name": "operatorSetId",
              "type": "uint32",
              "internalType": "uint32"
            },
            {
              "name": "latestReleaseBlockNumber",
              "type": "uint32",
              "internalType": "uint32"
            },
            {
              "name": "status",
              "type": "uint8",
              "internalType": "enum IAppController.AppStatus"
            }
          ]
        }
      ],
      "stateMutability": "view"
    },
    {
      "type": "function",
      "name": "maxGlobalActiveApps",
      "inputs": [],
      "outputs": [
        {
          "name": "",
          "type": "uint32",
          "internalType": "uint32"
        }
      ],
      "stateMutability": "view"
    },
    {
      "type": "function",
      "name": "permissionController",
      "inputs": [],
      "outputs": [
        {
          "name": "",
          "type": "address",
          "internalType": "contract IPermissionController"
        }
      ],
      "stateMutability": "view"
    },
    {
      "type": "function",
      "name": "releaseManager",
      "inputs": [],
      "outputs": [
        {
          "name": "",
          "type": "address",
          "internalType": "contract IReleaseManager"
        }
      ],
      "stateMutability": "view"
    },
    {
      "type": "function",
      "name": "setMaxActiveAppsPerUser",
      "inputs": [
        {
          "name": "user",
          "type": "address",
          "internalType": "address"
        },
        {
          "name": "limit",
          "type": "uint32",
          "internalType": "uint32"
        }
      ],
      "outputs": [],
      "stateMutability": "nonpayable"
    },
    {
      "type": "function",
      "name": "setMaxGlobalActiveApps",
      "inputs": [
        {
          "name": "limit",
          "type": "uint32",
          "internalType": "uint32"
        }
      ],
      "outputs": [],
      "stateMutability": "nonpayable"
    },
    {
      "type": "function",
      "name": "startApp",
      "inputs": [
        {
          "name": "app",
          "type": "address",
          "internalType": "contract IApp"
        }
      ],
      "outputs": [],
      "stateMutability": "nonpayable"
    },
    {
      "type": "function",
      "name": "stopApp",
      "inputs": [
        {
          "name": "app",
          "type": "address",
          "internalType": "contract IApp"
        }
      ],
      "outputs": [],
      "stateMutability": "nonpayable"
    },
    {
      "type": "function",
      "name": "terminateApp",
      "inputs": [
        {
          "name": "app",
          "type": "address",
          "internalType": "contract IApp"
        }
      ],
      "outputs": [],
      "stateMutability": "nonpayable"
    },
    {
      "type": "function",
      "name": "terminateAppByAdmin",
      "inputs": [
        {
          "name": "app",
          "type": "address",
          "internalType": "contract IApp"
        }
      ],
      "outputs": [],
      "stateMutability": "nonpayable"
    },
    {
      "type": "function",
      "name": "upgradeApp",
      "inputs": [
        {
          "name": "app",
          "type": "address",
          "internalType": "contract IApp"
        },
        {
          "name": "release",
          "type": "tuple",
          "internalType": "struct IAppController.Release",
          "components": [
            {
              "name": "rmsRelease",
              "type": "tuple",
              "internalType": "struct IReleaseManagerTypes.Release",
              "components": [
                {
                  "name": "artifacts",
                  "type": "tuple[]",
                  "internalType": "struct IReleaseManagerTypes.Artifact[]",
                  "components": [
                    {
                      "name": "digest",
                      "type": "bytes32",
                      "internalType": "bytes32"
                    },
                    {
                      "name": "registry",
                      "type": "string",
                      "internalType": "string"
                    }
                  ]
                },
                {
                  "name": "upgradeByTime",
                  "type": "uint32",
                  "internalType": "uint32"
                }
              ]
            },
            {
              "name": "publicEnv",
              "type": "bytes",
              "internalType": "bytes"
            },
            {
              "name": "encryptedEnv",
              "type": "bytes",
              "internalType": "bytes"
            }
          ]
        }
      ],
      "outputs": [
        {
          "name": "",
          "type": "uint256",
          "internalType": "uint256"
        }
      ],
      "stateMutability": "nonpayable"
    },
    {
      "type": "function",
      "name": "version",
      "inputs": [],
      "outputs": [
        {
          "name": "",
          "type": "string",
          "internalType": "string"
        }
      ],
      "stateMutability": "view"
    },
    {
      "type": "event",
      "name": "AppCreated",
      "inputs": [
        {
          "name": "creator",
          "type": "address",
          "indexed": true,
          "internalType": "address"
        },
        {
          "name": "app",
          "type": "address",
          "indexed": true,
          "internalType": "contract IApp"
        },
        {
          "name": "operatorSetId",
          "type": "uint32",
          "indexed": false,
          "internalType": "uint32"
        }
      ],
      "anonymous": false
    },
    {
      "type": "event",
      "name": "AppStarted",
      "inputs": [
        {
          "name": "app",
          "type": "address",
          "indexed": true,
          "internalType": "contract IApp"
        }
      ],
      "anonymous": false
    },
    {
      "type": "event",
      "name": "AppStopped",
      "inputs": [
        {
          "name": "app",
          "type": "address",
          "indexed": true,
          "internalType": "contract IApp"
        }
      ],
      "anonymous": false
    },
    {
      "type": "event",
      "name": "AppTerminated",
      "inputs": [
        {
          "name": "app",
          "type": "address",
          "indexed": true,
          "internalType": "contract IApp"
        }
      ],
      "anonymous": false
    },
    {
      "type": "event",
      "name": "AppTerminatedByAdmin",
      "inputs": [
        {
          "name": "app",
          "type": "address",
          "indexed": true,
          "internalType": "contract IApp"
        }
      ],
      "anonymous": false
    },
    {
      "type": "event",
      "name": "AppUpgraded",
      "inputs": [
        {
          "name": "app",
          "type": "address",
          "indexed": true,
          "internalType": "contract IApp"
        },
        {
          "name": "rmsReleaseId",
          "type": "uint256",
          "indexed": false,
          "internalType": "uint256"
        },
        {
          "name": "release",
          "type": "tuple",
          "indexed": false,
          "internalType": "struct IAppController.Release",
          "components": [
            {
              "name": "rmsRelease",
              "type": "tuple",
              "internalType": "struct IReleaseManagerTypes.Release",
              "components": [
                {
                  "name": "artifacts",
                  "type": "tuple[]",
                  "internalType": "struct IReleaseManagerTypes.Artifact[]",
                  "components": [
                    {
                      "name": "digest",
                      "type": "bytes32",
                      "internalType": "bytes32"
                    },
                    {
                      "name": "registry",
                      "type": "string",
                      "internalType": "string"
                    }
                  ]
                },
                {
                  "name": "upgradeByTime",
                  "type": "uint32",
                  "internalType": "uint32"
                }
              ]
            },
            {
              "name": "publicEnv",
              "type": "bytes",
              "internalType": "bytes"
            },
            {
              "name": "encryptedEnv",
              "type": "bytes",
              "internalType": "bytes"
            }
          ]
        }
      ],
      "anonymous": false
    },
    {
      "type": "event",
      "name": "GlobalMaxActiveAppsSet",
      "inputs": [
        {
          "name": "limit",
          "type": "uint32",
          "indexed": false,
          "internalType": "uint32"
        }
      ],
      "anonymous": false
    },
    {
      "type": "event",
      "name": "Initialized",
      "inputs": [
        {
          "name": "version",
          "type": "uint8",
          "indexed": false,
          "internalType": "uint8"
        }
      ],
      "anonymous": false
    },
    {
      "type": "event",
      "name": "MaxActiveAppsSet",
      "inputs": [
        {
          "name": "user",
          "type": "address",
          "indexed": true,
          "internalType": "address"
        },
        {
          "name": "limit",
          "type": "uint32",
          "indexed": false,
          "internalType": "uint32"
        }
      ],
      "anonymous": false
    },
    {
      "type": "error",
      "name": "AppAlreadyExists",
      "inputs": []
    },
    {
      "type": "error",
      "name": "AppDoesNotExist",
      "inputs": []
    },
    {
      "type": "error",
      "name": "GlobalMaxActiveAppsExceeded",
      "inputs": []
    },
    {
      "type": "error",
      "name": "InvalidAppStatus",
      "inputs": []
    },
    {
      "type": "error",
      "name": "InvalidPermissions",
      "inputs": []
    },
    {
      "type": "error",
      "name": "InvalidReleaseMetadataURI",
      "inputs": []
    },
    {
      "type": "error",
      "name": "InvalidShortString",
      "inputs": []
    },
    {
      "type": "error",
      "name": "InvalidSignature",
      "inputs": []
    },
    {
      "type": "error",
      "name": "MaxActiveAppsExceeded",
      "inputs": []
    },
    {
      "type": "error",
      "name": "MoreThanOneArtifact",
      "inputs": []
    },
    {
      "type": "error",
      "name": "SignatureExpired",
      "inputs": []
    },
    {
      "type": "error",
      "name": "StringTooLong",
      "inputs": [
        {
          "name": "str",
          "type": "string",
          "internalType": "string"
        }
      ]
    }
  ],
  "bytecode": {
    "object": "0x610140604052348015610010575f5ffd5b506040516154db3803806154db8339818101604052810190610032919061053c565b83828483888a806100488161017560201b60201c565b6080818152505050508073ffffffffffffffffffffffffffffffffffffffff1660a08173ffffffffffffffffffffffffffffffffffffffff1681525050508373ffffffffffffffffffffffffffffffffffffffff1660c08173ffffffffffffffffffffffffffffffffffffffff16815250508273ffffffffffffffffffffffffffffffffffffffff1660e08173ffffffffffffffffffffffffffffffffffffffff16815250508173ffffffffffffffffffffffffffffffffffffffff166101008173ffffffffffffffffffffffffffffffffffffffff16815250508073ffffffffffffffffffffffffffffffffffffffff166101208173ffffffffffffffffffffffffffffffffffffffff16815250505050505061016a6101da60201b60201c565b5050505050506107bd565b5f5f829050601f815111156101c157826040517f305a27a90000000000000000000000000000000000000000000000000000000081526004016101b89190610633565b60405180910390fd5b8051816101cd90610695565b5f1c175f1b915050919050565b5f60019054906101000a900460ff1615610229576040517f08c379a00000000000000000000000000000000000000000000000000000000081526004016102209061076b565b60405180910390fd5b60ff80165f5f9054906101000a900460ff1660ff16146102965760ff5f5f6101000a81548160ff021916908360ff1602179055507f7f26b83ff96e1f2b6a682f133852f6798a09c465da95921460cefb384740249860ff60405161028d91906107a4565b60405180910390a15b565b5f604051905090565b5f5ffd5b5f5ffd5b5f5ffd5b5f5ffd5b5f601f19601f8301169050919050565b7f4e487b71000000000000000000000000000000000000000000000000000000005f52604160045260245ffd5b6102f7826102b1565b810181811067ffffffffffffffff82111715610316576103156102c1565b5b80604052505050565b5f610328610298565b905061033482826102ee565b919050565b5f67ffffffffffffffff821115610353576103526102c1565b5b61035c826102b1565b9050602081019050919050565b8281835e5f83830152505050565b5f61038961038484610339565b61031f565b9050828152602081018484840111156103a5576103a46102ad565b5b6103b0848285610369565b509392505050565b5f82601f8301126103cc576103cb6102a9565b5b81516103dc848260208601610377565b91505092915050565b5f73ffffffffffffffffffffffffffffffffffffffff82169050919050565b5f61040e826103e5565b9050919050565b5f61041f82610404565b9050919050565b61042f81610415565b8114610439575f5ffd5b50565b5f8151905061044a81610426565b92915050565b5f61045a82610404565b9050919050565b61046a81610450565b8114610474575f5ffd5b50565b5f8151905061048581610461565b92915050565b5f61049582610404565b9050919050565b6104a58161048b565b81146104af575f5ffd5b50565b5f815190506104c08161049c565b92915050565b5f6104d082610404565b9050919050565b6104e0816104c6565b81146104ea575f5ffd5b50565b5f815190506104fb816104d7565b92915050565b5f61050b82610404565b9050919050565b61051b81610501565b8114610525575f5ffd5b50565b5f8151905061053681610512565b92915050565b5f5f5f5f5f5f60c08789031215610556576105556102a1565b5b5f87015167ffffffffffffffff811115610573576105726102a5565b5b61057f89828a016103b8565b965050602061059089828a0161043c565b95505060406105a189828a01610477565b94505060606105b289828a016104b2565b93505060806105c389828a016104ed565b92505060a06105d489828a01610528565b9150509295509295509295565b5f81519050919050565b5f82825260208201905092915050565b5f610605826105e1565b61060f81856105eb565b935061061f818560208601610369565b610628816102b1565b840191505092915050565b5f6020820190508181035f83015261064b81846105fb565b905092915050565b5f81519050919050565b5f819050602082019050919050565b5f819050919050565b5f610680825161066c565b80915050919050565b5f82821b905092915050565b5f61069f82610653565b826106a98461065d565b90506106b481610675565b925060208210156106f4576106ef7fffffffffffffffffffffffffffffffffffffffffffffffffffffffffffffffff83602003600802610689565b831692505b5050919050565b7f496e697469616c697a61626c653a20636f6e747261637420697320696e6974695f8201527f616c697a696e6700000000000000000000000000000000000000000000000000602082015250565b5f6107556027836105eb565b9150610760826106fb565b604082019050919050565b5f6020820190508181035f83015261078281610749565b9050919050565b5f60ff82169050919050565b61079e81610789565b82525050565b5f6020820190506107b75f830184610795565b92915050565b60805160a05160c05160e0516101005161012051614c4b6108905f395f818161084b015261214d01525f8181610c9401528181610d6b0152818161151501528181611716015281816117a60152818161182c015281816118730152818161203a015261280401525f8181610670015281816118b9015261192401525f818161062101528181610d2401526127bd01525f81816106eb0152818161110e015281816114d90152818161157f015281816116070152818161168d015261224001525f81816107610152612a0d0152614c4b5ff3fe608060405234801561000f575f5ffd5b50600436106101c2575f3560e01c80639ffbdce6116100f7578063d49fec2b11610095578063d80a956b1161006f578063d80a956b1461053f578063e70b81b11461056f578063ef6d92c61461058b578063f698da25146105a9576101c2565b8063d49fec2b146104d7578063d5aae178146104f3578063d66f777114610523576101c2565b8063a8aa2bd3116100d1578063a8aa2bd314610450578063b2676e3a1461046e578063b438c1411461049f578063c4d66de8146104bb576101c2565b80639ffbdce6146103d2578063a46530a214610402578063a60daa8f14610420576101c2565b806354fd4d50116101645780638a52d0b51161013e5780638a52d0b51461034a5780638a7f922c1461036857806390e2196b146103865780639690b7e7146103a2576101c2565b806354fd4d50146102cc57806367962d48146102ea5780636eb2099f1461031a576101c2565b80633fc4cbfd116101a05780633fc4cbfd1461024457806340f70a9e146102625780634657e26a146102925780634dd8ef81146102b0576101c2565b80630c2199fb146101c65780630d78573e146101f657806336b1887414610214575b5f5ffd5b6101e060048036038101906101db9190612c65565b6105c7565b6040516101ed9190612cae565b60405180910390f35b6101fe61061f565b60405161020b9190612d22565b60405180910390f35b61022e60048036038101906102299190612d6e565b610643565b60405161023b9190612dcc565b60405180910390f35b61024c61066e565b6040516102599190612e05565b60405180910390f35b61027c60048036038101906102779190612c65565b610692565b6040516102899190612cae565b60405180910390f35b61029a6106e9565b6040516102a79190612e3e565b60405180910390f35b6102ca60048036038101906102c59190612e92565b61070d565b005b6102d461075a565b6040516102e19190612f2d565b60405180910390f35b61030460048036038101906102ff9190612e92565b61078a565b6040516103119190612f5c565b60405180910390f35b610334600480360381019061032f9190612e92565b6107f1565b6040516103419190612cae565b60405180910390f35b610352610849565b60405161035f9190612f95565b60405180910390f35b61037061086d565b60405161037d9190612fbd565b60405180910390f35b6103a0600480360381019061039b9190612e92565b610891565b005b6103bc60048036038101906103b7919061305e565b610a32565b6040516103c99190612fbd565b60405180910390f35b6103ec60048036038101906103e79190612e92565b610a8e565b6040516103f99190612cae565b60405180910390f35b61040a610ae6565b6040516104179190612cae565b60405180910390f35b61043a600480360381019061043591906130be565b610afb565b6040516104479190612dcc565b60405180910390f35b610458610fe5565b6040516104659190612cae565b60405180910390f35b61048860048036038101906104839190613118565b610ffb565b6040516104969291906133ab565b60405180910390f35b6104b960048036038101906104b4919061340a565b611365565b005b6104d560048036038101906104d09190612c65565b611400565b005b6104f160048036038101906104ec9190613435565b611a05565b005b61050d60048036038101906105089190612e92565b611af5565b60405161051a9190613482565b60405180910390f35b61053d60048036038101906105389190612e92565b611b4a565b005b6105596004803603810190610554919061349b565b611d2e565b6040516105669190613504565b60405180910390f35b61058960048036038101906105849190612e92565b611ed6565b005b610593612038565b6040516105a0919061353d565b60405180910390f35b6105b161205c565b6040516105be9190612fbd565b60405180910390f35b5f60045f8373ffffffffffffffffffffffffffffffffffffffff1673ffffffffffffffffffffffffffffffffffffffff1681526020019081526020015f205f0160049054906101000a900463ffffffff169050919050565b7f000000000000000000000000000000000000000000000000000000000000000081565b5f61066661065184846120fb565b61065a8561212d565b80519060200120612229565b905092915050565b7f000000000000000000000000000000000000000000000000000000000000000081565b5f60045f8373ffffffffffffffffffffffffffffffffffffffff1673ffffffffffffffffffffffffffffffffffffffff1681526020019081526020015f205f015f9054906101000a900463ffffffff169050919050565b7f000000000000000000000000000000000000000000000000000000000000000081565b806107178161223d565b61074d576040517f932d94f700000000000000000000000000000000000000000000000000000000815260040160405180910390fd5b61075682612307565b5050565b60606107857f00000000000000000000000000000000000000000000000000000000000000006123b5565b905090565b5f60035f8373ffffffffffffffffffffffffffffffffffffffff1673ffffffffffffffffffffffffffffffffffffffff1681526020019081526020015f205f015f9054906101000a900473ffffffffffffffffffffffffffffffffffffffff169050919050565b5f60035f8373ffffffffffffffffffffffffffffffffffffffff1673ffffffffffffffffffffffffffffffffffffffff1681526020019081526020015f205f0160149054906101000a900463ffffffff169050919050565b7f000000000000000000000000000000000000000000000000000000000000000081565b7facd45e8bd36cea31aec6cd4552b994e6bfbda89766b3171349ace038b1b8267f81565b8061089b8161223d565b6108d1576040517f932d94f700000000000000000000000000000000000000000000000000000000815260040160405180910390fd5b816003808111156108e5576108e4613266565b5b60035f8373ffffffffffffffffffffffffffffffffffffffff1673ffffffffffffffffffffffffffffffffffffffff1681526020019081526020015f205f01601c9054906101000a900460ff16600381111561094457610943613266565b5b0361097b576040517f609749e200000000000000000000000000000000000000000000000000000000815260040160405180910390fd5b5f600381111561098e5761098d613266565b5b60035f8373ffffffffffffffffffffffffffffffffffffffff1673ffffffffffffffffffffffffffffffffffffffff1681526020019081526020015f205f01601c9054906101000a900460ff1660038111156109ed576109ec613266565b5b03610a24576040517f609749e200000000000000000000000000000000000000000000000000000000815260040160405180910390fd5b610a2d83612427565b505050565b5f610a867facd45e8bd36cea31aec6cd4552b994e6bfbda89766b3171349ace038b1b8267f8484604051602001610a6b93929190613565565b604051602081830303815290604052805190602001206125f6565b905092915050565b5f60035f8373ffffffffffffffffffffffffffffffffffffffff1673ffffffffffffffffffffffffffffffffffffffff1681526020019081526020015f205f0160189054906101000a900463ffffffff169050919050565b60055f9054906101000a900463ffffffff1681565b5f5f60045f3373ffffffffffffffffffffffffffffffffffffffff1673ffffffffffffffffffffffffffffffffffffffff1681526020019081526020015f20905060055f9054906101000a900463ffffffff1663ffffffff16600560049054906101000a900463ffffffff1663ffffffff1610610ba4576040517f42ca568f00000000000000000000000000000000000000000000000000000000815260040160405180910390fd5b805f015f9054906101000a900463ffffffff1663ffffffff16815f0160049054906101000a900463ffffffff1663ffffffff1610610c0e576040517f82d7ade600000000000000000000000000000000000000000000000000000000815260040160405180910390fd5b6005600481819054906101000a900463ffffffff1680929190610c30906135c7565b91906101000a81548163ffffffff021916908363ffffffff16021790555050805f01600481819054906101000a900463ffffffff1680929190610c72906135c7565b91906101000a81548163ffffffff021916908363ffffffff160217905550505f7f000000000000000000000000000000000000000000000000000000000000000073ffffffffffffffffffffffffffffffffffffffff16633a10eef76040518163ffffffff1660e01b81526004016020604051808303815f875af1158015610cfc573d5f5f3e3d5ffd5b505050506040513d601f19601f82011682018060405250810190610d209190613606565b90507f000000000000000000000000000000000000000000000000000000000000000073ffffffffffffffffffffffffffffffffffffffff16634840a67c60405180604001604052807f000000000000000000000000000000000000000000000000000000000000000073ffffffffffffffffffffffffffffffffffffffff1681526020018463ffffffff168152506040518263ffffffff1660e01b8152600401610dcb91906136a8565b5f604051808303815f87803b158015610de2575f5ffd5b505af1158015610df4573d5f5f3e3d5ffd5b50505050610e145f610e0633886120fb565b610e0f3361212d565b61262e565b92508060035f8573ffffffffffffffffffffffffffffffffffffffff1673ffffffffffffffffffffffffffffffffffffffff1681526020019081526020015f205f0160146101000a81548163ffffffff021916908363ffffffff1602179055505f60035f8573ffffffffffffffffffffffffffffffffffffffff1673ffffffffffffffffffffffffffffffffffffffff1681526020019081526020015f205f0160186101000a81548163ffffffff021916908363ffffffff1602179055503360035f8573ffffffffffffffffffffffffffffffffffffffff1673ffffffffffffffffffffffffffffffffffffffff1681526020019081526020015f205f015f6101000a81548173ffffffffffffffffffffffffffffffffffffffff021916908373ffffffffffffffffffffffffffffffffffffffff160217905550610f6383600161273590919063ffffffff16565b508273ffffffffffffffffffffffffffffffffffffffff163373ffffffffffffffffffffffffffffffffffffffff167fe9e6e5409b80e2dab7d38194fb370b2e8045a1af28177b94ddcf19d2495d758983604051610fc19190612cae565b60405180910390a3610fd38385612762565b50610fdd83612307565b505092915050565b600560049054906101000a900463ffffffff1681565b6060805f838561100b91906136d4565b61101560016129b9565b116110295761102460016129b9565b611036565b838561103591906136d4565b5b90505f5f90508167ffffffffffffffff81111561105657611055613707565b5b6040519080825280602002602001820160405280156110845781602001602082028036833780820191505090505b5093508167ffffffffffffffff8111156110a1576110a0613707565b5b6040519080825280602002602001820160405280156110da57816020015b6110c7612bab565b8152602001906001900390816110bf5790505b5092505f5f90505b82811015611354575f61110a82896110fa91906136d4565b60016129cc90919063ffffffff16565b90507f000000000000000000000000000000000000000000000000000000000000000073ffffffffffffffffffffffffffffffffffffffff166391006745828b6040518363ffffffff1660e01b8152600401611167929190613734565b602060405180830381865afa158015611182573d5f5f3e3d5ffd5b505050506040513d601f19601f820116820180604052508101906111a69190613790565b1561134657808684815181106111bf576111be6137bb565b5b602002602001019073ffffffffffffffffffffffffffffffffffffffff16908173ffffffffffffffffffffffffffffffffffffffff168152505060035f8273ffffffffffffffffffffffffffffffffffffffff1673ffffffffffffffffffffffffffffffffffffffff1681526020019081526020015f206040518060800160405290815f82015f9054906101000a900473ffffffffffffffffffffffffffffffffffffffff1673ffffffffffffffffffffffffffffffffffffffff1673ffffffffffffffffffffffffffffffffffffffff1681526020015f820160149054906101000a900463ffffffff1663ffffffff1663ffffffff1681526020015f820160189054906101000a900463ffffffff1663ffffffff1663ffffffff1681526020015f8201601c9054906101000a900460ff16600381111561130357611302613266565b5b600381111561131557611314613266565b5b8152505085848151811061132c5761132b6137bb565b5b60200260200101819052508280611342906137e8565b9350505b5080806001019150506110e2565b508084528083525050935093915050565b3061136f8161223d565b6113a5576040517f932d94f700000000000000000000000000000000000000000000000000000000815260040160405180910390fd5b8160055f6101000a81548163ffffffff021916908363ffffffff1602179055507fc3c99803ad2e80be7382791ca0b23147a94739b9e66a656b9c8c47f9d6963414826040516113f49190612cae565b60405180910390a15050565b5f5f60019054906101000a900460ff16159050808015611430575060015f5f9054906101000a900460ff1660ff16105b8061145d575061143f306129e3565b15801561145c575060015f5f9054906101000a900460ff1660ff16145b5b61149c576040517f08c379a00000000000000000000000000000000000000000000000000000000081526004016114939061389f565b60405180910390fd5b60015f5f6101000a81548160ff021916908360ff16021790555080156114d75760015f60016101000a81548160ff0219169083151502179055505b7f000000000000000000000000000000000000000000000000000000000000000073ffffffffffffffffffffffffffffffffffffffff1663628806ef7f00000000000000000000000000000000000000000000000000000000000000006040518263ffffffff1660e01b81526004016115509190612f5c565b5f604051808303815f87803b158015611567575f5ffd5b505af1158015611579573d5f5f3e3d5ffd5b505050507f000000000000000000000000000000000000000000000000000000000000000073ffffffffffffffffffffffffffffffffffffffff1663eb5a4e8730306040518363ffffffff1660e01b81526004016115d8929190613734565b5f604051808303815f87803b1580156115ef575f5ffd5b505af1158015611601573d5f5f3e3d5ffd5b505050507f000000000000000000000000000000000000000000000000000000000000000073ffffffffffffffffffffffffffffffffffffffff1663628806ef306040518263ffffffff1660e01b815260040161165e9190612f5c565b5f604051808303815f87803b158015611675575f5ffd5b505af1158015611687573d5f5f3e3d5ffd5b505050507f000000000000000000000000000000000000000000000000000000000000000073ffffffffffffffffffffffffffffffffffffffff1663eb5a4e8730846040518363ffffffff1660e01b81526004016116e6929190613734565b5f604051808303815f87803b1580156116fd575f5ffd5b505af115801561170f573d5f5f3e3d5ffd5b505050505f7f000000000000000000000000000000000000000000000000000000000000000073ffffffffffffffffffffffffffffffffffffffff16633a10eef76040518163ffffffff1660e01b81526004016020604051808303815f875af115801561177e573d5f5f3e3d5ffd5b505050506040513d601f19601f820116820180604052508101906117a29190613606565b90507f000000000000000000000000000000000000000000000000000000000000000073ffffffffffffffffffffffffffffffffffffffff166374da4713826040518263ffffffff1660e01b81526004016117fd9190612cae565b5f604051808303815f87803b158015611814575f5ffd5b505af1158015611826573d5f5f3e3d5ffd5b505050507f000000000000000000000000000000000000000000000000000000000000000073ffffffffffffffffffffffffffffffffffffffff16631017873a60405180604001604052807f000000000000000000000000000000000000000000000000000000000000000073ffffffffffffffffffffffffffffffffffffffff1681526020018463ffffffff168152507f00000000000000000000000000000000000000000000000000000000000000006040518363ffffffff1660e01b81526004016118f59291906138bd565b5f604051808303815f87803b15801561190c575f5ffd5b505af115801561191e573d5f5f3e3d5ffd5b505050507f000000000000000000000000000000000000000000000000000000000000000073ffffffffffffffffffffffffffffffffffffffff16634ca62978826040518263ffffffff1660e01b815260040161197b9190612cae565b5f604051808303815f87803b158015611992575f5ffd5b505af11580156119a4573d5f5f3e3d5ffd5b50505050508015611a01575f5f60016101000a81548160ff0219169083151502179055507f7f26b83ff96e1f2b6a682f133852f6798a09c465da95921460cefb384740249860016040516119f89190613929565b60405180910390a15b5050565b30611a0f8161223d565b611a45576040517f932d94f700000000000000000000000000000000000000000000000000000000815260040160405180910390fd5b8160045f8573ffffffffffffffffffffffffffffffffffffffff1673ffffffffffffffffffffffffffffffffffffffff1681526020019081526020015f205f015f6101000a81548163ffffffff021916908363ffffffff1602179055508273ffffffffffffffffffffffffffffffffffffffff167f708c955faa87ece750a9700c153a20797167e2fcbde9fca9186801f874663a9983604051611ae89190612cae565b60405180910390a2505050565b5f60035f8373ffffffffffffffffffffffffffffffffffffffff1673ffffffffffffffffffffffffffffffffffffffff1681526020019081526020015f205f01601c9054906101000a900460ff169050919050565b30611b548161223d565b611b8a576040517f932d94f700000000000000000000000000000000000000000000000000000000815260040160405180910390fd5b81600380811115611b9e57611b9d613266565b5b60035f8373ffffffffffffffffffffffffffffffffffffffff1673ffffffffffffffffffffffffffffffffffffffff1681526020019081526020015f205f01601c9054906101000a900460ff166003811115611bfd57611bfc613266565b5b03611c34576040517f609749e200000000000000000000000000000000000000000000000000000000815260040160405180910390fd5b5f6003811115611c4757611c46613266565b5b60035f8373ffffffffffffffffffffffffffffffffffffffff1673ffffffffffffffffffffffffffffffffffffffff1681526020019081526020015f205f01601c9054906101000a900460ff166003811115611ca657611ca5613266565b5b03611cdd576040517f609749e200000000000000000000000000000000000000000000000000000000815260040160405180910390fd5b611ce683612427565b8273ffffffffffffffffffffffffffffffffffffffff167f4636ad9a0a072d9c8b05a5bcda7d33256c5401515e612c25c13273b378cb280960405160405180910390a2505050565b5f82611d398161223d565b611d6f576040517f932d94f700000000000000000000000000000000000000000000000000000000815260040160405180910390fd5b83600380811115611d8357611d82613266565b5b60035f8373ffffffffffffffffffffffffffffffffffffffff1673ffffffffffffffffffffffffffffffffffffffff1681526020019081526020015f205f01601c9054906101000a900460ff166003811115611de257611de1613266565b5b03611e19576040517f609749e200000000000000000000000000000000000000000000000000000000815260040160405180910390fd5b5f6003811115611e2c57611e2b613266565b5b60035f8373ffffffffffffffffffffffffffffffffffffffff1673ffffffffffffffffffffffffffffffffffffffff1681526020019081526020015f205f01601c9054906101000a900460ff166003811115611e8b57611e8a613266565b5b03611ec2576040517f609749e200000000000000000000000000000000000000000000000000000000815260040160405180910390fd5b611ecc8585612762565b9250505092915050565b80611ee08161223d565b611f16576040517f932d94f700000000000000000000000000000000000000000000000000000000815260040160405180910390fd5b5f60035f8473ffffffffffffffffffffffffffffffffffffffff1673ffffffffffffffffffffffffffffffffffffffff1681526020019081526020015f20905060016003811115611f6a57611f69613266565b5b815f01601c9054906101000a900460ff166003811115611f8d57611f8c613266565b5b14611fc4576040517f609749e200000000000000000000000000000000000000000000000000000000815260040160405180910390fd5b6002815f01601c6101000a81548160ff02191690836003811115611feb57611fea613266565b5b02179055508273ffffffffffffffffffffffffffffffffffffffff167f143b9e3b5aa0fb8cf19b1bdb2eb8d7a94657d4b505070c667433d322b90b1f7860405160405180910390a2505050565b7f000000000000000000000000000000000000000000000000000000000000000081565b5f7f8b73c3c69bb8fe3d512ecc4cf759cc79239f7b179b0ffacaa9a75d522b39400f6040518060400160405280600a81526020017f456967656e4c6179657200000000000000000000000000000000000000000000815250805190602001206120c3612a05565b8051906020012046306040516020016120e0959493929190613942565b60405160208183030381529060405280519060200120905090565b5f828260405160200161210f9291906139f8565b60405160208183030381529060405280519060200120905092915050565b606060405180610940016040528061090e815260200161430861090e91397f000000000000000000000000000000000000000000000000000000000000000063c4d66de860e01b846040516024016121859190612f5c565b604051602081830303815290604052907bffffffffffffffffffffffffffffffffffffffffffffffffffffffff19166020820180517bffffffffffffffffffffffffffffffffffffffffffffffffffffffff83818316178352505050506040516020016121f3929190613a75565b604051602081830303815290604052604051602001612213929190613add565b6040516020818303038152906040529050919050565b5f612235838330612a76565b905092915050565b5f7f000000000000000000000000000000000000000000000000000000000000000073ffffffffffffffffffffffffffffffffffffffff1663df595cb88333305f357fffffffff00000000000000000000000000000000000000000000000000000000166040518563ffffffff1660e01b81526004016122c09493929190613b00565b6020604051808303815f875af11580156122dc573d5f5f3e3d5ffd5b505050506040513d601f19601f820116820180604052508101906123009190613790565b9050919050565b600160035f8373ffffffffffffffffffffffffffffffffffffffff1673ffffffffffffffffffffffffffffffffffffffff1681526020019081526020015f205f01601c6101000a81548160ff0219169083600381111561236a57612369613266565b5b02179055508073ffffffffffffffffffffffffffffffffffffffff167f8426864999f5f9244a203f75107b05f8b474838bc43ff0d8abe18ee5f442751360405160405180910390a250565b60605f6123c183612aa0565b90505f602067ffffffffffffffff8111156123df576123de613707565b5b6040519080825280601f01601f1916602001820160405280156124115781602001600182028036833780820191505090505b5090508181528360208201528092505050919050565b6003805f8373ffffffffffffffffffffffffffffffffffffffff1673ffffffffffffffffffffffffffffffffffffffff1681526020019081526020015f205f01601c6101000a81548160ff0219169083600381111561248957612488613266565b5b02179055506005600481819054906101000a900463ffffffff16809291906124b090613b43565b91906101000a81548163ffffffff021916908363ffffffff160217905550505f60035f8373ffffffffffffffffffffffffffffffffffffffff1673ffffffffffffffffffffffffffffffffffffffff1681526020019081526020015f205f015f9054906101000a900473ffffffffffffffffffffffffffffffffffffffff16905060045f8273ffffffffffffffffffffffffffffffffffffffff1673ffffffffffffffffffffffffffffffffffffffff1681526020019081526020015f205f01600481819054906101000a900463ffffffff168092919061259090613b43565b91906101000a81548163ffffffff021916908363ffffffff160217905550508173ffffffffffffffffffffffffffffffffffffffff167f2465e924a1e9a02843493e65702fd09152c8a631caf7b9b58e4b01ee20ced41660405160405180910390a25050565b5f6125ff61205c565b82604051602001612611929190613bbe565b604051602081830303815290604052805190602001209050919050565b5f83471015612672576040517f08c379a000000000000000000000000000000000000000000000000000000000815260040161266990613c3e565b60405180910390fd5b5f8251036126b5576040517f08c379a00000000000000000000000000000000000000000000000000000000081526004016126ac90613ca6565b60405180910390fd5b8282516020840186f590505f73ffffffffffffffffffffffffffffffffffffffff168173ffffffffffffffffffffffffffffffffffffffff160361272e576040517f08c379a000000000000000000000000000000000000000000000000000000000815260040161272590613d0e565b60405180910390fd5b9392505050565b5f61275a835f018373ffffffffffffffffffffffffffffffffffffffff165f1b612aee565b905092915050565b5f600182805f01906127749190613d38565b805f01906127829190613d5f565b9050146127bb576040517f98c82cef00000000000000000000000000000000000000000000000000000000815260040160405180910390fd5b7f000000000000000000000000000000000000000000000000000000000000000073ffffffffffffffffffffffffffffffffffffffff16637c09ea8260405180604001604052807f000000000000000000000000000000000000000000000000000000000000000073ffffffffffffffffffffffffffffffffffffffff16815260200160035f8873ffffffffffffffffffffffffffffffffffffffff1673ffffffffffffffffffffffffffffffffffffffff1681526020019081526020015f205f0160149054906101000a900463ffffffff1663ffffffff1681525084805f01906128a69190613d38565b6040518363ffffffff1660e01b81526004016128c392919061407f565b6020604051808303815f875af11580156128df573d5f5f3e3d5ffd5b505050506040513d601f19601f8201168201806040525081019061290391906140c1565b90504360035f8573ffffffffffffffffffffffffffffffffffffffff1673ffffffffffffffffffffffffffffffffffffffff1681526020019081526020015f205f0160186101000a81548163ffffffff021916908363ffffffff1602179055508273ffffffffffffffffffffffffffffffffffffffff167fb5d2b7df0352a87a587a430bfceab43859b3b3c404f0425c4c1ab0675ed57b9482846040516129ab929190614274565b60405180910390a292915050565b5f6129c5825f01612b55565b9050919050565b5f6129d9835f0183612b64565b5f1c905092915050565b5f5f8273ffffffffffffffffffffffffffffffffffffffff163b119050919050565b60605f612a317f00000000000000000000000000000000000000000000000000000000000000006123b5565b9050805f81518110612a4657612a456137bb565b5b602001015160f81c60f81b604051602001612a6191906142ed565b60405160208183030381529060405291505090565b5f604051836040820152846020820152828152600b810160ff815360558120925050509392505050565b5f5f60ff835f1c169050601f811115612ae5576040517fb3512b0c00000000000000000000000000000000000000000000000000000000815260040160405180910390fd5b80915050919050565b5f612af98383612b8b565b612b4b57825f0182908060018154018082558091505060019003905f5260205f20015f9091909190915055825f0180549050836001015f8481526020019081526020015f208190555060019050612b4f565b5f90505b92915050565b5f815f01805490509050919050565b5f825f018281548110612b7a57612b796137bb565b5b905f5260205f200154905092915050565b5f5f836001015f8481526020019081526020015f20541415905092915050565b60405180608001604052805f73ffffffffffffffffffffffffffffffffffffffff1681526020015f63ffffffff1681526020015f63ffffffff1681526020015f6003811115612bfd57612bfc613266565b5b81525090565b5f5ffd5b5f5ffd5b5f73ffffffffffffffffffffffffffffffffffffffff82169050919050565b5f612c3482612c0b565b9050919050565b612c4481612c2a565b8114612c4e575f5ffd5b50565b5f81359050612c5f81612c3b565b92915050565b5f60208284031215612c7a57612c79612c03565b5b5f612c8784828501612c51565b91505092915050565b5f63ffffffff82169050919050565b612ca881612c90565b82525050565b5f602082019050612cc15f830184612c9f565b92915050565b5f819050919050565b5f612cea612ce5612ce084612c0b565b612cc7565b612c0b565b9050919050565b5f612cfb82612cd0565b9050919050565b5f612d0c82612cf1565b9050919050565b612d1c81612d02565b82525050565b5f602082019050612d355f830184612d13565b92915050565b5f819050919050565b612d4d81612d3b565b8114612d57575f5ffd5b50565b5f81359050612d6881612d44565b92915050565b5f5f60408385031215612d8457612d83612c03565b5b5f612d9185828601612c51565b9250506020612da285828601612d5a565b9150509250929050565b5f612db682612cf1565b9050919050565b612dc681612dac565b82525050565b5f602082019050612ddf5f830184612dbd565b92915050565b5f612def82612cf1565b9050919050565b612dff81612de5565b82525050565b5f602082019050612e185f830184612df6565b92915050565b5f612e2882612cf1565b9050919050565b612e3881612e1e565b82525050565b5f602082019050612e515f830184612e2f565b92915050565b5f612e6182612c2a565b9050919050565b612e7181612e57565b8114612e7b575f5ffd5b50565b5f81359050612e8c81612e68565b92915050565b5f60208284031215612ea757612ea6612c03565b5b5f612eb484828501612e7e565b91505092915050565b5f81519050919050565b5f82825260208201905092915050565b8281835e5f83830152505050565b5f601f19601f8301169050919050565b5f612eff82612ebd565b612f098185612ec7565b9350612f19818560208601612ed7565b612f2281612ee5565b840191505092915050565b5f6020820190508181035f830152612f458184612ef5565b905092915050565b612f5681612c2a565b82525050565b5f602082019050612f6f5f830184612f4d565b92915050565b5f612f7f82612cf1565b9050919050565b612f8f81612f75565b82525050565b5f602082019050612fa85f830184612f86565b92915050565b612fb781612d3b565b82525050565b5f602082019050612fd05f830184612fae565b92915050565b5f7fffffffff0000000000000000000000000000000000000000000000000000000082169050919050565b61300a81612fd6565b8114613014575f5ffd5b50565b5f8135905061302581613001565b92915050565b5f819050919050565b61303d8161302b565b8114613047575f5ffd5b50565b5f8135905061305881613034565b92915050565b5f5f6040838503121561307457613073612c03565b5b5f61308185828601613017565b92505060206130928582860161304a565b9150509250929050565b5f5ffd5b5f606082840312156130b5576130b461309c565b5b81905092915050565b5f5f604083850312156130d4576130d3612c03565b5b5f6130e185828601612d5a565b925050602083013567ffffffffffffffff81111561310257613101612c07565b5b61310e858286016130a0565b9150509250929050565b5f5f5f6060848603121561312f5761312e612c03565b5b5f61313c86828701612c51565b935050602061314d8682870161304a565b925050604061315e8682870161304a565b9150509250925092565b5f81519050919050565b5f82825260208201905092915050565b5f819050602082019050919050565b61319a81612dac565b82525050565b5f6131ab8383613191565b60208301905092915050565b5f602082019050919050565b5f6131cd82613168565b6131d78185613172565b93506131e283613182565b805f5b838110156132125781516131f988826131a0565b9750613204836131b7565b9250506001810190506131e5565b5085935050505092915050565b5f81519050919050565b5f82825260208201905092915050565b5f819050602082019050919050565b61325181612c2a565b82525050565b61326081612c90565b82525050565b7f4e487b71000000000000000000000000000000000000000000000000000000005f52602160045260245ffd5b600481106132a4576132a3613266565b5b50565b5f8190506132b482613293565b919050565b5f6132c3826132a7565b9050919050565b6132d3816132b9565b82525050565b608082015f8201516132ed5f850182613248565b5060208201516133006020850182613257565b5060408201516133136040850182613257565b50606082015161332660608501826132ca565b50505050565b5f61333783836132d9565b60808301905092915050565b5f602082019050919050565b5f6133598261321f565b6133638185613229565b935061336e83613239565b805f5b8381101561339e578151613385888261332c565b975061339083613343565b925050600181019050613371565b5085935050505092915050565b5f6040820190508181035f8301526133c381856131c3565b905081810360208301526133d7818461334f565b90509392505050565b6133e981612c90565b81146133f3575f5ffd5b50565b5f81359050613404816133e0565b92915050565b5f6020828403121561341f5761341e612c03565b5b5f61342c848285016133f6565b91505092915050565b5f5f6040838503121561344b5761344a612c03565b5b5f61345885828601612c51565b9250506020613469858286016133f6565b9150509250929050565b61347c816132b9565b82525050565b5f6020820190506134955f830184613473565b92915050565b5f5f604083850312156134b1576134b0612c03565b5b5f6134be85828601612e7e565b925050602083013567ffffffffffffffff8111156134df576134de612c07565b5b6134eb858286016130a0565b9150509250929050565b6134fe8161302b565b82525050565b5f6020820190506135175f8301846134f5565b92915050565b5f61352782612cf1565b9050919050565b6135378161351d565b82525050565b5f6020820190506135505f83018461352e565b92915050565b61355f81612fd6565b82525050565b5f6060820190506135785f830186612fae565b6135856020830185613556565b61359260408301846134f5565b949350505050565b7f4e487b71000000000000000000000000000000000000000000000000000000005f52601160045260245ffd5b5f6135d182612c90565b915063ffffffff82036135e7576135e661359a565b5b600182019050919050565b5f81519050613600816133e0565b92915050565b5f6020828403121561361b5761361a612c03565b5b5f613628848285016135f2565b91505092915050565b604082015f8201516136455f850182613248565b5060208201516136586020850182613257565b50505050565b7f68747470733a2f2f656967656e636c6f75642e78797a000000000000000000005f82015250565b5f613692601683612ec7565b915061369d8261365e565b602082019050919050565b5f6060820190506136bb5f830184613631565b81810360408301526136cc81613686565b905092915050565b5f6136de8261302b565b91506136e98361302b565b92508282019050808211156137015761370061359a565b5b92915050565b7f4e487b71000000000000000000000000000000000000000000000000000000005f52604160045260245ffd5b5f6040820190506137475f830185612f4d565b6137546020830184612f4d565b9392505050565b5f8115159050919050565b61376f8161375b565b8114613779575f5ffd5b50565b5f8151905061378a81613766565b92915050565b5f602082840312156137a5576137a4612c03565b5b5f6137b28482850161377c565b91505092915050565b7f4e487b71000000000000000000000000000000000000000000000000000000005f52603260045260245ffd5b5f6137f28261302b565b91507fffffffffffffffffffffffffffffffffffffffffffffffffffffffffffffffff82036138245761382361359a565b5b600182019050919050565b7f496e697469616c697a61626c653a20636f6e747261637420697320616c7265615f8201527f647920696e697469616c697a6564000000000000000000000000000000000000602082015250565b5f613889602e83612ec7565b91506138948261382f565b604082019050919050565b5f6020820190508181035f8301526138b68161387d565b9050919050565b5f6060820190506138d05f830185613631565b6138dd6040830184612f4d565b9392505050565b5f819050919050565b5f60ff82169050919050565b5f61391361390e613909846138e4565b612cc7565b6138ed565b9050919050565b613923816138f9565b82525050565b5f60208201905061393c5f83018461391a565b92915050565b5f60a0820190506139555f830188612fae565b6139626020830187612fae565b61396f6040830186612fae565b61397c60608301856134f5565b6139896080830184612f4d565b9695505050505050565b5f8160601b9050919050565b5f6139a982613993565b9050919050565b5f6139ba8261399f565b9050919050565b6139d26139cd82612c2a565b6139b0565b82525050565b5f819050919050565b6139f26139ed82612d3b565b6139d8565b82525050565b5f613a0382856139c1565b601482019150613a1382846139e1565b6020820191508190509392505050565b5f81519050919050565b5f82825260208201905092915050565b5f613a4782613a23565b613a518185613a2d565b9350613a61818560208601612ed7565b613a6a81612ee5565b840191505092915050565b5f604082019050613a885f830185612f86565b8181036020830152613a9a8184613a3d565b90509392505050565b5f81905092915050565b5f613ab782613a23565b613ac18185613aa3565b9350613ad1818560208601612ed7565b80840191505092915050565b5f613ae88285613aad565b9150613af48284613aad565b91508190509392505050565b5f608082019050613b135f830187612f4d565b613b206020830186612f4d565b613b2d6040830185612f4d565b613b3a6060830184613556565b95945050505050565b5f613b4d82612c90565b91505f8203613b5f57613b5e61359a565b5b600182039050919050565b5f81905092915050565b7f19010000000000000000000000000000000000000000000000000000000000005f82015250565b5f613ba8600283613b6a565b9150613bb382613b74565b600282019050919050565b5f613bc882613b9c565b9150613bd482856139e1565b602082019150613be482846139e1565b6020820191508190509392505050565b7f437265617465323a20696e73756666696369656e742062616c616e63650000005f82015250565b5f613c28601d83612ec7565b9150613c3382613bf4565b602082019050919050565b5f6020820190508181035f830152613c5581613c1c565b9050919050565b7f437265617465323a2062797465636f6465206c656e677468206973207a65726f5f82015250565b5f613c90602083612ec7565b9150613c9b82613c5c565b602082019050919050565b5f6020820190508181035f830152613cbd81613c84565b9050919050565b7f437265617465323a204661696c6564206f6e206465706c6f79000000000000005f82015250565b5f613cf8601983612ec7565b9150613d0382613cc4565b602082019050919050565b5f6020820190508181035f830152613d2581613cec565b9050919050565b5f5ffd5b5f5ffd5b5f5ffd5b5f82356001604003833603038112613d5357613d52613d2c565b5b80830191505092915050565b5f5f83356001602003843603038112613d7b57613d7a613d2c565b5b80840192508235915067ffffffffffffffff821115613d9d57613d9c613d30565b5b602083019250602082023603831315613db957613db8613d34565b5b509250929050565b5f5ffd5b5f5ffd5b5f5ffd5b5f5f83356001602003843603038112613de957613de8613dc9565b5b83810192508235915060208301925067ffffffffffffffff821115613e1157613e10613dc1565b5b602082023603831315613e2757613e26613dc5565b5b509250929050565b5f82825260208201905092915050565b5f819050919050565b5f613e566020840184612d5a565b905092915050565b613e6781612d3b565b82525050565b5f5f83356001602003843603038112613e8957613e88613dc9565b5b83810192508235915060208301925067ffffffffffffffff821115613eb157613eb0613dc1565b5b600182023603831315613ec757613ec6613dc5565b5b509250929050565b5f82825260208201905092915050565b828183375f83830152505050565b5f613ef88385613ecf565b9350613f05838584613edf565b613f0e83612ee5565b840190509392505050565b5f60408301613f2a5f840184613e48565b613f365f860182613e5e565b50613f446020840184613e6d565b8583036020870152613f57838284613eed565b925050508091505092915050565b5f613f708383613f19565b905092915050565b5f82356001604003833603038112613f9357613f92613dc9565b5b82810191505092915050565b5f602082019050919050565b5f613fb68385613e2f565b935083602084028501613fc884613e3f565b805f5b8781101561400b578484038952613fe28284613f78565b613fec8582613f65565b9450613ff783613f9f565b925060208a01995050600181019050613fcb565b50829750879450505050509392505050565b5f61402b60208401846133f6565b905092915050565b5f604083016140445f840184613dcd565b8583035f870152614056838284613fab565b92505050614067602084018461401d565b6140746020860182613257565b508091505092915050565b5f6060820190506140925f830185613631565b81810360408301526140a48184614033565b90509392505050565b5f815190506140bb81613034565b92915050565b5f602082840312156140d6576140d5612c03565b5b5f6140e3848285016140ad565b91505092915050565b5f8235600160400383360303811261410757614106613dc9565b5b82810191505092915050565b5f604083016141245f840184613dcd565b8583035f870152614136838284613fab565b92505050614147602084018461401d565b6141546020860182613257565b508091505092915050565b5f5f8335600160200384360303811261417b5761417a613dc9565b5b83810192508235915060208301925067ffffffffffffffff8211156141a3576141a2613dc1565b5b6001820236038313156141b9576141b8613dc5565b5b509250929050565b5f82825260208201905092915050565b5f6141dc83856141c1565b93506141e9838584613edf565b6141f283612ee5565b840190509392505050565b5f6060830161420e5f8401846140ec565b8482035f86015261421f8282614113565b91505061422f602084018461415f565b85830360208701526142428382846141d1565b92505050614253604084018461415f565b85830360408701526142668382846141d1565b925050508091505092915050565b5f6040820190506142875f8301856134f5565b818103602083015261429981846141fd565b90509392505050565b5f7fff0000000000000000000000000000000000000000000000000000000000000082169050919050565b5f819050919050565b6142e76142e2826142a2565b6142cd565b82525050565b5f6142f882846142d6565b6001820191508190509291505056fe608060405260405161090e38038061090e83398101604081905261002291610460565b61002e82826000610035565b505061058a565b61003e83610100565b6040516001600160a01b038416907f1cf3b03a6cf19fa2baba4df148e9dcabedea7f8a5c07840e207e5c089be95d3e90600090a260008251118061007f5750805b156100fb576100f9836001600160a01b0316635c60da1b6040518163ffffffff1660e01b8152600401602060405180830381865afa1580156100c5573d6000803e3d6000fd5b505050506040513d601f19601f820116820180604052508101906100e99190610520565b836102a360201b6100291760201c565b505b505050565b610113816102cf60201b6100551760201c565b6101725760405162461bcd60e51b815260206004820152602560248201527f455243313936373a206e657720626561636f6e206973206e6f74206120636f6e6044820152641d1c9858dd60da1b60648201526084015b60405180910390fd5b6101e6816001600160a01b0316635c60da1b6040518163ffffffff1660e01b8152600401602060405180830381865afa1580156101b3573d6000803e3d6000fd5b505050506040513d601f19601f820116820180604052508101906101d79190610520565b6102cf60201b6100551760201c565b61024b5760405162461bcd60e51b815260206004820152603060248201527f455243313936373a20626561636f6e20696d706c656d656e746174696f6e206960448201526f1cc81b9bdd08184818dbdb9d1c9858dd60821b6064820152608401610169565b806102827fa3f0ad74e5423aebfd80d3ef4346578335a9a72aeaee59ff6cb3582b35133d5060001b6102de60201b6100641760201c565b80546001600160a01b0319166001600160a01b039290921691909117905550565b60606102c883836040518060600160405280602781526020016108e7602791396102e1565b9392505050565b6001600160a01b03163b151590565b90565b6060600080856001600160a01b0316856040516102fe919061053b565b600060405180830381855af49150503d8060008114610339576040519150601f19603f3d011682016040523d82523d6000602084013e61033e565b606091505b5090925090506103508683838761035a565b9695505050505050565b606083156103c65782516103bf576001600160a01b0385163b6103bf5760405162461bcd60e51b815260206004820152601d60248201527f416464726573733a2063616c6c20746f206e6f6e2d636f6e74726163740000006044820152606401610169565b50816103d0565b6103d083836103d8565b949350505050565b8151156103e85781518083602001fd5b8060405162461bcd60e51b81526004016101699190610557565b80516001600160a01b038116811461041957600080fd5b919050565b634e487b7160e01b600052604160045260246000fd5b60005b8381101561044f578181015183820152602001610437565b838111156100f95750506000910152565b6000806040838503121561047357600080fd5b61047c83610402565b60208401519092506001600160401b038082111561049957600080fd5b818501915085601f8301126104ad57600080fd5b8151818111156104bf576104bf61041e565b604051601f8201601f19908116603f011681019083821181831017156104e7576104e761041e565b8160405282815288602084870101111561050057600080fd5b610511836020830160208801610434565b80955050505050509250929050565b60006020828403121561053257600080fd5b6102c882610402565b6000825161054d818460208701610434565b9190910192915050565b6020815260008251806020840152610576816040850160208701610434565b601f01601f19169190910160400192915050565b61034e806105996000396000f3fe60806040523661001357610011610017565b005b6100115b610027610022610067565b610100565b565b606061004e83836040518060600160405280602781526020016102f260279139610124565b9392505050565b6001600160a01b03163b151590565b90565b600061009a7fa3f0ad74e5423aebfd80d3ef4346578335a9a72aeaee59ff6cb3582b35133d50546001600160a01b031690565b6001600160a01b0316635c60da1b6040518163ffffffff1660e01b8152600401602060405180830381865afa1580156100d7573d6000803e3d6000fd5b505050506040513d601f19601f820116820180604052508101906100fb9190610249565b905090565b3660008037600080366000845af43d6000803e80801561011f573d6000f35b3d6000fd5b6060600080856001600160a01b03168560405161014191906102a2565b600060405180830381855af49150503d806000811461017c576040519150601f19603f3d011682016040523d82523d6000602084013e610181565b606091505b50915091506101928683838761019c565b9695505050505050565b6060831561020d578251610206576001600160a01b0385163b6102065760405162461bcd60e51b815260206004820152601d60248201527f416464726573733a2063616c6c20746f206e6f6e2d636f6e747261637400000060448201526064015b60405180910390fd5b5081610217565b610217838361021f565b949350505050565b81511561022f5781518083602001fd5b8060405162461bcd60e51b81526004016101fd91906102be565b60006020828403121561025b57600080fd5b81516001600160a01b038116811461004e57600080fd5b60005b8381101561028d578181015183820152602001610275565b8381111561029c576000848401525b50505050565b600082516102b4818460208701610272565b9190910192915050565b60208152600082518060208401526102dd816040850160208701610272565b601f01601f1916919091016040019291505056fe416464726573733a206c6f772d6c6576656c2064656c65676174652063616c6c206661696c6564a2646970667358221220d51e81d3bc5ed20a26aeb05dce7e825c503b2061aa78628027300c8d65b9d89a64736f6c634300080c0033416464726573733a206c6f772d6c6576656c2064656c65676174652063616c6c206661696c6564a26469706673582212202aa1ebf2ede6692e7d98e8905a37573bc404274db1bc57273871759c01a4ac8a64736f6c634300081e0033",
    "linkReferences": {}
  },
  "methodIdentifiers": {
    "API_PERMISSION_TYPEHASH()": "8a7f922c",
    "appBeacon()": "8a52d0b5",
    "calculateApiPermissionDigestHash(bytes4,uint256)": "9690b7e7",
    "calculateAppId(address,bytes32)": "36b18874",
    "computeAVSRegistrar()": "ef6d92c6",
    "computeOperator()": "3fc4cbfd",
    "createApp(bytes32,(((bytes32,string)[],uint32),bytes,bytes))": "a60daa8f",
    "domainSeparator()": "f698da25",
    "getActiveAppCount(address)": "0c2199fb",
    "getAppCreator(address)": "67962d48",
    "getAppLatestReleaseBlockNumber(address)": "9ffbdce6",
    "getAppOperatorSetId(address)": "6eb2099f",
    "getAppStatus(address)": "d5aae178",
    "getMaxActiveAppsPerUser(address)": "40f70a9e",
    "globalActiveAppCount()": "a8aa2bd3",
    "initialize(address)": "c4d66de8",
    "listApps(address,uint256,uint256)": "b2676e3a",
    "maxGlobalActiveApps()": "a46530a2",
    "permissionController()": "4657e26a",
    "releaseManager()": "0d78573e",
    "setMaxActiveAppsPerUser(address,uint32)": "d49fec2b",
    "setMaxGlobalActiveApps(uint32)": "b438c141",
    "startApp(address)": "4dd8ef81",
    "stopApp(address)": "e70b81b1",
    "terminateApp(address)": "90e2196b",
    "terminateAppByAdmin(address)": "d66f7771",
    "upgradeApp(address,(((bytes32,string)[],uint32),bytes,bytes))": "d80a956b",
    "version()": "54fd4d50"
  },
  "id": 118
}