{
  "abi": [
    {
      "type": "constructor",
      "inputs": [
        {
          "name": "version",
          "type": "string",
          "internalType": "string"
        },
        {
          "name": "_permissionController",
          "type": "address",
          "internalType": "contract IPermissionController"
        }
      ],
      "stateMutability": "nonpayable"
    },
    {
      "type": "function",
      "name": "initialize",
      "inputs": [
        {
          "name": "admin",
          "type": "address",
          "internalType": "address"
        }
      ],
      "outputs": [],
      "stateMutability": "nonpayable"
    },
    {
      "type": "function",
      "name": "permissionController",
      "inputs": [],
      "outputs": [
        {
          "name": "",
          "type": "address",
          "internalType": "contract IPermissionController"
        }
      ],
      "stateMutability": "view"
    },
    {
      "type": "function",
      "name": "version",
      "inputs": [],
      "outputs": [
        {
          "name": "",
          "type": "string",
          "internalType": "string"
        }
      ],
      "stateMutability": "view"
    },
    {
      "type": "event",
      "name": "Initialized",
      "inputs": [
        {
          "name": "version",
          "type": "uint8",
          "indexed": false,
          "internalType": "uint8"
        }
      ],
      "anonymous": false
    },
    {
      "type": "error",
      "name": "InvalidShortString",
      "inputs": []
    },
    {
      "type": "error",
      "name": "StringTooLong",
      "inputs": [
        {
          "name": "str",
          "type": "string",
          "internalType": "string"
        }
      ]
    }
  ],
  "bytecode": {
    "object": "0x60c060405234801561000f575f5ffd5b50604051610c69380380610c698339818101604052810190610031919061036f565b80826100428161009460201b60201c565b60808181525050508073ffffffffffffffffffffffffffffffffffffffff1660a08173ffffffffffffffffffffffffffffffffffffffff16815250505061008d6100f960201b60201c565b50506105a5565b5f5f829050601f815111156100e057826040517f305a27a90000000000000000000000000000000000000000000000000000000081526004016100d7919061041b565b60405180910390fd5b8051816100ec9061047d565b5f1c175f1b915050919050565b5f60019054906101000a900460ff1615610148576040517f08c379a000000000000000000000000000000000000000000000000000000000815260040161013f90610553565b60405180910390fd5b60ff80165f5f9054906101000a900460ff1660ff16146101b55760ff5f5f6101000a81548160ff021916908360ff1602179055507f7f26b83ff96e1f2b6a682f133852f6798a09c465da95921460cefb384740249860ff6040516101ac919061058c565b60405180910390a15b565b5f604051905090565b5f5ffd5b5f5ffd5b5f5ffd5b5f5ffd5b5f601f19601f8301169050919050565b7f4e487b71000000000000000000000000000000000000000000000000000000005f52604160045260245ffd5b610216826101d0565b810181811067ffffffffffffffff82111715610235576102346101e0565b5b80604052505050565b5f6102476101b7565b9050610253828261020d565b919050565b5f67ffffffffffffffff821115610272576102716101e0565b5b61027b826101d0565b9050602081019050919050565b8281835e5f83830152505050565b5f6102a86102a384610258565b61023e565b9050828152602081018484840111156102c4576102c36101cc565b5b6102cf848285610288565b509392505050565b5f82601f8301126102eb576102ea6101c8565b5b81516102fb848260208601610296565b91505092915050565b5f73ffffffffffffffffffffffffffffffffffffffff82169050919050565b5f61032d82610304565b9050919050565b5f61033e82610323565b9050919050565b61034e81610334565b8114610358575f5ffd5b50565b5f8151905061036981610345565b92915050565b5f5f60408385031215610385576103846101c0565b5b5f83015167ffffffffffffffff8111156103a2576103a16101c4565b5b6103ae858286016102d7565b92505060206103bf8582860161035b565b9150509250929050565b5f81519050919050565b5f82825260208201905092915050565b5f6103ed826103c9565b6103f781856103d3565b9350610407818560208601610288565b610410816101d0565b840191505092915050565b5f6020820190508181035f83015261043381846103e3565b905092915050565b5f81519050919050565b5f819050602082019050919050565b5f819050919050565b5f6104688251610454565b80915050919050565b5f82821b905092915050565b5f6104878261043b565b8261049184610445565b905061049c8161045d565b925060208210156104dc576104d77fffffffffffffffffffffffffffffffffffffffffffffffffffffffffffffffff83602003600802610471565b831692505b5050919050565b7f496e697469616c697a61626c653a20636f6e747261637420697320696e6974695f8201527f616c697a696e6700000000000000000000000000000000000000000000000000602082015250565b5f61053d6027836103d3565b9150610548826104e3565b604082019050919050565b5f6020820190508181035f83015261056a81610531565b9050919050565b5f60ff82169050919050565b61058681610571565b82525050565b5f60208201905061059f5f83018461057d565b92915050565b60805160a05161069e6105cb5f395f8181609d01526101c801525f60c6015261069e5ff3fe608060405234801561000f575f5ffd5b506004361061003f575f3560e01c80634657e26a1461004357806354fd4d5014610061578063c4d66de81461007f575b5f5ffd5b61004b61009b565b6040516100589190610406565b60405180910390f35b6100696100bf565b604051610076919061048f565b60405180910390f35b610099600480360381019061009491906104ee565b6100ef565b005b7f000000000000000000000000000000000000000000000000000000000000000081565b60606100ea7f00000000000000000000000000000000000000000000000000000000000000006102aa565b905090565b5f5f60019054906101000a900460ff1615905080801561011f575060015f5f9054906101000a900460ff1660ff16105b8061014c575061012e3061031c565b15801561014b575060015f5f9054906101000a900460ff1660ff16145b5b61018b576040517f08c379a000000000000000000000000000000000000000000000000000000000815260040161018290610589565b60405180910390fd5b60015f5f6101000a81548160ff021916908360ff16021790555080156101c65760015f60016101000a81548160ff0219169083151502179055505b7f000000000000000000000000000000000000000000000000000000000000000073ffffffffffffffffffffffffffffffffffffffff1663eb5a4e8730846040518363ffffffff1660e01b81526004016102219291906105b6565b5f604051808303815f87803b158015610238575f5ffd5b505af115801561024a573d5f5f3e3d5ffd5b5050505080156102a6575f5f60016101000a81548160ff0219169083151502179055507f7f26b83ff96e1f2b6a682f133852f6798a09c465da95921460cefb3847402498600160405161029d9190610622565b60405180910390a15b5050565b60605f6102b68361033e565b90505f602067ffffffffffffffff8111156102d4576102d361063b565b5b6040519080825280601f01601f1916602001820160405280156103065781602001600182028036833780820191505090505b5090508181528360208201528092505050919050565b5f5f8273ffffffffffffffffffffffffffffffffffffffff163b119050919050565b5f5f60ff835f1c169050601f811115610383576040517fb3512b0c00000000000000000000000000000000000000000000000000000000815260040160405180910390fd5b80915050919050565b5f73ffffffffffffffffffffffffffffffffffffffff82169050919050565b5f819050919050565b5f6103ce6103c96103c48461038c565b6103ab565b61038c565b9050919050565b5f6103df826103b4565b9050919050565b5f6103f0826103d5565b9050919050565b610400816103e6565b82525050565b5f6020820190506104195f8301846103f7565b92915050565b5f81519050919050565b5f82825260208201905092915050565b8281835e5f83830152505050565b5f601f19601f8301169050919050565b5f6104618261041f565b61046b8185610429565b935061047b818560208601610439565b61048481610447565b840191505092915050565b5f6020820190508181035f8301526104a78184610457565b905092915050565b5f5ffd5b5f6104bd8261038c565b9050919050565b6104cd816104b3565b81146104d7575f5ffd5b50565b5f813590506104e8816104c4565b92915050565b5f60208284031215610503576105026104af565b5b5f610510848285016104da565b91505092915050565b7f496e697469616c697a61626c653a20636f6e747261637420697320616c7265615f8201527f647920696e697469616c697a6564000000000000000000000000000000000000602082015250565b5f610573602e83610429565b915061057e82610519565b604082019050919050565b5f6020820190508181035f8301526105a081610567565b9050919050565b6105b0816104b3565b82525050565b5f6040820190506105c95f8301856105a7565b6105d660208301846105a7565b9392505050565b5f819050919050565b5f60ff82169050919050565b5f61060c610607610602846105dd565b6103ab565b6105e6565b9050919050565b61061c816105f2565b82525050565b5f6020820190506106355f830184610613565b92915050565b7f4e487b71000000000000000000000000000000000000000000000000000000005f52604160045260245ffdfea26469706673582212201d84c47fd7e557bb0d8c58ada3fc8a8149d29bdf3c69d6d71523942d939e8b0564736f6c634300081e0033",
    "linkReferences": {}
  },
  "methodIdentifiers": {
    "initialize(address)": "c4d66de8",
    "permissionController()": "4657e26a",
    "version()": "54fd4d50"
  },
  "id": 119
}