{
  "abi": [
    {
      "type": "constructor",
      "inputs": [
        {
          "name": "_version",
          "type": "string",
          "internalType": "string"
        },
        {
          "name": "_permissionController",
          "type": "address",
          "internalType": "contract IPermissionController"
        },
        {
          "name": "_releaseManager",
          "type": "address",
          "internalType": "contract IReleaseManager"
        },
        {
          "name": "_computeAVSRegistrar",
          "type": "address",
          "internalType": "contract IComputeAVSRegistrar"
        },
        {
          "name": "_computeOperator",
          "type": "address",
          "internalType": "contract IComputeOperator"
        },
        {
          "name": "_appBeacon",
          "type": "address",
          "internalType": "contract IBeacon"
        }
      ],
      "stateMutability": "nonpayable"
    },
    {
      "type": "function",
      "name": "API_PERMISSION_TYPEHASH",
      "inputs": [],
      "outputs": [
        {
          "name": "",
          "type": "bytes32",
          "internalType": "bytes32"
        }
      ],
      "stateMutability": "view"
    },
    {
      "type": "function",
      "name": "appBeacon",
      "inputs": [],
      "outputs": [
        {
          "name": "",
          "type": "address",
          "internalType": "contract IBeacon"
        }
      ],
      "stateMutability": "view"
    },
    {
      "type": "function",
      "name": "calculateApiPermissionDigestHash",
      "inputs": [
        {
          "name": "permission",
          "type": "bytes4",
          "internalType": "bytes4"
        },
        {
          "name": "expiry",
          "type": "uint256",
          "internalType": "uint256"
        }
      ],
      "outputs": [
        {
          "name": "",
          "type": "bytes32",
          "internalType": "bytes32"
        }
      ],
      "stateMutability": "view"
    },
    {
      "type": "function",
      "name": "calculateAppId",
      "inputs": [
        {
          "name": "deployer",
          "type": "address",
          "internalType": "address"
        },
        {
          "name": "salt",
          "type": "bytes32",
          "internalType": "bytes32"
        }
      ],
      "outputs": [
        {
          "name": "",
          "type": "address",
          "internalType": "contract IApp"
        }
      ],
      "stateMutability": "view"
    },
    {
      "type": "function",
      "name": "computeAVSRegistrar",
      "inputs": [],
      "outputs": [
        {
          "name": "",
          "type": "address",
          "internalType": "contract IComputeAVSRegistrar"
        }
      ],
      "stateMutability": "view"
    },
    {
      "type": "function",
      "name": "computeOperator",
      "inputs": [],
      "outputs": [
        {
          "name": "",
          "type": "address",
          "internalType": "contract IComputeOperator"
        }
      ],
      "stateMutability": "view"
    },
    {
      "type": "function",
      "name": "createApp",
      "inputs": [
        {
          "name": "salt",
          "type": "bytes32",
          "internalType": "bytes32"
        },
        {
          "name": "release",
          "type": "tuple",
          "internalType": "struct IAppController.Release",
          "components": [
            {
              "name": "rmsRelease",
              "type": "tuple",
              "internalType": "struct IReleaseManagerTypes.Release",
              "components": [
                {
                  "name": "artifacts",
                  "type": "tuple[]",
                  "internalType": "struct IReleaseManagerTypes.Artifact[]",
                  "components": [
                    {
                      "name": "digest",
                      "type": "bytes32",
                      "internalType": "bytes32"
                    },
                    {
                      "name": "registry",
                      "type": "string",
                      "internalType": "string"
                    }
                  ]
                },
                {
                  "name": "upgradeByTime",
                  "type": "uint32",
                  "internalType": "uint32"
                }
              ]
            },
            {
              "name": "publicEnv",
              "type": "bytes",
              "internalType": "bytes"
            },
            {
              "name": "encryptedEnv",
              "type": "bytes",
              "internalType": "bytes"
            }
          ]
        }
      ],
      "outputs": [
        {
          "name": "app",
          "type": "address",
          "internalType": "contract IApp"
        }
      ],
      "stateMutability": "nonpayable"
    },
    {
      "type": "function",
      "name": "domainSeparator",
      "inputs": [],
      "outputs": [
        {
          "name": "",
          "type": "bytes32",
          "internalType": "bytes32"
        }
      ],
      "stateMutability": "view"
    },
    {
      "type": "function",
      "name": "getActiveAppCount",
      "inputs": [
        {
          "name": "user",
          "type": "address",
          "internalType": "address"
        }
      ],
      "outputs": [
        {
          "name": "",
          "type": "uint32",
          "internalType": "uint32"
        }
      ],
      "stateMutability": "view"
    },
    {
      "type": "function",
      "name": "getAppCreator",
      "inputs": [
        {
          "name": "app",
          "type": "address",
          "internalType": "contract IApp"
        }
      ],
      "outputs": [
        {
          "name": "",
          "type": "address",
          "internalType": "address"
        }
      ],
      "stateMutability": "view"
    },
    {
      "type": "function",
      "name": "getAppLatestReleaseBlockNumber",
      "inputs": [
        {
          "name": "app",
          "type": "address",
          "internalType": "contract IApp"
        }
      ],
      "outputs": [
        {
          "name": "",
          "type": "uint32",
          "internalType": "uint32"
        }
      ],
      "stateMutability": "view"
    },
    {
      "type": "function",
      "name": "getAppOperatorSetId",
      "inputs": [
        {
          "name": "app",
          "type": "address",
          "internalType": "contract IApp"
        }
      ],
      "outputs": [
        {
          "name": "",
          "type": "uint32",
          "internalType": "uint32"
        }
      ],
      "stateMutability": "view"
    },
    {
      "type": "function",
      "name": "getAppStatus",
      "inputs": [
        {
          "name": "app",
          "type": "address",
          "internalType": "contract IApp"
        }
      ],
      "outputs": [
        {
          "name": "",
          "type": "uint8",
          "internalType": "enum IAppController.AppStatus"
        }
      ],
      "stateMutability": "view"
    },
    {
      "type": "function",
      "name": "getMaxActiveAppsPerUser",
      "inputs": [
        {
          "name": "user",
          "type": "address",
          "internalType": "address"
        }
      ],
      "outputs": [
        {
          "name": "",
          "type": "uint32",
          "internalType": "uint32"
        }
      ],
      "stateMutability": "view"
    },
    {
      "type": "function",
      "name": "globalActiveAppCount",
      "inputs": [],
      "outputs": [
        {
          "name": "",
          "type": "uint32",
          "internalType": "uint32"
        }
      ],
      "stateMutability": "view"
    },
    {
      "type": "function",
      "name": "initialize",
      "inputs": [
        {
          "name": "admin",
          "type": "address",
          "internalType": "address"
        }
      ],
      "outputs": [],
      "stateMutability": "nonpayable"
    },
    {
      "type": "function",
      "name": "listApps",
      "inputs": [
        {
          "name": "offset",
          "type": "uint256",
          "internalType": "uint256"
        },
        {
          "name": "limit",
          "type": "uint256",
          "internalType": "uint256"
        }
      ],
      "outputs": [
        {
          "name": "apps",
          "type": "address[]",
          "internalType": "contract IApp[]"
        },
        {
          "name": "appConfigsMem",
          "type": "tuple[]",
          "internalType": "struct IAppController.AppConfig[]",
          "components": [
            {
              "name": "creator",
              "type": "address",
              "internalType": "address"
            },
            {
              "name": "operatorSetId",
              "type": "uint32",
              "internalType": "uint32"
            },
            {
              "name": "latestReleaseBlockNumber",
              "type": "uint32",
              "internalType": "uint32"
            },
            {
              "name": "status",
              "type": "uint8",
              "internalType": "enum IAppController.AppStatus"
            }
          ]
        }
      ],
      "stateMutability": "view"
    },
    {
      "type": "function",
      "name": "listApps",
      "inputs": [
        {
          "name": "developer",
          "type": "address",
          "internalType": "address"
        },
        {
          "name": "offset",
          "type": "uint256",
          "internalType": "uint256"
        },
        {
          "name": "limit",
          "type": "uint256",
          "internalType": "uint256"
        }
      ],
      "outputs": [
        {
          "name": "apps",
          "type": "address[]",
          "internalType": "contract IApp[]"
        },
        {
          "name": "appConfigsMem",
          "type": "tuple[]",
          "internalType": "struct IAppController.AppConfig[]",
          "components": [
            {
              "name": "creator",
              "type": "address",
              "internalType": "address"
            },
            {
              "name": "operatorSetId",
              "type": "uint32",
              "internalType": "uint32"
            },
            {
              "name": "latestReleaseBlockNumber",
              "type": "uint32",
              "internalType": "uint32"
            },
            {
              "name": "status",
              "type": "uint8",
              "internalType": "enum IAppController.AppStatus"
            }
          ]
        }
      ],
      "stateMutability": "view"
    },
    {
      "type": "function",
      "name": "maxGlobalActiveApps",
      "inputs": [],
      "outputs": [
        {
          "name": "",
          "type": "uint32",
          "internalType": "uint32"
        }
      ],
      "stateMutability": "view"
    },
    {
      "type": "function",
      "name": "permissionController",
      "inputs": [],
      "outputs": [
        {
          "name": "",
          "type": "address",
          "internalType": "contract IPermissionController"
        }
      ],
      "stateMutability": "view"
    },
    {
      "type": "function",
      "name": "releaseManager",
      "inputs": [],
      "outputs": [
        {
          "name": "",
          "type": "address",
          "internalType": "contract IReleaseManager"
        }
      ],
      "stateMutability": "view"
    },
    {
      "type": "function",
      "name": "setMaxActiveAppsPerUser",
      "inputs": [
        {
          "name": "user",
          "type": "address",
          "internalType": "address"
        },
        {
          "name": "limit",
          "type": "uint32",
          "internalType": "uint32"
        }
      ],
      "outputs": [],
      "stateMutability": "nonpayable"
    },
    {
      "type": "function",
      "name": "setMaxGlobalActiveApps",
      "inputs": [
        {
          "name": "limit",
          "type": "uint32",
          "internalType": "uint32"
        }
      ],
      "outputs": [],
      "stateMutability": "nonpayable"
    },
    {
      "type": "function",
      "name": "startApp",
      "inputs": [
        {
          "name": "app",
          "type": "address",
          "internalType": "contract IApp"
        }
      ],
      "outputs": [],
      "stateMutability": "nonpayable"
    },
    {
      "type": "function",
      "name": "stopApp",
      "inputs": [
        {
          "name": "app",
          "type": "address",
          "internalType": "contract IApp"
        }
      ],
      "outputs": [],
      "stateMutability": "nonpayable"
    },
    {
      "type": "function",
      "name": "terminateApp",
      "inputs": [
        {
          "name": "app",
          "type": "address",
          "internalType": "contract IApp"
        }
      ],
      "outputs": [],
      "stateMutability": "nonpayable"
    },
    {
      "type": "function",
      "name": "terminateAppByAdmin",
      "inputs": [
        {
          "name": "app",
          "type": "address",
          "internalType": "contract IApp"
        }
      ],
      "outputs": [],
      "stateMutability": "nonpayable"
    },
    {
      "type": "function",
      "name": "upgradeApp",
      "inputs": [
        {
          "name": "app",
          "type": "address",
          "internalType": "contract IApp"
        },
        {
          "name": "release",
          "type": "tuple",
          "internalType": "struct IAppController.Release",
          "components": [
            {
              "name": "rmsRelease",
              "type": "tuple",
              "internalType": "struct IReleaseManagerTypes.Release",
              "components": [
                {
                  "name": "artifacts",
                  "type": "tuple[]",
                  "internalType": "struct IReleaseManagerTypes.Artifact[]",
                  "components": [
                    {
                      "name": "digest",
                      "type": "bytes32",
                      "internalType": "bytes32"
                    },
                    {
                      "name": "registry",
                      "type": "string",
                      "internalType": "string"
                    }
                  ]
                },
                {
                  "name": "upgradeByTime",
                  "type": "uint32",
                  "internalType": "uint32"
                }
              ]
            },
            {
              "name": "publicEnv",
              "type": "bytes",
              "internalType": "bytes"
            },
            {
              "name": "encryptedEnv",
              "type": "bytes",
              "internalType": "bytes"
            }
          ]
        }
      ],
      "outputs": [
        {
          "name": "",
          "type": "uint256",
          "internalType": "uint256"
        }
      ],
      "stateMutability": "nonpayable"
    },
    {
      "type": "function",
      "name": "version",
      "inputs": [],
      "outputs": [
        {
          "name": "",
          "type": "string",
          "internalType": "string"
        }
      ],
      "stateMutability": "view"
    },
    {
      "type": "event",
      "name": "AppCreated",
      "inputs": [
        {
          "name": "creator",
          "type": "address",
          "indexed": true,
          "internalType": "address"
        },
        {
          "name": "app",
          "type": "address",
          "indexed": true,
          "internalType": "contract IApp"
        },
        {
          "name": "operatorSetId",
          "type": "uint32",
          "indexed": false,
          "internalType": "uint32"
        }
      ],
      "anonymous": false
    },
    {
      "type": "event",
      "name": "AppStarted",
      "inputs": [
        {
          "name": "app",
          "type": "address",
          "indexed": true,
          "internalType": "contract IApp"
        }
      ],
      "anonymous": false
    },
    {
      "type": "event",
      "name": "AppStopped",
      "inputs": [
        {
          "name": "app",
          "type": "address",
          "indexed": true,
          "internalType": "contract IApp"
        }
      ],
      "anonymous": false
    },
    {
      "type": "event",
      "name": "AppTerminated",
      "inputs": [
        {
          "name": "app",
          "type": "address",
          "indexed": true,
          "internalType": "contract IApp"
        }
      ],
      "anonymous": false
    },
    {
      "type": "event",
      "name": "AppTerminatedByAdmin",
      "inputs": [
        {
          "name": "app",
          "type": "address",
          "indexed": true,
          "internalType": "contract IApp"
        }
      ],
      "anonymous": false
    },
    {
      "type": "event",
      "name": "AppUpgraded",
      "inputs": [
        {
          "name": "app",
          "type": "address",
          "indexed": true,
          "internalType": "contract IApp"
        },
        {
          "name": "rmsReleaseId",
          "type": "uint256",
          "indexed": false,
          "internalType": "uint256"
        },
        {
          "name": "release",
          "type": "tuple",
          "indexed": false,
          "internalType": "struct IAppController.Release",
          "components": [
            {
              "name": "rmsRelease",
              "type": "tuple",
              "internalType": "struct IReleaseManagerTypes.Release",
              "components": [
                {
                  "name": "artifacts",
                  "type": "tuple[]",
                  "internalType": "struct IReleaseManagerTypes.Artifact[]",
                  "components": [
                    {
                      "name": "digest",
                      "type": "bytes32",
                      "internalType": "bytes32"
                    },
                    {
                      "name": "registry",
                      "type": "string",
                      "internalType": "string"
                    }
                  ]
                },
                {
                  "name": "upgradeByTime",
                  "type": "uint32",
                  "internalType": "uint32"
                }
              ]
            },
            {
              "name": "publicEnv",
              "type": "bytes",
              "internalType": "bytes"
            },
            {
              "name": "encryptedEnv",
              "type": "bytes",
              "internalType": "bytes"
            }
          ]
        }
      ],
      "anonymous": false
    },
    {
      "type": "event",
      "name": "GlobalMaxActiveAppsSet",
      "inputs": [
        {
          "name": "limit",
          "type": "uint32",
          "indexed": false,
          "internalType": "uint32"
        }
      ],
      "anonymous": false
    },
    {
      "type": "event",
      "name": "Initialized",
      "inputs": [
        {
          "name": "version",
          "type": "uint8",
          "indexed": false,
          "internalType": "uint8"
        }
      ],
      "anonymous": false
    },
    {
      "type": "event",
      "name": "MaxActiveAppsSet",
      "inputs": [
        {
          "name": "user",
          "type": "address",
          "indexed": true,
          "internalType": "address"
        },
        {
          "name": "limit",
          "type": "uint32",
          "indexed": false,
          "internalType": "uint32"
        }
      ],
      "anonymous": false
    },
    {
      "type": "error",
      "name": "AppAlreadyExists",
      "inputs": []
    },
    {
      "type": "error",
      "name": "AppDoesNotExist",
      "inputs": []
    },
    {
      "type": "error",
      "name": "GlobalMaxActiveAppsExceeded",
      "inputs": []
    },
    {
      "type": "error",
      "name": "InvalidAppStatus",
      "inputs": []
    },
    {
      "type": "error",
      "name": "InvalidPermissions",
      "inputs": []
    },
    {
      "type": "error",
      "name": "InvalidReleaseMetadataURI",
      "inputs": []
    },
    {
      "type": "error",
      "name": "InvalidShortString",
      "inputs": []
    },
    {
      "type": "error",
      "name": "InvalidSignature",
      "inputs": []
    },
    {
      "type": "error",
      "name": "MaxActiveAppsExceeded",
      "inputs": []
    },
    {
      "type": "error",
      "name": "MoreThanOneArtifact",
      "inputs": []
    },
    {
      "type": "error",
      "name": "SignatureExpired",
      "inputs": []
    },
    {
      "type": "error",
      "name": "StringTooLong",
      "inputs": [
        {
          "name": "str",
          "type": "string",
          "internalType": "string"
        }
      ]
    }
  ],
  "bytecode": {
    "object": "0x610140604052348015610010575f5ffd5b506040516158f33803806158f38339818101604052810190610032919061053c565b83828483888a806100488161017560201b60201c565b6080818152505050508073ffffffffffffffffffffffffffffffffffffffff1660a08173ffffffffffffffffffffffffffffffffffffffff1681525050508373ffffffffffffffffffffffffffffffffffffffff1660c08173ffffffffffffffffffffffffffffffffffffffff16815250508273ffffffffffffffffffffffffffffffffffffffff1660e08173ffffffffffffffffffffffffffffffffffffffff16815250508173ffffffffffffffffffffffffffffffffffffffff166101008173ffffffffffffffffffffffffffffffffffffffff16815250508073ffffffffffffffffffffffffffffffffffffffff166101208173ffffffffffffffffffffffffffffffffffffffff16815250505050505061016a6101da60201b60201c565b5050505050506107bd565b5f5f829050601f815111156101c157826040517f305a27a90000000000000000000000000000000000000000000000000000000081526004016101b89190610633565b60405180910390fd5b8051816101cd90610695565b5f1c175f1b915050919050565b5f60019054906101000a900460ff1615610229576040517f08c379a00000000000000000000000000000000000000000000000000000000081526004016102209061076b565b60405180910390fd5b60ff80165f5f9054906101000a900460ff1660ff16146102965760ff5f5f6101000a81548160ff021916908360ff1602179055507f7f26b83ff96e1f2b6a682f133852f6798a09c465da95921460cefb384740249860ff60405161028d91906107a4565b60405180910390a15b565b5f604051905090565b5f5ffd5b5f5ffd5b5f5ffd5b5f5ffd5b5f601f19601f8301169050919050565b7f4e487b71000000000000000000000000000000000000000000000000000000005f52604160045260245ffd5b6102f7826102b1565b810181811067ffffffffffffffff82111715610316576103156102c1565b5b80604052505050565b5f610328610298565b905061033482826102ee565b919050565b5f67ffffffffffffffff821115610353576103526102c1565b5b61035c826102b1565b9050602081019050919050565b8281835e5f83830152505050565b5f61038961038484610339565b61031f565b9050828152602081018484840111156103a5576103a46102ad565b5b6103b0848285610369565b509392505050565b5f82601f8301126103cc576103cb6102a9565b5b81516103dc848260208601610377565b91505092915050565b5f73ffffffffffffffffffffffffffffffffffffffff82169050919050565b5f61040e826103e5565b9050919050565b5f61041f82610404565b9050919050565b61042f81610415565b8114610439575f5ffd5b50565b5f8151905061044a81610426565b92915050565b5f61045a82610404565b9050919050565b61046a81610450565b8114610474575f5ffd5b50565b5f8151905061048581610461565b92915050565b5f61049582610404565b9050919050565b6104a58161048b565b81146104af575f5ffd5b50565b5f815190506104c08161049c565b92915050565b5f6104d082610404565b9050919050565b6104e0816104c6565b81146104ea575f5ffd5b50565b5f815190506104fb816104d7565b92915050565b5f61050b82610404565b9050919050565b61051b81610501565b8114610525575f5ffd5b50565b5f8151905061053681610512565b92915050565b5f5f5f5f5f5f60c08789031215610556576105556102a1565b5b5f87015167ffffffffffffffff811115610573576105726102a5565b5b61057f89828a016103b8565b965050602061059089828a0161043c565b95505060406105a189828a01610477565b94505060606105b289828a016104b2565b93505060806105c389828a016104ed565b92505060a06105d489828a01610528565b9150509295509295509295565b5f81519050919050565b5f82825260208201905092915050565b5f610605826105e1565b61060f81856105eb565b935061061f818560208601610369565b610628816102b1565b840191505092915050565b5f6020820190508181035f83015261064b81846105fb565b905092915050565b5f81519050919050565b5f819050602082019050919050565b5f819050919050565b5f610680825161066c565b80915050919050565b5f82821b905092915050565b5f61069f82610653565b826106a98461065d565b90506106b481610675565b925060208210156106f4576106ef7fffffffffffffffffffffffffffffffffffffffffffffffffffffffffffffffff83602003600802610689565b831692505b5050919050565b7f496e697469616c697a61626c653a20636f6e747261637420697320696e6974695f8201527f616c697a696e6700000000000000000000000000000000000000000000000000602082015250565b5f6107556027836105eb565b9150610760826106fb565b604082019050919050565b5f6020820190508181035f83015261078281610749565b9050919050565b5f60ff82169050919050565b61079e81610789565b82525050565b5f6020820190506107b75f830184610795565b92915050565b60805160a05160c05160e05161010051610120516150636108905f395f8181610bf201526124f401525f818161103b01528181611112015281816118bc01528181611abd01528181611b4d01528181611bd301528181611c1a015281816123e10152612bd501525f8181610a1701528181611c600152611ccb01525f818161065d015281816110cb0152612b8e01525f8181610a92015281816114b50152818161188001528181611926015281816119ae01528181611a34015261261101525f8181610b080152612db401526150635ff3fe608060405234801561000f575f5ffd5b50600436106101cd575f3560e01c80639690b7e711610102578063c4d66de8116100a0578063d80a956b1161006f578063d80a956b1461057b578063e70b81b1146105ab578063ef6d92c6146105c7578063f698da25146105e5576101cd565b8063c4d66de8146104f7578063d49fec2b14610513578063d5aae1781461052f578063d66f77711461055f576101cd565b8063a60daa8f116100dc578063a60daa8f1461045c578063a8aa2bd31461048c578063b2676e3a146104aa578063b438c141146104db576101cd565b80639690b7e7146103de5780639ffbdce61461040e578063a46530a21461043e576101cd565b80634dd8ef811161016f5780636eb2099f116101495780636eb2099f146103565780638a52d0b5146103865780638a7f922c146103a457806390e2196b146103c2576101cd565b80634dd8ef81146102ec57806354fd4d501461030857806367962d4814610326576101cd565b80633d205559116101ab5780633d2055591461024f5780633fc4cbfd1461028057806340f70a9e1461029e5780634657e26a146102ce576101cd565b80630c2199fb146101d15780630d78573e1461020157806336b188741461021f575b5f5ffd5b6101eb60048036038101906101e6919061300c565b610603565b6040516101f89190613055565b60405180910390f35b61020961065b565b60405161021691906130c9565b60405180910390f35b61023960048036038101906102349190613115565b61067f565b6040516102469190613173565b60405180910390f35b610269600480360381019061026491906131bf565b6106aa565b604051610277929190613440565b60405180910390f35b610288610a15565b6040516102959190613495565b60405180910390f35b6102b860048036038101906102b3919061300c565b610a39565b6040516102c59190613055565b60405180910390f35b6102d6610a90565b6040516102e391906134ce565b60405180910390f35b61030660048036038101906103019190613522565b610ab4565b005b610310610b01565b60405161031d91906135bd565b60405180910390f35b610340600480360381019061033b9190613522565b610b31565b60405161034d91906135ec565b60405180910390f35b610370600480360381019061036b9190613522565b610b98565b60405161037d9190613055565b60405180910390f35b61038e610bf0565b60405161039b9190613625565b60405180910390f35b6103ac610c14565b6040516103b9919061364d565b60405180910390f35b6103dc60048036038101906103d79190613522565b610c38565b005b6103f860048036038101906103f391906136bb565b610dd9565b604051610405919061364d565b60405180910390f35b61042860048036038101906104239190613522565b610e35565b6040516104359190613055565b60405180910390f35b610446610e8d565b6040516104539190613055565b60405180910390f35b6104766004803603810190610471919061371b565b610ea2565b6040516104839190613173565b60405180910390f35b61049461138c565b6040516104a19190613055565b60405180910390f35b6104c460048036038101906104bf9190613775565b6113a2565b6040516104d2929190613440565b60405180910390f35b6104f560048036038101906104f091906137ef565b61170c565b005b610511600480360381019061050c919061300c565b6117a7565b005b61052d6004803603810190610528919061381a565b611dac565b005b61054960048036038101906105449190613522565b611e9c565b6040516105569190613867565b60405180910390f35b61057960048036038101906105749190613522565b611ef1565b005b61059560048036038101906105909190613880565b6120d5565b6040516105a291906138e9565b60405180910390f35b6105c560048036038101906105c09190613522565b61227d565b005b6105cf6123df565b6040516105dc9190613922565b60405180910390f35b6105ed612403565b6040516105fa919061364d565b60405180910390f35b5f60045f8373ffffffffffffffffffffffffffffffffffffffff1673ffffffffffffffffffffffffffffffffffffffff1681526020019081526020015f205f0160049054906101000a900463ffffffff169050919050565b7f000000000000000000000000000000000000000000000000000000000000000081565b5f6106a261068d84846124a2565b610696856124d4565b805190602001206125d0565b905092915050565b6060805f6106b860016125e4565b9050808510610768575f67ffffffffffffffff8111156106db576106da61393b565b5b6040519080825280602002602001820160405280156107095781602001602082028036833780820191505090505b505f67ffffffffffffffff8111156107245761072361393b565b5b60405190808252806020026020018201604052801561075d57816020015b61074a612f52565b8152602001906001900390816107425790505b509250925050610a0e565b5f8185876107769190613995565b1161078c5784866107879190613995565b61078e565b815b90505f868261079d91906139c8565b90508067ffffffffffffffff8111156107b9576107b861393b565b5b6040519080825280602002602001820160405280156107e75781602001602082028036833780820191505090505b5094508067ffffffffffffffff8111156108045761080361393b565b5b60405190808252806020026020018201604052801561083d57816020015b61082a612f52565b8152602001906001900390816108225790505b5093505f5f90505b81811015610a09575f61086d828a61085d9190613995565b60016125f790919063ffffffff16565b905080878381518110610883576108826139fb565b5b602002602001019073ffffffffffffffffffffffffffffffffffffffff16908173ffffffffffffffffffffffffffffffffffffffff168152505060035f8273ffffffffffffffffffffffffffffffffffffffff1673ffffffffffffffffffffffffffffffffffffffff1681526020019081526020015f206040518060800160405290815f82015f9054906101000a900473ffffffffffffffffffffffffffffffffffffffff1673ffffffffffffffffffffffffffffffffffffffff1673ffffffffffffffffffffffffffffffffffffffff1681526020015f820160149054906101000a900463ffffffff1663ffffffff1663ffffffff1681526020015f820160189054906101000a900463ffffffff1663ffffffff1663ffffffff1681526020015f8201601c9054906101000a900460ff1660038111156109c7576109c66132fb565b5b60038111156109d9576109d86132fb565b5b815250508683815181106109f0576109ef6139fb565b5b6020026020010181905250508080600101915050610845565b505050505b9250929050565b7f000000000000000000000000000000000000000000000000000000000000000081565b5f60045f8373ffffffffffffffffffffffffffffffffffffffff1673ffffffffffffffffffffffffffffffffffffffff1681526020019081526020015f205f015f9054906101000a900463ffffffff169050919050565b7f000000000000000000000000000000000000000000000000000000000000000081565b80610abe8161260e565b610af4576040517f932d94f700000000000000000000000000000000000000000000000000000000815260040160405180910390fd5b610afd826126d8565b5050565b6060610b2c7f0000000000000000000000000000000000000000000000000000000000000000612786565b905090565b5f60035f8373ffffffffffffffffffffffffffffffffffffffff1673ffffffffffffffffffffffffffffffffffffffff1681526020019081526020015f205f015f9054906101000a900473ffffffffffffffffffffffffffffffffffffffff169050919050565b5f60035f8373ffffffffffffffffffffffffffffffffffffffff1673ffffffffffffffffffffffffffffffffffffffff1681526020019081526020015f205f0160149054906101000a900463ffffffff169050919050565b7f000000000000000000000000000000000000000000000000000000000000000081565b7facd45e8bd36cea31aec6cd4552b994e6bfbda89766b3171349ace038b1b8267f81565b80610c428161260e565b610c78576040517f932d94f700000000000000000000000000000000000000000000000000000000815260040160405180910390fd5b81600380811115610c8c57610c8b6132fb565b5b60035f8373ffffffffffffffffffffffffffffffffffffffff1673ffffffffffffffffffffffffffffffffffffffff1681526020019081526020015f205f01601c9054906101000a900460ff166003811115610ceb57610cea6132fb565b5b03610d22576040517f609749e200000000000000000000000000000000000000000000000000000000815260040160405180910390fd5b5f6003811115610d3557610d346132fb565b5b60035f8373ffffffffffffffffffffffffffffffffffffffff1673ffffffffffffffffffffffffffffffffffffffff1681526020019081526020015f205f01601c9054906101000a900460ff166003811115610d9457610d936132fb565b5b03610dcb576040517f609749e200000000000000000000000000000000000000000000000000000000815260040160405180910390fd5b610dd4836127f8565b505050565b5f610e2d7facd45e8bd36cea31aec6cd4552b994e6bfbda89766b3171349ace038b1b8267f8484604051602001610e1293929190613a37565b604051602081830303815290604052805190602001206129c7565b905092915050565b5f60035f8373ffffffffffffffffffffffffffffffffffffffff1673ffffffffffffffffffffffffffffffffffffffff1681526020019081526020015f205f0160189054906101000a900463ffffffff169050919050565b60055f9054906101000a900463ffffffff1681565b5f5f60045f3373ffffffffffffffffffffffffffffffffffffffff1673ffffffffffffffffffffffffffffffffffffffff1681526020019081526020015f20905060055f9054906101000a900463ffffffff1663ffffffff16600560049054906101000a900463ffffffff1663ffffffff1610610f4b576040517f42ca568f00000000000000000000000000000000000000000000000000000000815260040160405180910390fd5b805f015f9054906101000a900463ffffffff1663ffffffff16815f0160049054906101000a900463ffffffff1663ffffffff1610610fb5576040517f82d7ade600000000000000000000000000000000000000000000000000000000815260040160405180910390fd5b6005600481819054906101000a900463ffffffff1680929190610fd790613a6c565b91906101000a81548163ffffffff021916908363ffffffff16021790555050805f01600481819054906101000a900463ffffffff168092919061101990613a6c565b91906101000a81548163ffffffff021916908363ffffffff160217905550505f7f000000000000000000000000000000000000000000000000000000000000000073ffffffffffffffffffffffffffffffffffffffff16633a10eef76040518163ffffffff1660e01b81526004016020604051808303815f875af11580156110a3573d5f5f3e3d5ffd5b505050506040513d601f19601f820116820180604052508101906110c79190613aab565b90507f000000000000000000000000000000000000000000000000000000000000000073ffffffffffffffffffffffffffffffffffffffff16634840a67c60405180604001604052807f000000000000000000000000000000000000000000000000000000000000000073ffffffffffffffffffffffffffffffffffffffff1681526020018463ffffffff168152506040518263ffffffff1660e01b81526004016111729190613b4d565b5f604051808303815f87803b158015611189575f5ffd5b505af115801561119b573d5f5f3e3d5ffd5b505050506111bb5f6111ad33886124a2565b6111b6336124d4565b6129ff565b92508060035f8573ffffffffffffffffffffffffffffffffffffffff1673ffffffffffffffffffffffffffffffffffffffff1681526020019081526020015f205f0160146101000a81548163ffffffff021916908363ffffffff1602179055505f60035f8573ffffffffffffffffffffffffffffffffffffffff1673ffffffffffffffffffffffffffffffffffffffff1681526020019081526020015f205f0160186101000a81548163ffffffff021916908363ffffffff1602179055503360035f8573ffffffffffffffffffffffffffffffffffffffff1673ffffffffffffffffffffffffffffffffffffffff1681526020019081526020015f205f015f6101000a81548173ffffffffffffffffffffffffffffffffffffffff021916908373ffffffffffffffffffffffffffffffffffffffff16021790555061130a836001612b0690919063ffffffff16565b508273ffffffffffffffffffffffffffffffffffffffff163373ffffffffffffffffffffffffffffffffffffffff167fe9e6e5409b80e2dab7d38194fb370b2e8045a1af28177b94ddcf19d2495d7589836040516113689190613055565b60405180910390a361137a8385612b33565b50611384836126d8565b505092915050565b600560049054906101000a900463ffffffff1681565b6060805f83856113b29190613995565b6113bc60016125e4565b116113d0576113cb60016125e4565b6113dd565b83856113dc9190613995565b5b90505f5f90508167ffffffffffffffff8111156113fd576113fc61393b565b5b60405190808252806020026020018201604052801561142b5781602001602082028036833780820191505090505b5093508167ffffffffffffffff8111156114485761144761393b565b5b60405190808252806020026020018201604052801561148157816020015b61146e612f52565b8152602001906001900390816114665790505b5092505f5f90505b828110156116fb575f6114b182896114a19190613995565b60016125f790919063ffffffff16565b90507f000000000000000000000000000000000000000000000000000000000000000073ffffffffffffffffffffffffffffffffffffffff166391006745828b6040518363ffffffff1660e01b815260040161150e929190613b79565b602060405180830381865afa158015611529573d5f5f3e3d5ffd5b505050506040513d601f19601f8201168201806040525081019061154d9190613bd5565b156116ed5780868481518110611566576115656139fb565b5b602002602001019073ffffffffffffffffffffffffffffffffffffffff16908173ffffffffffffffffffffffffffffffffffffffff168152505060035f8273ffffffffffffffffffffffffffffffffffffffff1673ffffffffffffffffffffffffffffffffffffffff1681526020019081526020015f206040518060800160405290815f82015f9054906101000a900473ffffffffffffffffffffffffffffffffffffffff1673ffffffffffffffffffffffffffffffffffffffff1673ffffffffffffffffffffffffffffffffffffffff1681526020015f820160149054906101000a900463ffffffff1663ffffffff1663ffffffff1681526020015f820160189054906101000a900463ffffffff1663ffffffff1663ffffffff1681526020015f8201601c9054906101000a900460ff1660038111156116aa576116a96132fb565b5b60038111156116bc576116bb6132fb565b5b815250508584815181106116d3576116d26139fb565b5b602002602001018190525082806116e990613c00565b9350505b508080600101915050611489565b508084528083525050935093915050565b306117168161260e565b61174c576040517f932d94f700000000000000000000000000000000000000000000000000000000815260040160405180910390fd5b8160055f6101000a81548163ffffffff021916908363ffffffff1602179055507fc3c99803ad2e80be7382791ca0b23147a94739b9e66a656b9c8c47f9d69634148260405161179b9190613055565b60405180910390a15050565b5f5f60019054906101000a900460ff161590508080156117d7575060015f5f9054906101000a900460ff1660ff16105b8061180457506117e630612d8a565b158015611803575060015f5f9054906101000a900460ff1660ff16145b5b611843576040517f08c379a000000000000000000000000000000000000000000000000000000000815260040161183a90613cb7565b60405180910390fd5b60015f5f6101000a81548160ff021916908360ff160217905550801561187e5760015f60016101000a81548160ff0219169083151502179055505b7f000000000000000000000000000000000000000000000000000000000000000073ffffffffffffffffffffffffffffffffffffffff1663628806ef7f00000000000000000000000000000000000000000000000000000000000000006040518263ffffffff1660e01b81526004016118f791906135ec565b5f604051808303815f87803b15801561190e575f5ffd5b505af1158015611920573d5f5f3e3d5ffd5b505050507f000000000000000000000000000000000000000000000000000000000000000073ffffffffffffffffffffffffffffffffffffffff1663eb5a4e8730306040518363ffffffff1660e01b815260040161197f929190613b79565b5f604051808303815f87803b158015611996575f5ffd5b505af11580156119a8573d5f5f3e3d5ffd5b505050507f000000000000000000000000000000000000000000000000000000000000000073ffffffffffffffffffffffffffffffffffffffff1663628806ef306040518263ffffffff1660e01b8152600401611a0591906135ec565b5f604051808303815f87803b158015611a1c575f5ffd5b505af1158015611a2e573d5f5f3e3d5ffd5b505050507f000000000000000000000000000000000000000000000000000000000000000073ffffffffffffffffffffffffffffffffffffffff1663eb5a4e8730846040518363ffffffff1660e01b8152600401611a8d929190613b79565b5f604051808303815f87803b158015611aa4575f5ffd5b505af1158015611ab6573d5f5f3e3d5ffd5b505050505f7f000000000000000000000000000000000000000000000000000000000000000073ffffffffffffffffffffffffffffffffffffffff16633a10eef76040518163ffffffff1660e01b81526004016020604051808303815f875af1158015611b25573d5f5f3e3d5ffd5b505050506040513d601f19601f82011682018060405250810190611b499190613aab565b90507f000000000000000000000000000000000000000000000000000000000000000073ffffffffffffffffffffffffffffffffffffffff166374da4713826040518263ffffffff1660e01b8152600401611ba49190613055565b5f604051808303815f87803b158015611bbb575f5ffd5b505af1158015611bcd573d5f5f3e3d5ffd5b505050507f000000000000000000000000000000000000000000000000000000000000000073ffffffffffffffffffffffffffffffffffffffff16631017873a60405180604001604052807f000000000000000000000000000000000000000000000000000000000000000073ffffffffffffffffffffffffffffffffffffffff1681526020018463ffffffff168152507f00000000000000000000000000000000000000000000000000000000000000006040518363ffffffff1660e01b8152600401611c9c929190613cd5565b5f604051808303815f87803b158015611cb3575f5ffd5b505af1158015611cc5573d5f5f3e3d5ffd5b505050507f000000000000000000000000000000000000000000000000000000000000000073ffffffffffffffffffffffffffffffffffffffff16634ca62978826040518263ffffffff1660e01b8152600401611d229190613055565b5f604051808303815f87803b158015611d39575f5ffd5b505af1158015611d4b573d5f5f3e3d5ffd5b50505050508015611da8575f5f60016101000a81548160ff0219169083151502179055507f7f26b83ff96e1f2b6a682f133852f6798a09c465da95921460cefb38474024986001604051611d9f9190613d41565b60405180910390a15b5050565b30611db68161260e565b611dec576040517f932d94f700000000000000000000000000000000000000000000000000000000815260040160405180910390fd5b8160045f8573ffffffffffffffffffffffffffffffffffffffff1673ffffffffffffffffffffffffffffffffffffffff1681526020019081526020015f205f015f6101000a81548163ffffffff021916908363ffffffff1602179055508273ffffffffffffffffffffffffffffffffffffffff167f708c955faa87ece750a9700c153a20797167e2fcbde9fca9186801f874663a9983604051611e8f9190613055565b60405180910390a2505050565b5f60035f8373ffffffffffffffffffffffffffffffffffffffff1673ffffffffffffffffffffffffffffffffffffffff1681526020019081526020015f205f01601c9054906101000a900460ff169050919050565b30611efb8161260e565b611f31576040517f932d94f700000000000000000000000000000000000000000000000000000000815260040160405180910390fd5b81600380811115611f4557611f446132fb565b5b60035f8373ffffffffffffffffffffffffffffffffffffffff1673ffffffffffffffffffffffffffffffffffffffff1681526020019081526020015f205f01601c9054906101000a900460ff166003811115611fa457611fa36132fb565b5b03611fdb576040517f609749e200000000000000000000000000000000000000000000000000000000815260040160405180910390fd5b5f6003811115611fee57611fed6132fb565b5b60035f8373ffffffffffffffffffffffffffffffffffffffff1673ffffffffffffffffffffffffffffffffffffffff1681526020019081526020015f205f01601c9054906101000a900460ff16600381111561204d5761204c6132fb565b5b03612084576040517f609749e200000000000000000000000000000000000000000000000000000000815260040160405180910390fd5b61208d836127f8565b8273ffffffffffffffffffffffffffffffffffffffff167f4636ad9a0a072d9c8b05a5bcda7d33256c5401515e612c25c13273b378cb280960405160405180910390a2505050565b5f826120e08161260e565b612116576040517f932d94f700000000000000000000000000000000000000000000000000000000815260040160405180910390fd5b8360038081111561212a576121296132fb565b5b60035f8373ffffffffffffffffffffffffffffffffffffffff1673ffffffffffffffffffffffffffffffffffffffff1681526020019081526020015f205f01601c9054906101000a900460ff166003811115612189576121886132fb565b5b036121c0576040517f609749e200000000000000000000000000000000000000000000000000000000815260040160405180910390fd5b5f60038111156121d3576121d26132fb565b5b60035f8373ffffffffffffffffffffffffffffffffffffffff1673ffffffffffffffffffffffffffffffffffffffff1681526020019081526020015f205f01601c9054906101000a900460ff166003811115612232576122316132fb565b5b03612269576040517f609749e200000000000000000000000000000000000000000000000000000000815260040160405180910390fd5b6122738585612b33565b9250505092915050565b806122878161260e565b6122bd576040517f932d94f700000000000000000000000000000000000000000000000000000000815260040160405180910390fd5b5f60035f8473ffffffffffffffffffffffffffffffffffffffff1673ffffffffffffffffffffffffffffffffffffffff1681526020019081526020015f20905060016003811115612311576123106132fb565b5b815f01601c9054906101000a900460ff166003811115612334576123336132fb565b5b1461236b576040517f609749e200000000000000000000000000000000000000000000000000000000815260040160405180910390fd5b6002815f01601c6101000a81548160ff02191690836003811115612392576123916132fb565b5b02179055508273ffffffffffffffffffffffffffffffffffffffff167f143b9e3b5aa0fb8cf19b1bdb2eb8d7a94657d4b505070c667433d322b90b1f7860405160405180910390a2505050565b7f000000000000000000000000000000000000000000000000000000000000000081565b5f7f8b73c3c69bb8fe3d512ecc4cf759cc79239f7b179b0ffacaa9a75d522b39400f6040518060400160405280600a81526020017f456967656e4c61796572000000000000000000000000000000000000000000008152508051906020012061246a612dac565b805190602001204630604051602001612487959493929190613d5a565b60405160208183030381529060405280519060200120905090565b5f82826040516020016124b6929190613e10565b60405160208183030381529060405280519060200120905092915050565b606060405180610940016040528061090e815260200161472061090e91397f000000000000000000000000000000000000000000000000000000000000000063c4d66de860e01b8460405160240161252c91906135ec565b604051602081830303815290604052907bffffffffffffffffffffffffffffffffffffffffffffffffffffffff19166020820180517bffffffffffffffffffffffffffffffffffffffffffffffffffffffff838183161783525050505060405160200161259a929190613e8d565b6040516020818303038152906040526040516020016125ba929190613ef5565b6040516020818303038152906040529050919050565b5f6125dc838330612e1d565b905092915050565b5f6125f0825f01612e47565b9050919050565b5f612604835f0183612e56565b5f1c905092915050565b5f7f000000000000000000000000000000000000000000000000000000000000000073ffffffffffffffffffffffffffffffffffffffff1663df595cb88333305f357fffffffff00000000000000000000000000000000000000000000000000000000166040518563ffffffff1660e01b81526004016126919493929190613f18565b6020604051808303815f875af11580156126ad573d5f5f3e3d5ffd5b505050506040513d601f19601f820116820180604052508101906126d19190613bd5565b9050919050565b600160035f8373ffffffffffffffffffffffffffffffffffffffff1673ffffffffffffffffffffffffffffffffffffffff1681526020019081526020015f205f01601c6101000a81548160ff0219169083600381111561273b5761273a6132fb565b5b02179055508073ffffffffffffffffffffffffffffffffffffffff167f8426864999f5f9244a203f75107b05f8b474838bc43ff0d8abe18ee5f442751360405160405180910390a250565b60605f61279283612e7d565b90505f602067ffffffffffffffff8111156127b0576127af61393b565b5b6040519080825280601f01601f1916602001820160405280156127e25781602001600182028036833780820191505090505b5090508181528360208201528092505050919050565b6003805f8373ffffffffffffffffffffffffffffffffffffffff1673ffffffffffffffffffffffffffffffffffffffff1681526020019081526020015f205f01601c6101000a81548160ff0219169083600381111561285a576128596132fb565b5b02179055506005600481819054906101000a900463ffffffff168092919061288190613f5b565b91906101000a81548163ffffffff021916908363ffffffff160217905550505f60035f8373ffffffffffffffffffffffffffffffffffffffff1673ffffffffffffffffffffffffffffffffffffffff1681526020019081526020015f205f015f9054906101000a900473ffffffffffffffffffffffffffffffffffffffff16905060045f8273ffffffffffffffffffffffffffffffffffffffff1673ffffffffffffffffffffffffffffffffffffffff1681526020019081526020015f205f01600481819054906101000a900463ffffffff168092919061296190613f5b565b91906101000a81548163ffffffff021916908363ffffffff160217905550508173ffffffffffffffffffffffffffffffffffffffff167f2465e924a1e9a02843493e65702fd09152c8a631caf7b9b58e4b01ee20ced41660405160405180910390a25050565b5f6129d0612403565b826040516020016129e2929190613fd6565b604051602081830303815290604052805190602001209050919050565b5f83471015612a43576040517f08c379a0000000000000000000000000000000000000000000000000000000008152600401612a3a90614056565b60405180910390fd5b5f825103612a86576040517f08c379a0000000000000000000000000000000000000000000000000000000008152600401612a7d906140be565b60405180910390fd5b8282516020840186f590505f73ffffffffffffffffffffffffffffffffffffffff168173ffffffffffffffffffffffffffffffffffffffff1603612aff576040517f08c379a0000000000000000000000000000000000000000000000000000000008152600401612af690614126565b60405180910390fd5b9392505050565b5f612b2b835f018373ffffffffffffffffffffffffffffffffffffffff165f1b612ecb565b905092915050565b5f600182805f0190612b459190614150565b805f0190612b539190614177565b905014612b8c576040517f98c82cef00000000000000000000000000000000000000000000000000000000815260040160405180910390fd5b7f000000000000000000000000000000000000000000000000000000000000000073ffffffffffffffffffffffffffffffffffffffff16637c09ea8260405180604001604052807f000000000000000000000000000000000000000000000000000000000000000073ffffffffffffffffffffffffffffffffffffffff16815260200160035f8873ffffffffffffffffffffffffffffffffffffffff1673ffffffffffffffffffffffffffffffffffffffff1681526020019081526020015f205f0160149054906101000a900463ffffffff1663ffffffff1681525084805f0190612c779190614150565b6040518363ffffffff1660e01b8152600401612c94929190614497565b6020604051808303815f875af1158015612cb0573d5f5f3e3d5ffd5b505050506040513d601f19601f82011682018060405250810190612cd491906144d9565b90504360035f8573ffffffffffffffffffffffffffffffffffffffff1673ffffffffffffffffffffffffffffffffffffffff1681526020019081526020015f205f0160186101000a81548163ffffffff021916908363ffffffff1602179055508273ffffffffffffffffffffffffffffffffffffffff167fb5d2b7df0352a87a587a430bfceab43859b3b3c404f0425c4c1ab0675ed57b948284604051612d7c92919061468c565b60405180910390a292915050565b5f5f8273ffffffffffffffffffffffffffffffffffffffff163b119050919050565b60605f612dd87f0000000000000000000000000000000000000000000000000000000000000000612786565b9050805f81518110612ded57612dec6139fb565b5b602001015160f81c60f81b604051602001612e089190614705565b60405160208183030381529060405291505090565b5f604051836040820152846020820152828152600b810160ff815360558120925050509392505050565b5f815f01805490509050919050565b5f825f018281548110612e6c57612e6b6139fb565b5b905f5260205f200154905092915050565b5f5f60ff835f1c169050601f811115612ec2576040517fb3512b0c00000000000000000000000000000000000000000000000000000000815260040160405180910390fd5b80915050919050565b5f612ed68383612f32565b612f2857825f0182908060018154018082558091505060019003905f5260205f20015f9091909190915055825f0180549050836001015f8481526020019081526020015f208190555060019050612f2c565b5f90505b92915050565b5f5f836001015f8481526020019081526020015f20541415905092915050565b60405180608001604052805f73ffffffffffffffffffffffffffffffffffffffff1681526020015f63ffffffff1681526020015f63ffffffff1681526020015f6003811115612fa457612fa36132fb565b5b81525090565b5f5ffd5b5f5ffd5b5f73ffffffffffffffffffffffffffffffffffffffff82169050919050565b5f612fdb82612fb2565b9050919050565b612feb81612fd1565b8114612ff5575f5ffd5b50565b5f8135905061300681612fe2565b92915050565b5f6020828403121561302157613020612faa565b5b5f61302e84828501612ff8565b91505092915050565b5f63ffffffff82169050919050565b61304f81613037565b82525050565b5f6020820190506130685f830184613046565b92915050565b5f819050919050565b5f61309161308c61308784612fb2565b61306e565b612fb2565b9050919050565b5f6130a282613077565b9050919050565b5f6130b382613098565b9050919050565b6130c3816130a9565b82525050565b5f6020820190506130dc5f8301846130ba565b92915050565b5f819050919050565b6130f4816130e2565b81146130fe575f5ffd5b50565b5f8135905061310f816130eb565b92915050565b5f5f6040838503121561312b5761312a612faa565b5b5f61313885828601612ff8565b925050602061314985828601613101565b9150509250929050565b5f61315d82613098565b9050919050565b61316d81613153565b82525050565b5f6020820190506131865f830184613164565b92915050565b5f819050919050565b61319e8161318c565b81146131a8575f5ffd5b50565b5f813590506131b981613195565b92915050565b5f5f604083850312156131d5576131d4612faa565b5b5f6131e2858286016131ab565b92505060206131f3858286016131ab565b9150509250929050565b5f81519050919050565b5f82825260208201905092915050565b5f819050602082019050919050565b61322f81613153565b82525050565b5f6132408383613226565b60208301905092915050565b5f602082019050919050565b5f613262826131fd565b61326c8185613207565b935061327783613217565b805f5b838110156132a757815161328e8882613235565b97506132998361324c565b92505060018101905061327a565b5085935050505092915050565b5f81519050919050565b5f82825260208201905092915050565b5f819050602082019050919050565b6132e681612fd1565b82525050565b6132f581613037565b82525050565b7f4e487b71000000000000000000000000000000000000000000000000000000005f52602160045260245ffd5b60048110613339576133386132fb565b5b50565b5f81905061334982613328565b919050565b5f6133588261333c565b9050919050565b6133688161334e565b82525050565b608082015f8201516133825f8501826132dd565b50602082015161339560208501826132ec565b5060408201516133a860408501826132ec565b5060608201516133bb606085018261335f565b50505050565b5f6133cc838361336e565b60808301905092915050565b5f602082019050919050565b5f6133ee826132b4565b6133f881856132be565b9350613403836132ce565b805f5b8381101561343357815161341a88826133c1565b9750613425836133d8565b925050600181019050613406565b5085935050505092915050565b5f6040820190508181035f8301526134588185613258565b9050818103602083015261346c81846133e4565b90509392505050565b5f61347f82613098565b9050919050565b61348f81613475565b82525050565b5f6020820190506134a85f830184613486565b92915050565b5f6134b882613098565b9050919050565b6134c8816134ae565b82525050565b5f6020820190506134e15f8301846134bf565b92915050565b5f6134f182612fd1565b9050919050565b613501816134e7565b811461350b575f5ffd5b50565b5f8135905061351c816134f8565b92915050565b5f6020828403121561353757613536612faa565b5b5f6135448482850161350e565b91505092915050565b5f81519050919050565b5f82825260208201905092915050565b8281835e5f83830152505050565b5f601f19601f8301169050919050565b5f61358f8261354d565b6135998185613557565b93506135a9818560208601613567565b6135b281613575565b840191505092915050565b5f6020820190508181035f8301526135d58184613585565b905092915050565b6135e681612fd1565b82525050565b5f6020820190506135ff5f8301846135dd565b92915050565b5f61360f82613098565b9050919050565b61361f81613605565b82525050565b5f6020820190506136385f830184613616565b92915050565b613647816130e2565b82525050565b5f6020820190506136605f83018461363e565b92915050565b5f7fffffffff0000000000000000000000000000000000000000000000000000000082169050919050565b61369a81613666565b81146136a4575f5ffd5b50565b5f813590506136b581613691565b92915050565b5f5f604083850312156136d1576136d0612faa565b5b5f6136de858286016136a7565b92505060206136ef858286016131ab565b9150509250929050565b5f5ffd5b5f60608284031215613712576137116136f9565b5b81905092915050565b5f5f6040838503121561373157613730612faa565b5b5f61373e85828601613101565b925050602083013567ffffffffffffffff81111561375f5761375e612fae565b5b61376b858286016136fd565b9150509250929050565b5f5f5f6060848603121561378c5761378b612faa565b5b5f61379986828701612ff8565b93505060206137aa868287016131ab565b92505060406137bb868287016131ab565b9150509250925092565b6137ce81613037565b81146137d8575f5ffd5b50565b5f813590506137e9816137c5565b92915050565b5f6020828403121561380457613803612faa565b5b5f613811848285016137db565b91505092915050565b5f5f604083850312156138305761382f612faa565b5b5f61383d85828601612ff8565b925050602061384e858286016137db565b9150509250929050565b6138618161334e565b82525050565b5f60208201905061387a5f830184613858565b92915050565b5f5f6040838503121561389657613895612faa565b5b5f6138a38582860161350e565b925050602083013567ffffffffffffffff8111156138c4576138c3612fae565b5b6138d0858286016136fd565b9150509250929050565b6138e38161318c565b82525050565b5f6020820190506138fc5f8301846138da565b92915050565b5f61390c82613098565b9050919050565b61391c81613902565b82525050565b5f6020820190506139355f830184613913565b92915050565b7f4e487b71000000000000000000000000000000000000000000000000000000005f52604160045260245ffd5b7f4e487b71000000000000000000000000000000000000000000000000000000005f52601160045260245ffd5b5f61399f8261318c565b91506139aa8361318c565b92508282019050808211156139c2576139c1613968565b5b92915050565b5f6139d28261318c565b91506139dd8361318c565b92508282039050818111156139f5576139f4613968565b5b92915050565b7f4e487b71000000000000000000000000000000000000000000000000000000005f52603260045260245ffd5b613a3181613666565b82525050565b5f606082019050613a4a5f83018661363e565b613a576020830185613a28565b613a6460408301846138da565b949350505050565b5f613a7682613037565b915063ffffffff8203613a8c57613a8b613968565b5b600182019050919050565b5f81519050613aa5816137c5565b92915050565b5f60208284031215613ac057613abf612faa565b5b5f613acd84828501613a97565b91505092915050565b604082015f820151613aea5f8501826132dd565b506020820151613afd60208501826132ec565b50505050565b7f68747470733a2f2f656967656e636c6f75642e78797a000000000000000000005f82015250565b5f613b37601683613557565b9150613b4282613b03565b602082019050919050565b5f606082019050613b605f830184613ad6565b8181036040830152613b7181613b2b565b905092915050565b5f604082019050613b8c5f8301856135dd565b613b9960208301846135dd565b9392505050565b5f8115159050919050565b613bb481613ba0565b8114613bbe575f5ffd5b50565b5f81519050613bcf81613bab565b92915050565b5f60208284031215613bea57613be9612faa565b5b5f613bf784828501613bc1565b91505092915050565b5f613c0a8261318c565b91507fffffffffffffffffffffffffffffffffffffffffffffffffffffffffffffffff8203613c3c57613c3b613968565b5b600182019050919050565b7f496e697469616c697a61626c653a20636f6e747261637420697320616c7265615f8201527f647920696e697469616c697a6564000000000000000000000000000000000000602082015250565b5f613ca1602e83613557565b9150613cac82613c47565b604082019050919050565b5f6020820190508181035f830152613cce81613c95565b9050919050565b5f606082019050613ce85f830185613ad6565b613cf560408301846135dd565b9392505050565b5f819050919050565b5f60ff82169050919050565b5f613d2b613d26613d2184613cfc565b61306e565b613d05565b9050919050565b613d3b81613d11565b82525050565b5f602082019050613d545f830184613d32565b92915050565b5f60a082019050613d6d5f83018861363e565b613d7a602083018761363e565b613d87604083018661363e565b613d9460608301856138da565b613da160808301846135dd565b9695505050505050565b5f8160601b9050919050565b5f613dc182613dab565b9050919050565b5f613dd282613db7565b9050919050565b613dea613de582612fd1565b613dc8565b82525050565b5f819050919050565b613e0a613e05826130e2565b613df0565b82525050565b5f613e1b8285613dd9565b601482019150613e2b8284613df9565b6020820191508190509392505050565b5f81519050919050565b5f82825260208201905092915050565b5f613e5f82613e3b565b613e698185613e45565b9350613e79818560208601613567565b613e8281613575565b840191505092915050565b5f604082019050613ea05f830185613616565b8181036020830152613eb28184613e55565b90509392505050565b5f81905092915050565b5f613ecf82613e3b565b613ed98185613ebb565b9350613ee9818560208601613567565b80840191505092915050565b5f613f008285613ec5565b9150613f0c8284613ec5565b91508190509392505050565b5f608082019050613f2b5f8301876135dd565b613f3860208301866135dd565b613f4560408301856135dd565b613f526060830184613a28565b95945050505050565b5f613f6582613037565b91505f8203613f7757613f76613968565b5b600182039050919050565b5f81905092915050565b7f19010000000000000000000000000000000000000000000000000000000000005f82015250565b5f613fc0600283613f82565b9150613fcb82613f8c565b600282019050919050565b5f613fe082613fb4565b9150613fec8285613df9565b602082019150613ffc8284613df9565b6020820191508190509392505050565b7f437265617465323a20696e73756666696369656e742062616c616e63650000005f82015250565b5f614040601d83613557565b915061404b8261400c565b602082019050919050565b5f6020820190508181035f83015261406d81614034565b9050919050565b7f437265617465323a2062797465636f6465206c656e677468206973207a65726f5f82015250565b5f6140a8602083613557565b91506140b382614074565b602082019050919050565b5f6020820190508181035f8301526140d58161409c565b9050919050565b7f437265617465323a204661696c6564206f6e206465706c6f79000000000000005f82015250565b5f614110601983613557565b915061411b826140dc565b602082019050919050565b5f6020820190508181035f83015261413d81614104565b9050919050565b5f5ffd5b5f5ffd5b5f5ffd5b5f8235600160400383360303811261416b5761416a614144565b5b80830191505092915050565b5f5f8335600160200384360303811261419357614192614144565b5b80840192508235915067ffffffffffffffff8211156141b5576141b4614148565b5b6020830192506020820236038313156141d1576141d061414c565b5b509250929050565b5f5ffd5b5f5ffd5b5f5ffd5b5f5f83356001602003843603038112614201576142006141e1565b5b83810192508235915060208301925067ffffffffffffffff821115614229576142286141d9565b5b60208202360383131561423f5761423e6141dd565b5b509250929050565b5f82825260208201905092915050565b5f819050919050565b5f61426e6020840184613101565b905092915050565b61427f816130e2565b82525050565b5f5f833560016020038436030381126142a1576142a06141e1565b5b83810192508235915060208301925067ffffffffffffffff8211156142c9576142c86141d9565b5b6001820236038313156142df576142de6141dd565b5b509250929050565b5f82825260208201905092915050565b828183375f83830152505050565b5f61431083856142e7565b935061431d8385846142f7565b61432683613575565b840190509392505050565b5f604083016143425f840184614260565b61434e5f860182614276565b5061435c6020840184614285565b858303602087015261436f838284614305565b925050508091505092915050565b5f6143888383614331565b905092915050565b5f823560016040038336030381126143ab576143aa6141e1565b5b82810191505092915050565b5f602082019050919050565b5f6143ce8385614247565b9350836020840285016143e084614257565b805f5b878110156144235784840389526143fa8284614390565b614404858261437d565b945061440f836143b7565b925060208a019950506001810190506143e3565b50829750879450505050509392505050565b5f61444360208401846137db565b905092915050565b5f6040830161445c5f8401846141e5565b8583035f87015261446e8382846143c3565b9250505061447f6020840184614435565b61448c60208601826132ec565b508091505092915050565b5f6060820190506144aa5f830185613ad6565b81810360408301526144bc818461444b565b90509392505050565b5f815190506144d381613195565b92915050565b5f602082840312156144ee576144ed612faa565b5b5f6144fb848285016144c5565b91505092915050565b5f8235600160400383360303811261451f5761451e6141e1565b5b82810191505092915050565b5f6040830161453c5f8401846141e5565b8583035f87015261454e8382846143c3565b9250505061455f6020840184614435565b61456c60208601826132ec565b508091505092915050565b5f5f83356001602003843603038112614593576145926141e1565b5b83810192508235915060208301925067ffffffffffffffff8211156145bb576145ba6141d9565b5b6001820236038313156145d1576145d06141dd565b5b509250929050565b5f82825260208201905092915050565b5f6145f483856145d9565b93506146018385846142f7565b61460a83613575565b840190509392505050565b5f606083016146265f840184614504565b8482035f860152614637828261452b565b9150506146476020840184614577565b858303602087015261465a8382846145e9565b9250505061466b6040840184614577565b858303604087015261467e8382846145e9565b925050508091505092915050565b5f60408201905061469f5f8301856138da565b81810360208301526146b18184614615565b90509392505050565b5f7fff0000000000000000000000000000000000000000000000000000000000000082169050919050565b5f819050919050565b6146ff6146fa826146ba565b6146e5565b82525050565b5f61471082846146ee565b6001820191508190509291505056fe608060405260405161090e38038061090e83398101604081905261002291610460565b61002e82826000610035565b505061058a565b61003e83610100565b6040516001600160a01b038416907f1cf3b03a6cf19fa2baba4df148e9dcabedea7f8a5c07840e207e5c089be95d3e90600090a260008251118061007f5750805b156100fb576100f9836001600160a01b0316635c60da1b6040518163ffffffff1660e01b8152600401602060405180830381865afa1580156100c5573d6000803e3d6000fd5b505050506040513d601f19601f820116820180604052508101906100e99190610520565b836102a360201b6100291760201c565b505b505050565b610113816102cf60201b6100551760201c565b6101725760405162461bcd60e51b815260206004820152602560248201527f455243313936373a206e657720626561636f6e206973206e6f74206120636f6e6044820152641d1c9858dd60da1b60648201526084015b60405180910390fd5b6101e6816001600160a01b0316635c60da1b6040518163ffffffff1660e01b8152600401602060405180830381865afa1580156101b3573d6000803e3d6000fd5b505050506040513d601f19601f820116820180604052508101906101d79190610520565b6102cf60201b6100551760201c565b61024b5760405162461bcd60e51b815260206004820152603060248201527f455243313936373a20626561636f6e20696d706c656d656e746174696f6e206960448201526f1cc81b9bdd08184818dbdb9d1c9858dd60821b6064820152608401610169565b806102827fa3f0ad74e5423aebfd80d3ef4346578335a9a72aeaee59ff6cb3582b35133d5060001b6102de60201b6100641760201c565b80546001600160a01b0319166001600160a01b039290921691909117905550565b60606102c883836040518060600160405280602781526020016108e7602791396102e1565b9392505050565b6001600160a01b03163b151590565b90565b6060600080856001600160a01b0316856040516102fe919061053b565b600060405180830381855af49150503d8060008114610339576040519150601f19603f3d011682016040523d82523d6000602084013e61033e565b606091505b5090925090506103508683838761035a565b9695505050505050565b606083156103c65782516103bf576001600160a01b0385163b6103bf5760405162461bcd60e51b815260206004820152601d60248201527f416464726573733a2063616c6c20746f206e6f6e2d636f6e74726163740000006044820152606401610169565b50816103d0565b6103d083836103d8565b949350505050565b8151156103e85781518083602001fd5b8060405162461bcd60e51b81526004016101699190610557565b80516001600160a01b038116811461041957600080fd5b919050565b634e487b7160e01b600052604160045260246000fd5b60005b8381101561044f578181015183820152602001610437565b838111156100f95750506000910152565b6000806040838503121561047357600080fd5b61047c83610402565b60208401519092506001600160401b038082111561049957600080fd5b818501915085601f8301126104ad57600080fd5b8151818111156104bf576104bf61041e565b604051601f8201601f19908116603f011681019083821181831017156104e7576104e761041e565b8160405282815288602084870101111561050057600080fd5b610511836020830160208801610434565b80955050505050509250929050565b60006020828403121561053257600080fd5b6102c882610402565b6000825161054d818460208701610434565b9190910192915050565b6020815260008251806020840152610576816040850160208701610434565b601f01601f19169190910160400192915050565b61034e806105996000396000f3fe60806040523661001357610011610017565b005b6100115b610027610022610067565b610100565b565b606061004e83836040518060600160405280602781526020016102f260279139610124565b9392505050565b6001600160a01b03163b151590565b90565b600061009a7fa3f0ad74e5423aebfd80d3ef4346578335a9a72aeaee59ff6cb3582b35133d50546001600160a01b031690565b6001600160a01b0316635c60da1b6040518163ffffffff1660e01b8152600401602060405180830381865afa1580156100d7573d6000803e3d6000fd5b505050506040513d601f19601f820116820180604052508101906100fb9190610249565b905090565b3660008037600080366000845af43d6000803e80801561011f573d6000f35b3d6000fd5b6060600080856001600160a01b03168560405161014191906102a2565b600060405180830381855af49150503d806000811461017c576040519150601f19603f3d011682016040523d82523d6000602084013e610181565b606091505b50915091506101928683838761019c565b9695505050505050565b6060831561020d578251610206576001600160a01b0385163b6102065760405162461bcd60e51b815260206004820152601d60248201527f416464726573733a2063616c6c20746f206e6f6e2d636f6e747261637400000060448201526064015b60405180910390fd5b5081610217565b610217838361021f565b949350505050565b81511561022f5781518083602001fd5b8060405162461bcd60e51b81526004016101fd91906102be565b60006020828403121561025b57600080fd5b81516001600160a01b038116811461004e57600080fd5b60005b8381101561028d578181015183820152602001610275565b8381111561029c576000848401525b50505050565b600082516102b4818460208701610272565b9190910192915050565b60208152600082518060208401526102dd816040850160208701610272565b601f01601f1916919091016040019291505056fe416464726573733a206c6f772d6c6576656c2064656c65676174652063616c6c206661696c6564a2646970667358221220d51e81d3bc5ed20a26aeb05dce7e825c503b2061aa78628027300c8d65b9d89a64736f6c634300080c0033416464726573733a206c6f772d6c6576656c2064656c65676174652063616c6c206661696c6564a26469706673582212206ce751ee09146641d9b91f00fd5b92ba6e9cdd63998b942589d7b17717c72dc064736f6c634300081b0033",
    "linkReferences": {}
  },
  "methodIdentifiers": {
    "API_PERMISSION_TYPEHASH()": "8a7f922c",
    "appBeacon()": "8a52d0b5",
    "calculateApiPermissionDigestHash(bytes4,uint256)": "9690b7e7",
    "calculateAppId(address,bytes32)": "36b18874",
    "computeAVSRegistrar()": "ef6d92c6",
    "computeOperator()": "3fc4cbfd",
    "createApp(bytes32,(((bytes32,string)[],uint32),bytes,bytes))": "a60daa8f",
    "domainSeparator()": "f698da25",
    "getActiveAppCount(address)": "0c2199fb",
    "getAppCreator(address)": "67962d48",
    "getAppLatestReleaseBlockNumber(address)": "9ffbdce6",
    "getAppOperatorSetId(address)": "6eb2099f",
    "getAppStatus(address)": "d5aae178",
    "getMaxActiveAppsPerUser(address)": "40f70a9e",
    "globalActiveAppCount()": "a8aa2bd3",
    "initialize(address)": "c4d66de8",
    "listApps(address,uint256,uint256)": "b2676e3a",
    "listApps(uint256,uint256)": "3d205559",
    "maxGlobalActiveApps()": "a46530a2",
    "permissionController()": "4657e26a",
    "releaseManager()": "0d78573e",
    "setMaxActiveAppsPerUser(address,uint32)": "d49fec2b",
    "setMaxGlobalActiveApps(uint32)": "b438c141",
    "startApp(address)": "4dd8ef81",
    "stopApp(address)": "e70b81b1",
    "terminateApp(address)": "90e2196b",
    "terminateAppByAdmin(address)": "d66f7771",
    "upgradeApp(address,(((bytes32,string)[],uint32),bytes,bytes))": "d80a956b",
    "version()": "54fd4d50"
  },
  "id": 118
}