{
  "abi": [
    {
      "type": "constructor",
      "inputs": [
        {
          "name": "_version",
          "type": "string",
          "internalType": "string"
        },
        {
          "name": "_permissionController",
          "type": "address",
          "internalType": "contract IPermissionController"
        },
        {
          "name": "_releaseManager",
          "type": "address",
          "internalType": "contract IReleaseManager"
        },
        {
          "name": "_computeAVSRegistrar",
          "type": "address",
          "internalType": "contract IComputeAVSRegistrar"
        },
        {
          "name": "_computeOperator",
          "type": "address",
          "internalType": "contract IComputeOperator"
        },
        {
          "name": "_appBeacon",
          "type": "address",
          "internalType": "contract IBeacon"
        }
      ],
      "stateMutability": "nonpayable"
    },
    {
      "type": "function",
      "name": "API_PERMISSION_TYPEHASH",
      "inputs": [],
      "outputs": [
        {
          "name": "",
          "type": "bytes32",
          "internalType": "bytes32"
        }
      ],
      "stateMutability": "view"
    },
    {
      "type": "function",
      "name": "appBeacon",
      "inputs": [],
      "outputs": [
        {
          "name": "",
          "type": "address",
          "internalType": "contract IBeacon"
        }
      ],
      "stateMutability": "view"
    },
    {
      "type": "function",
      "name": "calculateApiPermissionDigestHash",
      "inputs": [
        {
          "name": "permission",
          "type": "bytes4",
          "internalType": "bytes4"
        },
        {
          "name": "expiry",
          "type": "uint256",
          "internalType": "uint256"
        }
      ],
      "outputs": [
        {
          "name": "",
          "type": "bytes32",
          "internalType": "bytes32"
        }
      ],
      "stateMutability": "view"
    },
    {
      "type": "function",
      "name": "calculateAppId",
      "inputs": [
        {
          "name": "deployer",
          "type": "address",
          "internalType": "address"
        },
        {
          "name": "salt",
          "type": "bytes32",
          "internalType": "bytes32"
        }
      ],
      "outputs": [
        {
          "name": "",
          "type": "address",
          "internalType": "contract IApp"
        }
      ],
      "stateMutability": "view"
    },
    {
      "type": "function",
      "name": "computeAVSRegistrar",
      "inputs": [],
      "outputs": [
        {
          "name": "",
          "type": "address",
          "internalType": "contract IComputeAVSRegistrar"
        }
      ],
      "stateMutability": "view"
    },
    {
      "type": "function",
      "name": "computeOperator",
      "inputs": [],
      "outputs": [
        {
          "name": "",
          "type": "address",
          "internalType": "contract IComputeOperator"
        }
      ],
      "stateMutability": "view"
    },
    {
      "type": "function",
      "name": "confirmUpgrade",
      "inputs": [
        {
          "name": "app",
          "type": "address",
          "internalType": "contract IApp"
        }
      ],
      "outputs": [],
      "stateMutability": "nonpayable"
    },
    {
      "type": "function",
      "name": "createApp",
      "inputs": [
        {
          "name": "salt",
          "type": "bytes32",
          "internalType": "bytes32"
        },
        {
          "name": "release",
          "type": "tuple",
          "internalType": "struct IAppController.Release",
          "components": [
            {
              "name": "rmsRelease",
              "type": "tuple",
              "internalType": "struct IReleaseManagerTypes.Release",
              "components": [
                {
                  "name": "artifacts",
                  "type": "tuple[]",
                  "internalType": "struct IReleaseManagerTypes.Artifact[]",
                  "components": [
                    {
                      "name": "digest",
                      "type": "bytes32",
                      "internalType": "bytes32"
                    },
                    {
                      "name": "registry",
                      "type": "string",
                      "internalType": "string"
                    }
                  ]
                },
                {
                  "name": "upgradeByTime",
                  "type": "uint32",
                  "internalType": "uint32"
                }
              ]
            },
            {
              "name": "publicEnv",
              "type": "bytes",
              "internalType": "bytes"
            },
            {
              "name": "encryptedEnv",
              "type": "bytes",
              "internalType": "bytes"
            },
            {
              "name": "containerPolicy",
              "type": "tuple",
              "internalType": "struct IAppController.ContainerPolicy",
              "components": [
                {
                  "name": "args",
                  "type": "string[]",
                  "internalType": "string[]"
                },
                {
                  "name": "cmdOverride",
                  "type": "string[]",
                  "internalType": "string[]"
                },
                {
                  "name": "env",
                  "type": "tuple[]",
                  "internalType": "struct IAppController.EnvVar[]",
                  "components": [
                    {
                      "name": "key",
                      "type": "string",
                      "internalType": "string"
                    },
                    {
                      "name": "value",
                      "type": "string",
                      "internalType": "string"
                    }
                  ]
                },
                {
                  "name": "envOverride",
                  "type": "tuple[]",
                  "internalType": "struct IAppController.EnvVar[]",
                  "components": [
                    {
                      "name": "key",
                      "type": "string",
                      "internalType": "string"
                    },
                    {
                      "name": "value",
                      "type": "string",
                      "internalType": "string"
                    }
                  ]
                },
                {
                  "name": "restartPolicy",
                  "type": "string",
                  "internalType": "string"
                }
              ]
            }
          ]
        }
      ],
      "outputs": [
        {
          "name": "app",
          "type": "address",
          "internalType": "contract IApp"
        }
      ],
      "stateMutability": "nonpayable"
    },
    {
      "type": "function",
      "name": "createAppWithIsolatedBilling",
      "inputs": [
        {
          "name": "salt",
          "type": "bytes32",
          "internalType": "bytes32"
        },
        {
          "name": "release",
          "type": "tuple",
          "internalType": "struct IAppController.Release",
          "components": [
            {
              "name": "rmsRelease",
              "type": "tuple",
              "internalType": "struct IReleaseManagerTypes.Release",
              "components": [
                {
                  "name": "artifacts",
                  "type": "tuple[]",
                  "internalType": "struct IReleaseManagerTypes.Artifact[]",
                  "components": [
                    {
                      "name": "digest",
                      "type": "bytes32",
                      "internalType": "bytes32"
                    },
                    {
                      "name": "registry",
                      "type": "string",
                      "internalType": "string"
                    }
                  ]
                },
                {
                  "name": "upgradeByTime",
                  "type": "uint32",
                  "internalType": "uint32"
                }
              ]
            },
            {
              "name": "publicEnv",
              "type": "bytes",
              "internalType": "bytes"
            },
            {
              "name": "encryptedEnv",
              "type": "bytes",
              "internalType": "bytes"
            },
            {
              "name": "containerPolicy",
              "type": "tuple",
              "internalType": "struct IAppController.ContainerPolicy",
              "components": [
                {
                  "name": "args",
                  "type": "string[]",
                  "internalType": "string[]"
                },
                {
                  "name": "cmdOverride",
                  "type": "string[]",
                  "internalType": "string[]"
                },
                {
                  "name": "env",
                  "type": "tuple[]",
                  "internalType": "struct IAppController.EnvVar[]",
                  "components": [
                    {
                      "name": "key",
                      "type": "string",
                      "internalType": "string"
                    },
                    {
                      "name": "value",
                      "type": "string",
                      "internalType": "string"
                    }
                  ]
                },
                {
                  "name": "envOverride",
                  "type": "tuple[]",
                  "internalType": "struct IAppController.EnvVar[]",
                  "components": [
                    {
                      "name": "key",
                      "type": "string",
                      "internalType": "string"
                    },
                    {
                      "name": "value",
                      "type": "string",
                      "internalType": "string"
                    }
                  ]
                },
                {
                  "name": "restartPolicy",
                  "type": "string",
                  "internalType": "string"
                }
              ]
            }
          ]
        }
      ],
      "outputs": [
        {
          "name": "app",
          "type": "address",
          "internalType": "contract IApp"
        }
      ],
      "stateMutability": "nonpayable"
    },
    {
      "type": "function",
      "name": "createEmptyApp",
      "inputs": [
        {
          "name": "salt",
          "type": "bytes32",
          "internalType": "bytes32"
        }
      ],
      "outputs": [
        {
          "name": "app",
          "type": "address",
          "internalType": "contract IApp"
        }
      ],
      "stateMutability": "nonpayable"
    },
    {
      "type": "function",
      "name": "createEmptyAppWithIsolatedBilling",
      "inputs": [
        {
          "name": "salt",
          "type": "bytes32",
          "internalType": "bytes32"
        }
      ],
      "outputs": [
        {
          "name": "app",
          "type": "address",
          "internalType": "contract IApp"
        }
      ],
      "stateMutability": "nonpayable"
    },
    {
      "type": "function",
      "name": "domainSeparator",
      "inputs": [],
      "outputs": [
        {
          "name": "",
          "type": "bytes32",
          "internalType": "bytes32"
        }
      ],
      "stateMutability": "view"
    },
    {
      "type": "function",
      "name": "getActiveAppCount",
      "inputs": [
        {
          "name": "user",
          "type": "address",
          "internalType": "address"
        }
      ],
      "outputs": [
        {
          "name": "",
          "type": "uint32",
          "internalType": "uint32"
        }
      ],
      "stateMutability": "view"
    },
    {
      "type": "function",
      "name": "getAppCreator",
      "inputs": [
        {
          "name": "app",
          "type": "address",
          "internalType": "contract IApp"
        }
      ],
      "outputs": [
        {
          "name": "",
          "type": "address",
          "internalType": "address"
        }
      ],
      "stateMutability": "view"
    },
    {
      "type": "function",
      "name": "getAppLatestReleaseBlockNumber",
      "inputs": [
        {
          "name": "app",
          "type": "address",
          "internalType": "contract IApp"
        }
      ],
      "outputs": [
        {
          "name": "",
          "type": "uint32",
          "internalType": "uint32"
        }
      ],
      "stateMutability": "view"
    },
    {
      "type": "function",
      "name": "getAppOperatorSetId",
      "inputs": [
        {
          "name": "app",
          "type": "address",
          "internalType": "contract IApp"
        }
      ],
      "outputs": [
        {
          "name": "",
          "type": "uint32",
          "internalType": "uint32"
        }
      ],
      "stateMutability": "view"
    },
    {
      "type": "function",
      "name": "getAppPendingReleaseBlockNumber",
      "inputs": [
        {
          "name": "app",
          "type": "address",
          "internalType": "contract IApp"
        }
      ],
      "outputs": [
        {
          "name": "",
          "type": "uint32",
          "internalType": "uint32"
        }
      ],
      "stateMutability": "view"
    },
    {
      "type": "function",
      "name": "getAppStatus",
      "inputs": [
        {
          "name": "app",
          "type": "address",
          "internalType": "contract IApp"
        }
      ],
      "outputs": [
        {
          "name": "",
          "type": "uint8",
          "internalType": "enum IAppController.AppStatus"
        }
      ],
      "stateMutability": "view"
    },
    {
      "type": "function",
      "name": "getApps",
      "inputs": [
        {
          "name": "offset",
          "type": "uint256",
          "internalType": "uint256"
        },
        {
          "name": "limit",
          "type": "uint256",
          "internalType": "uint256"
        }
      ],
      "outputs": [
        {
          "name": "apps",
          "type": "address[]",
          "internalType": "contract IApp[]"
        },
        {
          "name": "appConfigsMem",
          "type": "tuple[]",
          "internalType": "struct IAppController.AppConfig[]",
          "components": [
            {
              "name": "creator",
              "type": "address",
              "internalType": "address"
            },
            {
              "name": "operatorSetId",
              "type": "uint32",
              "internalType": "uint32"
            },
            {
              "name": "latestReleaseBlockNumber",
              "type": "uint32",
              "internalType": "uint32"
            },
            {
              "name": "pendingReleaseBlockNumber",
              "type": "uint32",
              "internalType": "uint32"
            },
            {
              "name": "status",
              "type": "uint8",
              "internalType": "enum IAppController.AppStatus"
            }
          ]
        }
      ],
      "stateMutability": "view"
    },
    {
      "type": "function",
      "name": "getAppsByBillingAccount",
      "inputs": [
        {
          "name": "account",
          "type": "address",
          "internalType": "address"
        },
        {
          "name": "offset",
          "type": "uint256",
          "internalType": "uint256"
        },
        {
          "name": "limit",
          "type": "uint256",
          "internalType": "uint256"
        }
      ],
      "outputs": [
        {
          "name": "apps",
          "type": "address[]",
          "internalType": "contract IApp[]"
        },
        {
          "name": "appConfigsMem",
          "type": "tuple[]",
          "internalType": "struct IAppController.AppConfig[]",
          "components": [
            {
              "name": "creator",
              "type": "address",
              "internalType": "address"
            },
            {
              "name": "operatorSetId",
              "type": "uint32",
              "internalType": "uint32"
            },
            {
              "name": "latestReleaseBlockNumber",
              "type": "uint32",
              "internalType": "uint32"
            },
            {
              "name": "pendingReleaseBlockNumber",
              "type": "uint32",
              "internalType": "uint32"
            },
            {
              "name": "status",
              "type": "uint8",
              "internalType": "enum IAppController.AppStatus"
            }
          ]
        }
      ],
      "stateMutability": "view"
    },
    {
      "type": "function",
      "name": "getAppsByCreator",
      "inputs": [
        {
          "name": "creator",
          "type": "address",
          "internalType": "address"
        },
        {
          "name": "offset",
          "type": "uint256",
          "internalType": "uint256"
        },
        {
          "name": "limit",
          "type": "uint256",
          "internalType": "uint256"
        }
      ],
      "outputs": [
        {
          "name": "apps",
          "type": "address[]",
          "internalType": "contract IApp[]"
        },
        {
          "name": "appConfigsMem",
          "type": "tuple[]",
          "internalType": "struct IAppController.AppConfig[]",
          "components": [
            {
              "name": "creator",
              "type": "address",
              "internalType": "address"
            },
            {
              "name": "operatorSetId",
              "type": "uint32",
              "internalType": "uint32"
            },
            {
              "name": "latestReleaseBlockNumber",
              "type": "uint32",
              "internalType": "uint32"
            },
            {
              "name": "pendingReleaseBlockNumber",
              "type": "uint32",
              "internalType": "uint32"
            },
            {
              "name": "status",
              "type": "uint8",
              "internalType": "enum IAppController.AppStatus"
            }
          ]
        }
      ],
      "stateMutability": "view"
    },
    {
      "type": "function",
      "name": "getAppsByDeveloper",
      "inputs": [
        {
          "name": "developer",
          "type": "address",
          "internalType": "address"
        },
        {
          "name": "offset",
          "type": "uint256",
          "internalType": "uint256"
        },
        {
          "name": "limit",
          "type": "uint256",
          "internalType": "uint256"
        }
      ],
      "outputs": [
        {
          "name": "apps",
          "type": "address[]",
          "internalType": "contract IApp[]"
        },
        {
          "name": "appConfigsMem",
          "type": "tuple[]",
          "internalType": "struct IAppController.AppConfig[]",
          "components": [
            {
              "name": "creator",
              "type": "address",
              "internalType": "address"
            },
            {
              "name": "operatorSetId",
              "type": "uint32",
              "internalType": "uint32"
            },
            {
              "name": "latestReleaseBlockNumber",
              "type": "uint32",
              "internalType": "uint32"
            },
            {
              "name": "pendingReleaseBlockNumber",
              "type": "uint32",
              "internalType": "uint32"
            },
            {
              "name": "status",
              "type": "uint8",
              "internalType": "enum IAppController.AppStatus"
            }
          ]
        }
      ],
      "stateMutability": "view"
    },
    {
      "type": "function",
      "name": "getBillingAccount",
      "inputs": [
        {
          "name": "app",
          "type": "address",
          "internalType": "contract IApp"
        }
      ],
      "outputs": [
        {
          "name": "",
          "type": "address",
          "internalType": "address"
        }
      ],
      "stateMutability": "view"
    },
    {
      "type": "function",
      "name": "getBillingType",
      "inputs": [
        {
          "name": "app",
          "type": "address",
          "internalType": "contract IApp"
        }
      ],
      "outputs": [
        {
          "name": "",
          "type": "uint8",
          "internalType": "enum IAppController.BillingType"
        }
      ],
      "stateMutability": "view"
    },
    {
      "type": "function",
      "name": "getMaxActiveAppsPerUser",
      "inputs": [
        {
          "name": "user",
          "type": "address",
          "internalType": "address"
        }
      ],
      "outputs": [
        {
          "name": "",
          "type": "uint32",
          "internalType": "uint32"
        }
      ],
      "stateMutability": "view"
    },
    {
      "type": "function",
      "name": "globalActiveAppCount",
      "inputs": [],
      "outputs": [
        {
          "name": "",
          "type": "uint32",
          "internalType": "uint32"
        }
      ],
      "stateMutability": "view"
    },
    {
      "type": "function",
      "name": "initialize",
      "inputs": [
        {
          "name": "admin",
          "type": "address",
          "internalType": "address"
        }
      ],
      "outputs": [],
      "stateMutability": "nonpayable"
    },
    {
      "type": "function",
      "name": "maxGlobalActiveApps",
      "inputs": [],
      "outputs": [
        {
          "name": "",
          "type": "uint32",
          "internalType": "uint32"
        }
      ],
      "stateMutability": "view"
    },
    {
      "type": "function",
      "name": "permissionController",
      "inputs": [],
      "outputs": [
        {
          "name": "",
          "type": "address",
          "internalType": "contract IPermissionController"
        }
      ],
      "stateMutability": "view"
    },
    {
      "type": "function",
      "name": "releaseManager",
      "inputs": [],
      "outputs": [
        {
          "name": "",
          "type": "address",
          "internalType": "contract IReleaseManager"
        }
      ],
      "stateMutability": "view"
    },
    {
      "type": "function",
      "name": "setMaxActiveAppsPerUser",
      "inputs": [
        {
          "name": "user",
          "type": "address",
          "internalType": "address"
        },
        {
          "name": "limit",
          "type": "uint32",
          "internalType": "uint32"
        }
      ],
      "outputs": [],
      "stateMutability": "nonpayable"
    },
    {
      "type": "function",
      "name": "setMaxGlobalActiveApps",
      "inputs": [
        {
          "name": "limit",
          "type": "uint32",
          "internalType": "uint32"
        }
      ],
      "outputs": [],
      "stateMutability": "nonpayable"
    },
    {
      "type": "function",
      "name": "startApp",
      "inputs": [
        {
          "name": "app",
          "type": "address",
          "internalType": "contract IApp"
        }
      ],
      "outputs": [],
      "stateMutability": "nonpayable"
    },
    {
      "type": "function",
      "name": "stopApp",
      "inputs": [
        {
          "name": "app",
          "type": "address",
          "internalType": "contract IApp"
        }
      ],
      "outputs": [],
      "stateMutability": "nonpayable"
    },
    {
      "type": "function",
      "name": "suspend",
      "inputs": [
        {
          "name": "account",
          "type": "address",
          "internalType": "address"
        },
        {
          "name": "apps",
          "type": "address[]",
          "internalType": "contract IApp[]"
        }
      ],
      "outputs": [],
      "stateMutability": "nonpayable"
    },
    {
      "type": "function",
      "name": "terminateApp",
      "inputs": [
        {
          "name": "app",
          "type": "address",
          "internalType": "contract IApp"
        }
      ],
      "outputs": [],
      "stateMutability": "nonpayable"
    },
    {
      "type": "function",
      "name": "terminateAppByAdmin",
      "inputs": [
        {
          "name": "app",
          "type": "address",
          "internalType": "contract IApp"
        }
      ],
      "outputs": [],
      "stateMutability": "nonpayable"
    },
    {
      "type": "function",
      "name": "updateAppMetadataURI",
      "inputs": [
        {
          "name": "app",
          "type": "address",
          "internalType": "contract IApp"
        },
        {
          "name": "metadataURI",
          "type": "string",
          "internalType": "string"
        }
      ],
      "outputs": [],
      "stateMutability": "nonpayable"
    },
    {
      "type": "function",
      "name": "upgradeApp",
      "inputs": [
        {
          "name": "app",
          "type": "address",
          "internalType": "contract IApp"
        },
        {
          "name": "release",
          "type": "tuple",
          "internalType": "struct IAppController.Release",
          "components": [
            {
              "name": "rmsRelease",
              "type": "tuple",
              "internalType": "struct IReleaseManagerTypes.Release",
              "components": [
                {
                  "name": "artifacts",
                  "type": "tuple[]",
                  "internalType": "struct IReleaseManagerTypes.Artifact[]",
                  "components": [
                    {
                      "name": "digest",
                      "type": "bytes32",
                      "internalType": "bytes32"
                    },
                    {
                      "name": "registry",
                      "type": "string",
                      "internalType": "string"
                    }
                  ]
                },
                {
                  "name": "upgradeByTime",
                  "type": "uint32",
                  "internalType": "uint32"
                }
              ]
            },
            {
              "name": "publicEnv",
              "type": "bytes",
              "internalType": "bytes"
            },
            {
              "name": "encryptedEnv",
              "type": "bytes",
              "internalType": "bytes"
            },
            {
              "name": "containerPolicy",
              "type": "tuple",
              "internalType": "struct IAppController.ContainerPolicy",
              "components": [
                {
                  "name": "args",
                  "type": "string[]",
                  "internalType": "string[]"
                },
                {
                  "name": "cmdOverride",
                  "type": "string[]",
                  "internalType": "string[]"
                },
                {
                  "name": "env",
                  "type": "tuple[]",
                  "internalType": "struct IAppController.EnvVar[]",
                  "components": [
                    {
                      "name": "key",
                      "type": "string",
                      "internalType": "string"
                    },
                    {
                      "name": "value",
                      "type": "string",
                      "internalType": "string"
                    }
                  ]
                },
                {
                  "name": "envOverride",
                  "type": "tuple[]",
                  "internalType": "struct IAppController.EnvVar[]",
                  "components": [
                    {
                      "name": "key",
                      "type": "string",
                      "internalType": "string"
                    },
                    {
                      "name": "value",
                      "type": "string",
                      "internalType": "string"
                    }
                  ]
                },
                {
                  "name": "restartPolicy",
                  "type": "string",
                  "internalType": "string"
                }
              ]
            }
          ]
        }
      ],
      "outputs": [
        {
          "name": "",
          "type": "uint256",
          "internalType": "uint256"
        }
      ],
      "stateMutability": "nonpayable"
    },
    {
      "type": "function",
      "name": "version",
      "inputs": [],
      "outputs": [
        {
          "name": "",
          "type": "string",
          "internalType": "string"
        }
      ],
      "stateMutability": "view"
    },
    {
      "type": "event",
      "name": "AppCreated",
      "inputs": [
        {
          "name": "creator",
          "type": "address",
          "indexed": true,
          "internalType": "address"
        },
        {
          "name": "app",
          "type": "address",
          "indexed": true,
          "internalType": "contract IApp"
        },
        {
          "name": "operatorSetId",
          "type": "uint32",
          "indexed": false,
          "internalType": "uint32"
        }
      ],
      "anonymous": false
    },
    {
      "type": "event",
      "name": "AppMetadataURIUpdated",
      "inputs": [
        {
          "name": "app",
          "type": "address",
          "indexed": true,
          "internalType": "contract IApp"
        },
        {
          "name": "metadataURI",
          "type": "string",
          "indexed": false,
          "internalType": "string"
        }
      ],
      "anonymous": false
    },
    {
      "type": "event",
      "name": "AppStarted",
      "inputs": [
        {
          "name": "app",
          "type": "address",
          "indexed": true,
          "internalType": "contract IApp"
        }
      ],
      "anonymous": false
    },
    {
      "type": "event",
      "name": "AppStopped",
      "inputs": [
        {
          "name": "app",
          "type": "address",
          "indexed": true,
          "internalType": "contract IApp"
        }
      ],
      "anonymous": false
    },
    {
      "type": "event",
      "name": "AppSuspended",
      "inputs": [
        {
          "name": "app",
          "type": "address",
          "indexed": true,
          "internalType": "contract IApp"
        }
      ],
      "anonymous": false
    },
    {
      "type": "event",
      "name": "AppTerminated",
      "inputs": [
        {
          "name": "app",
          "type": "address",
          "indexed": true,
          "internalType": "contract IApp"
        }
      ],
      "anonymous": false
    },
    {
      "type": "event",
      "name": "AppTerminatedByAdmin",
      "inputs": [
        {
          "name": "app",
          "type": "address",
          "indexed": true,
          "internalType": "contract IApp"
        }
      ],
      "anonymous": false
    },
    {
      "type": "event",
      "name": "AppUpgraded",
      "inputs": [
        {
          "name": "app",
          "type": "address",
          "indexed": true,
          "internalType": "contract IApp"
        },
        {
          "name": "rmsReleaseId",
          "type": "uint256",
          "indexed": false,
          "internalType": "uint256"
        },
        {
          "name": "release",
          "type": "tuple",
          "indexed": false,
          "internalType": "struct IAppController.Release",
          "components": [
            {
              "name": "rmsRelease",
              "type": "tuple",
              "internalType": "struct IReleaseManagerTypes.Release",
              "components": [
                {
                  "name": "artifacts",
                  "type": "tuple[]",
                  "internalType": "struct IReleaseManagerTypes.Artifact[]",
                  "components": [
                    {
                      "name": "digest",
                      "type": "bytes32",
                      "internalType": "bytes32"
                    },
                    {
                      "name": "registry",
                      "type": "string",
                      "internalType": "string"
                    }
                  ]
                },
                {
                  "name": "upgradeByTime",
                  "type": "uint32",
                  "internalType": "uint32"
                }
              ]
            },
            {
              "name": "publicEnv",
              "type": "bytes",
              "internalType": "bytes"
            },
            {
              "name": "encryptedEnv",
              "type": "bytes",
              "internalType": "bytes"
            },
            {
              "name": "containerPolicy",
              "type": "tuple",
              "internalType": "struct IAppController.ContainerPolicy",
              "components": [
                {
                  "name": "args",
                  "type": "string[]",
                  "internalType": "string[]"
                },
                {
                  "name": "cmdOverride",
                  "type": "string[]",
                  "internalType": "string[]"
                },
                {
                  "name": "env",
                  "type": "tuple[]",
                  "internalType": "struct IAppController.EnvVar[]",
                  "components": [
                    {
                      "name": "key",
                      "type": "string",
                      "internalType": "string"
                    },
                    {
                      "name": "value",
                      "type": "string",
                      "internalType": "string"
                    }
                  ]
                },
                {
                  "name": "envOverride",
                  "type": "tuple[]",
                  "internalType": "struct IAppController.EnvVar[]",
                  "components": [
                    {
                      "name": "key",
                      "type": "string",
                      "internalType": "string"
                    },
                    {
                      "name": "value",
                      "type": "string",
                      "internalType": "string"
                    }
                  ]
                },
                {
                  "name": "restartPolicy",
                  "type": "string",
                  "internalType": "string"
                }
              ]
            }
          ]
        }
      ],
      "anonymous": false
    },
    {
      "type": "event",
      "name": "GlobalMaxActiveAppsSet",
      "inputs": [
        {
          "name": "limit",
          "type": "uint32",
          "indexed": false,
          "internalType": "uint32"
        }
      ],
      "anonymous": false
    },
    {
      "type": "event",
      "name": "Initialized",
      "inputs": [
        {
          "name": "version",
          "type": "uint8",
          "indexed": false,
          "internalType": "uint8"
        }
      ],
      "anonymous": false
    },
    {
      "type": "event",
      "name": "MaxActiveAppsSet",
      "inputs": [
        {
          "name": "user",
          "type": "address",
          "indexed": true,
          "internalType": "address"
        },
        {
          "name": "limit",
          "type": "uint32",
          "indexed": false,
          "internalType": "uint32"
        }
      ],
      "anonymous": false
    },
    {
      "type": "event",
      "name": "UpgradeConfirmed",
      "inputs": [
        {
          "name": "app",
          "type": "address",
          "indexed": true,
          "internalType": "contract IApp"
        },
        {
          "name": "pendingReleaseBlockNumber",
          "type": "uint32",
          "indexed": false,
          "internalType": "uint32"
        }
      ],
      "anonymous": false
    },
    {
      "type": "error",
      "name": "AccountHasActiveApps",
      "inputs": []
    },
    {
      "type": "error",
      "name": "AppAlreadyExists",
      "inputs": []
    },
    {
      "type": "error",
      "name": "AppDoesNotExist",
      "inputs": []
    },
    {
      "type": "error",
      "name": "GlobalMaxActiveAppsExceeded",
      "inputs": []
    },
    {
      "type": "error",
      "name": "InvalidAppStatus",
      "inputs": []
    },
    {
      "type": "error",
      "name": "InvalidPermissions",
      "inputs": []
    },
    {
      "type": "error",
      "name": "InvalidReleaseMetadataURI",
      "inputs": []
    },
    {
      "type": "error",
      "name": "InvalidShortString",
      "inputs": []
    },
    {
      "type": "error",
      "name": "InvalidSignature",
      "inputs": []
    },
    {
      "type": "error",
      "name": "MaxActiveAppsExceeded",
      "inputs": []
    },
    {
      "type": "error",
      "name": "MoreThanOneArtifact",
      "inputs": []
    },
    {
      "type": "error",
      "name": "NoPendingUpgrade",
      "inputs": []
    },
    {
      "type": "error",
      "name": "SignatureExpired",
      "inputs": []
    },
    {
      "type": "error",
      "name": "StringTooLong",
      "inputs": [
        {
          "name": "str",
          "type": "string",
          "internalType": "string"
        }
      ]
    }
  ],
  "bytecode": {
    "object": "0x610140604052348015610010575f5ffd5b506040516140e93803806140e983398101604081905261002f916101a9565b83828483888a8061003f8161007c565b60805250506001600160a01b0390811660a05293841660c05291831660e05282166101005216610120526100716100c2565b505050505050610304565b5f5f829050601f815111156100af578260405163305a27a960e01b81526004016100a691906102a9565b60405180910390fd5b80516100ba826102de565b179392505050565b5f54610100900460ff16156101295760405162461bcd60e51b815260206004820152602760248201527f496e697469616c697a61626c653a20636f6e747261637420697320696e697469604482015266616c697a696e6760c81b60648201526084016100a6565b5f5460ff90811614610178575f805460ff191660ff9081179091556040519081527f7f26b83ff96e1f2b6a682f133852f6798a09c465da95921460cefb38474024989060200160405180910390a15b565b634e487b7160e01b5f52604160045260245ffd5b80516001600160a01b03811681146101a4575f5ffd5b919050565b5f5f5f5f5f5f60c087890312156101be575f5ffd5b86516001600160401b038111156101d3575f5ffd5b8701601f810189136101e3575f5ffd5b80516001600160401b038111156101fc576101fc61017a565b604051601f8201601f19908116603f011681016001600160401b038111828210171561022a5761022a61017a565b6040528181528282016020018b1015610241575f5ffd5b8160208401602083015e5f602083830101528098505050506102656020880161018e565b94506102736040880161018e565b93506102816060880161018e565b925061028f6080880161018e565b915061029d60a0880161018e565b90509295509295509295565b602081525f82518060208401528060208501604085015e5f604082850101526040601f19601f83011684010191505092915050565b805160208083015191908110156102fe575f198160200360031b1b821691505b50919050565b60805160a05160c05160e0516101005161012051613d196103d05f395f81816104880152611a3101525f81816106ba01528181610f3d0152818161112a015281816111c70152818161123701528181612133015281816121c5015261251f01525f81816102fc0152818161128b015261130301525f818161029701528181612248015261256a01525f818161035101528181610f6501528181610fd60152818161104a015281816110ce01528181611ad6015261269401525f818161081001526127070152613d195ff3fe608060405234801561000f575f5ffd5b506004361061023f575f3560e01c8063a37e7e4411610135578063d49fec2b116100b4578063e71ad40411610079578063e71ad404146106a2578063ef6d92c6146106b5578063f36618ac146106dc578063f698da25146106ef578063f6e842d3146106f7575f5ffd5b8063d49fec2b14610617578063d5aae1781461062a578063d66f777114610669578063dbb1c4e11461067c578063e70b81b11461068f575f5ffd5b8063b7fe2169116100fa578063b7fe21691461059a578063bbc1c204146105ad578063c3478d14146105c0578063c4d66de8146105f1578063cb1e6ff714610604575f5ffd5b8063a37e7e441461053a578063a46530a21461054d578063a8aa2bd31461055d578063ae7001b314610574578063b438c14114610587575f5ffd5b806365aa9a65116101c15780638a52d0b5116101865780638a52d0b5146104835780638a7f922c146104aa57806390e2196b146104df5780639690b7e7146104f25780639ffbdce614610505575f5ffd5b806365aa9a65146103b057806367962d48146103c35780636eb2099f146103ee5780638099ef2e1461042357806385e9babb14610444575f5ffd5b806340f70a9e1161020757806340f70a9e1461031e5780634657e26a1461034c5780634dd8ef811461037357806354fd4d50146103885780635e92a19f1461039d575f5ffd5b80630c2199fb146102435780630d78573e1461029257806336b18874146102d15780633e032115146102e45780633fc4cbfd146102f7575b5f5ffd5b610278610251366004612a08565b6001600160a01b03165f90815260046020526040902054600160201b900463ffffffff1690565b60405163ffffffff90911681526020015b60405180910390f35b6102b97f000000000000000000000000000000000000000000000000000000000000000081565b6040516001600160a01b039091168152602001610289565b6102b96102df366004612a23565b61070a565b6102b96102f2366004612a08565b610736565b6102b97f000000000000000000000000000000000000000000000000000000000000000081565b61027861032c366004612a08565b6001600160a01b03165f9081526004602052604090205463ffffffff1690565b6102b97f000000000000000000000000000000000000000000000000000000000000000081565b610386610381366004612a08565b61078a565b005b610390610809565b6040516102899190612a7b565b6102b96103ab366004612aa3565b610839565b6103866103be366004612ae6565b61084e565b6102b96103d1366004612a08565b6001600160a01b039081165f908152600360205260409020541690565b6102786103fc366004612a08565b6001600160a01b03165f90815260036020526040902054600160a01b900463ffffffff1690565b610436610431366004612b64565b610909565b604051610289929190612bbe565b610476610452366004612a08565b6001600160a01b03165f90815260036020526040902054600160e81b900460ff1690565b6040516102899190612c9a565b6102b97f000000000000000000000000000000000000000000000000000000000000000081565b6104d17facd45e8bd36cea31aec6cd4552b994e6bfbda89766b3171349ace038b1b8267f81565b604051908152602001610289565b6103866104ed366004612a08565b610926565b6104d1610500366004612cb4565b6109f3565b610278610513366004612a08565b6001600160a01b03165f90815260036020526040902054600160c01b900463ffffffff1690565b610436610548366004612cdc565b610a5a565b6005546102789063ffffffff1681565b60055461027890600160201b900463ffffffff1681565b6102b9610582366004612cfc565b610c8f565b610386610595366004612d34565b610ca3565b6102b96105a8366004612aa3565b610d1a565b6103866105bb366004612a08565b610d39565b6102786105ce366004612a08565b6001600160a01b03165f9081526003602052604090206001015463ffffffff1690565b6103866105ff366004612a08565b610e66565b610386610612366004612d4f565b6113aa565b610386610625366004612dbf565b6115b8565b61065c610638366004612a08565b6001600160a01b03165f90815260036020526040902054600160e01b900460ff1690565b6040516102899190612df6565b610386610677366004612a08565b6115e9565b61043661068a366004612b64565b6116ee565b61038661069d366004612a08565b6116ff565b6104d16106b0366004612e04565b6117c3565b6102b97f000000000000000000000000000000000000000000000000000000000000000081565b6104366106ea366004612b64565b61189f565b6104d16118b0565b6102b9610705366004612cfc565b611969565b5f61072d6107188484611982565b610721856119c8565b80519060200120611a8c565b90505b92915050565b6001600160a01b0381165f90815260036020526040812060018154600160e81b900460ff16600181111561076c5761076c612b96565b146107815780546001600160a01b0316610783565b825b9392505050565b8061079481611a98565b6107b15760405163932d94f760e01b815260040160405180910390fd5b6001600160a01b0382165f9081526003602052604090205482906107de90600160e01b900460ff16611b42565b6107fb5760405163304ba4f160e11b815260040160405180910390fd5b61080483611b5e565b505050565b60606108347f0000000000000000000000000000000000000000000000000000000000000000611c2c565b905090565b5f61084333611c69565b61072d83835f611d58565b8261085881611a98565b6108755760405163932d94f760e01b815260040160405180910390fd5b6001600160a01b0384165f9081526003602052604090205484906108a290600160e01b900460ff16611b42565b6108bf5760405163304ba4f160e11b815260040160405180910390fd5b846001600160a01b03167fc874c4e2852c19bd03d42a5232ce93e85f2da325dddac46c2472043b7f0d7e8d85856040516108fa929190612e62565b60405180910390a25050505050565b60608061091a611dbe868686611ddf565b91509150935093915050565b8061093081611a98565b61094d5760405163932d94f760e01b815260040160405180910390fd5b6001600160a01b0382165f90815260036020526040902054829061097a90600160e01b900460ff16611b42565b6109975760405163304ba4f160e11b815260040160405180910390fd5b60036001600160a01b0384165f90815260036020526040902054600160e01b900460ff1660058111156109cc576109cc612b96565b036109ea5760405163304ba4f160e11b815260040160405180910390fd5b61080483611f99565b604080517facd45e8bd36cea31aec6cd4552b994e6bfbda89766b3171349ace038b1b8267f60208201526001600160e01b0319841691810191909152606081018290525f9061072d9060800160405160208183030381529060405280519060200120612035565b6060805f610a68600161207b565b9050808510610ada57604080515f80825260208201818152828401909352909190610acf565b610abc6040805160a0810182525f808252602082018190529181018290526060810182905290608082015290565b815260200190600190039081610a8e5790505b509250925050610c88565b5f81610ae68688612ea5565b11610afa57610af58587612ea5565b610afc565b815b90505f610b098783612eb8565b9050806001600160401b03811115610b2357610b23612e7d565b604051908082528060200260200182016040528015610b4c578160200160208202803683370190505b509450806001600160401b03811115610b6757610b67612e7d565b604051908082528060200260200182016040528015610bc657816020015b610bb36040805160a0810182525f808252602082018190529181018290526060810182905290608082015290565b815260200190600190039081610b855790505b5093505f5b81811015610c8357610be8610be0828a612ea5565b600190612084565b868281518110610bfa57610bfa612ecb565b60200260200101906001600160a01b031690816001600160a01b031681525050610c5e60035f888481518110610c3257610c32612ecb565b60200260200101516001600160a01b03166001600160a01b031681526020019081526020015f2061208f565b858281518110610c7057610c70612ecb565b6020908102919091010152600101610bcb565b505050505b9250929050565b5f610c9933611c69565b610730825f61212f565b30610cad81611a98565b610cca5760405163932d94f760e01b815260040160405180910390fd5b6005805463ffffffff191663ffffffff84169081179091556040519081527fc3c99803ad2e80be7382791ca0b23147a94739b9e66a656b9c8c47f9d6963414906020015b60405180910390a15050565b5f610d2d610d28338561070a565b611c69565b61072d83836001611d58565b30610d4381611a98565b610d605760405163932d94f760e01b815260040160405180910390fd5b6001600160a01b0382165f908152600360205260409020548290610d8d90600160e01b900460ff166123ad565b610daa5760405163304ba4f160e11b815260040160405180910390fd5b6001600160a01b0383165f9081526003602052604081206001810154909163ffffffff9091169003610def57604051636eb093af60e11b815260040160405180910390fd5b6001810154815463ffffffff60c01b191663ffffffff909116600160c01b81029190911782556040519081526001600160a01b038516907f49f25db622ae262096322c8be00886655e649a53333641c2c34004f9458042f79060200160405180910390a2600101805463ffffffff19169055505050565b5f54610100900460ff1615808015610e8457505f54600160ff909116105b80610e9d5750303b158015610e9d57505f5460ff166001145b610f055760405162461bcd60e51b815260206004820152602e60248201527f496e697469616c697a61626c653a20636f6e747261637420697320616c72656160448201526d191e481a5b9a5d1a585b1a5e995960921b60648201526084015b60405180910390fd5b5f805460ff191660011790558015610f26575f805461ff0019166101001790555b60405163628806ef60e01b81526001600160a01b037f0000000000000000000000000000000000000000000000000000000000000000811660048301527f0000000000000000000000000000000000000000000000000000000000000000169063628806ef906024015f604051808303815f87803b158015610fa6575f5ffd5b505af1158015610fb8573d5f5f3e3d5ffd5b505060405163eb5a4e8760e01b8152306004820181905260248201527f00000000000000000000000000000000000000000000000000000000000000006001600160a01b0316925063eb5a4e8791506044015f604051808303815f87803b158015611021575f5ffd5b505af1158015611033573d5f5f3e3d5ffd5b505060405163628806ef60e01b81523060048201527f00000000000000000000000000000000000000000000000000000000000000006001600160a01b0316925063628806ef91506024015f604051808303815f87803b158015611095575f5ffd5b505af11580156110a7573d5f5f3e3d5ffd5b505060405163eb5a4e8760e01b81523060048201526001600160a01b0385811660248301527f000000000000000000000000000000000000000000000000000000000000000016925063eb5a4e8791506044015f604051808303815f87803b158015611111575f5ffd5b505af1158015611123573d5f5f3e3d5ffd5b505050505f7f00000000000000000000000000000000000000000000000000000000000000006001600160a01b0316633a10eef76040518163ffffffff1660e01b81526004016020604051808303815f875af1158015611185573d5f5f3e3d5ffd5b505050506040513d601f19601f820116820180604052508101906111a99190612edf565b6040516374da471360e01b815263ffffffff821660048201529091507f00000000000000000000000000000000000000000000000000000000000000006001600160a01b0316906374da4713906024015f604051808303815f87803b158015611210575f5ffd5b505af1158015611222573d5f5f3e3d5ffd5b50506040805180820182526001600160a01b037f0000000000000000000000000000000000000000000000000000000000000000811680835263ffffffff87811660208501908152945163080bc39d60e11b8152935183166004850152935190931660248301527f0000000000000000000000000000000000000000000000000000000000000000166044820152909250631017873a91506064015f604051808303815f87803b1580156112d4575f5ffd5b505af11580156112e6573d5f5f3e3d5ffd5b5050604051630994c52f60e31b815263ffffffff841660048201527f00000000000000000000000000000000000000000000000000000000000000006001600160a01b03169250634ca6297891506024015f604051808303815f87803b15801561134e575f5ffd5b505af1158015611360573d5f5f3e3d5ffd5b505050505080156113a6575f805461ff0019169055604051600181527f7f26b83ff96e1f2b6a682f133852f6798a09c465da95921460cefb384740249890602001610d0e565b5050565b336001600160a01b03841614806113c557506113c530611a98565b6113e25760405163932d94f760e01b815260040160405180910390fd5b5f5b8181101561156a575f8383838181106113ff576113ff612ecb565b90506020020160208101906114149190612a08565b6001600160a01b038082165f908152600360209081526040808320815160c0810183528154958616815263ffffffff600160a01b8704811694820194909452600160c01b86049093169183019190915293945090929091606083019060ff600160e01b90910416600581111561148c5761148c612b96565b600581111561149d5761149d612b96565b81528154602090910190600160e81b900460ff1660018111156114c2576114c2612b96565b60018111156114d3576114d3612b96565b815260019182015463ffffffff166020909101529091505f908260800151600181111561150257611502612b96565b1461150e578151611510565b825b9050866001600160a01b0316816001600160a01b0316146115445760405163304ba4f160e11b815260040160405180910390fd5b61155182606001516123ad565b1561155f5761155f836123e4565b5050506001016113e4565b506001600160a01b0383165f90815260046020526040902054600160201b900463ffffffff16156115ae57604051630b9a8c7960e01b815260040160405180910390fd5b610804835f61244b565b306115c281611a98565b6115df5760405163932d94f760e01b815260040160405180910390fd5b610804838361244b565b306115f381611a98565b6116105760405163932d94f760e01b815260040160405180910390fd5b6001600160a01b0382165f90815260036020526040902054829061163d90600160e01b900460ff16611b42565b61165a5760405163304ba4f160e11b815260040160405180910390fd5b60036001600160a01b0384165f90815260036020526040902054600160e01b900460ff16600581111561168f5761168f612b96565b036116ad5760405163304ba4f160e11b815260040160405180910390fd5b6116b683611f99565b6040516001600160a01b038416907f4636ad9a0a072d9c8b05a5bcda7d33256c5401515e612c25c13273b378cb2809905f90a2505050565b60608061091a6124b0868686611ddf565b8061170981611a98565b6117265760405163932d94f760e01b815260040160405180910390fd5b6001600160a01b0382165f90815260036020526040902060018154600160e01b900460ff16600581111561175c5761175c612b96565b1461177a5760405163304ba4f160e11b815260040160405180910390fd5b805460ff60e01b1916600160e11b1781556040516001600160a01b038416907f143b9e3b5aa0fb8cf19b1bdb2eb8d7a94657d4b505070c667433d322b90b1f78905f90a2505050565b5f826117ce81611a98565b6117eb5760405163932d94f760e01b815260040160405180910390fd5b6001600160a01b0384165f90815260036020526040902054849061181890600160e01b900460ff16611b42565b6118355760405163304ba4f160e11b815260040160405180910390fd5b6001600160a01b0385165f90815260036020819052604090912054600160e01b900460ff169081600581111561186d5761186d612b96565b0361188b5760405163304ba4f160e11b815260040160405180910390fd5b61189586866124d5565b9695505050505050565b60608061091a61266b868686611ddf565b60408051808201909152600a81526922b4b3b2b72630bcb2b960b11b6020909101525f7f8b73c3c69bb8fe3d512ecc4cf759cc79239f7b179b0ffacaa9a75d522b39400f7f71b625cfad44bac63b13dba07f2e1d6084ee04b6f8752101ece6126d584ee6ea61191d6126ff565b805160209182012060408051928301949094529281019190915260608101919091524660808201523060a082015260c00160405160208183030381529060405280519060200120905090565b5f611977610d28338461070a565b61073082600161212f565b6040516bffffffffffffffffffffffff19606084901b166020820152603481018290525f9060540160405160208183030381529060405280519060200120905092915050565b606060405180610940016040528061090e81526020016133ff61090e9139604080516001600160a01b0385166024808301919091528251808303909101815260449091018252602080820180516001600160e01b031663189acdbd60e31b1790529151611a58927f0000000000000000000000000000000000000000000000000000000000000000929101612efa565b60408051601f1981840301815290829052611a769291602001612f34565b6040516020818303038152906040529050919050565b5f61072d838330612774565b604051631beb2b9760e31b81526001600160a01b0382811660048301523360248301523060448301525f80356001600160e01b0319166064840152917f00000000000000000000000000000000000000000000000000000000000000009091169063df595cb8906084016020604051808303815f875af1158015611b1e573d5f5f3e3d5ffd5b505050506040513d601f19601f820116820180604052508101906107309190612f48565b5f80826005811115611b5657611b56612b96565b141592915050565b6001600160a01b0381165f908152600360208190526040909120908154600160e01b900460ff166005811115611b9657611b96612b96565b03611bb45760405163304ba4f160e11b815260040160405180910390fd5b60048154600160e01b900460ff166005811115611bd357611bd3612b96565b03611be457611be4610d2883610736565b805460ff60e01b1916600160e01b1781556040516001600160a01b038316907f8426864999f5f9244a203f75107b05f8b474838bc43ff0d8abe18ee5f4427513905f90a25050565b60605f611c388361279d565b6040805160208082528183019092529192505f91906020820181803683375050509182525060208101929092525090565b6001600160a01b0381165f90815260046020526040902060055463ffffffff808216600160201b9092041610611cb2576040516342ca568f60e01b815260040160405180910390fd5b805463ffffffff808216600160201b9092041610611ce35760405163416bd6f360e11b815260040160405180910390fd5b60058054600160201b900463ffffffff16906004611d0083612f67565b82546101009290920a63ffffffff8181021990931691831602179091558254600160201b9004169050816004611d3583612f67565b91906101000a81548163ffffffff021916908363ffffffff160217905550505050565b5f611d63848361212f565b9050611d6f81846124d5565b506001600160a01b0381165f908152600360205260409020600181018054825463ffffffff60c01b191663ffffffff8216600160c01b021790925563ffffffff19909116905561078381611b5e565b6001600160a01b039182165f90815260036020526040902054821691161490565b6060805f611ded600161207b565b9050836001600160401b03811115611e0757611e07612e7d565b604051908082528060200260200182016040528015611e30578160200160208202803683370190505b509250836001600160401b03811115611e4b57611e4b612e7d565b604051908082528060200260200182016040528015611eaa57816020015b611e976040805160a0810182525f808252602082018190529181018290526060810182905290608082015290565b815260200190600190039081611e695790505b5091505f80805b8381108015611ebf57508682105b15611f86575f611ed0600183612084565b9050611ee0818b8d63ffffffff16565b15611f725788841015611f005783611ef781612f8b565b94505050611f74565b80878481518110611f1357611f13612ecb565b6001600160a01b039283166020918202929092018101919091529082165f908152600390915260409020611f469061208f565b868481518110611f5857611f58612ecb565b60200260200101819052508280611f6e90612f8b565b9350505b505b80611f7e81612f8b565b915050611eb1565b5080855280845250505094509492505050565b6001600160a01b0381165f908152600360205260409020805460ff60e01b198116600360e01b17909155600160e01b900460ff1660058181811115611fe057611fe0612b96565b1480611ff05750611ff0816123ad565b15611ffe57611ffe826127c4565b6040516001600160a01b038316907f2465e924a1e9a02843493e65702fd09152c8a631caf7b9b58e4b01ee20ced416905f90a25050565b5f61203e6118b0565b60405161190160f01b6020820152602281019190915260428101839052606201604051602081830303815290604052805190602001209050919050565b5f610730825490565b5f61072d8383612861565b6120bd6040805160a0810182525f808252602082018190529181018290526060810182905290608082015290565b6040805160a08101825283546001600160a01b038116825263ffffffff600160a01b820481166020840152600160c01b82048116938301939093526001850154909216606082015290608082019060ff600160e01b90910416600581111561212757612127612b96565b905292915050565b5f5f7f00000000000000000000000000000000000000000000000000000000000000006001600160a01b0316633a10eef76040518163ffffffff1660e01b81526004016020604051808303815f875af115801561218e573d5f5f3e3d5ffd5b505050506040513d601f19601f820116820180604052508101906121b29190612edf565b6040805180820182526001600160a01b037f00000000000000000000000000000000000000000000000000000000000000008116825263ffffffff848116602084019081529351631210299f60e21b815292518216600484015292519092166024820152606060448201526016606482015275343a3a38399d1797b2b4b3b2b731b637bab2173c3cbd60511b60848201529192507f00000000000000000000000000000000000000000000000000000000000000001690634840a67c9060a4015f604051808303815f87803b158015612289575f5ffd5b505af115801561229b573d5f5f3e3d5ffd5b505050506122bb5f6122ad3387611982565b6122b6336119c8565b612887565b6001600160a01b0381165f9081526003602052604090208054600167ffffffff0000000160a01b031963ffffffff8516600160a01b02166001600160e01b0319909116173317808255919350849160ff60e81b1916600160e81b83600181111561232757612327612b96565b02179055506001600160a01b0382165f908152600360205260409020805460ff60e01b1916600560e01b17905561235f600183612989565b5060405163ffffffff821681526001600160a01b0383169033907fe9e6e5409b80e2dab7d38194fb370b2e8045a1af28177b94ddcf19d2495d75899060200160405180910390a35092915050565b5f60018260058111156123c2576123c2612b96565b1480610730575060028260058111156123dd576123dd612b96565b1492915050565b6001600160a01b0381165f908152600360205260409020805460ff60e01b1916600160e21b179055612415816127c4565b6040516001600160a01b038216907fbb85757a09bd73484c9fb6857c3e9f8dbf92c3e22ce1655213c9481dacf81c62905f90a250565b6001600160a01b0382165f81815260046020908152604091829020805463ffffffff191663ffffffff861690811790915591519182527f708c955faa87ece750a9700c153a20797167e2fcbde9fca9186801f874663a99910160405180910390a25050565b5f816001600160a01b03166124c484610736565b6001600160a01b0316149392505050565b5f6124e08280612fa3565b6124ea9080612fc1565b905060011461250c576040516398c82cef60e01b815260040160405180910390fd5b6040805180820182526001600160a01b037f0000000000000000000000000000000000000000000000000000000000000000811682528581165f9081526003602090815293902054600160a01b900463ffffffff16928201929092527f000000000000000000000000000000000000000000000000000000000000000090911690637c09ea829061259d8580612fa3565b6040518363ffffffff1660e01b81526004016125ba929190613152565b6020604051808303815f875af11580156125d6573d5f5f3e3d5ffd5b505050506040513d601f19601f820116820180604052508101906125fa9190613184565b6001600160a01b0384165f8181526003602052604090819020600101805463ffffffff19164363ffffffff1617905551919250907f5e69c7a791a6bb49176e938952d5ebf7b706e399ca57a98ea0de48d5ed2484089061265d9084908690613288565b60405180910390a292915050565b604051639100674560e01b81526001600160a01b03838116600483015282811660248301525f917f000000000000000000000000000000000000000000000000000000000000000090911690639100674590604401602060405180830381865afa1580156126db573d5f5f3e3d5ffd5b505050506040513d601f19601f8201168201806040525081019061072d9190612f48565b60605f61272b7f0000000000000000000000000000000000000000000000000000000000000000611c2c565b9050805f8151811061273f5761273f612ecb565b016020908101516040516001600160f81b03199091169181019190915260210160405160208183030381529060405291505090565b5f604051836040820152846020820152828152600b8101905060ff815360559020949350505050565b5f60ff8216601f81111561073057604051632cd44ac360e21b815260040160405180910390fd5b60058054600160201b900463ffffffff169060046127e1836133e0565b91906101000a81548163ffffffff021916908363ffffffff1602179055505060045f61280c83610736565b6001600160a01b0316815260208101919091526040015f208054600160201b900463ffffffff1690600461283f836133e0565b91906101000a81548163ffffffff021916908363ffffffff1602179055505050565b5f825f01828154811061287657612876612ecb565b905f5260205f200154905092915050565b5f834710156128d85760405162461bcd60e51b815260206004820152601d60248201527f437265617465323a20696e73756666696369656e742062616c616e63650000006044820152606401610efc565b81515f036129285760405162461bcd60e51b815260206004820181905260248201527f437265617465323a2062797465636f6465206c656e677468206973207a65726f6044820152606401610efc565b8282516020840186f590506001600160a01b0381166107835760405162461bcd60e51b815260206004820152601960248201527f437265617465323a204661696c6564206f6e206465706c6f79000000000000006044820152606401610efc565b5f61072d836001600160a01b0384165f6129b583835f9081526001919091016020526040902054151590565b6129ea57508154600181810184555f848152602080822090930184905584548482528286019093526040902091909155610730565b505f610730565b6001600160a01b0381168114612a05575f5ffd5b50565b5f60208284031215612a18575f5ffd5b8135610783816129f1565b5f5f60408385031215612a34575f5ffd5b8235612a3f816129f1565b946020939093013593505050565b5f81518084528060208401602086015e5f602082860101526020601f19601f83011685010191505092915050565b602081525f61072d6020830184612a4d565b5f60808284031215612a9d575f5ffd5b50919050565b5f5f60408385031215612ab4575f5ffd5b8235915060208301356001600160401b03811115612ad0575f5ffd5b612adc85828601612a8d565b9150509250929050565b5f5f5f60408486031215612af8575f5ffd5b8335612b03816129f1565b925060208401356001600160401b03811115612b1d575f5ffd5b8401601f81018613612b2d575f5ffd5b80356001600160401b03811115612b42575f5ffd5b866020828401011115612b53575f5ffd5b939660209190910195509293505050565b5f5f5f60608486031215612b76575f5ffd5b8335612b81816129f1565b95602085013595506040909401359392505050565b634e487b7160e01b5f52602160045260245ffd5b60068110612bba57612bba612b96565b9052565b604080825283519082018190525f9060208501906060840190835b81811015612c005783516001600160a01b0316835260209384019390920191600101612bd9565b5050838103602080860191909152855180835291810192508501905f5b81811015612c8e57825160018060a01b03815116855263ffffffff602082015116602086015263ffffffff604082015116604086015263ffffffff606082015116606086015260808101519050612c776080860182612baa565b5060a0939093019260209290920191600101612c1d565b50919695505050505050565b6020810160028310612cae57612cae612b96565b91905290565b5f5f60408385031215612cc5575f5ffd5b82356001600160e01b031981168114612a3f575f5ffd5b5f5f60408385031215612ced575f5ffd5b50508035926020909101359150565b5f60208284031215612d0c575f5ffd5b5035919050565b63ffffffff81168114612a05575f5ffd5b8035612d2f81612d13565b919050565b5f60208284031215612d44575f5ffd5b813561078381612d13565b5f5f5f60408486031215612d61575f5ffd5b8335612d6c816129f1565b925060208401356001600160401b03811115612d86575f5ffd5b8401601f81018613612d96575f5ffd5b80356001600160401b03811115612dab575f5ffd5b8660208260051b8401011115612b53575f5ffd5b5f5f60408385031215612dd0575f5ffd5b8235612ddb816129f1565b91506020830135612deb81612d13565b809150509250929050565b602081016107308284612baa565b5f5f60408385031215612e15575f5ffd5b8235612e20816129f1565b915060208301356001600160401b03811115612ad0575f5ffd5b81835281816020850137505f828201602090810191909152601f909101601f19169091010190565b602081525f612e75602083018486612e3a565b949350505050565b634e487b7160e01b5f52604160045260245ffd5b634e487b7160e01b5f52601160045260245ffd5b8082018082111561073057610730612e91565b8181038181111561073057610730612e91565b634e487b7160e01b5f52603260045260245ffd5b5f60208284031215612eef575f5ffd5b815161078381612d13565b6001600160a01b03831681526040602082018190525f90612e7590830184612a4d565b5f81518060208401855e5f93019283525090919050565b5f612e75612f428386612f1d565b84612f1d565b5f60208284031215612f58575f5ffd5b81518015158114610783575f5ffd5b5f63ffffffff821663ffffffff8103612f8257612f82612e91565b60010192915050565b5f60018201612f9c57612f9c612e91565b5060010190565b5f8235603e19833603018112612fb7575f5ffd5b9190910192915050565b5f5f8335601e19843603018112612fd6575f5ffd5b8301803591506001600160401b03821115612fef575f5ffd5b6020019150600581901b3603821315610c88575f5ffd5b5f5f8335601e1984360301811261301b575f5ffd5b83016020810192503590506001600160401b03811115613039575f5ffd5b8060051b3603821315610c88575f5ffd5b5f5f8335601e1984360301811261305f575f5ffd5b83016020810192503590506001600160401b0381111561307d575f5ffd5b803603821315610c88575f5ffd5b5f8235603e1983360301811261309f575f5ffd5b90910192915050565b5f604083016130b78384613006565b604086528281845260608701905060608260051b8801019350825f5b8381101561312d57888603605f190183526130ee828661308b565b803587526130ff602082018261304a565b915060406020890152613116604089018383612e3a565b9750505060209283019291909101906001016130d3565b505050505061313e60208401612d24565b63ffffffff81166020860152509392505050565b82516001600160a01b0316815260208084015163ffffffff1690820152606060408201525f612e7560608301846130a8565b5f60208284031215613194575f5ffd5b5051919050565b5f8383855260208501945060208460051b820101835f5b868110156131f057838303601f190188526131cd828761304a565b6131d8858284612e3a565b60209a8b019a909550939093019250506001016131b2565b50909695505050505050565b5f8383855260208501945060208460051b820101835f5b868110156131f057838303601f1901885261322e828761308b565b613238818261304a565b6040865261324a604087018284612e3a565b91505061325a602083018361304a565b9250858203602087015261326f828483612e3a565b60209b8c019b9096509490940193505050600101613213565b828152604060208201525f61329d838461308b565b608060408401526132b160c08401826130a8565b90506132c0602085018561304a565b848303603f190160608601526132d7838284612e3a565b925050506132e8604085018561304a565b848303603f190160808601526132ff838284612e3a565b925050506060840135609e19853603018112613319575f5ffd5b838203603f190160a085015284016133318180613006565b60a0845261334360a08501828461319b565b9150506133536020830183613006565b848303602086015261336683828461319b565b925050506133776040830183613006565b848303604086015261338a8382846131fc565b9250505061339b6060830183613006565b84830360608601526133ae8382846131fc565b925050506133bf608083018361304a565b925083820360808501526133d4828483612e3a565b98975050505050505050565b5f63ffffffff8216806133f5576133f5612e91565b5f19019291505056fe608060405260405161090e38038061090e83398101604081905261002291610460565b61002e82826000610035565b505061058a565b61003e83610100565b6040516001600160a01b038416907f1cf3b03a6cf19fa2baba4df148e9dcabedea7f8a5c07840e207e5c089be95d3e90600090a260008251118061007f5750805b156100fb576100f9836001600160a01b0316635c60da1b6040518163ffffffff1660e01b8152600401602060405180830381865afa1580156100c5573d6000803e3d6000fd5b505050506040513d601f19601f820116820180604052508101906100e99190610520565b836102a360201b6100291760201c565b505b505050565b610113816102cf60201b6100551760201c565b6101725760405162461bcd60e51b815260206004820152602560248201527f455243313936373a206e657720626561636f6e206973206e6f74206120636f6e6044820152641d1c9858dd60da1b60648201526084015b60405180910390fd5b6101e6816001600160a01b0316635c60da1b6040518163ffffffff1660e01b8152600401602060405180830381865afa1580156101b3573d6000803e3d6000fd5b505050506040513d601f19601f820116820180604052508101906101d79190610520565b6102cf60201b6100551760201c565b61024b5760405162461bcd60e51b815260206004820152603060248201527f455243313936373a20626561636f6e20696d706c656d656e746174696f6e206960448201526f1cc81b9bdd08184818dbdb9d1c9858dd60821b6064820152608401610169565b806102827fa3f0ad74e5423aebfd80d3ef4346578335a9a72aeaee59ff6cb3582b35133d5060001b6102de60201b6100641760201c565b80546001600160a01b0319166001600160a01b039290921691909117905550565b60606102c883836040518060600160405280602781526020016108e7602791396102e1565b9392505050565b6001600160a01b03163b151590565b90565b6060600080856001600160a01b0316856040516102fe919061053b565b600060405180830381855af49150503d8060008114610339576040519150601f19603f3d011682016040523d82523d6000602084013e61033e565b606091505b5090925090506103508683838761035a565b9695505050505050565b606083156103c65782516103bf576001600160a01b0385163b6103bf5760405162461bcd60e51b815260206004820152601d60248201527f416464726573733a2063616c6c20746f206e6f6e2d636f6e74726163740000006044820152606401610169565b50816103d0565b6103d083836103d8565b949350505050565b8151156103e85781518083602001fd5b8060405162461bcd60e51b81526004016101699190610557565b80516001600160a01b038116811461041957600080fd5b919050565b634e487b7160e01b600052604160045260246000fd5b60005b8381101561044f578181015183820152602001610437565b838111156100f95750506000910152565b6000806040838503121561047357600080fd5b61047c83610402565b60208401519092506001600160401b038082111561049957600080fd5b818501915085601f8301126104ad57600080fd5b8151818111156104bf576104bf61041e565b604051601f8201601f19908116603f011681019083821181831017156104e7576104e761041e565b8160405282815288602084870101111561050057600080fd5b610511836020830160208801610434565b80955050505050509250929050565b60006020828403121561053257600080fd5b6102c882610402565b6000825161054d818460208701610434565b9190910192915050565b6020815260008251806020840152610576816040850160208701610434565b601f01601f19169190910160400192915050565b61034e806105996000396000f3fe60806040523661001357610011610017565b005b6100115b610027610022610067565b610100565b565b606061004e83836040518060600160405280602781526020016102f260279139610124565b9392505050565b6001600160a01b03163b151590565b90565b600061009a7fa3f0ad74e5423aebfd80d3ef4346578335a9a72aeaee59ff6cb3582b35133d50546001600160a01b031690565b6001600160a01b0316635c60da1b6040518163ffffffff1660e01b8152600401602060405180830381865afa1580156100d7573d6000803e3d6000fd5b505050506040513d601f19601f820116820180604052508101906100fb9190610249565b905090565b3660008037600080366000845af43d6000803e80801561011f573d6000f35b3d6000fd5b6060600080856001600160a01b03168560405161014191906102a2565b600060405180830381855af49150503d806000811461017c576040519150601f19603f3d011682016040523d82523d6000602084013e610181565b606091505b50915091506101928683838761019c565b9695505050505050565b6060831561020d578251610206576001600160a01b0385163b6102065760405162461bcd60e51b815260206004820152601d60248201527f416464726573733a2063616c6c20746f206e6f6e2d636f6e747261637400000060448201526064015b60405180910390fd5b5081610217565b610217838361021f565b949350505050565b81511561022f5781518083602001fd5b8060405162461bcd60e51b81526004016101fd91906102be565b60006020828403121561025b57600080fd5b81516001600160a01b038116811461004e57600080fd5b60005b8381101561028d578181015183820152602001610275565b8381111561029c576000848401525b50505050565b600082516102b4818460208701610272565b9190910192915050565b60208152600082518060208401526102dd816040850160208701610272565b601f01601f1916919091016040019291505056fe416464726573733a206c6f772d6c6576656c2064656c65676174652063616c6c206661696c6564a2646970667358221220d51e81d3bc5ed20a26aeb05dce7e825c503b2061aa78628027300c8d65b9d89a64736f6c634300080c0033416464726573733a206c6f772d6c6576656c2064656c65676174652063616c6c206661696c6564a164736f6c634300081b000a",
    "linkReferences": {}
  },
  "methodIdentifiers": {
    "API_PERMISSION_TYPEHASH()": "8a7f922c",
    "appBeacon()": "8a52d0b5",
    "calculateApiPermissionDigestHash(bytes4,uint256)": "9690b7e7",
    "calculateAppId(address,bytes32)": "36b18874",
    "computeAVSRegistrar()": "ef6d92c6",
    "computeOperator()": "3fc4cbfd",
    "confirmUpgrade(address)": "bbc1c204",
    "createApp(bytes32,(((bytes32,string)[],uint32),bytes,bytes,(string[],string[],(string,string)[],(string,string)[],string)))": "5e92a19f",
    "createAppWithIsolatedBilling(bytes32,(((bytes32,string)[],uint32),bytes,bytes,(string[],string[],(string,string)[],(string,string)[],string)))": "b7fe2169",
    "createEmptyApp(bytes32)": "ae7001b3",
    "createEmptyAppWithIsolatedBilling(bytes32)": "f6e842d3",
    "domainSeparator()": "f698da25",
    "getActiveAppCount(address)": "0c2199fb",
    "getAppCreator(address)": "67962d48",
    "getAppLatestReleaseBlockNumber(address)": "9ffbdce6",
    "getAppOperatorSetId(address)": "6eb2099f",
    "getAppPendingReleaseBlockNumber(address)": "c3478d14",
    "getAppStatus(address)": "d5aae178",
    "getApps(uint256,uint256)": "a37e7e44",
    "getAppsByBillingAccount(address,uint256,uint256)": "dbb1c4e1",
    "getAppsByCreator(address,uint256,uint256)": "8099ef2e",
    "getAppsByDeveloper(address,uint256,uint256)": "f36618ac",
    "getBillingAccount(address)": "3e032115",
    "getBillingType(address)": "85e9babb",
    "getMaxActiveAppsPerUser(address)": "40f70a9e",
    "globalActiveAppCount()": "a8aa2bd3",
    "initialize(address)": "c4d66de8",
    "maxGlobalActiveApps()": "a46530a2",
    "permissionController()": "4657e26a",
    "releaseManager()": "0d78573e",
    "setMaxActiveAppsPerUser(address,uint32)": "d49fec2b",
    "setMaxGlobalActiveApps(uint32)": "b438c141",
    "startApp(address)": "4dd8ef81",
    "stopApp(address)": "e70b81b1",
    "suspend(address,address[])": "cb1e6ff7",
    "terminateApp(address)": "90e2196b",
    "terminateAppByAdmin(address)": "d66f7771",
    "updateAppMetadataURI(address,string)": "65aa9a65",
    "upgradeApp(address,(((bytes32,string)[],uint32),bytes,bytes,(string[],string[],(string,string)[],(string,string)[],string)))": "e71ad404",
    "version()": "54fd4d50"
  },
  "id": 119
}