{
  "abi": [
    {
      "type": "constructor",
      "inputs": [
        {
          "name": "_version",
          "type": "string",
          "internalType": "string"
        },
        {
          "name": "_permissionController",
          "type": "address",
          "internalType": "contract IPermissionController"
        },
        {
          "name": "_releaseManager",
          "type": "address",
          "internalType": "contract IReleaseManager"
        },
        {
          "name": "_computeAVSRegistrar",
          "type": "address",
          "internalType": "contract IComputeAVSRegistrar"
        },
        {
          "name": "_computeOperator",
          "type": "address",
          "internalType": "contract IComputeOperator"
        },
        {
          "name": "_appBeacon",
          "type": "address",
          "internalType": "contract IBeacon"
        }
      ],
      "stateMutability": "nonpayable"
    },
    {
      "type": "function",
      "name": "API_PERMISSION_TYPEHASH",
      "inputs": [],
      "outputs": [
        {
          "name": "",
          "type": "bytes32",
          "internalType": "bytes32"
        }
      ],
      "stateMutability": "view"
    },
    {
      "type": "function",
      "name": "appBeacon",
      "inputs": [],
      "outputs": [
        {
          "name": "",
          "type": "address",
          "internalType": "contract IBeacon"
        }
      ],
      "stateMutability": "view"
    },
    {
      "type": "function",
      "name": "calculateApiPermissionDigestHash",
      "inputs": [
        {
          "name": "permission",
          "type": "bytes4",
          "internalType": "bytes4"
        },
        {
          "name": "expiry",
          "type": "uint256",
          "internalType": "uint256"
        }
      ],
      "outputs": [
        {
          "name": "",
          "type": "bytes32",
          "internalType": "bytes32"
        }
      ],
      "stateMutability": "view"
    },
    {
      "type": "function",
      "name": "calculateAppId",
      "inputs": [
        {
          "name": "deployer",
          "type": "address",
          "internalType": "address"
        },
        {
          "name": "salt",
          "type": "bytes32",
          "internalType": "bytes32"
        }
      ],
      "outputs": [
        {
          "name": "",
          "type": "address",
          "internalType": "contract IApp"
        }
      ],
      "stateMutability": "view"
    },
    {
      "type": "function",
      "name": "computeAVSRegistrar",
      "inputs": [],
      "outputs": [
        {
          "name": "",
          "type": "address",
          "internalType": "contract IComputeAVSRegistrar"
        }
      ],
      "stateMutability": "view"
    },
    {
      "type": "function",
      "name": "computeOperator",
      "inputs": [],
      "outputs": [
        {
          "name": "",
          "type": "address",
          "internalType": "contract IComputeOperator"
        }
      ],
      "stateMutability": "view"
    },
    {
      "type": "function",
      "name": "createApp",
      "inputs": [
        {
          "name": "salt",
          "type": "bytes32",
          "internalType": "bytes32"
        },
        {
          "name": "release",
          "type": "tuple",
          "internalType": "struct IAppController.Release",
          "components": [
            {
              "name": "rmsRelease",
              "type": "tuple",
              "internalType": "struct IReleaseManagerTypes.Release",
              "components": [
                {
                  "name": "artifacts",
                  "type": "tuple[]",
                  "internalType": "struct IReleaseManagerTypes.Artifact[]",
                  "components": [
                    {
                      "name": "digest",
                      "type": "bytes32",
                      "internalType": "bytes32"
                    },
                    {
                      "name": "registry",
                      "type": "string",
                      "internalType": "string"
                    }
                  ]
                },
                {
                  "name": "upgradeByTime",
                  "type": "uint32",
                  "internalType": "uint32"
                }
              ]
            },
            {
              "name": "publicEnv",
              "type": "bytes",
              "internalType": "bytes"
            },
            {
              "name": "encryptedEnv",
              "type": "bytes",
              "internalType": "bytes"
            }
          ]
        }
      ],
      "outputs": [
        {
          "name": "app",
          "type": "address",
          "internalType": "contract IApp"
        }
      ],
      "stateMutability": "nonpayable"
    },
    {
      "type": "function",
      "name": "domainSeparator",
      "inputs": [],
      "outputs": [
        {
          "name": "",
          "type": "bytes32",
          "internalType": "bytes32"
        }
      ],
      "stateMutability": "view"
    },
    {
      "type": "function",
      "name": "getActiveAppCount",
      "inputs": [
        {
          "name": "user",
          "type": "address",
          "internalType": "address"
        }
      ],
      "outputs": [
        {
          "name": "",
          "type": "uint32",
          "internalType": "uint32"
        }
      ],
      "stateMutability": "view"
    },
    {
      "type": "function",
      "name": "getAppCreator",
      "inputs": [
        {
          "name": "app",
          "type": "address",
          "internalType": "contract IApp"
        }
      ],
      "outputs": [
        {
          "name": "",
          "type": "address",
          "internalType": "address"
        }
      ],
      "stateMutability": "view"
    },
    {
      "type": "function",
      "name": "getAppLatestReleaseBlockNumber",
      "inputs": [
        {
          "name": "app",
          "type": "address",
          "internalType": "contract IApp"
        }
      ],
      "outputs": [
        {
          "name": "",
          "type": "uint32",
          "internalType": "uint32"
        }
      ],
      "stateMutability": "view"
    },
    {
      "type": "function",
      "name": "getAppOperatorSetId",
      "inputs": [
        {
          "name": "app",
          "type": "address",
          "internalType": "contract IApp"
        }
      ],
      "outputs": [
        {
          "name": "",
          "type": "uint32",
          "internalType": "uint32"
        }
      ],
      "stateMutability": "view"
    },
    {
      "type": "function",
      "name": "getAppStatus",
      "inputs": [
        {
          "name": "app",
          "type": "address",
          "internalType": "contract IApp"
        }
      ],
      "outputs": [
        {
          "name": "",
          "type": "uint8",
          "internalType": "enum IAppController.AppStatus"
        }
      ],
      "stateMutability": "view"
    },
    {
      "type": "function",
      "name": "getApps",
      "inputs": [
        {
          "name": "offset",
          "type": "uint256",
          "internalType": "uint256"
        },
        {
          "name": "limit",
          "type": "uint256",
          "internalType": "uint256"
        }
      ],
      "outputs": [
        {
          "name": "apps",
          "type": "address[]",
          "internalType": "contract IApp[]"
        },
        {
          "name": "appConfigsMem",
          "type": "tuple[]",
          "internalType": "struct IAppController.AppConfig[]",
          "components": [
            {
              "name": "creator",
              "type": "address",
              "internalType": "address"
            },
            {
              "name": "operatorSetId",
              "type": "uint32",
              "internalType": "uint32"
            },
            {
              "name": "latestReleaseBlockNumber",
              "type": "uint32",
              "internalType": "uint32"
            },
            {
              "name": "status",
              "type": "uint8",
              "internalType": "enum IAppController.AppStatus"
            }
          ]
        }
      ],
      "stateMutability": "view"
    },
    {
      "type": "function",
      "name": "getAppsByCreator",
      "inputs": [
        {
          "name": "creator",
          "type": "address",
          "internalType": "address"
        },
        {
          "name": "offset",
          "type": "uint256",
          "internalType": "uint256"
        },
        {
          "name": "limit",
          "type": "uint256",
          "internalType": "uint256"
        }
      ],
      "outputs": [
        {
          "name": "apps",
          "type": "address[]",
          "internalType": "contract IApp[]"
        },
        {
          "name": "appConfigsMem",
          "type": "tuple[]",
          "internalType": "struct IAppController.AppConfig[]",
          "components": [
            {
              "name": "creator",
              "type": "address",
              "internalType": "address"
            },
            {
              "name": "operatorSetId",
              "type": "uint32",
              "internalType": "uint32"
            },
            {
              "name": "latestReleaseBlockNumber",
              "type": "uint32",
              "internalType": "uint32"
            },
            {
              "name": "status",
              "type": "uint8",
              "internalType": "enum IAppController.AppStatus"
            }
          ]
        }
      ],
      "stateMutability": "view"
    },
    {
      "type": "function",
      "name": "getAppsByDeveloper",
      "inputs": [
        {
          "name": "developer",
          "type": "address",
          "internalType": "address"
        },
        {
          "name": "offset",
          "type": "uint256",
          "internalType": "uint256"
        },
        {
          "name": "limit",
          "type": "uint256",
          "internalType": "uint256"
        }
      ],
      "outputs": [
        {
          "name": "apps",
          "type": "address[]",
          "internalType": "contract IApp[]"
        },
        {
          "name": "appConfigsMem",
          "type": "tuple[]",
          "internalType": "struct IAppController.AppConfig[]",
          "components": [
            {
              "name": "creator",
              "type": "address",
              "internalType": "address"
            },
            {
              "name": "operatorSetId",
              "type": "uint32",
              "internalType": "uint32"
            },
            {
              "name": "latestReleaseBlockNumber",
              "type": "uint32",
              "internalType": "uint32"
            },
            {
              "name": "status",
              "type": "uint8",
              "internalType": "enum IAppController.AppStatus"
            }
          ]
        }
      ],
      "stateMutability": "view"
    },
    {
      "type": "function",
      "name": "getMaxActiveAppsPerUser",
      "inputs": [
        {
          "name": "user",
          "type": "address",
          "internalType": "address"
        }
      ],
      "outputs": [
        {
          "name": "",
          "type": "uint32",
          "internalType": "uint32"
        }
      ],
      "stateMutability": "view"
    },
    {
      "type": "function",
      "name": "globalActiveAppCount",
      "inputs": [],
      "outputs": [
        {
          "name": "",
          "type": "uint32",
          "internalType": "uint32"
        }
      ],
      "stateMutability": "view"
    },
    {
      "type": "function",
      "name": "initialize",
      "inputs": [
        {
          "name": "admin",
          "type": "address",
          "internalType": "address"
        }
      ],
      "outputs": [],
      "stateMutability": "nonpayable"
    },
    {
      "type": "function",
      "name": "maxGlobalActiveApps",
      "inputs": [],
      "outputs": [
        {
          "name": "",
          "type": "uint32",
          "internalType": "uint32"
        }
      ],
      "stateMutability": "view"
    },
    {
      "type": "function",
      "name": "permissionController",
      "inputs": [],
      "outputs": [
        {
          "name": "",
          "type": "address",
          "internalType": "contract IPermissionController"
        }
      ],
      "stateMutability": "view"
    },
    {
      "type": "function",
      "name": "releaseManager",
      "inputs": [],
      "outputs": [
        {
          "name": "",
          "type": "address",
          "internalType": "contract IReleaseManager"
        }
      ],
      "stateMutability": "view"
    },
    {
      "type": "function",
      "name": "setMaxActiveAppsPerUser",
      "inputs": [
        {
          "name": "user",
          "type": "address",
          "internalType": "address"
        },
        {
          "name": "limit",
          "type": "uint32",
          "internalType": "uint32"
        }
      ],
      "outputs": [],
      "stateMutability": "nonpayable"
    },
    {
      "type": "function",
      "name": "setMaxGlobalActiveApps",
      "inputs": [
        {
          "name": "limit",
          "type": "uint32",
          "internalType": "uint32"
        }
      ],
      "outputs": [],
      "stateMutability": "nonpayable"
    },
    {
      "type": "function",
      "name": "startApp",
      "inputs": [
        {
          "name": "app",
          "type": "address",
          "internalType": "contract IApp"
        }
      ],
      "outputs": [],
      "stateMutability": "nonpayable"
    },
    {
      "type": "function",
      "name": "stopApp",
      "inputs": [
        {
          "name": "app",
          "type": "address",
          "internalType": "contract IApp"
        }
      ],
      "outputs": [],
      "stateMutability": "nonpayable"
    },
    {
      "type": "function",
      "name": "suspend",
      "inputs": [
        {
          "name": "account",
          "type": "address",
          "internalType": "address"
        },
        {
          "name": "apps",
          "type": "address[]",
          "internalType": "contract IApp[]"
        }
      ],
      "outputs": [],
      "stateMutability": "nonpayable"
    },
    {
      "type": "function",
      "name": "terminateApp",
      "inputs": [
        {
          "name": "app",
          "type": "address",
          "internalType": "contract IApp"
        }
      ],
      "outputs": [],
      "stateMutability": "nonpayable"
    },
    {
      "type": "function",
      "name": "terminateAppByAdmin",
      "inputs": [
        {
          "name": "app",
          "type": "address",
          "internalType": "contract IApp"
        }
      ],
      "outputs": [],
      "stateMutability": "nonpayable"
    },
    {
      "type": "function",
      "name": "updateAppMetadataURI",
      "inputs": [
        {
          "name": "app",
          "type": "address",
          "internalType": "contract IApp"
        },
        {
          "name": "metadataURI",
          "type": "string",
          "internalType": "string"
        }
      ],
      "outputs": [],
      "stateMutability": "nonpayable"
    },
    {
      "type": "function",
      "name": "upgradeApp",
      "inputs": [
        {
          "name": "app",
          "type": "address",
          "internalType": "contract IApp"
        },
        {
          "name": "release",
          "type": "tuple",
          "internalType": "struct IAppController.Release",
          "components": [
            {
              "name": "rmsRelease",
              "type": "tuple",
              "internalType": "struct IReleaseManagerTypes.Release",
              "components": [
                {
                  "name": "artifacts",
                  "type": "tuple[]",
                  "internalType": "struct IReleaseManagerTypes.Artifact[]",
                  "components": [
                    {
                      "name": "digest",
                      "type": "bytes32",
                      "internalType": "bytes32"
                    },
                    {
                      "name": "registry",
                      "type": "string",
                      "internalType": "string"
                    }
                  ]
                },
                {
                  "name": "upgradeByTime",
                  "type": "uint32",
                  "internalType": "uint32"
                }
              ]
            },
            {
              "name": "publicEnv",
              "type": "bytes",
              "internalType": "bytes"
            },
            {
              "name": "encryptedEnv",
              "type": "bytes",
              "internalType": "bytes"
            }
          ]
        }
      ],
      "outputs": [
        {
          "name": "",
          "type": "uint256",
          "internalType": "uint256"
        }
      ],
      "stateMutability": "nonpayable"
    },
    {
      "type": "function",
      "name": "version",
      "inputs": [],
      "outputs": [
        {
          "name": "",
          "type": "string",
          "internalType": "string"
        }
      ],
      "stateMutability": "view"
    },
    {
      "type": "event",
      "name": "AppCreated",
      "inputs": [
        {
          "name": "creator",
          "type": "address",
          "indexed": true,
          "internalType": "address"
        },
        {
          "name": "app",
          "type": "address",
          "indexed": true,
          "internalType": "contract IApp"
        },
        {
          "name": "operatorSetId",
          "type": "uint32",
          "indexed": false,
          "internalType": "uint32"
        }
      ],
      "anonymous": false
    },
    {
      "type": "event",
      "name": "AppMetadataURIUpdated",
      "inputs": [
        {
          "name": "app",
          "type": "address",
          "indexed": true,
          "internalType": "contract IApp"
        },
        {
          "name": "metadataURI",
          "type": "string",
          "indexed": false,
          "internalType": "string"
        }
      ],
      "anonymous": false
    },
    {
      "type": "event",
      "name": "AppStarted",
      "inputs": [
        {
          "name": "app",
          "type": "address",
          "indexed": true,
          "internalType": "contract IApp"
        }
      ],
      "anonymous": false
    },
    {
      "type": "event",
      "name": "AppStopped",
      "inputs": [
        {
          "name": "app",
          "type": "address",
          "indexed": true,
          "internalType": "contract IApp"
        }
      ],
      "anonymous": false
    },
    {
      "type": "event",
      "name": "AppSuspended",
      "inputs": [
        {
          "name": "app",
          "type": "address",
          "indexed": true,
          "internalType": "contract IApp"
        }
      ],
      "anonymous": false
    },
    {
      "type": "event",
      "name": "AppTerminated",
      "inputs": [
        {
          "name": "app",
          "type": "address",
          "indexed": true,
          "internalType": "contract IApp"
        }
      ],
      "anonymous": false
    },
    {
      "type": "event",
      "name": "AppTerminatedByAdmin",
      "inputs": [
        {
          "name": "app",
          "type": "address",
          "indexed": true,
          "internalType": "contract IApp"
        }
      ],
      "anonymous": false
    },
    {
      "type": "event",
      "name": "AppUpgraded",
      "inputs": [
        {
          "name": "app",
          "type": "address",
          "indexed": true,
          "internalType": "contract IApp"
        },
        {
          "name": "rmsReleaseId",
          "type": "uint256",
          "indexed": false,
          "internalType": "uint256"
        },
        {
          "name": "release",
          "type": "tuple",
          "indexed": false,
          "internalType": "struct IAppController.Release",
          "components": [
            {
              "name": "rmsRelease",
              "type": "tuple",
              "internalType": "struct IReleaseManagerTypes.Release",
              "components": [
                {
                  "name": "artifacts",
                  "type": "tuple[]",
                  "internalType": "struct IReleaseManagerTypes.Artifact[]",
                  "components": [
                    {
                      "name": "digest",
                      "type": "bytes32",
                      "internalType": "bytes32"
                    },
                    {
                      "name": "registry",
                      "type": "string",
                      "internalType": "string"
                    }
                  ]
                },
                {
                  "name": "upgradeByTime",
                  "type": "uint32",
                  "internalType": "uint32"
                }
              ]
            },
            {
              "name": "publicEnv",
              "type": "bytes",
              "internalType": "bytes"
            },
            {
              "name": "encryptedEnv",
              "type": "bytes",
              "internalType": "bytes"
            }
          ]
        }
      ],
      "anonymous": false
    },
    {
      "type": "event",
      "name": "GlobalMaxActiveAppsSet",
      "inputs": [
        {
          "name": "limit",
          "type": "uint32",
          "indexed": false,
          "internalType": "uint32"
        }
      ],
      "anonymous": false
    },
    {
      "type": "event",
      "name": "Initialized",
      "inputs": [
        {
          "name": "version",
          "type": "uint8",
          "indexed": false,
          "internalType": "uint8"
        }
      ],
      "anonymous": false
    },
    {
      "type": "event",
      "name": "MaxActiveAppsSet",
      "inputs": [
        {
          "name": "user",
          "type": "address",
          "indexed": true,
          "internalType": "address"
        },
        {
          "name": "limit",
          "type": "uint32",
          "indexed": false,
          "internalType": "uint32"
        }
      ],
      "anonymous": false
    },
    {
      "type": "error",
      "name": "AccountHasActiveApps",
      "inputs": []
    },
    {
      "type": "error",
      "name": "AppAlreadyExists",
      "inputs": []
    },
    {
      "type": "error",
      "name": "AppDoesNotExist",
      "inputs": []
    },
    {
      "type": "error",
      "name": "GlobalMaxActiveAppsExceeded",
      "inputs": []
    },
    {
      "type": "error",
      "name": "InvalidAppStatus",
      "inputs": []
    },
    {
      "type": "error",
      "name": "InvalidPermissions",
      "inputs": []
    },
    {
      "type": "error",
      "name": "InvalidReleaseMetadataURI",
      "inputs": []
    },
    {
      "type": "error",
      "name": "InvalidShortString",
      "inputs": []
    },
    {
      "type": "error",
      "name": "InvalidSignature",
      "inputs": []
    },
    {
      "type": "error",
      "name": "MaxActiveAppsExceeded",
      "inputs": []
    },
    {
      "type": "error",
      "name": "MoreThanOneArtifact",
      "inputs": []
    },
    {
      "type": "error",
      "name": "SignatureExpired",
      "inputs": []
    },
    {
      "type": "error",
      "name": "StringTooLong",
      "inputs": [
        {
          "name": "str",
          "type": "string",
          "internalType": "string"
        }
      ]
    }
  ],
  "bytecode": {
    "object": "0x610140604052348015610010575f5ffd5b50604051615f8e380380615f8e8339818101604052810190610032919061053c565b83828483888a806100488161017560201b60201c565b6080818152505050508073ffffffffffffffffffffffffffffffffffffffff1660a08173ffffffffffffffffffffffffffffffffffffffff1681525050508373ffffffffffffffffffffffffffffffffffffffff1660c08173ffffffffffffffffffffffffffffffffffffffff16815250508273ffffffffffffffffffffffffffffffffffffffff1660e08173ffffffffffffffffffffffffffffffffffffffff16815250508173ffffffffffffffffffffffffffffffffffffffff166101008173ffffffffffffffffffffffffffffffffffffffff16815250508073ffffffffffffffffffffffffffffffffffffffff166101208173ffffffffffffffffffffffffffffffffffffffff16815250505050505061016a6101da60201b60201c565b5050505050506107bd565b5f5f829050601f815111156101c157826040517f305a27a90000000000000000000000000000000000000000000000000000000081526004016101b89190610633565b60405180910390fd5b8051816101cd90610695565b5f1c175f1b915050919050565b5f60019054906101000a900460ff1615610229576040517f08c379a00000000000000000000000000000000000000000000000000000000081526004016102209061076b565b60405180910390fd5b60ff80165f5f9054906101000a900460ff1660ff16146102965760ff5f5f6101000a81548160ff021916908360ff1602179055507f7f26b83ff96e1f2b6a682f133852f6798a09c465da95921460cefb384740249860ff60405161028d91906107a4565b60405180910390a15b565b5f604051905090565b5f5ffd5b5f5ffd5b5f5ffd5b5f5ffd5b5f601f19601f8301169050919050565b7f4e487b71000000000000000000000000000000000000000000000000000000005f52604160045260245ffd5b6102f7826102b1565b810181811067ffffffffffffffff82111715610316576103156102c1565b5b80604052505050565b5f610328610298565b905061033482826102ee565b919050565b5f67ffffffffffffffff821115610353576103526102c1565b5b61035c826102b1565b9050602081019050919050565b8281835e5f83830152505050565b5f61038961038484610339565b61031f565b9050828152602081018484840111156103a5576103a46102ad565b5b6103b0848285610369565b509392505050565b5f82601f8301126103cc576103cb6102a9565b5b81516103dc848260208601610377565b91505092915050565b5f73ffffffffffffffffffffffffffffffffffffffff82169050919050565b5f61040e826103e5565b9050919050565b5f61041f82610404565b9050919050565b61042f81610415565b8114610439575f5ffd5b50565b5f8151905061044a81610426565b92915050565b5f61045a82610404565b9050919050565b61046a81610450565b8114610474575f5ffd5b50565b5f8151905061048581610461565b92915050565b5f61049582610404565b9050919050565b6104a58161048b565b81146104af575f5ffd5b50565b5f815190506104c08161049c565b92915050565b5f6104d082610404565b9050919050565b6104e0816104c6565b81146104ea575f5ffd5b50565b5f815190506104fb816104d7565b92915050565b5f61050b82610404565b9050919050565b61051b81610501565b8114610525575f5ffd5b50565b5f8151905061053681610512565b92915050565b5f5f5f5f5f5f60c08789031215610556576105556102a1565b5b5f87015167ffffffffffffffff811115610573576105726102a5565b5b61057f89828a016103b8565b965050602061059089828a0161043c565b95505060406105a189828a01610477565b94505060606105b289828a016104b2565b93505060806105c389828a016104ed565b92505060a06105d489828a01610528565b9150509295509295509295565b5f81519050919050565b5f82825260208201905092915050565b5f610605826105e1565b61060f81856105eb565b935061061f818560208601610369565b610628816102b1565b840191505092915050565b5f6020820190508181035f83015261064b81846105fb565b905092915050565b5f81519050919050565b5f819050602082019050919050565b5f819050919050565b5f610680825161066c565b80915050919050565b5f82821b905092915050565b5f61069f82610653565b826106a98461065d565b90506106b481610675565b925060208210156106f4576106ef7fffffffffffffffffffffffffffffffffffffffffffffffffffffffffffffffff83602003600802610689565b831692505b5050919050565b7f496e697469616c697a61626c653a20636f6e747261637420697320696e6974695f8201527f616c697a696e6700000000000000000000000000000000000000000000000000602082015250565b5f6107556027836105eb565b9150610760826106fb565b604082019050919050565b5f6020820190508181035f83015261078281610749565b9050919050565b5f60ff82169050919050565b61079e81610789565b82525050565b5f6020820190506107b75f830184610795565b92915050565b60805160a05160c05160e05161010051610120516156fe6108905f395f81816109c4015261217a01525f8181610f3a015281816110110152818161145001528181611651015281816116e101528181611767015281816117ae0152818161204a0152612d8401525f8181610736015281816117f4015261185f01525f81816106e701528181610fca0152612d3d01525f81816107b101528181611414015281816114ba01528181611542015281816115c80152818161226d01526130c401525f8181610827015261316c01526156fe5ff3fe608060405234801561000f575f5ffd5b50600436106101ee575f3560e01c80639ffbdce61161010d578063d49fec2b116100a0578063e70b81b11161006f578063e70b81b114610604578063ef6d92c614610620578063f36618ac1461063e578063f698da251461066f576101ee565b8063d49fec2b1461056c578063d5aae17814610588578063d66f7771146105b8578063d80a956b146105d4576101ee565b8063a8aa2bd3116100dc578063a8aa2bd3146104fa578063b438c14114610518578063c4d66de814610534578063cb1e6ff714610550576101ee565b80639ffbdce61461044b578063a37e7e441461047b578063a46530a2146104ac578063a60daa8f146104ca576101ee565b806365aa9a65116101855780638a52d0b5116101545780638a52d0b5146103c35780638a7f922c146103e157806390e2196b146103ff5780639690b7e71461041b576101ee565b806365aa9a651461031657806367962d48146103325780636eb2099f146103625780638099ef2e14610392576101ee565b806340f70a9e116101c157806340f70a9e1461028e5780634657e26a146102be5780634dd8ef81146102dc57806354fd4d50146102f8576101ee565b80630c2199fb146101f25780630d78573e1461022257806336b18874146102405780633fc4cbfd14610270575b5f5ffd5b61020c600480360381019061020791906134e9565b61068d565b6040516102199190613532565b60405180910390f35b61022a6106e5565b60405161023791906135a6565b60405180910390f35b61025a600480360381019061025591906135f2565b610709565b6040516102679190613650565b60405180910390f35b610278610734565b6040516102859190613689565b60405180910390f35b6102a860048036038101906102a391906134e9565b610758565b6040516102b59190613532565b60405180910390f35b6102c66107af565b6040516102d391906136c2565b60405180910390f35b6102f660048036038101906102f19190613716565b6107d3565b005b610300610820565b60405161030d91906137b1565b60405180910390f35b610330600480360381019061032b9190613832565b610850565b005b61034c60048036038101906103479190613716565b6108e6565b604051610359919061389e565b60405180910390f35b61037c60048036038101906103779190613716565b61094d565b6040516103899190613532565b60405180910390f35b6103ac60048036038101906103a791906138ea565b6109a5565b6040516103ba929190613b7d565b60405180910390f35b6103cb6109c2565b6040516103d89190613bd2565b60405180910390f35b6103e96109e6565b6040516103f69190613bfa565b60405180910390f35b61041960048036038101906104149190613716565b610a0a565b005b61043560048036038101906104309190613c68565b610ae4565b6040516104429190613bfa565b60405180910390f35b61046560048036038101906104609190613716565b610b40565b6040516104729190613532565b60405180910390f35b61049560048036038101906104909190613ca6565b610b98565b6040516104a3929190613b7d565b60405180910390f35b6104b4610f18565b6040516104c19190613532565b60405180910390f35b6104e460048036038101906104df9190613d06565b610f2d565b6040516104f19190613650565b60405180910390f35b61050261128a565b60405161050f9190613532565b60405180910390f35b610532600480360381019061052d9190613d8a565b6112a0565b005b61054e600480360381019061054991906134e9565b61133b565b005b61056a60048036038101906105659190613e0a565b611940565b005b61058660048036038101906105819190613e67565b611c44565b005b6105a2600480360381019061059d9190613716565b611c93565b6040516105af9190613eb4565b60405180910390f35b6105d260048036038101906105cd9190613716565b611ce8565b005b6105ee60048036038101906105e99190613ecd565b611e05565b6040516105fb9190613f36565b60405180910390f35b61061e60048036038101906106199190613716565b611ee6565b005b610628612048565b6040516106359190613f6f565b60405180910390f35b610658600480360381019061065391906138ea565b61206c565b604051610666929190613b7d565b60405180910390f35b610677612089565b6040516106849190613bfa565b60405180910390f35b5f60045f8373ffffffffffffffffffffffffffffffffffffffff1673ffffffffffffffffffffffffffffffffffffffff1681526020019081526020015f205f0160049054906101000a900463ffffffff169050919050565b7f000000000000000000000000000000000000000000000000000000000000000081565b5f61072c6107178484612128565b6107208561215a565b80519060200120612256565b905092915050565b7f000000000000000000000000000000000000000000000000000000000000000081565b5f60045f8373ffffffffffffffffffffffffffffffffffffffff1673ffffffffffffffffffffffffffffffffffffffff1681526020019081526020015f205f015f9054906101000a900463ffffffff169050919050565b7f000000000000000000000000000000000000000000000000000000000000000081565b806107dd8161226a565b610813576040517f932d94f700000000000000000000000000000000000000000000000000000000815260040160405180910390fd5b61081c82612334565b5050565b606061084b7f00000000000000000000000000000000000000000000000000000000000000006124bc565b905090565b8261085a8161226a565b610890576040517f932d94f700000000000000000000000000000000000000000000000000000000815260040160405180910390fd5b8373ffffffffffffffffffffffffffffffffffffffff167fc874c4e2852c19bd03d42a5232ce93e85f2da325dddac46c2472043b7f0d7e8d84846040516108d8929190613fc2565b60405180910390a250505050565b5f60035f8373ffffffffffffffffffffffffffffffffffffffff1673ffffffffffffffffffffffffffffffffffffffff1681526020019081526020015f205f015f9054906101000a900473ffffffffffffffffffffffffffffffffffffffff169050919050565b5f60035f8373ffffffffffffffffffffffffffffffffffffffff1673ffffffffffffffffffffffffffffffffffffffff1681526020019081526020015f205f0160149054906101000a900463ffffffff169050919050565b6060806109b661252e8686866125c4565b91509150935093915050565b7f000000000000000000000000000000000000000000000000000000000000000081565b7facd45e8bd36cea31aec6cd4552b994e6bfbda89766b3171349ace038b1b8267f81565b80610a148161226a565b610a4a576040517f932d94f700000000000000000000000000000000000000000000000000000000815260040160405180910390fd5b81610aa060035f8373ffffffffffffffffffffffffffffffffffffffff1673ffffffffffffffffffffffffffffffffffffffff1681526020019081526020015f205f01601c9054906101000a900460ff1661289e565b610ad6576040517f609749e200000000000000000000000000000000000000000000000000000000815260040160405180910390fd5b610adf836128fd565b505050565b5f610b387facd45e8bd36cea31aec6cd4552b994e6bfbda89766b3171349ace038b1b8267f8484604051602001610b1d93929190613ff3565b604051602081830303815290604052805190602001206129b3565b905092915050565b5f60035f8373ffffffffffffffffffffffffffffffffffffffff1673ffffffffffffffffffffffffffffffffffffffff1681526020019081526020015f205f0160189054906101000a900463ffffffff169050919050565b6060805f610ba660016129eb565b9050808510610c56575f67ffffffffffffffff811115610bc957610bc8614028565b5b604051908082528060200260200182016040528015610bf75781602001602082028036833780820191505090505b505f67ffffffffffffffff811115610c1257610c11614028565b5b604051908082528060200260200182016040528015610c4b57816020015b610c3861342f565b815260200190600190039081610c305790505b509250925050610f11565b5f818587610c649190614082565b11610c7a578486610c759190614082565b610c7c565b815b90505f8682610c8b91906140b5565b90508067ffffffffffffffff811115610ca757610ca6614028565b5b604051908082528060200260200182016040528015610cd55781602001602082028036833780820191505090505b5094508067ffffffffffffffff811115610cf257610cf1614028565b5b604051908082528060200260200182016040528015610d2b57816020015b610d1861342f565b815260200190600190039081610d105790505b5093505f5f90505b81811015610f0c57610d5a8189610d4a9190614082565b60016129fe90919063ffffffff16565b868281518110610d6d57610d6c6140e8565b5b602002602001019073ffffffffffffffffffffffffffffffffffffffff16908173ffffffffffffffffffffffffffffffffffffffff168152505060035f878381518110610dbd57610dbc6140e8565b5b602002602001015173ffffffffffffffffffffffffffffffffffffffff1673ffffffffffffffffffffffffffffffffffffffff1681526020019081526020015f206040518060800160405290815f82015f9054906101000a900473ffffffffffffffffffffffffffffffffffffffff1673ffffffffffffffffffffffffffffffffffffffff1673ffffffffffffffffffffffffffffffffffffffff1681526020015f820160149054906101000a900463ffffffff1663ffffffff1663ffffffff1681526020015f820160189054906101000a900463ffffffff1663ffffffff1663ffffffff1681526020015f8201601c9054906101000a900460ff166004811115610ecb57610eca613a38565b5b6004811115610edd57610edc613a38565b5b81525050858281518110610ef457610ef36140e8565b5b60200260200101819052508080600101915050610d33565b505050505b9250929050565b60055f9054906101000a900463ffffffff1681565b5f610f3733612a15565b5f7f000000000000000000000000000000000000000000000000000000000000000073ffffffffffffffffffffffffffffffffffffffff16633a10eef76040518163ffffffff1660e01b81526004016020604051808303815f875af1158015610fa2573d5f5f3e3d5ffd5b505050506040513d601f19601f82011682018060405250810190610fc69190614129565b90507f000000000000000000000000000000000000000000000000000000000000000073ffffffffffffffffffffffffffffffffffffffff16634840a67c60405180604001604052807f000000000000000000000000000000000000000000000000000000000000000073ffffffffffffffffffffffffffffffffffffffff1681526020018463ffffffff168152506040518263ffffffff1660e01b815260040161107191906141cb565b5f604051808303815f87803b158015611088575f5ffd5b505af115801561109a573d5f5f3e3d5ffd5b505050506110ba5f6110ac3387612128565b6110b53361215a565b612bae565b91508060035f8473ffffffffffffffffffffffffffffffffffffffff1673ffffffffffffffffffffffffffffffffffffffff1681526020019081526020015f205f0160146101000a81548163ffffffff021916908363ffffffff1602179055505f60035f8473ffffffffffffffffffffffffffffffffffffffff1673ffffffffffffffffffffffffffffffffffffffff1681526020019081526020015f205f0160186101000a81548163ffffffff021916908363ffffffff1602179055503360035f8473ffffffffffffffffffffffffffffffffffffffff1673ffffffffffffffffffffffffffffffffffffffff1681526020019081526020015f205f015f6101000a81548173ffffffffffffffffffffffffffffffffffffffff021916908373ffffffffffffffffffffffffffffffffffffffff160217905550611209826001612cb590919063ffffffff16565b508173ffffffffffffffffffffffffffffffffffffffff163373ffffffffffffffffffffffffffffffffffffffff167fe9e6e5409b80e2dab7d38194fb370b2e8045a1af28177b94ddcf19d2495d7589836040516112679190613532565b60405180910390a36112798284612ce2565b5061128382612334565b5092915050565b600560049054906101000a900463ffffffff1681565b306112aa8161226a565b6112e0576040517f932d94f700000000000000000000000000000000000000000000000000000000815260040160405180910390fd5b8160055f6101000a81548163ffffffff021916908363ffffffff1602179055507fc3c99803ad2e80be7382791ca0b23147a94739b9e66a656b9c8c47f9d69634148260405161132f9190613532565b60405180910390a15050565b5f5f60019054906101000a900460ff1615905080801561136b575060015f5f9054906101000a900460ff1660ff16105b80611398575061137a30612f39565b158015611397575060015f5f9054906101000a900460ff1660ff16145b5b6113d7576040517f08c379a00000000000000000000000000000000000000000000000000000000081526004016113ce90614267565b60405180910390fd5b60015f5f6101000a81548160ff021916908360ff16021790555080156114125760015f60016101000a81548160ff0219169083151502179055505b7f000000000000000000000000000000000000000000000000000000000000000073ffffffffffffffffffffffffffffffffffffffff1663628806ef7f00000000000000000000000000000000000000000000000000000000000000006040518263ffffffff1660e01b815260040161148b919061389e565b5f604051808303815f87803b1580156114a2575f5ffd5b505af11580156114b4573d5f5f3e3d5ffd5b505050507f000000000000000000000000000000000000000000000000000000000000000073ffffffffffffffffffffffffffffffffffffffff1663eb5a4e8730306040518363ffffffff1660e01b8152600401611513929190614285565b5f604051808303815f87803b15801561152a575f5ffd5b505af115801561153c573d5f5f3e3d5ffd5b505050507f000000000000000000000000000000000000000000000000000000000000000073ffffffffffffffffffffffffffffffffffffffff1663628806ef306040518263ffffffff1660e01b8152600401611599919061389e565b5f604051808303815f87803b1580156115b0575f5ffd5b505af11580156115c2573d5f5f3e3d5ffd5b505050507f000000000000000000000000000000000000000000000000000000000000000073ffffffffffffffffffffffffffffffffffffffff1663eb5a4e8730846040518363ffffffff1660e01b8152600401611621929190614285565b5f604051808303815f87803b158015611638575f5ffd5b505af115801561164a573d5f5f3e3d5ffd5b505050505f7f000000000000000000000000000000000000000000000000000000000000000073ffffffffffffffffffffffffffffffffffffffff16633a10eef76040518163ffffffff1660e01b81526004016020604051808303815f875af11580156116b9573d5f5f3e3d5ffd5b505050506040513d601f19601f820116820180604052508101906116dd9190614129565b90507f000000000000000000000000000000000000000000000000000000000000000073ffffffffffffffffffffffffffffffffffffffff166374da4713826040518263ffffffff1660e01b81526004016117389190613532565b5f604051808303815f87803b15801561174f575f5ffd5b505af1158015611761573d5f5f3e3d5ffd5b505050507f000000000000000000000000000000000000000000000000000000000000000073ffffffffffffffffffffffffffffffffffffffff16631017873a60405180604001604052807f000000000000000000000000000000000000000000000000000000000000000073ffffffffffffffffffffffffffffffffffffffff1681526020018463ffffffff168152507f00000000000000000000000000000000000000000000000000000000000000006040518363ffffffff1660e01b81526004016118309291906142ac565b5f604051808303815f87803b158015611847575f5ffd5b505af1158015611859573d5f5f3e3d5ffd5b505050507f000000000000000000000000000000000000000000000000000000000000000073ffffffffffffffffffffffffffffffffffffffff16634ca62978826040518263ffffffff1660e01b81526004016118b69190613532565b5f604051808303815f87803b1580156118cd575f5ffd5b505af11580156118df573d5f5f3e3d5ffd5b5050505050801561193c575f5f60016101000a81548160ff0219169083151502179055507f7f26b83ff96e1f2b6a682f133852f6798a09c465da95921460cefb384740249860016040516119339190614318565b60405180910390a15b5050565b8273ffffffffffffffffffffffffffffffffffffffff163373ffffffffffffffffffffffffffffffffffffffff16148061197f575061197e3061226a565b5b6119b5576040517f932d94f700000000000000000000000000000000000000000000000000000000815260040160405180910390fd5b5f5f90505b82829050811015611ba6575f8383838181106119d9576119d86140e8565b5b90506020020160208101906119ee9190613716565b90505f60035f8373ffffffffffffffffffffffffffffffffffffffff1673ffffffffffffffffffffffffffffffffffffffff1681526020019081526020015f206040518060800160405290815f82015f9054906101000a900473ffffffffffffffffffffffffffffffffffffffff1673ffffffffffffffffffffffffffffffffffffffff1673ffffffffffffffffffffffffffffffffffffffff1681526020015f820160149054906101000a900463ffffffff1663ffffffff1663ffffffff1681526020015f820160189054906101000a900463ffffffff1663ffffffff1663ffffffff1681526020015f8201601c9054906101000a900460ff166004811115611afb57611afa613a38565b5b6004811115611b0d57611b0c613a38565b5b8152505090508573ffffffffffffffffffffffffffffffffffffffff16815f015173ffffffffffffffffffffffffffffffffffffffff1614611b7b576040517f609749e200000000000000000000000000000000000000000000000000000000815260040160405180910390fd5b611b88816060015161289e565b15611b9757611b9682612f5b565b5b505080806001019150506119ba565b505f60045f8573ffffffffffffffffffffffffffffffffffffffff1673ffffffffffffffffffffffffffffffffffffffff1681526020019081526020015f205f0160049054906101000a900463ffffffff1663ffffffff1614611c35576040517f0b9a8c7900000000000000000000000000000000000000000000000000000000815260040160405180910390fd5b611c3f835f613012565b505050565b30611c4e8161226a565b611c84576040517f932d94f700000000000000000000000000000000000000000000000000000000815260040160405180910390fd5b611c8e8383613012565b505050565b5f60035f8373ffffffffffffffffffffffffffffffffffffffff1673ffffffffffffffffffffffffffffffffffffffff1681526020019081526020015f205f01601c9054906101000a900460ff169050919050565b30611cf28161226a565b611d28576040517f932d94f700000000000000000000000000000000000000000000000000000000815260040160405180910390fd5b81611d7e60035f8373ffffffffffffffffffffffffffffffffffffffff1673ffffffffffffffffffffffffffffffffffffffff1681526020019081526020015f205f01601c9054906101000a900460ff1661289e565b611db4576040517f609749e200000000000000000000000000000000000000000000000000000000815260040160405180910390fd5b611dbd836128fd565b8273ffffffffffffffffffffffffffffffffffffffff167f4636ad9a0a072d9c8b05a5bcda7d33256c5401515e612c25c13273b378cb280960405160405180910390a2505050565b5f82611e108161226a565b611e46576040517f932d94f700000000000000000000000000000000000000000000000000000000815260040160405180910390fd5b83611e9c60035f8373ffffffffffffffffffffffffffffffffffffffff1673ffffffffffffffffffffffffffffffffffffffff1681526020019081526020015f205f01601c9054906101000a900460ff1661289e565b611ed2576040517f609749e200000000000000000000000000000000000000000000000000000000815260040160405180910390fd5b611edc8585612ce2565b9250505092915050565b80611ef08161226a565b611f26576040517f932d94f700000000000000000000000000000000000000000000000000000000815260040160405180910390fd5b5f60035f8473ffffffffffffffffffffffffffffffffffffffff1673ffffffffffffffffffffffffffffffffffffffff1681526020019081526020015f20905060016004811115611f7a57611f79613a38565b5b815f01601c9054906101000a900460ff166004811115611f9d57611f9c613a38565b5b14611fd4576040517f609749e200000000000000000000000000000000000000000000000000000000815260040160405180910390fd5b6002815f01601c6101000a81548160ff02191690836004811115611ffb57611ffa613a38565b5b02179055508273ffffffffffffffffffffffffffffffffffffffff167f143b9e3b5aa0fb8cf19b1bdb2eb8d7a94657d4b505070c667433d322b90b1f7860405160405180910390a2505050565b7f000000000000000000000000000000000000000000000000000000000000000081565b60608061207d6130c18686866125c4565b91509150935093915050565b5f7f8b73c3c69bb8fe3d512ecc4cf759cc79239f7b179b0ffacaa9a75d522b39400f6040518060400160405280600a81526020017f456967656e4c6179657200000000000000000000000000000000000000000000815250805190602001206120f0613164565b80519060200120463060405160200161210d959493929190614331565b60405160208183030381529060405280519060200120905090565b5f828260405160200161213c9291906143e7565b60405160208183030381529060405280519060200120905092915050565b606060405180610940016040528061090e8152602001614dbb61090e91397f000000000000000000000000000000000000000000000000000000000000000063c4d66de860e01b846040516024016121b2919061389e565b604051602081830303815290604052907bffffffffffffffffffffffffffffffffffffffffffffffffffffffff19166020820180517bffffffffffffffffffffffffffffffffffffffffffffffffffffffff8381831617835250505050604051602001612220929190614464565b6040516020818303038152906040526040516020016122409291906144cc565b6040516020818303038152906040529050919050565b5f6122628383306131d5565b905092915050565b5f7f000000000000000000000000000000000000000000000000000000000000000073ffffffffffffffffffffffffffffffffffffffff1663df595cb88333305f357fffffffff00000000000000000000000000000000000000000000000000000000166040518563ffffffff1660e01b81526004016122ed94939291906144ef565b6020604051808303815f875af1158015612309573d5f5f3e3d5ffd5b505050506040513d601f19601f8201168201806040525081019061232d9190614567565b9050919050565b5f60035f8373ffffffffffffffffffffffffffffffffffffffff1673ffffffffffffffffffffffffffffffffffffffff1681526020019081526020015f2090506003600481111561238857612387613a38565b5b815f01601c9054906101000a900460ff1660048111156123ab576123aa613a38565b5b036123e2576040517f609749e200000000000000000000000000000000000000000000000000000000815260040160405180910390fd5b6004808111156123f5576123f4613a38565b5b815f01601c9054906101000a900460ff16600481111561241857612417613a38565b5b0361244957612448815f015f9054906101000a900473ffffffffffffffffffffffffffffffffffffffff16612a15565b5b6001815f01601c6101000a81548160ff021916908360048111156124705761246f613a38565b5b02179055508173ffffffffffffffffffffffffffffffffffffffff167f8426864999f5f9244a203f75107b05f8b474838bc43ff0d8abe18ee5f442751360405160405180910390a25050565b60605f6124c8836131ff565b90505f602067ffffffffffffffff8111156124e6576124e5614028565b5b6040519080825280601f01601f1916602001820160405280156125185781602001600182028036833780820191505090505b5090508181528360208201528092505050919050565b5f8173ffffffffffffffffffffffffffffffffffffffff1660035f8573ffffffffffffffffffffffffffffffffffffffff1673ffffffffffffffffffffffffffffffffffffffff1681526020019081526020015f205f015f9054906101000a900473ffffffffffffffffffffffffffffffffffffffff1673ffffffffffffffffffffffffffffffffffffffff1614905092915050565b6060805f6125d260016129eb565b90508367ffffffffffffffff8111156125ee576125ed614028565b5b60405190808252806020026020018201604052801561261c5781602001602082028036833780820191505090505b5092508367ffffffffffffffff81111561263957612638614028565b5b60405190808252806020026020018201604052801561267257816020015b61265f61342f565b8152602001906001900390816126575790505b5091505f5f90505f5f90505f5f90505b838110801561269057508682105b1561288b575f6126aa8260016129fe90919063ffffffff16565b90506126ba818b8d63ffffffff16565b1561287657888410156126db5783806126d290614592565b94505050612878565b808784815181106126ef576126ee6140e8565b5b602002602001019073ffffffffffffffffffffffffffffffffffffffff16908173ffffffffffffffffffffffffffffffffffffffff168152505060035f8273ffffffffffffffffffffffffffffffffffffffff1673ffffffffffffffffffffffffffffffffffffffff1681526020019081526020015f206040518060800160405290815f82015f9054906101000a900473ffffffffffffffffffffffffffffffffffffffff1673ffffffffffffffffffffffffffffffffffffffff1673ffffffffffffffffffffffffffffffffffffffff1681526020015f820160149054906101000a900463ffffffff1663ffffffff1663ffffffff1681526020015f820160189054906101000a900463ffffffff1663ffffffff1663ffffffff1681526020015f8201601c9054906101000a900460ff16600481111561283357612832613a38565b5b600481111561284557612844613a38565b5b8152505086848151811061285c5761285b6140e8565b5b6020026020010181905250828061287290614592565b9350505b505b808061288390614592565b915050612682565b5080855280845250505094509492505050565b5f600160048111156128b3576128b2613a38565b5b8260048111156128c6576128c5613a38565b5b14806128f65750600260048111156128e1576128e0613a38565b5b8260048111156128f4576128f3613a38565b5b145b9050919050565b6003805f8373ffffffffffffffffffffffffffffffffffffffff1673ffffffffffffffffffffffffffffffffffffffff1681526020019081526020015f205f01601c6101000a81548160ff0219169083600481111561295f5761295e613a38565b5b021790555061296d8161324d565b8073ffffffffffffffffffffffffffffffffffffffff167f2465e924a1e9a02843493e65702fd09152c8a631caf7b9b58e4b01ee20ced41660405160405180910390a250565b5f6129bc612089565b826040516020016129ce92919061462d565b604051602081830303815290604052805190602001209050919050565b5f6129f7825f01613372565b9050919050565b5f612a0b835f0183613381565b5f1c905092915050565b5f60045f8373ffffffffffffffffffffffffffffffffffffffff1673ffffffffffffffffffffffffffffffffffffffff1681526020019081526020015f20905060055f9054906101000a900463ffffffff1663ffffffff16600560049054906101000a900463ffffffff1663ffffffff1610612abd576040517f42ca568f00000000000000000000000000000000000000000000000000000000815260040160405180910390fd5b805f015f9054906101000a900463ffffffff1663ffffffff16815f0160049054906101000a900463ffffffff1663ffffffff1610612b27576040517f82d7ade600000000000000000000000000000000000000000000000000000000815260040160405180910390fd5b6005600481819054906101000a900463ffffffff1680929190612b4990614663565b91906101000a81548163ffffffff021916908363ffffffff16021790555050805f01600481819054906101000a900463ffffffff1680929190612b8b90614663565b91906101000a81548163ffffffff021916908363ffffffff160217905550505050565b5f83471015612bf2576040517f08c379a0000000000000000000000000000000000000000000000000000000008152600401612be9906146d8565b60405180910390fd5b5f825103612c35576040517f08c379a0000000000000000000000000000000000000000000000000000000008152600401612c2c90614740565b60405180910390fd5b8282516020840186f590505f73ffffffffffffffffffffffffffffffffffffffff168173ffffffffffffffffffffffffffffffffffffffff1603612cae576040517f08c379a0000000000000000000000000000000000000000000000000000000008152600401612ca5906147a8565b60405180910390fd5b9392505050565b5f612cda835f018373ffffffffffffffffffffffffffffffffffffffff165f1b6133a8565b905092915050565b5f600182805f0190612cf491906147d2565b805f0190612d0291906147f9565b905014612d3b576040517f98c82cef00000000000000000000000000000000000000000000000000000000815260040160405180910390fd5b7f000000000000000000000000000000000000000000000000000000000000000073ffffffffffffffffffffffffffffffffffffffff16637c09ea8260405180604001604052807f000000000000000000000000000000000000000000000000000000000000000073ffffffffffffffffffffffffffffffffffffffff16815260200160035f8873ffffffffffffffffffffffffffffffffffffffff1673ffffffffffffffffffffffffffffffffffffffff1681526020019081526020015f205f0160149054906101000a900463ffffffff1663ffffffff1681525084805f0190612e2691906147d2565b6040518363ffffffff1660e01b8152600401612e43929190614b0b565b6020604051808303815f875af1158015612e5f573d5f5f3e3d5ffd5b505050506040513d601f19601f82011682018060405250810190612e839190614b4d565b90504360035f8573ffffffffffffffffffffffffffffffffffffffff1673ffffffffffffffffffffffffffffffffffffffff1681526020019081526020015f205f0160186101000a81548163ffffffff021916908363ffffffff1602179055508273ffffffffffffffffffffffffffffffffffffffff167fb5d2b7df0352a87a587a430bfceab43859b3b3c404f0425c4c1ab0675ed57b948284604051612f2b929190614d00565b60405180910390a292915050565b5f5f8273ffffffffffffffffffffffffffffffffffffffff163b119050919050565b600460035f8373ffffffffffffffffffffffffffffffffffffffff1673ffffffffffffffffffffffffffffffffffffffff1681526020019081526020015f205f01601c6101000a81548160ff02191690836004811115612fbe57612fbd613a38565b5b0217905550612fcc8161324d565b8073ffffffffffffffffffffffffffffffffffffffff167fbb85757a09bd73484c9fb6857c3e9f8dbf92c3e22ce1655213c9481dacf81c6260405160405180910390a250565b8060045f8473ffffffffffffffffffffffffffffffffffffffff1673ffffffffffffffffffffffffffffffffffffffff1681526020019081526020015f205f015f6101000a81548163ffffffff021916908363ffffffff1602179055508173ffffffffffffffffffffffffffffffffffffffff167f708c955faa87ece750a9700c153a20797167e2fcbde9fca9186801f874663a99826040516130b59190613532565b60405180910390a25050565b5f7f000000000000000000000000000000000000000000000000000000000000000073ffffffffffffffffffffffffffffffffffffffff16639100674584846040518363ffffffff1660e01b815260040161311d929190614285565b602060405180830381865afa158015613138573d5f5f3e3d5ffd5b505050506040513d601f19601f8201168201806040525081019061315c9190614567565b905092915050565b60605f6131907f00000000000000000000000000000000000000000000000000000000000000006124bc565b9050805f815181106131a5576131a46140e8565b5b602001015160f81c60f81b6040516020016131c09190614d79565b60405160208183030381529060405291505090565b5f604051836040820152846020820152828152600b810160ff815360558120925050509392505050565b5f5f60ff835f1c169050601f811115613244576040517fb3512b0c00000000000000000000000000000000000000000000000000000000815260040160405180910390fd5b80915050919050565b6005600481819054906101000a900463ffffffff168092919061326f90614d93565b91906101000a81548163ffffffff021916908363ffffffff160217905550505f60035f8373ffffffffffffffffffffffffffffffffffffffff1673ffffffffffffffffffffffffffffffffffffffff1681526020019081526020015f205f015f9054906101000a900473ffffffffffffffffffffffffffffffffffffffff16905060045f8273ffffffffffffffffffffffffffffffffffffffff1673ffffffffffffffffffffffffffffffffffffffff1681526020019081526020015f205f01600481819054906101000a900463ffffffff168092919061334f90614d93565b91906101000a81548163ffffffff021916908363ffffffff160217905550505050565b5f815f01805490509050919050565b5f825f018281548110613397576133966140e8565b5b905f5260205f200154905092915050565b5f6133b3838361340f565b61340557825f0182908060018154018082558091505060019003905f5260205f20015f9091909190915055825f0180549050836001015f8481526020019081526020015f208190555060019050613409565b5f90505b92915050565b5f5f836001015f8481526020019081526020015f20541415905092915050565b60405180608001604052805f73ffffffffffffffffffffffffffffffffffffffff1681526020015f63ffffffff1681526020015f63ffffffff1681526020015f600481111561348157613480613a38565b5b81525090565b5f5ffd5b5f5ffd5b5f73ffffffffffffffffffffffffffffffffffffffff82169050919050565b5f6134b88261348f565b9050919050565b6134c8816134ae565b81146134d2575f5ffd5b50565b5f813590506134e3816134bf565b92915050565b5f602082840312156134fe576134fd613487565b5b5f61350b848285016134d5565b91505092915050565b5f63ffffffff82169050919050565b61352c81613514565b82525050565b5f6020820190506135455f830184613523565b92915050565b5f819050919050565b5f61356e6135696135648461348f565b61354b565b61348f565b9050919050565b5f61357f82613554565b9050919050565b5f61359082613575565b9050919050565b6135a081613586565b82525050565b5f6020820190506135b95f830184613597565b92915050565b5f819050919050565b6135d1816135bf565b81146135db575f5ffd5b50565b5f813590506135ec816135c8565b92915050565b5f5f6040838503121561360857613607613487565b5b5f613615858286016134d5565b9250506020613626858286016135de565b9150509250929050565b5f61363a82613575565b9050919050565b61364a81613630565b82525050565b5f6020820190506136635f830184613641565b92915050565b5f61367382613575565b9050919050565b61368381613669565b82525050565b5f60208201905061369c5f83018461367a565b92915050565b5f6136ac82613575565b9050919050565b6136bc816136a2565b82525050565b5f6020820190506136d55f8301846136b3565b92915050565b5f6136e5826134ae565b9050919050565b6136f5816136db565b81146136ff575f5ffd5b50565b5f81359050613710816136ec565b92915050565b5f6020828403121561372b5761372a613487565b5b5f61373884828501613702565b91505092915050565b5f81519050919050565b5f82825260208201905092915050565b8281835e5f83830152505050565b5f601f19601f8301169050919050565b5f61378382613741565b61378d818561374b565b935061379d81856020860161375b565b6137a681613769565b840191505092915050565b5f6020820190508181035f8301526137c98184613779565b905092915050565b5f5ffd5b5f5ffd5b5f5ffd5b5f5f83601f8401126137f2576137f16137d1565b5b8235905067ffffffffffffffff81111561380f5761380e6137d5565b5b60208301915083600182028301111561382b5761382a6137d9565b5b9250929050565b5f5f5f6040848603121561384957613848613487565b5b5f61385686828701613702565b935050602084013567ffffffffffffffff8111156138775761387661348b565b5b613883868287016137dd565b92509250509250925092565b613898816134ae565b82525050565b5f6020820190506138b15f83018461388f565b92915050565b5f819050919050565b6138c9816138b7565b81146138d3575f5ffd5b50565b5f813590506138e4816138c0565b92915050565b5f5f5f6060848603121561390157613900613487565b5b5f61390e868287016134d5565b935050602061391f868287016138d6565b9250506040613930868287016138d6565b9150509250925092565b5f81519050919050565b5f82825260208201905092915050565b5f819050602082019050919050565b61396c81613630565b82525050565b5f61397d8383613963565b60208301905092915050565b5f602082019050919050565b5f61399f8261393a565b6139a98185613944565b93506139b483613954565b805f5b838110156139e45781516139cb8882613972565b97506139d683613989565b9250506001810190506139b7565b5085935050505092915050565b5f81519050919050565b5f82825260208201905092915050565b5f819050602082019050919050565b613a23816134ae565b82525050565b613a3281613514565b82525050565b7f4e487b71000000000000000000000000000000000000000000000000000000005f52602160045260245ffd5b60058110613a7657613a75613a38565b5b50565b5f819050613a8682613a65565b919050565b5f613a9582613a79565b9050919050565b613aa581613a8b565b82525050565b608082015f820151613abf5f850182613a1a565b506020820151613ad26020850182613a29565b506040820151613ae56040850182613a29565b506060820151613af86060850182613a9c565b50505050565b5f613b098383613aab565b60808301905092915050565b5f602082019050919050565b5f613b2b826139f1565b613b3581856139fb565b9350613b4083613a0b565b805f5b83811015613b70578151613b578882613afe565b9750613b6283613b15565b925050600181019050613b43565b5085935050505092915050565b5f6040820190508181035f830152613b958185613995565b90508181036020830152613ba98184613b21565b90509392505050565b5f613bbc82613575565b9050919050565b613bcc81613bb2565b82525050565b5f602082019050613be55f830184613bc3565b92915050565b613bf4816135bf565b82525050565b5f602082019050613c0d5f830184613beb565b92915050565b5f7fffffffff0000000000000000000000000000000000000000000000000000000082169050919050565b613c4781613c13565b8114613c51575f5ffd5b50565b5f81359050613c6281613c3e565b92915050565b5f5f60408385031215613c7e57613c7d613487565b5b5f613c8b85828601613c54565b9250506020613c9c858286016138d6565b9150509250929050565b5f5f60408385031215613cbc57613cbb613487565b5b5f613cc9858286016138d6565b9250506020613cda858286016138d6565b9150509250929050565b5f5ffd5b5f60608284031215613cfd57613cfc613ce4565b5b81905092915050565b5f5f60408385031215613d1c57613d1b613487565b5b5f613d29858286016135de565b925050602083013567ffffffffffffffff811115613d4a57613d4961348b565b5b613d5685828601613ce8565b9150509250929050565b613d6981613514565b8114613d73575f5ffd5b50565b5f81359050613d8481613d60565b92915050565b5f60208284031215613d9f57613d9e613487565b5b5f613dac84828501613d76565b91505092915050565b5f5f83601f840112613dca57613dc96137d1565b5b8235905067ffffffffffffffff811115613de757613de66137d5565b5b602083019150836020820283011115613e0357613e026137d9565b5b9250929050565b5f5f5f60408486031215613e2157613e20613487565b5b5f613e2e868287016134d5565b935050602084013567ffffffffffffffff811115613e4f57613e4e61348b565b5b613e5b86828701613db5565b92509250509250925092565b5f5f60408385031215613e7d57613e7c613487565b5b5f613e8a858286016134d5565b9250506020613e9b85828601613d76565b9150509250929050565b613eae81613a8b565b82525050565b5f602082019050613ec75f830184613ea5565b92915050565b5f5f60408385031215613ee357613ee2613487565b5b5f613ef085828601613702565b925050602083013567ffffffffffffffff811115613f1157613f1061348b565b5b613f1d85828601613ce8565b9150509250929050565b613f30816138b7565b82525050565b5f602082019050613f495f830184613f27565b92915050565b5f613f5982613575565b9050919050565b613f6981613f4f565b82525050565b5f602082019050613f825f830184613f60565b92915050565b828183375f83830152505050565b5f613fa1838561374b565b9350613fae838584613f88565b613fb783613769565b840190509392505050565b5f6020820190508181035f830152613fdb818486613f96565b90509392505050565b613fed81613c13565b82525050565b5f6060820190506140065f830186613beb565b6140136020830185613fe4565b6140206040830184613f27565b949350505050565b7f4e487b71000000000000000000000000000000000000000000000000000000005f52604160045260245ffd5b7f4e487b71000000000000000000000000000000000000000000000000000000005f52601160045260245ffd5b5f61408c826138b7565b9150614097836138b7565b92508282019050808211156140af576140ae614055565b5b92915050565b5f6140bf826138b7565b91506140ca836138b7565b92508282039050818111156140e2576140e1614055565b5b92915050565b7f4e487b71000000000000000000000000000000000000000000000000000000005f52603260045260245ffd5b5f8151905061412381613d60565b92915050565b5f6020828403121561413e5761413d613487565b5b5f61414b84828501614115565b91505092915050565b604082015f8201516141685f850182613a1a565b50602082015161417b6020850182613a29565b50505050565b7f68747470733a2f2f656967656e636c6f75642e78797a000000000000000000005f82015250565b5f6141b560168361374b565b91506141c082614181565b602082019050919050565b5f6060820190506141de5f830184614154565b81810360408301526141ef816141a9565b905092915050565b7f496e697469616c697a61626c653a20636f6e747261637420697320616c7265615f8201527f647920696e697469616c697a6564000000000000000000000000000000000000602082015250565b5f614251602e8361374b565b915061425c826141f7565b604082019050919050565b5f6020820190508181035f83015261427e81614245565b9050919050565b5f6040820190506142985f83018561388f565b6142a5602083018461388f565b9392505050565b5f6060820190506142bf5f830185614154565b6142cc604083018461388f565b9392505050565b5f819050919050565b5f60ff82169050919050565b5f6143026142fd6142f8846142d3565b61354b565b6142dc565b9050919050565b614312816142e8565b82525050565b5f60208201905061432b5f830184614309565b92915050565b5f60a0820190506143445f830188613beb565b6143516020830187613beb565b61435e6040830186613beb565b61436b6060830185613f27565b614378608083018461388f565b9695505050505050565b5f8160601b9050919050565b5f61439882614382565b9050919050565b5f6143a98261438e565b9050919050565b6143c16143bc826134ae565b61439f565b82525050565b5f819050919050565b6143e16143dc826135bf565b6143c7565b82525050565b5f6143f282856143b0565b60148201915061440282846143d0565b6020820191508190509392505050565b5f81519050919050565b5f82825260208201905092915050565b5f61443682614412565b614440818561441c565b935061445081856020860161375b565b61445981613769565b840191505092915050565b5f6040820190506144775f830185613bc3565b8181036020830152614489818461442c565b90509392505050565b5f81905092915050565b5f6144a682614412565b6144b08185614492565b93506144c081856020860161375b565b80840191505092915050565b5f6144d7828561449c565b91506144e3828461449c565b91508190509392505050565b5f6080820190506145025f83018761388f565b61450f602083018661388f565b61451c604083018561388f565b6145296060830184613fe4565b95945050505050565b5f8115159050919050565b61454681614532565b8114614550575f5ffd5b50565b5f815190506145618161453d565b92915050565b5f6020828403121561457c5761457b613487565b5b5f61458984828501614553565b91505092915050565b5f61459c826138b7565b91507fffffffffffffffffffffffffffffffffffffffffffffffffffffffffffffffff82036145ce576145cd614055565b5b600182019050919050565b5f81905092915050565b7f19010000000000000000000000000000000000000000000000000000000000005f82015250565b5f6146176002836145d9565b9150614622826145e3565b600282019050919050565b5f6146378261460b565b915061464382856143d0565b60208201915061465382846143d0565b6020820191508190509392505050565b5f61466d82613514565b915063ffffffff820361468357614682614055565b5b600182019050919050565b7f437265617465323a20696e73756666696369656e742062616c616e63650000005f82015250565b5f6146c2601d8361374b565b91506146cd8261468e565b602082019050919050565b5f6020820190508181035f8301526146ef816146b6565b9050919050565b7f437265617465323a2062797465636f6465206c656e677468206973207a65726f5f82015250565b5f61472a60208361374b565b9150614735826146f6565b602082019050919050565b5f6020820190508181035f8301526147578161471e565b9050919050565b7f437265617465323a204661696c6564206f6e206465706c6f79000000000000005f82015250565b5f61479260198361374b565b915061479d8261475e565b602082019050919050565b5f6020820190508181035f8301526147bf81614786565b9050919050565b5f5ffd5b5f5ffd5b5f5ffd5b5f823560016040038336030381126147ed576147ec6147c6565b5b80830191505092915050565b5f5f83356001602003843603038112614815576148146147c6565b5b80840192508235915067ffffffffffffffff821115614837576148366147ca565b5b602083019250602082023603831315614853576148526147ce565b5b509250929050565b5f5ffd5b5f5ffd5b5f5ffd5b5f5f8335600160200384360303811261488357614882614863565b5b83810192508235915060208301925067ffffffffffffffff8211156148ab576148aa61485b565b5b6020820236038313156148c1576148c061485f565b5b509250929050565b5f82825260208201905092915050565b5f819050919050565b5f6148f060208401846135de565b905092915050565b614901816135bf565b82525050565b5f5f8335600160200384360303811261492357614922614863565b5b83810192508235915060208301925067ffffffffffffffff82111561494b5761494a61485b565b5b6001820236038313156149615761496061485f565b5b509250929050565b5f82825260208201905092915050565b5f6149848385614969565b9350614991838584613f88565b61499a83613769565b840190509392505050565b5f604083016149b65f8401846148e2565b6149c25f8601826148f8565b506149d06020840184614907565b85830360208701526149e3838284614979565b925050508091505092915050565b5f6149fc83836149a5565b905092915050565b5f82356001604003833603038112614a1f57614a1e614863565b5b82810191505092915050565b5f602082019050919050565b5f614a4283856148c9565b935083602084028501614a54846148d9565b805f5b87811015614a97578484038952614a6e8284614a04565b614a7885826149f1565b9450614a8383614a2b565b925060208a01995050600181019050614a57565b50829750879450505050509392505050565b5f614ab76020840184613d76565b905092915050565b5f60408301614ad05f840184614867565b8583035f870152614ae2838284614a37565b92505050614af36020840184614aa9565b614b006020860182613a29565b508091505092915050565b5f606082019050614b1e5f830185614154565b8181036040830152614b308184614abf565b90509392505050565b5f81519050614b47816138c0565b92915050565b5f60208284031215614b6257614b61613487565b5b5f614b6f84828501614b39565b91505092915050565b5f82356001604003833603038112614b9357614b92614863565b5b82810191505092915050565b5f60408301614bb05f840184614867565b8583035f870152614bc2838284614a37565b92505050614bd36020840184614aa9565b614be06020860182613a29565b508091505092915050565b5f5f83356001602003843603038112614c0757614c06614863565b5b83810192508235915060208301925067ffffffffffffffff821115614c2f57614c2e61485b565b5b600182023603831315614c4557614c4461485f565b5b509250929050565b5f82825260208201905092915050565b5f614c688385614c4d565b9350614c75838584613f88565b614c7e83613769565b840190509392505050565b5f60608301614c9a5f840184614b78565b8482035f860152614cab8282614b9f565b915050614cbb6020840184614beb565b8583036020870152614cce838284614c5d565b92505050614cdf6040840184614beb565b8583036040870152614cf2838284614c5d565b925050508091505092915050565b5f604082019050614d135f830185613f27565b8181036020830152614d258184614c89565b90509392505050565b5f7fff0000000000000000000000000000000000000000000000000000000000000082169050919050565b5f819050919050565b614d73614d6e82614d2e565b614d59565b82525050565b5f614d848284614d62565b60018201915081905092915050565b5f614d9d82613514565b91505f8203614daf57614dae614055565b5b60018203905091905056fe608060405260405161090e38038061090e83398101604081905261002291610460565b61002e82826000610035565b505061058a565b61003e83610100565b6040516001600160a01b038416907f1cf3b03a6cf19fa2baba4df148e9dcabedea7f8a5c07840e207e5c089be95d3e90600090a260008251118061007f5750805b156100fb576100f9836001600160a01b0316635c60da1b6040518163ffffffff1660e01b8152600401602060405180830381865afa1580156100c5573d6000803e3d6000fd5b505050506040513d601f19601f820116820180604052508101906100e99190610520565b836102a360201b6100291760201c565b505b505050565b610113816102cf60201b6100551760201c565b6101725760405162461bcd60e51b815260206004820152602560248201527f455243313936373a206e657720626561636f6e206973206e6f74206120636f6e6044820152641d1c9858dd60da1b60648201526084015b60405180910390fd5b6101e6816001600160a01b0316635c60da1b6040518163ffffffff1660e01b8152600401602060405180830381865afa1580156101b3573d6000803e3d6000fd5b505050506040513d601f19601f820116820180604052508101906101d79190610520565b6102cf60201b6100551760201c565b61024b5760405162461bcd60e51b815260206004820152603060248201527f455243313936373a20626561636f6e20696d706c656d656e746174696f6e206960448201526f1cc81b9bdd08184818dbdb9d1c9858dd60821b6064820152608401610169565b806102827fa3f0ad74e5423aebfd80d3ef4346578335a9a72aeaee59ff6cb3582b35133d5060001b6102de60201b6100641760201c565b80546001600160a01b0319166001600160a01b039290921691909117905550565b60606102c883836040518060600160405280602781526020016108e7602791396102e1565b9392505050565b6001600160a01b03163b151590565b90565b6060600080856001600160a01b0316856040516102fe919061053b565b600060405180830381855af49150503d8060008114610339576040519150601f19603f3d011682016040523d82523d6000602084013e61033e565b606091505b5090925090506103508683838761035a565b9695505050505050565b606083156103c65782516103bf576001600160a01b0385163b6103bf5760405162461bcd60e51b815260206004820152601d60248201527f416464726573733a2063616c6c20746f206e6f6e2d636f6e74726163740000006044820152606401610169565b50816103d0565b6103d083836103d8565b949350505050565b8151156103e85781518083602001fd5b8060405162461bcd60e51b81526004016101699190610557565b80516001600160a01b038116811461041957600080fd5b919050565b634e487b7160e01b600052604160045260246000fd5b60005b8381101561044f578181015183820152602001610437565b838111156100f95750506000910152565b6000806040838503121561047357600080fd5b61047c83610402565b60208401519092506001600160401b038082111561049957600080fd5b818501915085601f8301126104ad57600080fd5b8151818111156104bf576104bf61041e565b604051601f8201601f19908116603f011681019083821181831017156104e7576104e761041e565b8160405282815288602084870101111561050057600080fd5b610511836020830160208801610434565b80955050505050509250929050565b60006020828403121561053257600080fd5b6102c882610402565b6000825161054d818460208701610434565b9190910192915050565b6020815260008251806020840152610576816040850160208701610434565b601f01601f19169190910160400192915050565b61034e806105996000396000f3fe60806040523661001357610011610017565b005b6100115b610027610022610067565b610100565b565b606061004e83836040518060600160405280602781526020016102f260279139610124565b9392505050565b6001600160a01b03163b151590565b90565b600061009a7fa3f0ad74e5423aebfd80d3ef4346578335a9a72aeaee59ff6cb3582b35133d50546001600160a01b031690565b6001600160a01b0316635c60da1b6040518163ffffffff1660e01b8152600401602060405180830381865afa1580156100d7573d6000803e3d6000fd5b505050506040513d601f19601f820116820180604052508101906100fb9190610249565b905090565b3660008037600080366000845af43d6000803e80801561011f573d6000f35b3d6000fd5b6060600080856001600160a01b03168560405161014191906102a2565b600060405180830381855af49150503d806000811461017c576040519150601f19603f3d011682016040523d82523d6000602084013e610181565b606091505b50915091506101928683838761019c565b9695505050505050565b6060831561020d578251610206576001600160a01b0385163b6102065760405162461bcd60e51b815260206004820152601d60248201527f416464726573733a2063616c6c20746f206e6f6e2d636f6e747261637400000060448201526064015b60405180910390fd5b5081610217565b610217838361021f565b949350505050565b81511561022f5781518083602001fd5b8060405162461bcd60e51b81526004016101fd91906102be565b60006020828403121561025b57600080fd5b81516001600160a01b038116811461004e57600080fd5b60005b8381101561028d578181015183820152602001610275565b8381111561029c576000848401525b50505050565b600082516102b4818460208701610272565b9190910192915050565b60208152600082518060208401526102dd816040850160208701610272565b601f01601f1916919091016040019291505056fe416464726573733a206c6f772d6c6576656c2064656c65676174652063616c6c206661696c6564a2646970667358221220d51e81d3bc5ed20a26aeb05dce7e825c503b2061aa78628027300c8d65b9d89a64736f6c634300080c0033416464726573733a206c6f772d6c6576656c2064656c65676174652063616c6c206661696c6564a2646970667358221220ce542f677f576cd3ab573eec032363aef0b726141b63821816f10c3b5a91e0c064736f6c634300081c0033",
    "linkReferences": {}
  },
  "methodIdentifiers": {
    "API_PERMISSION_TYPEHASH()": "8a7f922c",
    "appBeacon()": "8a52d0b5",
    "calculateApiPermissionDigestHash(bytes4,uint256)": "9690b7e7",
    "calculateAppId(address,bytes32)": "36b18874",
    "computeAVSRegistrar()": "ef6d92c6",
    "computeOperator()": "3fc4cbfd",
    "createApp(bytes32,(((bytes32,string)[],uint32),bytes,bytes))": "a60daa8f",
    "domainSeparator()": "f698da25",
    "getActiveAppCount(address)": "0c2199fb",
    "getAppCreator(address)": "67962d48",
    "getAppLatestReleaseBlockNumber(address)": "9ffbdce6",
    "getAppOperatorSetId(address)": "6eb2099f",
    "getAppStatus(address)": "d5aae178",
    "getApps(uint256,uint256)": "a37e7e44",
    "getAppsByCreator(address,uint256,uint256)": "8099ef2e",
    "getAppsByDeveloper(address,uint256,uint256)": "f36618ac",
    "getMaxActiveAppsPerUser(address)": "40f70a9e",
    "globalActiveAppCount()": "a8aa2bd3",
    "initialize(address)": "c4d66de8",
    "maxGlobalActiveApps()": "a46530a2",
    "permissionController()": "4657e26a",
    "releaseManager()": "0d78573e",
    "setMaxActiveAppsPerUser(address,uint32)": "d49fec2b",
    "setMaxGlobalActiveApps(uint32)": "b438c141",
    "startApp(address)": "4dd8ef81",
    "stopApp(address)": "e70b81b1",
    "suspend(address,address[])": "cb1e6ff7",
    "terminateApp(address)": "90e2196b",
    "terminateAppByAdmin(address)": "d66f7771",
    "updateAppMetadataURI(address,string)": "65aa9a65",
    "upgradeApp(address,(((bytes32,string)[],uint32),bytes,bytes))": "d80a956b",
    "version()": "54fd4d50"
  },
  "id": 117
}