{
  "abi": [
    {
      "type": "constructor",
      "inputs": [
        {
          "name": "_version",
          "type": "string",
          "internalType": "string"
        },
        {
          "name": "_permissionController",
          "type": "address",
          "internalType": "contract IPermissionController"
        },
        {
          "name": "_releaseManager",
          "type": "address",
          "internalType": "contract IReleaseManager"
        },
        {
          "name": "_computeAVSRegistrar",
          "type": "address",
          "internalType": "contract IComputeAVSRegistrar"
        },
        {
          "name": "_computeOperator",
          "type": "address",
          "internalType": "contract IComputeOperator"
        },
        {
          "name": "_appBeacon",
          "type": "address",
          "internalType": "contract IBeacon"
        }
      ],
      "stateMutability": "nonpayable"
    },
    {
      "type": "function",
      "name": "API_PERMISSION_TYPEHASH",
      "inputs": [],
      "outputs": [
        {
          "name": "",
          "type": "bytes32",
          "internalType": "bytes32"
        }
      ],
      "stateMutability": "view"
    },
    {
      "type": "function",
      "name": "appBeacon",
      "inputs": [],
      "outputs": [
        {
          "name": "",
          "type": "address",
          "internalType": "contract IBeacon"
        }
      ],
      "stateMutability": "view"
    },
    {
      "type": "function",
      "name": "calculateApiPermissionDigestHash",
      "inputs": [
        {
          "name": "permission",
          "type": "bytes4",
          "internalType": "bytes4"
        },
        {
          "name": "expiry",
          "type": "uint256",
          "internalType": "uint256"
        }
      ],
      "outputs": [
        {
          "name": "",
          "type": "bytes32",
          "internalType": "bytes32"
        }
      ],
      "stateMutability": "view"
    },
    {
      "type": "function",
      "name": "calculateAppId",
      "inputs": [
        {
          "name": "deployer",
          "type": "address",
          "internalType": "address"
        },
        {
          "name": "salt",
          "type": "bytes32",
          "internalType": "bytes32"
        }
      ],
      "outputs": [
        {
          "name": "",
          "type": "address",
          "internalType": "contract IApp"
        }
      ],
      "stateMutability": "view"
    },
    {
      "type": "function",
      "name": "computeAVSRegistrar",
      "inputs": [],
      "outputs": [
        {
          "name": "",
          "type": "address",
          "internalType": "contract IComputeAVSRegistrar"
        }
      ],
      "stateMutability": "view"
    },
    {
      "type": "function",
      "name": "computeOperator",
      "inputs": [],
      "outputs": [
        {
          "name": "",
          "type": "address",
          "internalType": "contract IComputeOperator"
        }
      ],
      "stateMutability": "view"
    },
    {
      "type": "function",
      "name": "createApp",
      "inputs": [
        {
          "name": "salt",
          "type": "bytes32",
          "internalType": "bytes32"
        },
        {
          "name": "release",
          "type": "tuple",
          "internalType": "struct IAppController.Release",
          "components": [
            {
              "name": "rmsRelease",
              "type": "tuple",
              "internalType": "struct IReleaseManagerTypes.Release",
              "components": [
                {
                  "name": "artifacts",
                  "type": "tuple[]",
                  "internalType": "struct IReleaseManagerTypes.Artifact[]",
                  "components": [
                    {
                      "name": "digest",
                      "type": "bytes32",
                      "internalType": "bytes32"
                    },
                    {
                      "name": "registry",
                      "type": "string",
                      "internalType": "string"
                    }
                  ]
                },
                {
                  "name": "upgradeByTime",
                  "type": "uint32",
                  "internalType": "uint32"
                }
              ]
            },
            {
              "name": "publicEnv",
              "type": "bytes",
              "internalType": "bytes"
            },
            {
              "name": "encryptedEnv",
              "type": "bytes",
              "internalType": "bytes"
            }
          ]
        }
      ],
      "outputs": [
        {
          "name": "app",
          "type": "address",
          "internalType": "contract IApp"
        }
      ],
      "stateMutability": "nonpayable"
    },
    {
      "type": "function",
      "name": "domainSeparator",
      "inputs": [],
      "outputs": [
        {
          "name": "",
          "type": "bytes32",
          "internalType": "bytes32"
        }
      ],
      "stateMutability": "view"
    },
    {
      "type": "function",
      "name": "getActiveAppCount",
      "inputs": [
        {
          "name": "user",
          "type": "address",
          "internalType": "address"
        }
      ],
      "outputs": [
        {
          "name": "",
          "type": "uint32",
          "internalType": "uint32"
        }
      ],
      "stateMutability": "view"
    },
    {
      "type": "function",
      "name": "getAppCreator",
      "inputs": [
        {
          "name": "app",
          "type": "address",
          "internalType": "contract IApp"
        }
      ],
      "outputs": [
        {
          "name": "",
          "type": "address",
          "internalType": "address"
        }
      ],
      "stateMutability": "view"
    },
    {
      "type": "function",
      "name": "getAppLatestReleaseBlockNumber",
      "inputs": [
        {
          "name": "app",
          "type": "address",
          "internalType": "contract IApp"
        }
      ],
      "outputs": [
        {
          "name": "",
          "type": "uint32",
          "internalType": "uint32"
        }
      ],
      "stateMutability": "view"
    },
    {
      "type": "function",
      "name": "getAppOperatorSetId",
      "inputs": [
        {
          "name": "app",
          "type": "address",
          "internalType": "contract IApp"
        }
      ],
      "outputs": [
        {
          "name": "",
          "type": "uint32",
          "internalType": "uint32"
        }
      ],
      "stateMutability": "view"
    },
    {
      "type": "function",
      "name": "getAppStatus",
      "inputs": [
        {
          "name": "app",
          "type": "address",
          "internalType": "contract IApp"
        }
      ],
      "outputs": [
        {
          "name": "",
          "type": "uint8",
          "internalType": "enum IAppController.AppStatus"
        }
      ],
      "stateMutability": "view"
    },
    {
      "type": "function",
      "name": "getMaxActiveAppsPerUser",
      "inputs": [
        {
          "name": "user",
          "type": "address",
          "internalType": "address"
        }
      ],
      "outputs": [
        {
          "name": "",
          "type": "uint32",
          "internalType": "uint32"
        }
      ],
      "stateMutability": "view"
    },
    {
      "type": "function",
      "name": "globalActiveAppCount",
      "inputs": [],
      "outputs": [
        {
          "name": "",
          "type": "uint32",
          "internalType": "uint32"
        }
      ],
      "stateMutability": "view"
    },
    {
      "type": "function",
      "name": "initialize",
      "inputs": [
        {
          "name": "admin",
          "type": "address",
          "internalType": "address"
        }
      ],
      "outputs": [],
      "stateMutability": "nonpayable"
    },
    {
      "type": "function",
      "name": "listApps",
      "inputs": [
        {
          "name": "developer",
          "type": "address",
          "internalType": "address"
        },
        {
          "name": "offset",
          "type": "uint256",
          "internalType": "uint256"
        },
        {
          "name": "limit",
          "type": "uint256",
          "internalType": "uint256"
        }
      ],
      "outputs": [
        {
          "name": "apps",
          "type": "address[]",
          "internalType": "contract IApp[]"
        },
        {
          "name": "appConfigsMem",
          "type": "tuple[]",
          "internalType": "struct IAppController.AppConfig[]",
          "components": [
            {
              "name": "creator",
              "type": "address",
              "internalType": "address"
            },
            {
              "name": "operatorSetId",
              "type": "uint32",
              "internalType": "uint32"
            },
            {
              "name": "latestReleaseBlockNumber",
              "type": "uint32",
              "internalType": "uint32"
            },
            {
              "name": "status",
              "type": "uint8",
              "internalType": "enum IAppController.AppStatus"
            }
          ]
        }
      ],
      "stateMutability": "view"
    },
    {
      "type": "function",
      "name": "maxGlobalActiveApps",
      "inputs": [],
      "outputs": [
        {
          "name": "",
          "type": "uint32",
          "internalType": "uint32"
        }
      ],
      "stateMutability": "view"
    },
    {
      "type": "function",
      "name": "permissionController",
      "inputs": [],
      "outputs": [
        {
          "name": "",
          "type": "address",
          "internalType": "contract IPermissionController"
        }
      ],
      "stateMutability": "view"
    },
    {
      "type": "function",
      "name": "releaseManager",
      "inputs": [],
      "outputs": [
        {
          "name": "",
          "type": "address",
          "internalType": "contract IReleaseManager"
        }
      ],
      "stateMutability": "view"
    },
    {
      "type": "function",
      "name": "setMaxActiveAppsPerUser",
      "inputs": [
        {
          "name": "user",
          "type": "address",
          "internalType": "address"
        },
        {
          "name": "limit",
          "type": "uint32",
          "internalType": "uint32"
        }
      ],
      "outputs": [],
      "stateMutability": "nonpayable"
    },
    {
      "type": "function",
      "name": "setMaxGlobalActiveApps",
      "inputs": [
        {
          "name": "limit",
          "type": "uint32",
          "internalType": "uint32"
        }
      ],
      "outputs": [],
      "stateMutability": "nonpayable"
    },
    {
      "type": "function",
      "name": "startApp",
      "inputs": [
        {
          "name": "app",
          "type": "address",
          "internalType": "contract IApp"
        }
      ],
      "outputs": [],
      "stateMutability": "nonpayable"
    },
    {
      "type": "function",
      "name": "stopApp",
      "inputs": [
        {
          "name": "app",
          "type": "address",
          "internalType": "contract IApp"
        }
      ],
      "outputs": [],
      "stateMutability": "nonpayable"
    },
    {
      "type": "function",
      "name": "terminateApp",
      "inputs": [
        {
          "name": "app",
          "type": "address",
          "internalType": "contract IApp"
        }
      ],
      "outputs": [],
      "stateMutability": "nonpayable"
    },
    {
      "type": "function",
      "name": "terminateAppByAdmin",
      "inputs": [
        {
          "name": "app",
          "type": "address",
          "internalType": "contract IApp"
        }
      ],
      "outputs": [],
      "stateMutability": "nonpayable"
    },
    {
      "type": "function",
      "name": "upgradeApp",
      "inputs": [
        {
          "name": "app",
          "type": "address",
          "internalType": "contract IApp"
        },
        {
          "name": "release",
          "type": "tuple",
          "internalType": "struct IAppController.Release",
          "components": [
            {
              "name": "rmsRelease",
              "type": "tuple",
              "internalType": "struct IReleaseManagerTypes.Release",
              "components": [
                {
                  "name": "artifacts",
                  "type": "tuple[]",
                  "internalType": "struct IReleaseManagerTypes.Artifact[]",
                  "components": [
                    {
                      "name": "digest",
                      "type": "bytes32",
                      "internalType": "bytes32"
                    },
                    {
                      "name": "registry",
                      "type": "string",
                      "internalType": "string"
                    }
                  ]
                },
                {
                  "name": "upgradeByTime",
                  "type": "uint32",
                  "internalType": "uint32"
                }
              ]
            },
            {
              "name": "publicEnv",
              "type": "bytes",
              "internalType": "bytes"
            },
            {
              "name": "encryptedEnv",
              "type": "bytes",
              "internalType": "bytes"
            }
          ]
        }
      ],
      "outputs": [
        {
          "name": "",
          "type": "uint256",
          "internalType": "uint256"
        }
      ],
      "stateMutability": "nonpayable"
    },
    {
      "type": "function",
      "name": "version",
      "inputs": [],
      "outputs": [
        {
          "name": "",
          "type": "string",
          "internalType": "string"
        }
      ],
      "stateMutability": "view"
    },
    {
      "type": "event",
      "name": "AppCreated",
      "inputs": [
        {
          "name": "creator",
          "type": "address",
          "indexed": true,
          "internalType": "address"
        },
        {
          "name": "app",
          "type": "address",
          "indexed": true,
          "internalType": "contract IApp"
        },
        {
          "name": "operatorSetId",
          "type": "uint32",
          "indexed": false,
          "internalType": "uint32"
        }
      ],
      "anonymous": false
    },
    {
      "type": "event",
      "name": "AppStarted",
      "inputs": [
        {
          "name": "app",
          "type": "address",
          "indexed": true,
          "internalType": "contract IApp"
        }
      ],
      "anonymous": false
    },
    {
      "type": "event",
      "name": "AppStopped",
      "inputs": [
        {
          "name": "app",
          "type": "address",
          "indexed": true,
          "internalType": "contract IApp"
        }
      ],
      "anonymous": false
    },
    {
      "type": "event",
      "name": "AppTerminated",
      "inputs": [
        {
          "name": "app",
          "type": "address",
          "indexed": true,
          "internalType": "contract IApp"
        }
      ],
      "anonymous": false
    },
    {
      "type": "event",
      "name": "AppTerminatedByAdmin",
      "inputs": [
        {
          "name": "app",
          "type": "address",
          "indexed": true,
          "internalType": "contract IApp"
        }
      ],
      "anonymous": false
    },
    {
      "type": "event",
      "name": "AppUpgraded",
      "inputs": [
        {
          "name": "app",
          "type": "address",
          "indexed": true,
          "internalType": "contract IApp"
        },
        {
          "name": "rmsReleaseId",
          "type": "uint256",
          "indexed": false,
          "internalType": "uint256"
        },
        {
          "name": "release",
          "type": "tuple",
          "indexed": false,
          "internalType": "struct IAppController.Release",
          "components": [
            {
              "name": "rmsRelease",
              "type": "tuple",
              "internalType": "struct IReleaseManagerTypes.Release",
              "components": [
                {
                  "name": "artifacts",
                  "type": "tuple[]",
                  "internalType": "struct IReleaseManagerTypes.Artifact[]",
                  "components": [
                    {
                      "name": "digest",
                      "type": "bytes32",
                      "internalType": "bytes32"
                    },
                    {
                      "name": "registry",
                      "type": "string",
                      "internalType": "string"
                    }
                  ]
                },
                {
                  "name": "upgradeByTime",
                  "type": "uint32",
                  "internalType": "uint32"
                }
              ]
            },
            {
              "name": "publicEnv",
              "type": "bytes",
              "internalType": "bytes"
            },
            {
              "name": "encryptedEnv",
              "type": "bytes",
              "internalType": "bytes"
            }
          ]
        }
      ],
      "anonymous": false
    },
    {
      "type": "event",
      "name": "GlobalMaxActiveAppsSet",
      "inputs": [
        {
          "name": "limit",
          "type": "uint32",
          "indexed": false,
          "internalType": "uint32"
        }
      ],
      "anonymous": false
    },
    {
      "type": "event",
      "name": "Initialized",
      "inputs": [
        {
          "name": "version",
          "type": "uint8",
          "indexed": false,
          "internalType": "uint8"
        }
      ],
      "anonymous": false
    },
    {
      "type": "event",
      "name": "MaxActiveAppsSet",
      "inputs": [
        {
          "name": "user",
          "type": "address",
          "indexed": true,
          "internalType": "address"
        },
        {
          "name": "limit",
          "type": "uint32",
          "indexed": false,
          "internalType": "uint32"
        }
      ],
      "anonymous": false
    },
    {
      "type": "error",
      "name": "AppAlreadyExists",
      "inputs": []
    },
    {
      "type": "error",
      "name": "AppDoesNotExist",
      "inputs": []
    },
    {
      "type": "error",
      "name": "GlobalMaxActiveAppsExceeded",
      "inputs": []
    },
    {
      "type": "error",
      "name": "InvalidAppStatus",
      "inputs": []
    },
    {
      "type": "error",
      "name": "InvalidPermissions",
      "inputs": []
    },
    {
      "type": "error",
      "name": "InvalidReleaseMetadataURI",
      "inputs": []
    },
    {
      "type": "error",
      "name": "InvalidShortString",
      "inputs": []
    },
    {
      "type": "error",
      "name": "InvalidSignature",
      "inputs": []
    },
    {
      "type": "error",
      "name": "MaxActiveAppsExceeded",
      "inputs": []
    },
    {
      "type": "error",
      "name": "MoreThanOneArtifact",
      "inputs": []
    },
    {
      "type": "error",
      "name": "SignatureExpired",
      "inputs": []
    },
    {
      "type": "error",
      "name": "StringTooLong",
      "inputs": [
        {
          "name": "str",
          "type": "string",
          "internalType": "string"
        }
      ]
    }
  ],
  "bytecode": {
    "object": "0x610140604052348015610010575f5ffd5b506040516155c43803806155c48339818101604052810190610032919061053c565b83828483888a806100488161017560201b60201c565b6080818152505050508073ffffffffffffffffffffffffffffffffffffffff1660a08173ffffffffffffffffffffffffffffffffffffffff1681525050508373ffffffffffffffffffffffffffffffffffffffff1660c08173ffffffffffffffffffffffffffffffffffffffff16815250508273ffffffffffffffffffffffffffffffffffffffff1660e08173ffffffffffffffffffffffffffffffffffffffff16815250508173ffffffffffffffffffffffffffffffffffffffff166101008173ffffffffffffffffffffffffffffffffffffffff16815250508073ffffffffffffffffffffffffffffffffffffffff166101208173ffffffffffffffffffffffffffffffffffffffff16815250505050505061016a6101da60201b60201c565b5050505050506107bd565b5f5f829050601f815111156101c157826040517f305a27a90000000000000000000000000000000000000000000000000000000081526004016101b89190610633565b60405180910390fd5b8051816101cd90610695565b5f1c175f1b915050919050565b5f60019054906101000a900460ff1615610229576040517f08c379a00000000000000000000000000000000000000000000000000000000081526004016102209061076b565b60405180910390fd5b60ff80165f5f9054906101000a900460ff1660ff16146102965760ff5f5f6101000a81548160ff021916908360ff1602179055507f7f26b83ff96e1f2b6a682f133852f6798a09c465da95921460cefb384740249860ff60405161028d91906107a4565b60405180910390a15b565b5f604051905090565b5f5ffd5b5f5ffd5b5f5ffd5b5f5ffd5b5f601f19601f8301169050919050565b7f4e487b71000000000000000000000000000000000000000000000000000000005f52604160045260245ffd5b6102f7826102b1565b810181811067ffffffffffffffff82111715610316576103156102c1565b5b80604052505050565b5f610328610298565b905061033482826102ee565b919050565b5f67ffffffffffffffff821115610353576103526102c1565b5b61035c826102b1565b9050602081019050919050565b8281835e5f83830152505050565b5f61038961038484610339565b61031f565b9050828152602081018484840111156103a5576103a46102ad565b5b6103b0848285610369565b509392505050565b5f82601f8301126103cc576103cb6102a9565b5b81516103dc848260208601610377565b91505092915050565b5f73ffffffffffffffffffffffffffffffffffffffff82169050919050565b5f61040e826103e5565b9050919050565b5f61041f82610404565b9050919050565b61042f81610415565b8114610439575f5ffd5b50565b5f8151905061044a81610426565b92915050565b5f61045a82610404565b9050919050565b61046a81610450565b8114610474575f5ffd5b50565b5f8151905061048581610461565b92915050565b5f61049582610404565b9050919050565b6104a58161048b565b81146104af575f5ffd5b50565b5f815190506104c08161049c565b92915050565b5f6104d082610404565b9050919050565b6104e0816104c6565b81146104ea575f5ffd5b50565b5f815190506104fb816104d7565b92915050565b5f61050b82610404565b9050919050565b61051b81610501565b8114610525575f5ffd5b50565b5f8151905061053681610512565b92915050565b5f5f5f5f5f5f60c08789031215610556576105556102a1565b5b5f87015167ffffffffffffffff811115610573576105726102a5565b5b61057f89828a016103b8565b965050602061059089828a0161043c565b95505060406105a189828a01610477565b94505060606105b289828a016104b2565b93505060806105c389828a016104ed565b92505060a06105d489828a01610528565b9150509295509295509295565b5f81519050919050565b5f82825260208201905092915050565b5f610605826105e1565b61060f81856105eb565b935061061f818560208601610369565b610628816102b1565b840191505092915050565b5f6020820190508181035f83015261064b81846105fb565b905092915050565b5f81519050919050565b5f819050602082019050919050565b5f819050919050565b5f610680825161066c565b80915050919050565b5f82821b905092915050565b5f61069f82610653565b826106a98461065d565b90506106b481610675565b925060208210156106f4576106ef7fffffffffffffffffffffffffffffffffffffffffffffffffffffffffffffffff83602003600802610689565b831692505b5050919050565b7f496e697469616c697a61626c653a20636f6e747261637420697320696e6974695f8201527f616c697a696e6700000000000000000000000000000000000000000000000000602082015250565b5f6107556027836105eb565b9150610760826106fb565b604082019050919050565b5f6020820190508181035f83015261078281610749565b9050919050565b5f60ff82169050919050565b61079e81610789565b82525050565b5f6020820190506107b75f830184610795565b92915050565b60805160a05160c05160e0516101005161012051614d346108905f395f81816108f9015261223601525f8181610d4201528181610e19015281816115c3015281816117c401528181611854015281816118da015281816119210152818161212301526128ed01525f81816106700152818161196701526119d201525f818161062101528181610dd201526128a601525f81816106eb015281816111bc015281816115870152818161162d015281816116b50152818161173b015261232901525f818161080f0152612af60152614d345ff3fe608060405234801561000f575f5ffd5b50600436106101c2575f3560e01c80639ffbdce6116100f7578063d49fec2b11610095578063d80a956b1161006f578063d80a956b1461053f578063e70b81b11461056f578063ef6d92c61461058b578063f698da25146105a9576101c2565b8063d49fec2b146104d7578063d5aae178146104f3578063d66f777114610523576101c2565b8063a8aa2bd3116100d1578063a8aa2bd314610450578063b2676e3a1461046e578063b438c1411461049f578063c4d66de8146104bb576101c2565b80639ffbdce6146103d2578063a46530a214610402578063a60daa8f14610420576101c2565b806354fd4d50116101645780638a52d0b51161013e5780638a52d0b51461034a5780638a7f922c1461036857806390e2196b146103865780639690b7e7146103a2576101c2565b806354fd4d50146102cc57806367962d48146102ea5780636eb2099f1461031a576101c2565b80633fc4cbfd116101a05780633fc4cbfd1461024457806340f70a9e146102625780634657e26a146102925780634dd8ef81146102b0576101c2565b80630c2199fb146101c65780630d78573e146101f657806336b1887414610214575b5f5ffd5b6101e060048036038101906101db9190612d4e565b6105c7565b6040516101ed9190612d97565b60405180910390f35b6101fe61061f565b60405161020b9190612e0b565b60405180910390f35b61022e60048036038101906102299190612e57565b610643565b60405161023b9190612eb5565b60405180910390f35b61024c61066e565b6040516102599190612eee565b60405180910390f35b61027c60048036038101906102779190612d4e565b610692565b6040516102899190612d97565b60405180910390f35b61029a6106e9565b6040516102a79190612f27565b60405180910390f35b6102ca60048036038101906102c59190612f7b565b61070d565b005b6102d4610808565b6040516102e19190613016565b60405180910390f35b61030460048036038101906102ff9190612f7b565b610838565b6040516103119190613045565b60405180910390f35b610334600480360381019061032f9190612f7b565b61089f565b6040516103419190612d97565b60405180910390f35b6103526108f7565b60405161035f919061307e565b60405180910390f35b61037061091b565b60405161037d91906130a6565b60405180910390f35b6103a0600480360381019061039b9190612f7b565b61093f565b005b6103bc60048036038101906103b79190613147565b610ae0565b6040516103c991906130a6565b60405180910390f35b6103ec60048036038101906103e79190612f7b565b610b3c565b6040516103f99190612d97565b60405180910390f35b61040a610b94565b6040516104179190612d97565b60405180910390f35b61043a600480360381019061043591906131a7565b610ba9565b6040516104479190612eb5565b60405180910390f35b610458611093565b6040516104659190612d97565b60405180910390f35b61048860048036038101906104839190613201565b6110a9565b604051610496929190613494565b60405180910390f35b6104b960048036038101906104b491906134f3565b611413565b005b6104d560048036038101906104d09190612d4e565b6114ae565b005b6104f160048036038101906104ec919061351e565b611ab3565b005b61050d60048036038101906105089190612f7b565b611ba3565b60405161051a919061356b565b60405180910390f35b61053d60048036038101906105389190612f7b565b611bf8565b005b61055960048036038101906105549190613584565b611ddc565b60405161056691906135ed565b60405180910390f35b61058960048036038101906105849190612f7b565b611f84565b005b610593612121565b6040516105a09190613626565b60405180910390f35b6105b1612145565b6040516105be91906130a6565b60405180910390f35b5f60045f8373ffffffffffffffffffffffffffffffffffffffff1673ffffffffffffffffffffffffffffffffffffffff1681526020019081526020015f205f0160049054906101000a900463ffffffff169050919050565b7f000000000000000000000000000000000000000000000000000000000000000081565b5f61066661065184846121e4565b61065a85612216565b80519060200120612312565b905092915050565b7f000000000000000000000000000000000000000000000000000000000000000081565b5f60045f8373ffffffffffffffffffffffffffffffffffffffff1673ffffffffffffffffffffffffffffffffffffffff1681526020019081526020015f205f015f9054906101000a900463ffffffff169050919050565b7f000000000000000000000000000000000000000000000000000000000000000081565b8061071781612326565b61074d576040517f932d94f700000000000000000000000000000000000000000000000000000000815260040160405180910390fd5b8160028060038111156107635761076261334f565b5b60035f8473ffffffffffffffffffffffffffffffffffffffff1673ffffffffffffffffffffffffffffffffffffffff1681526020019081526020015f205f01601c9054906101000a900460ff1660038111156107c2576107c161334f565b5b146107f9576040517f609749e200000000000000000000000000000000000000000000000000000000815260040160405180910390fd5b610802846123f0565b50505050565b60606108337f000000000000000000000000000000000000000000000000000000000000000061249e565b905090565b5f60035f8373ffffffffffffffffffffffffffffffffffffffff1673ffffffffffffffffffffffffffffffffffffffff1681526020019081526020015f205f015f9054906101000a900473ffffffffffffffffffffffffffffffffffffffff169050919050565b5f60035f8373ffffffffffffffffffffffffffffffffffffffff1673ffffffffffffffffffffffffffffffffffffffff1681526020019081526020015f205f0160149054906101000a900463ffffffff169050919050565b7f000000000000000000000000000000000000000000000000000000000000000081565b7facd45e8bd36cea31aec6cd4552b994e6bfbda89766b3171349ace038b1b8267f81565b8061094981612326565b61097f576040517f932d94f700000000000000000000000000000000000000000000000000000000815260040160405180910390fd5b816003808111156109935761099261334f565b5b60035f8373ffffffffffffffffffffffffffffffffffffffff1673ffffffffffffffffffffffffffffffffffffffff1681526020019081526020015f205f01601c9054906101000a900460ff1660038111156109f2576109f161334f565b5b03610a29576040517f609749e200000000000000000000000000000000000000000000000000000000815260040160405180910390fd5b5f6003811115610a3c57610a3b61334f565b5b60035f8373ffffffffffffffffffffffffffffffffffffffff1673ffffffffffffffffffffffffffffffffffffffff1681526020019081526020015f205f01601c9054906101000a900460ff166003811115610a9b57610a9a61334f565b5b03610ad2576040517f609749e200000000000000000000000000000000000000000000000000000000815260040160405180910390fd5b610adb83612510565b505050565b5f610b347facd45e8bd36cea31aec6cd4552b994e6bfbda89766b3171349ace038b1b8267f8484604051602001610b199392919061364e565b604051602081830303815290604052805190602001206126df565b905092915050565b5f60035f8373ffffffffffffffffffffffffffffffffffffffff1673ffffffffffffffffffffffffffffffffffffffff1681526020019081526020015f205f0160189054906101000a900463ffffffff169050919050565b60055f9054906101000a900463ffffffff1681565b5f5f60045f3373ffffffffffffffffffffffffffffffffffffffff1673ffffffffffffffffffffffffffffffffffffffff1681526020019081526020015f20905060055f9054906101000a900463ffffffff1663ffffffff16600560049054906101000a900463ffffffff1663ffffffff1610610c52576040517f42ca568f00000000000000000000000000000000000000000000000000000000815260040160405180910390fd5b805f015f9054906101000a900463ffffffff1663ffffffff16815f0160049054906101000a900463ffffffff1663ffffffff1610610cbc576040517f82d7ade600000000000000000000000000000000000000000000000000000000815260040160405180910390fd5b6005600481819054906101000a900463ffffffff1680929190610cde906136b0565b91906101000a81548163ffffffff021916908363ffffffff16021790555050805f01600481819054906101000a900463ffffffff1680929190610d20906136b0565b91906101000a81548163ffffffff021916908363ffffffff160217905550505f7f000000000000000000000000000000000000000000000000000000000000000073ffffffffffffffffffffffffffffffffffffffff16633a10eef76040518163ffffffff1660e01b81526004016020604051808303815f875af1158015610daa573d5f5f3e3d5ffd5b505050506040513d601f19601f82011682018060405250810190610dce91906136ef565b90507f000000000000000000000000000000000000000000000000000000000000000073ffffffffffffffffffffffffffffffffffffffff16634840a67c60405180604001604052807f000000000000000000000000000000000000000000000000000000000000000073ffffffffffffffffffffffffffffffffffffffff1681526020018463ffffffff168152506040518263ffffffff1660e01b8152600401610e799190613791565b5f604051808303815f87803b158015610e90575f5ffd5b505af1158015610ea2573d5f5f3e3d5ffd5b50505050610ec25f610eb433886121e4565b610ebd33612216565b612717565b92508060035f8573ffffffffffffffffffffffffffffffffffffffff1673ffffffffffffffffffffffffffffffffffffffff1681526020019081526020015f205f0160146101000a81548163ffffffff021916908363ffffffff1602179055505f60035f8573ffffffffffffffffffffffffffffffffffffffff1673ffffffffffffffffffffffffffffffffffffffff1681526020019081526020015f205f0160186101000a81548163ffffffff021916908363ffffffff1602179055503360035f8573ffffffffffffffffffffffffffffffffffffffff1673ffffffffffffffffffffffffffffffffffffffff1681526020019081526020015f205f015f6101000a81548173ffffffffffffffffffffffffffffffffffffffff021916908373ffffffffffffffffffffffffffffffffffffffff16021790555061101183600161281e90919063ffffffff16565b508273ffffffffffffffffffffffffffffffffffffffff163373ffffffffffffffffffffffffffffffffffffffff167fe9e6e5409b80e2dab7d38194fb370b2e8045a1af28177b94ddcf19d2495d75898360405161106f9190612d97565b60405180910390a3611081838561284b565b5061108b836123f0565b505092915050565b600560049054906101000a900463ffffffff1681565b6060805f83856110b991906137bd565b6110c36001612aa2565b116110d7576110d26001612aa2565b6110e4565b83856110e391906137bd565b5b90505f5f90508167ffffffffffffffff811115611104576111036137f0565b5b6040519080825280602002602001820160405280156111325781602001602082028036833780820191505090505b5093508167ffffffffffffffff81111561114f5761114e6137f0565b5b60405190808252806020026020018201604052801561118857816020015b611175612c94565b81526020019060019003908161116d5790505b5092505f5f90505b82811015611402575f6111b882896111a891906137bd565b6001612ab590919063ffffffff16565b90507f000000000000000000000000000000000000000000000000000000000000000073ffffffffffffffffffffffffffffffffffffffff166391006745828b6040518363ffffffff1660e01b815260040161121592919061381d565b602060405180830381865afa158015611230573d5f5f3e3d5ffd5b505050506040513d601f19601f820116820180604052508101906112549190613879565b156113f4578086848151811061126d5761126c6138a4565b5b602002602001019073ffffffffffffffffffffffffffffffffffffffff16908173ffffffffffffffffffffffffffffffffffffffff168152505060035f8273ffffffffffffffffffffffffffffffffffffffff1673ffffffffffffffffffffffffffffffffffffffff1681526020019081526020015f206040518060800160405290815f82015f9054906101000a900473ffffffffffffffffffffffffffffffffffffffff1673ffffffffffffffffffffffffffffffffffffffff1673ffffffffffffffffffffffffffffffffffffffff1681526020015f820160149054906101000a900463ffffffff1663ffffffff1663ffffffff1681526020015f820160189054906101000a900463ffffffff1663ffffffff1663ffffffff1681526020015f8201601c9054906101000a900460ff1660038111156113b1576113b061334f565b5b60038111156113c3576113c261334f565b5b815250508584815181106113da576113d96138a4565b5b602002602001018190525082806113f0906138d1565b9350505b508080600101915050611190565b508084528083525050935093915050565b3061141d81612326565b611453576040517f932d94f700000000000000000000000000000000000000000000000000000000815260040160405180910390fd5b8160055f6101000a81548163ffffffff021916908363ffffffff1602179055507fc3c99803ad2e80be7382791ca0b23147a94739b9e66a656b9c8c47f9d6963414826040516114a29190612d97565b60405180910390a15050565b5f5f60019054906101000a900460ff161590508080156114de575060015f5f9054906101000a900460ff1660ff16105b8061150b57506114ed30612acc565b15801561150a575060015f5f9054906101000a900460ff1660ff16145b5b61154a576040517f08c379a000000000000000000000000000000000000000000000000000000000815260040161154190613988565b60405180910390fd5b60015f5f6101000a81548160ff021916908360ff16021790555080156115855760015f60016101000a81548160ff0219169083151502179055505b7f000000000000000000000000000000000000000000000000000000000000000073ffffffffffffffffffffffffffffffffffffffff1663628806ef7f00000000000000000000000000000000000000000000000000000000000000006040518263ffffffff1660e01b81526004016115fe9190613045565b5f604051808303815f87803b158015611615575f5ffd5b505af1158015611627573d5f5f3e3d5ffd5b505050507f000000000000000000000000000000000000000000000000000000000000000073ffffffffffffffffffffffffffffffffffffffff1663eb5a4e8730306040518363ffffffff1660e01b815260040161168692919061381d565b5f604051808303815f87803b15801561169d575f5ffd5b505af11580156116af573d5f5f3e3d5ffd5b505050507f000000000000000000000000000000000000000000000000000000000000000073ffffffffffffffffffffffffffffffffffffffff1663628806ef306040518263ffffffff1660e01b815260040161170c9190613045565b5f604051808303815f87803b158015611723575f5ffd5b505af1158015611735573d5f5f3e3d5ffd5b505050507f000000000000000000000000000000000000000000000000000000000000000073ffffffffffffffffffffffffffffffffffffffff1663eb5a4e8730846040518363ffffffff1660e01b815260040161179492919061381d565b5f604051808303815f87803b1580156117ab575f5ffd5b505af11580156117bd573d5f5f3e3d5ffd5b505050505f7f000000000000000000000000000000000000000000000000000000000000000073ffffffffffffffffffffffffffffffffffffffff16633a10eef76040518163ffffffff1660e01b81526004016020604051808303815f875af115801561182c573d5f5f3e3d5ffd5b505050506040513d601f19601f8201168201806040525081019061185091906136ef565b90507f000000000000000000000000000000000000000000000000000000000000000073ffffffffffffffffffffffffffffffffffffffff166374da4713826040518263ffffffff1660e01b81526004016118ab9190612d97565b5f604051808303815f87803b1580156118c2575f5ffd5b505af11580156118d4573d5f5f3e3d5ffd5b505050507f000000000000000000000000000000000000000000000000000000000000000073ffffffffffffffffffffffffffffffffffffffff16631017873a60405180604001604052807f000000000000000000000000000000000000000000000000000000000000000073ffffffffffffffffffffffffffffffffffffffff1681526020018463ffffffff168152507f00000000000000000000000000000000000000000000000000000000000000006040518363ffffffff1660e01b81526004016119a39291906139a6565b5f604051808303815f87803b1580156119ba575f5ffd5b505af11580156119cc573d5f5f3e3d5ffd5b505050507f000000000000000000000000000000000000000000000000000000000000000073ffffffffffffffffffffffffffffffffffffffff16634ca62978826040518263ffffffff1660e01b8152600401611a299190612d97565b5f604051808303815f87803b158015611a40575f5ffd5b505af1158015611a52573d5f5f3e3d5ffd5b50505050508015611aaf575f5f60016101000a81548160ff0219169083151502179055507f7f26b83ff96e1f2b6a682f133852f6798a09c465da95921460cefb38474024986001604051611aa69190613a12565b60405180910390a15b5050565b30611abd81612326565b611af3576040517f932d94f700000000000000000000000000000000000000000000000000000000815260040160405180910390fd5b8160045f8573ffffffffffffffffffffffffffffffffffffffff1673ffffffffffffffffffffffffffffffffffffffff1681526020019081526020015f205f015f6101000a81548163ffffffff021916908363ffffffff1602179055508273ffffffffffffffffffffffffffffffffffffffff167f708c955faa87ece750a9700c153a20797167e2fcbde9fca9186801f874663a9983604051611b969190612d97565b60405180910390a2505050565b5f60035f8373ffffffffffffffffffffffffffffffffffffffff1673ffffffffffffffffffffffffffffffffffffffff1681526020019081526020015f205f01601c9054906101000a900460ff169050919050565b30611c0281612326565b611c38576040517f932d94f700000000000000000000000000000000000000000000000000000000815260040160405180910390fd5b81600380811115611c4c57611c4b61334f565b5b60035f8373ffffffffffffffffffffffffffffffffffffffff1673ffffffffffffffffffffffffffffffffffffffff1681526020019081526020015f205f01601c9054906101000a900460ff166003811115611cab57611caa61334f565b5b03611ce2576040517f609749e200000000000000000000000000000000000000000000000000000000815260040160405180910390fd5b5f6003811115611cf557611cf461334f565b5b60035f8373ffffffffffffffffffffffffffffffffffffffff1673ffffffffffffffffffffffffffffffffffffffff1681526020019081526020015f205f01601c9054906101000a900460ff166003811115611d5457611d5361334f565b5b03611d8b576040517f609749e200000000000000000000000000000000000000000000000000000000815260040160405180910390fd5b611d9483612510565b8273ffffffffffffffffffffffffffffffffffffffff167f4636ad9a0a072d9c8b05a5bcda7d33256c5401515e612c25c13273b378cb280960405160405180910390a2505050565b5f82611de781612326565b611e1d576040517f932d94f700000000000000000000000000000000000000000000000000000000815260040160405180910390fd5b83600380811115611e3157611e3061334f565b5b60035f8373ffffffffffffffffffffffffffffffffffffffff1673ffffffffffffffffffffffffffffffffffffffff1681526020019081526020015f205f01601c9054906101000a900460ff166003811115611e9057611e8f61334f565b5b03611ec7576040517f609749e200000000000000000000000000000000000000000000000000000000815260040160405180910390fd5b5f6003811115611eda57611ed961334f565b5b60035f8373ffffffffffffffffffffffffffffffffffffffff1673ffffffffffffffffffffffffffffffffffffffff1681526020019081526020015f205f01601c9054906101000a900460ff166003811115611f3957611f3861334f565b5b03611f70576040517f609749e200000000000000000000000000000000000000000000000000000000815260040160405180910390fd5b611f7a858561284b565b9250505092915050565b80611f8e81612326565b611fc4576040517f932d94f700000000000000000000000000000000000000000000000000000000815260040160405180910390fd5b816001806003811115611fda57611fd961334f565b5b60035f8473ffffffffffffffffffffffffffffffffffffffff1673ffffffffffffffffffffffffffffffffffffffff1681526020019081526020015f205f01601c9054906101000a900460ff1660038111156120395761203861334f565b5b14612070576040517f609749e200000000000000000000000000000000000000000000000000000000815260040160405180910390fd5b600260035f8673ffffffffffffffffffffffffffffffffffffffff1673ffffffffffffffffffffffffffffffffffffffff1681526020019081526020015f205f01601c6101000a81548160ff021916908360038111156120d3576120d261334f565b5b02179055508373ffffffffffffffffffffffffffffffffffffffff167f143b9e3b5aa0fb8cf19b1bdb2eb8d7a94657d4b505070c667433d322b90b1f7860405160405180910390a250505050565b7f000000000000000000000000000000000000000000000000000000000000000081565b5f7f8b73c3c69bb8fe3d512ecc4cf759cc79239f7b179b0ffacaa9a75d522b39400f6040518060400160405280600a81526020017f456967656e4c6179657200000000000000000000000000000000000000000000815250805190602001206121ac612aee565b8051906020012046306040516020016121c9959493929190613a2b565b60405160208183030381529060405280519060200120905090565b5f82826040516020016121f8929190613ae1565b60405160208183030381529060405280519060200120905092915050565b606060405180610940016040528061090e81526020016143f161090e91397f000000000000000000000000000000000000000000000000000000000000000063c4d66de860e01b8460405160240161226e9190613045565b604051602081830303815290604052907bffffffffffffffffffffffffffffffffffffffffffffffffffffffff19166020820180517bffffffffffffffffffffffffffffffffffffffffffffffffffffffff83818316178352505050506040516020016122dc929190613b5e565b6040516020818303038152906040526040516020016122fc929190613bc6565b6040516020818303038152906040529050919050565b5f61231e838330612b5f565b905092915050565b5f7f000000000000000000000000000000000000000000000000000000000000000073ffffffffffffffffffffffffffffffffffffffff1663df595cb88333305f357fffffffff00000000000000000000000000000000000000000000000000000000166040518563ffffffff1660e01b81526004016123a99493929190613be9565b6020604051808303815f875af11580156123c5573d5f5f3e3d5ffd5b505050506040513d601f19601f820116820180604052508101906123e99190613879565b9050919050565b600160035f8373ffffffffffffffffffffffffffffffffffffffff1673ffffffffffffffffffffffffffffffffffffffff1681526020019081526020015f205f01601c6101000a81548160ff021916908360038111156124535761245261334f565b5b02179055508073ffffffffffffffffffffffffffffffffffffffff167f8426864999f5f9244a203f75107b05f8b474838bc43ff0d8abe18ee5f442751360405160405180910390a250565b60605f6124aa83612b89565b90505f602067ffffffffffffffff8111156124c8576124c76137f0565b5b6040519080825280601f01601f1916602001820160405280156124fa5781602001600182028036833780820191505090505b5090508181528360208201528092505050919050565b6003805f8373ffffffffffffffffffffffffffffffffffffffff1673ffffffffffffffffffffffffffffffffffffffff1681526020019081526020015f205f01601c6101000a81548160ff021916908360038111156125725761257161334f565b5b02179055506005600481819054906101000a900463ffffffff168092919061259990613c2c565b91906101000a81548163ffffffff021916908363ffffffff160217905550505f60035f8373ffffffffffffffffffffffffffffffffffffffff1673ffffffffffffffffffffffffffffffffffffffff1681526020019081526020015f205f015f9054906101000a900473ffffffffffffffffffffffffffffffffffffffff16905060045f8273ffffffffffffffffffffffffffffffffffffffff1673ffffffffffffffffffffffffffffffffffffffff1681526020019081526020015f205f01600481819054906101000a900463ffffffff168092919061267990613c2c565b91906101000a81548163ffffffff021916908363ffffffff160217905550508173ffffffffffffffffffffffffffffffffffffffff167f2465e924a1e9a02843493e65702fd09152c8a631caf7b9b58e4b01ee20ced41660405160405180910390a25050565b5f6126e8612145565b826040516020016126fa929190613ca7565b604051602081830303815290604052805190602001209050919050565b5f8347101561275b576040517f08c379a000000000000000000000000000000000000000000000000000000000815260040161275290613d27565b60405180910390fd5b5f82510361279e576040517f08c379a000000000000000000000000000000000000000000000000000000000815260040161279590613d8f565b60405180910390fd5b8282516020840186f590505f73ffffffffffffffffffffffffffffffffffffffff168173ffffffffffffffffffffffffffffffffffffffff1603612817576040517f08c379a000000000000000000000000000000000000000000000000000000000815260040161280e90613df7565b60405180910390fd5b9392505050565b5f612843835f018373ffffffffffffffffffffffffffffffffffffffff165f1b612bd7565b905092915050565b5f600182805f019061285d9190613e21565b805f019061286b9190613e48565b9050146128a4576040517f98c82cef00000000000000000000000000000000000000000000000000000000815260040160405180910390fd5b7f000000000000000000000000000000000000000000000000000000000000000073ffffffffffffffffffffffffffffffffffffffff16637c09ea8260405180604001604052807f000000000000000000000000000000000000000000000000000000000000000073ffffffffffffffffffffffffffffffffffffffff16815260200160035f8873ffffffffffffffffffffffffffffffffffffffff1673ffffffffffffffffffffffffffffffffffffffff1681526020019081526020015f205f0160149054906101000a900463ffffffff1663ffffffff1681525084805f019061298f9190613e21565b6040518363ffffffff1660e01b81526004016129ac929190614168565b6020604051808303815f875af11580156129c8573d5f5f3e3d5ffd5b505050506040513d601f19601f820116820180604052508101906129ec91906141aa565b90504360035f8573ffffffffffffffffffffffffffffffffffffffff1673ffffffffffffffffffffffffffffffffffffffff1681526020019081526020015f205f0160186101000a81548163ffffffff021916908363ffffffff1602179055508273ffffffffffffffffffffffffffffffffffffffff167fb5d2b7df0352a87a587a430bfceab43859b3b3c404f0425c4c1ab0675ed57b948284604051612a9492919061435d565b60405180910390a292915050565b5f612aae825f01612c3e565b9050919050565b5f612ac2835f0183612c4d565b5f1c905092915050565b5f5f8273ffffffffffffffffffffffffffffffffffffffff163b119050919050565b60605f612b1a7f000000000000000000000000000000000000000000000000000000000000000061249e565b9050805f81518110612b2f57612b2e6138a4565b5b602001015160f81c60f81b604051602001612b4a91906143d6565b60405160208183030381529060405291505090565b5f604051836040820152846020820152828152600b810160ff815360558120925050509392505050565b5f5f60ff835f1c169050601f811115612bce576040517fb3512b0c00000000000000000000000000000000000000000000000000000000815260040160405180910390fd5b80915050919050565b5f612be28383612c74565b612c3457825f0182908060018154018082558091505060019003905f5260205f20015f9091909190915055825f0180549050836001015f8481526020019081526020015f208190555060019050612c38565b5f90505b92915050565b5f815f01805490509050919050565b5f825f018281548110612c6357612c626138a4565b5b905f5260205f200154905092915050565b5f5f836001015f8481526020019081526020015f20541415905092915050565b60405180608001604052805f73ffffffffffffffffffffffffffffffffffffffff1681526020015f63ffffffff1681526020015f63ffffffff1681526020015f6003811115612ce657612ce561334f565b5b81525090565b5f5ffd5b5f5ffd5b5f73ffffffffffffffffffffffffffffffffffffffff82169050919050565b5f612d1d82612cf4565b9050919050565b612d2d81612d13565b8114612d37575f5ffd5b50565b5f81359050612d4881612d24565b92915050565b5f60208284031215612d6357612d62612cec565b5b5f612d7084828501612d3a565b91505092915050565b5f63ffffffff82169050919050565b612d9181612d79565b82525050565b5f602082019050612daa5f830184612d88565b92915050565b5f819050919050565b5f612dd3612dce612dc984612cf4565b612db0565b612cf4565b9050919050565b5f612de482612db9565b9050919050565b5f612df582612dda565b9050919050565b612e0581612deb565b82525050565b5f602082019050612e1e5f830184612dfc565b92915050565b5f819050919050565b612e3681612e24565b8114612e40575f5ffd5b50565b5f81359050612e5181612e2d565b92915050565b5f5f60408385031215612e6d57612e6c612cec565b5b5f612e7a85828601612d3a565b9250506020612e8b85828601612e43565b9150509250929050565b5f612e9f82612dda565b9050919050565b612eaf81612e95565b82525050565b5f602082019050612ec85f830184612ea6565b92915050565b5f612ed882612dda565b9050919050565b612ee881612ece565b82525050565b5f602082019050612f015f830184612edf565b92915050565b5f612f1182612dda565b9050919050565b612f2181612f07565b82525050565b5f602082019050612f3a5f830184612f18565b92915050565b5f612f4a82612d13565b9050919050565b612f5a81612f40565b8114612f64575f5ffd5b50565b5f81359050612f7581612f51565b92915050565b5f60208284031215612f9057612f8f612cec565b5b5f612f9d84828501612f67565b91505092915050565b5f81519050919050565b5f82825260208201905092915050565b8281835e5f83830152505050565b5f601f19601f8301169050919050565b5f612fe882612fa6565b612ff28185612fb0565b9350613002818560208601612fc0565b61300b81612fce565b840191505092915050565b5f6020820190508181035f83015261302e8184612fde565b905092915050565b61303f81612d13565b82525050565b5f6020820190506130585f830184613036565b92915050565b5f61306882612dda565b9050919050565b6130788161305e565b82525050565b5f6020820190506130915f83018461306f565b92915050565b6130a081612e24565b82525050565b5f6020820190506130b95f830184613097565b92915050565b5f7fffffffff0000000000000000000000000000000000000000000000000000000082169050919050565b6130f3816130bf565b81146130fd575f5ffd5b50565b5f8135905061310e816130ea565b92915050565b5f819050919050565b61312681613114565b8114613130575f5ffd5b50565b5f813590506131418161311d565b92915050565b5f5f6040838503121561315d5761315c612cec565b5b5f61316a85828601613100565b925050602061317b85828601613133565b9150509250929050565b5f5ffd5b5f6060828403121561319e5761319d613185565b5b81905092915050565b5f5f604083850312156131bd576131bc612cec565b5b5f6131ca85828601612e43565b925050602083013567ffffffffffffffff8111156131eb576131ea612cf0565b5b6131f785828601613189565b9150509250929050565b5f5f5f6060848603121561321857613217612cec565b5b5f61322586828701612d3a565b935050602061323686828701613133565b925050604061324786828701613133565b9150509250925092565b5f81519050919050565b5f82825260208201905092915050565b5f819050602082019050919050565b61328381612e95565b82525050565b5f613294838361327a565b60208301905092915050565b5f602082019050919050565b5f6132b682613251565b6132c0818561325b565b93506132cb8361326b565b805f5b838110156132fb5781516132e28882613289565b97506132ed836132a0565b9250506001810190506132ce565b5085935050505092915050565b5f81519050919050565b5f82825260208201905092915050565b5f819050602082019050919050565b61333a81612d13565b82525050565b61334981612d79565b82525050565b7f4e487b71000000000000000000000000000000000000000000000000000000005f52602160045260245ffd5b6004811061338d5761338c61334f565b5b50565b5f81905061339d8261337c565b919050565b5f6133ac82613390565b9050919050565b6133bc816133a2565b82525050565b608082015f8201516133d65f850182613331565b5060208201516133e96020850182613340565b5060408201516133fc6040850182613340565b50606082015161340f60608501826133b3565b50505050565b5f61342083836133c2565b60808301905092915050565b5f602082019050919050565b5f61344282613308565b61344c8185613312565b935061345783613322565b805f5b8381101561348757815161346e8882613415565b97506134798361342c565b92505060018101905061345a565b5085935050505092915050565b5f6040820190508181035f8301526134ac81856132ac565b905081810360208301526134c08184613438565b90509392505050565b6134d281612d79565b81146134dc575f5ffd5b50565b5f813590506134ed816134c9565b92915050565b5f6020828403121561350857613507612cec565b5b5f613515848285016134df565b91505092915050565b5f5f6040838503121561353457613533612cec565b5b5f61354185828601612d3a565b9250506020613552858286016134df565b9150509250929050565b613565816133a2565b82525050565b5f60208201905061357e5f83018461355c565b92915050565b5f5f6040838503121561359a57613599612cec565b5b5f6135a785828601612f67565b925050602083013567ffffffffffffffff8111156135c8576135c7612cf0565b5b6135d485828601613189565b9150509250929050565b6135e781613114565b82525050565b5f6020820190506136005f8301846135de565b92915050565b5f61361082612dda565b9050919050565b61362081613606565b82525050565b5f6020820190506136395f830184613617565b92915050565b613648816130bf565b82525050565b5f6060820190506136615f830186613097565b61366e602083018561363f565b61367b60408301846135de565b949350505050565b7f4e487b71000000000000000000000000000000000000000000000000000000005f52601160045260245ffd5b5f6136ba82612d79565b915063ffffffff82036136d0576136cf613683565b5b600182019050919050565b5f815190506136e9816134c9565b92915050565b5f6020828403121561370457613703612cec565b5b5f613711848285016136db565b91505092915050565b604082015f82015161372e5f850182613331565b5060208201516137416020850182613340565b50505050565b7f68747470733a2f2f656967656e636c6f75642e78797a000000000000000000005f82015250565b5f61377b601683612fb0565b915061378682613747565b602082019050919050565b5f6060820190506137a45f83018461371a565b81810360408301526137b58161376f565b905092915050565b5f6137c782613114565b91506137d283613114565b92508282019050808211156137ea576137e9613683565b5b92915050565b7f4e487b71000000000000000000000000000000000000000000000000000000005f52604160045260245ffd5b5f6040820190506138305f830185613036565b61383d6020830184613036565b9392505050565b5f8115159050919050565b61385881613844565b8114613862575f5ffd5b50565b5f815190506138738161384f565b92915050565b5f6020828403121561388e5761388d612cec565b5b5f61389b84828501613865565b91505092915050565b7f4e487b71000000000000000000000000000000000000000000000000000000005f52603260045260245ffd5b5f6138db82613114565b91507fffffffffffffffffffffffffffffffffffffffffffffffffffffffffffffffff820361390d5761390c613683565b5b600182019050919050565b7f496e697469616c697a61626c653a20636f6e747261637420697320616c7265615f8201527f647920696e697469616c697a6564000000000000000000000000000000000000602082015250565b5f613972602e83612fb0565b915061397d82613918565b604082019050919050565b5f6020820190508181035f83015261399f81613966565b9050919050565b5f6060820190506139b95f83018561371a565b6139c66040830184613036565b9392505050565b5f819050919050565b5f60ff82169050919050565b5f6139fc6139f76139f2846139cd565b612db0565b6139d6565b9050919050565b613a0c816139e2565b82525050565b5f602082019050613a255f830184613a03565b92915050565b5f60a082019050613a3e5f830188613097565b613a4b6020830187613097565b613a586040830186613097565b613a6560608301856135de565b613a726080830184613036565b9695505050505050565b5f8160601b9050919050565b5f613a9282613a7c565b9050919050565b5f613aa382613a88565b9050919050565b613abb613ab682612d13565b613a99565b82525050565b5f819050919050565b613adb613ad682612e24565b613ac1565b82525050565b5f613aec8285613aaa565b601482019150613afc8284613aca565b6020820191508190509392505050565b5f81519050919050565b5f82825260208201905092915050565b5f613b3082613b0c565b613b3a8185613b16565b9350613b4a818560208601612fc0565b613b5381612fce565b840191505092915050565b5f604082019050613b715f83018561306f565b8181036020830152613b838184613b26565b90509392505050565b5f81905092915050565b5f613ba082613b0c565b613baa8185613b8c565b9350613bba818560208601612fc0565b80840191505092915050565b5f613bd18285613b96565b9150613bdd8284613b96565b91508190509392505050565b5f608082019050613bfc5f830187613036565b613c096020830186613036565b613c166040830185613036565b613c23606083018461363f565b95945050505050565b5f613c3682612d79565b91505f8203613c4857613c47613683565b5b600182039050919050565b5f81905092915050565b7f19010000000000000000000000000000000000000000000000000000000000005f82015250565b5f613c91600283613c53565b9150613c9c82613c5d565b600282019050919050565b5f613cb182613c85565b9150613cbd8285613aca565b602082019150613ccd8284613aca565b6020820191508190509392505050565b7f437265617465323a20696e73756666696369656e742062616c616e63650000005f82015250565b5f613d11601d83612fb0565b9150613d1c82613cdd565b602082019050919050565b5f6020820190508181035f830152613d3e81613d05565b9050919050565b7f437265617465323a2062797465636f6465206c656e677468206973207a65726f5f82015250565b5f613d79602083612fb0565b9150613d8482613d45565b602082019050919050565b5f6020820190508181035f830152613da681613d6d565b9050919050565b7f437265617465323a204661696c6564206f6e206465706c6f79000000000000005f82015250565b5f613de1601983612fb0565b9150613dec82613dad565b602082019050919050565b5f6020820190508181035f830152613e0e81613dd5565b9050919050565b5f5ffd5b5f5ffd5b5f5ffd5b5f82356001604003833603038112613e3c57613e3b613e15565b5b80830191505092915050565b5f5f83356001602003843603038112613e6457613e63613e15565b5b80840192508235915067ffffffffffffffff821115613e8657613e85613e19565b5b602083019250602082023603831315613ea257613ea1613e1d565b5b509250929050565b5f5ffd5b5f5ffd5b5f5ffd5b5f5f83356001602003843603038112613ed257613ed1613eb2565b5b83810192508235915060208301925067ffffffffffffffff821115613efa57613ef9613eaa565b5b602082023603831315613f1057613f0f613eae565b5b509250929050565b5f82825260208201905092915050565b5f819050919050565b5f613f3f6020840184612e43565b905092915050565b613f5081612e24565b82525050565b5f5f83356001602003843603038112613f7257613f71613eb2565b5b83810192508235915060208301925067ffffffffffffffff821115613f9a57613f99613eaa565b5b600182023603831315613fb057613faf613eae565b5b509250929050565b5f82825260208201905092915050565b828183375f83830152505050565b5f613fe18385613fb8565b9350613fee838584613fc8565b613ff783612fce565b840190509392505050565b5f604083016140135f840184613f31565b61401f5f860182613f47565b5061402d6020840184613f56565b8583036020870152614040838284613fd6565b925050508091505092915050565b5f6140598383614002565b905092915050565b5f8235600160400383360303811261407c5761407b613eb2565b5b82810191505092915050565b5f602082019050919050565b5f61409f8385613f18565b9350836020840285016140b184613f28565b805f5b878110156140f45784840389526140cb8284614061565b6140d5858261404e565b94506140e083614088565b925060208a019950506001810190506140b4565b50829750879450505050509392505050565b5f61411460208401846134df565b905092915050565b5f6040830161412d5f840184613eb6565b8583035f87015261413f838284614094565b925050506141506020840184614106565b61415d6020860182613340565b508091505092915050565b5f60608201905061417b5f83018561371a565b818103604083015261418d818461411c565b90509392505050565b5f815190506141a48161311d565b92915050565b5f602082840312156141bf576141be612cec565b5b5f6141cc84828501614196565b91505092915050565b5f823560016040038336030381126141f0576141ef613eb2565b5b82810191505092915050565b5f6040830161420d5f840184613eb6565b8583035f87015261421f838284614094565b925050506142306020840184614106565b61423d6020860182613340565b508091505092915050565b5f5f8335600160200384360303811261426457614263613eb2565b5b83810192508235915060208301925067ffffffffffffffff82111561428c5761428b613eaa565b5b6001820236038313156142a2576142a1613eae565b5b509250929050565b5f82825260208201905092915050565b5f6142c583856142aa565b93506142d2838584613fc8565b6142db83612fce565b840190509392505050565b5f606083016142f75f8401846141d5565b8482035f86015261430882826141fc565b9150506143186020840184614248565b858303602087015261432b8382846142ba565b9250505061433c6040840184614248565b858303604087015261434f8382846142ba565b925050508091505092915050565b5f6040820190506143705f8301856135de565b818103602083015261438281846142e6565b90509392505050565b5f7fff0000000000000000000000000000000000000000000000000000000000000082169050919050565b5f819050919050565b6143d06143cb8261438b565b6143b6565b82525050565b5f6143e182846143bf565b6001820191508190509291505056fe608060405260405161090e38038061090e83398101604081905261002291610460565b61002e82826000610035565b505061058a565b61003e83610100565b6040516001600160a01b038416907f1cf3b03a6cf19fa2baba4df148e9dcabedea7f8a5c07840e207e5c089be95d3e90600090a260008251118061007f5750805b156100fb576100f9836001600160a01b0316635c60da1b6040518163ffffffff1660e01b8152600401602060405180830381865afa1580156100c5573d6000803e3d6000fd5b505050506040513d601f19601f820116820180604052508101906100e99190610520565b836102a360201b6100291760201c565b505b505050565b610113816102cf60201b6100551760201c565b6101725760405162461bcd60e51b815260206004820152602560248201527f455243313936373a206e657720626561636f6e206973206e6f74206120636f6e6044820152641d1c9858dd60da1b60648201526084015b60405180910390fd5b6101e6816001600160a01b0316635c60da1b6040518163ffffffff1660e01b8152600401602060405180830381865afa1580156101b3573d6000803e3d6000fd5b505050506040513d601f19601f820116820180604052508101906101d79190610520565b6102cf60201b6100551760201c565b61024b5760405162461bcd60e51b815260206004820152603060248201527f455243313936373a20626561636f6e20696d706c656d656e746174696f6e206960448201526f1cc81b9bdd08184818dbdb9d1c9858dd60821b6064820152608401610169565b806102827fa3f0ad74e5423aebfd80d3ef4346578335a9a72aeaee59ff6cb3582b35133d5060001b6102de60201b6100641760201c565b80546001600160a01b0319166001600160a01b039290921691909117905550565b60606102c883836040518060600160405280602781526020016108e7602791396102e1565b9392505050565b6001600160a01b03163b151590565b90565b6060600080856001600160a01b0316856040516102fe919061053b565b600060405180830381855af49150503d8060008114610339576040519150601f19603f3d011682016040523d82523d6000602084013e61033e565b606091505b5090925090506103508683838761035a565b9695505050505050565b606083156103c65782516103bf576001600160a01b0385163b6103bf5760405162461bcd60e51b815260206004820152601d60248201527f416464726573733a2063616c6c20746f206e6f6e2d636f6e74726163740000006044820152606401610169565b50816103d0565b6103d083836103d8565b949350505050565b8151156103e85781518083602001fd5b8060405162461bcd60e51b81526004016101699190610557565b80516001600160a01b038116811461041957600080fd5b919050565b634e487b7160e01b600052604160045260246000fd5b60005b8381101561044f578181015183820152602001610437565b838111156100f95750506000910152565b6000806040838503121561047357600080fd5b61047c83610402565b60208401519092506001600160401b038082111561049957600080fd5b818501915085601f8301126104ad57600080fd5b8151818111156104bf576104bf61041e565b604051601f8201601f19908116603f011681019083821181831017156104e7576104e761041e565b8160405282815288602084870101111561050057600080fd5b610511836020830160208801610434565b80955050505050509250929050565b60006020828403121561053257600080fd5b6102c882610402565b6000825161054d818460208701610434565b9190910192915050565b6020815260008251806020840152610576816040850160208701610434565b601f01601f19169190910160400192915050565b61034e806105996000396000f3fe60806040523661001357610011610017565b005b6100115b610027610022610067565b610100565b565b606061004e83836040518060600160405280602781526020016102f260279139610124565b9392505050565b6001600160a01b03163b151590565b90565b600061009a7fa3f0ad74e5423aebfd80d3ef4346578335a9a72aeaee59ff6cb3582b35133d50546001600160a01b031690565b6001600160a01b0316635c60da1b6040518163ffffffff1660e01b8152600401602060405180830381865afa1580156100d7573d6000803e3d6000fd5b505050506040513d601f19601f820116820180604052508101906100fb9190610249565b905090565b3660008037600080366000845af43d6000803e80801561011f573d6000f35b3d6000fd5b6060600080856001600160a01b03168560405161014191906102a2565b600060405180830381855af49150503d806000811461017c576040519150601f19603f3d011682016040523d82523d6000602084013e610181565b606091505b50915091506101928683838761019c565b9695505050505050565b6060831561020d578251610206576001600160a01b0385163b6102065760405162461bcd60e51b815260206004820152601d60248201527f416464726573733a2063616c6c20746f206e6f6e2d636f6e747261637400000060448201526064015b60405180910390fd5b5081610217565b610217838361021f565b949350505050565b81511561022f5781518083602001fd5b8060405162461bcd60e51b81526004016101fd91906102be565b60006020828403121561025b57600080fd5b81516001600160a01b038116811461004e57600080fd5b60005b8381101561028d578181015183820152602001610275565b8381111561029c576000848401525b50505050565b600082516102b4818460208701610272565b9190910192915050565b60208152600082518060208401526102dd816040850160208701610272565b601f01601f1916919091016040019291505056fe416464726573733a206c6f772d6c6576656c2064656c65676174652063616c6c206661696c6564a2646970667358221220d51e81d3bc5ed20a26aeb05dce7e825c503b2061aa78628027300c8d65b9d89a64736f6c634300080c0033416464726573733a206c6f772d6c6576656c2064656c65676174652063616c6c206661696c6564a2646970667358221220d182af5485b34e3ceaeadaa46336f3d445058cfe9b7bccb27e26382278c8b17364736f6c634300081e0033",
    "linkReferences": {}
  },
  "methodIdentifiers": {
    "API_PERMISSION_TYPEHASH()": "8a7f922c",
    "appBeacon()": "8a52d0b5",
    "calculateApiPermissionDigestHash(bytes4,uint256)": "9690b7e7",
    "calculateAppId(address,bytes32)": "36b18874",
    "computeAVSRegistrar()": "ef6d92c6",
    "computeOperator()": "3fc4cbfd",
    "createApp(bytes32,(((bytes32,string)[],uint32),bytes,bytes))": "a60daa8f",
    "domainSeparator()": "f698da25",
    "getActiveAppCount(address)": "0c2199fb",
    "getAppCreator(address)": "67962d48",
    "getAppLatestReleaseBlockNumber(address)": "9ffbdce6",
    "getAppOperatorSetId(address)": "6eb2099f",
    "getAppStatus(address)": "d5aae178",
    "getMaxActiveAppsPerUser(address)": "40f70a9e",
    "globalActiveAppCount()": "a8aa2bd3",
    "initialize(address)": "c4d66de8",
    "listApps(address,uint256,uint256)": "b2676e3a",
    "maxGlobalActiveApps()": "a46530a2",
    "permissionController()": "4657e26a",
    "releaseManager()": "0d78573e",
    "setMaxActiveAppsPerUser(address,uint32)": "d49fec2b",
    "setMaxGlobalActiveApps(uint32)": "b438c141",
    "startApp(address)": "4dd8ef81",
    "stopApp(address)": "e70b81b1",
    "terminateApp(address)": "90e2196b",
    "terminateAppByAdmin(address)": "d66f7771",
    "upgradeApp(address,(((bytes32,string)[],uint32),bytes,bytes))": "d80a956b",
    "version()": "54fd4d50"
  },
  "id": 120
}