{
  "abi": [
    {
      "type": "constructor",
      "inputs": [
        {
          "name": "_version",
          "type": "string",
          "internalType": "string"
        },
        {
          "name": "_permissionController",
          "type": "address",
          "internalType": "contract IPermissionController"
        },
        {
          "name": "_releaseManager",
          "type": "address",
          "internalType": "contract IReleaseManager"
        },
        {
          "name": "_computeAVSRegistrar",
          "type": "address",
          "internalType": "contract IComputeAVSRegistrar"
        },
        {
          "name": "_computeOperator",
          "type": "address",
          "internalType": "contract IComputeOperator"
        },
        {
          "name": "_appBeacon",
          "type": "address",
          "internalType": "contract IBeacon"
        }
      ],
      "stateMutability": "nonpayable"
    },
    {
      "type": "function",
      "name": "API_PERMISSION_TYPEHASH",
      "inputs": [],
      "outputs": [
        {
          "name": "",
          "type": "bytes32",
          "internalType": "bytes32"
        }
      ],
      "stateMutability": "view"
    },
    {
      "type": "function",
      "name": "appBeacon",
      "inputs": [],
      "outputs": [
        {
          "name": "",
          "type": "address",
          "internalType": "contract IBeacon"
        }
      ],
      "stateMutability": "view"
    },
    {
      "type": "function",
      "name": "calculateApiPermissionDigestHash",
      "inputs": [
        {
          "name": "permission",
          "type": "bytes4",
          "internalType": "bytes4"
        },
        {
          "name": "expiry",
          "type": "uint256",
          "internalType": "uint256"
        }
      ],
      "outputs": [
        {
          "name": "",
          "type": "bytes32",
          "internalType": "bytes32"
        }
      ],
      "stateMutability": "view"
    },
    {
      "type": "function",
      "name": "calculateAppId",
      "inputs": [
        {
          "name": "deployer",
          "type": "address",
          "internalType": "address"
        },
        {
          "name": "salt",
          "type": "bytes32",
          "internalType": "bytes32"
        }
      ],
      "outputs": [
        {
          "name": "",
          "type": "address",
          "internalType": "contract IApp"
        }
      ],
      "stateMutability": "view"
    },
    {
      "type": "function",
      "name": "computeAVSRegistrar",
      "inputs": [],
      "outputs": [
        {
          "name": "",
          "type": "address",
          "internalType": "contract IComputeAVSRegistrar"
        }
      ],
      "stateMutability": "view"
    },
    {
      "type": "function",
      "name": "computeOperator",
      "inputs": [],
      "outputs": [
        {
          "name": "",
          "type": "address",
          "internalType": "contract IComputeOperator"
        }
      ],
      "stateMutability": "view"
    },
    {
      "type": "function",
      "name": "createApp",
      "inputs": [
        {
          "name": "salt",
          "type": "bytes32",
          "internalType": "bytes32"
        },
        {
          "name": "release",
          "type": "tuple",
          "internalType": "struct IAppController.Release",
          "components": [
            {
              "name": "rmsRelease",
              "type": "tuple",
              "internalType": "struct IReleaseManagerTypes.Release",
              "components": [
                {
                  "name": "artifacts",
                  "type": "tuple[]",
                  "internalType": "struct IReleaseManagerTypes.Artifact[]",
                  "components": [
                    {
                      "name": "digest",
                      "type": "bytes32",
                      "internalType": "bytes32"
                    },
                    {
                      "name": "registry",
                      "type": "string",
                      "internalType": "string"
                    }
                  ]
                },
                {
                  "name": "upgradeByTime",
                  "type": "uint32",
                  "internalType": "uint32"
                }
              ]
            },
            {
              "name": "publicEnv",
              "type": "bytes",
              "internalType": "bytes"
            },
            {
              "name": "encryptedEnv",
              "type": "bytes",
              "internalType": "bytes"
            }
          ]
        }
      ],
      "outputs": [
        {
          "name": "app",
          "type": "address",
          "internalType": "contract IApp"
        }
      ],
      "stateMutability": "nonpayable"
    },
    {
      "type": "function",
      "name": "domainSeparator",
      "inputs": [],
      "outputs": [
        {
          "name": "",
          "type": "bytes32",
          "internalType": "bytes32"
        }
      ],
      "stateMutability": "view"
    },
    {
      "type": "function",
      "name": "getActiveAppCount",
      "inputs": [
        {
          "name": "user",
          "type": "address",
          "internalType": "address"
        }
      ],
      "outputs": [
        {
          "name": "",
          "type": "uint32",
          "internalType": "uint32"
        }
      ],
      "stateMutability": "view"
    },
    {
      "type": "function",
      "name": "getAppCreator",
      "inputs": [
        {
          "name": "app",
          "type": "address",
          "internalType": "contract IApp"
        }
      ],
      "outputs": [
        {
          "name": "",
          "type": "address",
          "internalType": "address"
        }
      ],
      "stateMutability": "view"
    },
    {
      "type": "function",
      "name": "getAppLatestReleaseBlockNumber",
      "inputs": [
        {
          "name": "app",
          "type": "address",
          "internalType": "contract IApp"
        }
      ],
      "outputs": [
        {
          "name": "",
          "type": "uint32",
          "internalType": "uint32"
        }
      ],
      "stateMutability": "view"
    },
    {
      "type": "function",
      "name": "getAppOperatorSetId",
      "inputs": [
        {
          "name": "app",
          "type": "address",
          "internalType": "contract IApp"
        }
      ],
      "outputs": [
        {
          "name": "",
          "type": "uint32",
          "internalType": "uint32"
        }
      ],
      "stateMutability": "view"
    },
    {
      "type": "function",
      "name": "getAppStatus",
      "inputs": [
        {
          "name": "app",
          "type": "address",
          "internalType": "contract IApp"
        }
      ],
      "outputs": [
        {
          "name": "",
          "type": "uint8",
          "internalType": "enum IAppController.AppStatus"
        }
      ],
      "stateMutability": "view"
    },
    {
      "type": "function",
      "name": "getApps",
      "inputs": [
        {
          "name": "offset",
          "type": "uint256",
          "internalType": "uint256"
        },
        {
          "name": "limit",
          "type": "uint256",
          "internalType": "uint256"
        }
      ],
      "outputs": [
        {
          "name": "apps",
          "type": "address[]",
          "internalType": "contract IApp[]"
        },
        {
          "name": "appConfigsMem",
          "type": "tuple[]",
          "internalType": "struct IAppController.AppConfig[]",
          "components": [
            {
              "name": "creator",
              "type": "address",
              "internalType": "address"
            },
            {
              "name": "operatorSetId",
              "type": "uint32",
              "internalType": "uint32"
            },
            {
              "name": "latestReleaseBlockNumber",
              "type": "uint32",
              "internalType": "uint32"
            },
            {
              "name": "status",
              "type": "uint8",
              "internalType": "enum IAppController.AppStatus"
            }
          ]
        }
      ],
      "stateMutability": "view"
    },
    {
      "type": "function",
      "name": "getAppsByDeveloper",
      "inputs": [
        {
          "name": "developer",
          "type": "address",
          "internalType": "address"
        },
        {
          "name": "offset",
          "type": "uint256",
          "internalType": "uint256"
        },
        {
          "name": "limit",
          "type": "uint256",
          "internalType": "uint256"
        }
      ],
      "outputs": [
        {
          "name": "apps",
          "type": "address[]",
          "internalType": "contract IApp[]"
        },
        {
          "name": "appConfigsMem",
          "type": "tuple[]",
          "internalType": "struct IAppController.AppConfig[]",
          "components": [
            {
              "name": "creator",
              "type": "address",
              "internalType": "address"
            },
            {
              "name": "operatorSetId",
              "type": "uint32",
              "internalType": "uint32"
            },
            {
              "name": "latestReleaseBlockNumber",
              "type": "uint32",
              "internalType": "uint32"
            },
            {
              "name": "status",
              "type": "uint8",
              "internalType": "enum IAppController.AppStatus"
            }
          ]
        }
      ],
      "stateMutability": "view"
    },
    {
      "type": "function",
      "name": "getMaxActiveAppsPerUser",
      "inputs": [
        {
          "name": "user",
          "type": "address",
          "internalType": "address"
        }
      ],
      "outputs": [
        {
          "name": "",
          "type": "uint32",
          "internalType": "uint32"
        }
      ],
      "stateMutability": "view"
    },
    {
      "type": "function",
      "name": "globalActiveAppCount",
      "inputs": [],
      "outputs": [
        {
          "name": "",
          "type": "uint32",
          "internalType": "uint32"
        }
      ],
      "stateMutability": "view"
    },
    {
      "type": "function",
      "name": "initialize",
      "inputs": [
        {
          "name": "admin",
          "type": "address",
          "internalType": "address"
        }
      ],
      "outputs": [],
      "stateMutability": "nonpayable"
    },
    {
      "type": "function",
      "name": "maxGlobalActiveApps",
      "inputs": [],
      "outputs": [
        {
          "name": "",
          "type": "uint32",
          "internalType": "uint32"
        }
      ],
      "stateMutability": "view"
    },
    {
      "type": "function",
      "name": "permissionController",
      "inputs": [],
      "outputs": [
        {
          "name": "",
          "type": "address",
          "internalType": "contract IPermissionController"
        }
      ],
      "stateMutability": "view"
    },
    {
      "type": "function",
      "name": "releaseManager",
      "inputs": [],
      "outputs": [
        {
          "name": "",
          "type": "address",
          "internalType": "contract IReleaseManager"
        }
      ],
      "stateMutability": "view"
    },
    {
      "type": "function",
      "name": "setMaxActiveAppsPerUser",
      "inputs": [
        {
          "name": "user",
          "type": "address",
          "internalType": "address"
        },
        {
          "name": "limit",
          "type": "uint32",
          "internalType": "uint32"
        }
      ],
      "outputs": [],
      "stateMutability": "nonpayable"
    },
    {
      "type": "function",
      "name": "setMaxGlobalActiveApps",
      "inputs": [
        {
          "name": "limit",
          "type": "uint32",
          "internalType": "uint32"
        }
      ],
      "outputs": [],
      "stateMutability": "nonpayable"
    },
    {
      "type": "function",
      "name": "startApp",
      "inputs": [
        {
          "name": "app",
          "type": "address",
          "internalType": "contract IApp"
        }
      ],
      "outputs": [],
      "stateMutability": "nonpayable"
    },
    {
      "type": "function",
      "name": "stopApp",
      "inputs": [
        {
          "name": "app",
          "type": "address",
          "internalType": "contract IApp"
        }
      ],
      "outputs": [],
      "stateMutability": "nonpayable"
    },
    {
      "type": "function",
      "name": "terminateApp",
      "inputs": [
        {
          "name": "app",
          "type": "address",
          "internalType": "contract IApp"
        }
      ],
      "outputs": [],
      "stateMutability": "nonpayable"
    },
    {
      "type": "function",
      "name": "terminateAppByAdmin",
      "inputs": [
        {
          "name": "app",
          "type": "address",
          "internalType": "contract IApp"
        }
      ],
      "outputs": [],
      "stateMutability": "nonpayable"
    },
    {
      "type": "function",
      "name": "upgradeApp",
      "inputs": [
        {
          "name": "app",
          "type": "address",
          "internalType": "contract IApp"
        },
        {
          "name": "release",
          "type": "tuple",
          "internalType": "struct IAppController.Release",
          "components": [
            {
              "name": "rmsRelease",
              "type": "tuple",
              "internalType": "struct IReleaseManagerTypes.Release",
              "components": [
                {
                  "name": "artifacts",
                  "type": "tuple[]",
                  "internalType": "struct IReleaseManagerTypes.Artifact[]",
                  "components": [
                    {
                      "name": "digest",
                      "type": "bytes32",
                      "internalType": "bytes32"
                    },
                    {
                      "name": "registry",
                      "type": "string",
                      "internalType": "string"
                    }
                  ]
                },
                {
                  "name": "upgradeByTime",
                  "type": "uint32",
                  "internalType": "uint32"
                }
              ]
            },
            {
              "name": "publicEnv",
              "type": "bytes",
              "internalType": "bytes"
            },
            {
              "name": "encryptedEnv",
              "type": "bytes",
              "internalType": "bytes"
            }
          ]
        }
      ],
      "outputs": [
        {
          "name": "",
          "type": "uint256",
          "internalType": "uint256"
        }
      ],
      "stateMutability": "nonpayable"
    },
    {
      "type": "function",
      "name": "version",
      "inputs": [],
      "outputs": [
        {
          "name": "",
          "type": "string",
          "internalType": "string"
        }
      ],
      "stateMutability": "view"
    },
    {
      "type": "event",
      "name": "AppCreated",
      "inputs": [
        {
          "name": "creator",
          "type": "address",
          "indexed": true,
          "internalType": "address"
        },
        {
          "name": "app",
          "type": "address",
          "indexed": true,
          "internalType": "contract IApp"
        },
        {
          "name": "operatorSetId",
          "type": "uint32",
          "indexed": false,
          "internalType": "uint32"
        }
      ],
      "anonymous": false
    },
    {
      "type": "event",
      "name": "AppStarted",
      "inputs": [
        {
          "name": "app",
          "type": "address",
          "indexed": true,
          "internalType": "contract IApp"
        }
      ],
      "anonymous": false
    },
    {
      "type": "event",
      "name": "AppStopped",
      "inputs": [
        {
          "name": "app",
          "type": "address",
          "indexed": true,
          "internalType": "contract IApp"
        }
      ],
      "anonymous": false
    },
    {
      "type": "event",
      "name": "AppTerminated",
      "inputs": [
        {
          "name": "app",
          "type": "address",
          "indexed": true,
          "internalType": "contract IApp"
        }
      ],
      "anonymous": false
    },
    {
      "type": "event",
      "name": "AppTerminatedByAdmin",
      "inputs": [
        {
          "name": "app",
          "type": "address",
          "indexed": true,
          "internalType": "contract IApp"
        }
      ],
      "anonymous": false
    },
    {
      "type": "event",
      "name": "AppUpgraded",
      "inputs": [
        {
          "name": "app",
          "type": "address",
          "indexed": true,
          "internalType": "contract IApp"
        },
        {
          "name": "rmsReleaseId",
          "type": "uint256",
          "indexed": false,
          "internalType": "uint256"
        },
        {
          "name": "release",
          "type": "tuple",
          "indexed": false,
          "internalType": "struct IAppController.Release",
          "components": [
            {
              "name": "rmsRelease",
              "type": "tuple",
              "internalType": "struct IReleaseManagerTypes.Release",
              "components": [
                {
                  "name": "artifacts",
                  "type": "tuple[]",
                  "internalType": "struct IReleaseManagerTypes.Artifact[]",
                  "components": [
                    {
                      "name": "digest",
                      "type": "bytes32",
                      "internalType": "bytes32"
                    },
                    {
                      "name": "registry",
                      "type": "string",
                      "internalType": "string"
                    }
                  ]
                },
                {
                  "name": "upgradeByTime",
                  "type": "uint32",
                  "internalType": "uint32"
                }
              ]
            },
            {
              "name": "publicEnv",
              "type": "bytes",
              "internalType": "bytes"
            },
            {
              "name": "encryptedEnv",
              "type": "bytes",
              "internalType": "bytes"
            }
          ]
        }
      ],
      "anonymous": false
    },
    {
      "type": "event",
      "name": "GlobalMaxActiveAppsSet",
      "inputs": [
        {
          "name": "limit",
          "type": "uint32",
          "indexed": false,
          "internalType": "uint32"
        }
      ],
      "anonymous": false
    },
    {
      "type": "event",
      "name": "Initialized",
      "inputs": [
        {
          "name": "version",
          "type": "uint8",
          "indexed": false,
          "internalType": "uint8"
        }
      ],
      "anonymous": false
    },
    {
      "type": "event",
      "name": "MaxActiveAppsSet",
      "inputs": [
        {
          "name": "user",
          "type": "address",
          "indexed": true,
          "internalType": "address"
        },
        {
          "name": "limit",
          "type": "uint32",
          "indexed": false,
          "internalType": "uint32"
        }
      ],
      "anonymous": false
    },
    {
      "type": "error",
      "name": "AppAlreadyExists",
      "inputs": []
    },
    {
      "type": "error",
      "name": "AppDoesNotExist",
      "inputs": []
    },
    {
      "type": "error",
      "name": "GlobalMaxActiveAppsExceeded",
      "inputs": []
    },
    {
      "type": "error",
      "name": "InvalidAppStatus",
      "inputs": []
    },
    {
      "type": "error",
      "name": "InvalidPermissions",
      "inputs": []
    },
    {
      "type": "error",
      "name": "InvalidReleaseMetadataURI",
      "inputs": []
    },
    {
      "type": "error",
      "name": "InvalidShortString",
      "inputs": []
    },
    {
      "type": "error",
      "name": "InvalidSignature",
      "inputs": []
    },
    {
      "type": "error",
      "name": "MaxActiveAppsExceeded",
      "inputs": []
    },
    {
      "type": "error",
      "name": "MoreThanOneArtifact",
      "inputs": []
    },
    {
      "type": "error",
      "name": "SignatureExpired",
      "inputs": []
    },
    {
      "type": "error",
      "name": "StringTooLong",
      "inputs": [
        {
          "name": "str",
          "type": "string",
          "internalType": "string"
        }
      ]
    }
  ],
  "bytecode": {
    "object": "0x610140604052348015610010575f5ffd5b506040516159033803806159038339818101604052810190610032919061053c565b83828483888a806100488161017560201b60201c565b6080818152505050508073ffffffffffffffffffffffffffffffffffffffff1660a08173ffffffffffffffffffffffffffffffffffffffff1681525050508373ffffffffffffffffffffffffffffffffffffffff1660c08173ffffffffffffffffffffffffffffffffffffffff16815250508273ffffffffffffffffffffffffffffffffffffffff1660e08173ffffffffffffffffffffffffffffffffffffffff16815250508173ffffffffffffffffffffffffffffffffffffffff166101008173ffffffffffffffffffffffffffffffffffffffff16815250508073ffffffffffffffffffffffffffffffffffffffff166101208173ffffffffffffffffffffffffffffffffffffffff16815250505050505061016a6101da60201b60201c565b5050505050506107bd565b5f5f829050601f815111156101c157826040517f305a27a90000000000000000000000000000000000000000000000000000000081526004016101b89190610633565b60405180910390fd5b8051816101cd90610695565b5f1c175f1b915050919050565b5f60019054906101000a900460ff1615610229576040517f08c379a00000000000000000000000000000000000000000000000000000000081526004016102209061076b565b60405180910390fd5b60ff80165f5f9054906101000a900460ff1660ff16146102965760ff5f5f6101000a81548160ff021916908360ff1602179055507f7f26b83ff96e1f2b6a682f133852f6798a09c465da95921460cefb384740249860ff60405161028d91906107a4565b60405180910390a15b565b5f604051905090565b5f5ffd5b5f5ffd5b5f5ffd5b5f5ffd5b5f601f19601f8301169050919050565b7f4e487b71000000000000000000000000000000000000000000000000000000005f52604160045260245ffd5b6102f7826102b1565b810181811067ffffffffffffffff82111715610316576103156102c1565b5b80604052505050565b5f610328610298565b905061033482826102ee565b919050565b5f67ffffffffffffffff821115610353576103526102c1565b5b61035c826102b1565b9050602081019050919050565b8281835e5f83830152505050565b5f61038961038484610339565b61031f565b9050828152602081018484840111156103a5576103a46102ad565b5b6103b0848285610369565b509392505050565b5f82601f8301126103cc576103cb6102a9565b5b81516103dc848260208601610377565b91505092915050565b5f73ffffffffffffffffffffffffffffffffffffffff82169050919050565b5f61040e826103e5565b9050919050565b5f61041f82610404565b9050919050565b61042f81610415565b8114610439575f5ffd5b50565b5f8151905061044a81610426565b92915050565b5f61045a82610404565b9050919050565b61046a81610450565b8114610474575f5ffd5b50565b5f8151905061048581610461565b92915050565b5f61049582610404565b9050919050565b6104a58161048b565b81146104af575f5ffd5b50565b5f815190506104c08161049c565b92915050565b5f6104d082610404565b9050919050565b6104e0816104c6565b81146104ea575f5ffd5b50565b5f815190506104fb816104d7565b92915050565b5f61050b82610404565b9050919050565b61051b81610501565b8114610525575f5ffd5b50565b5f8151905061053681610512565b92915050565b5f5f5f5f5f5f60c08789031215610556576105556102a1565b5b5f87015167ffffffffffffffff811115610573576105726102a5565b5b61057f89828a016103b8565b965050602061059089828a0161043c565b95505060406105a189828a01610477565b94505060606105b289828a016104b2565b93505060806105c389828a016104ed565b92505060a06105d489828a01610528565b9150509295509295509295565b5f81519050919050565b5f82825260208201905092915050565b5f610605826105e1565b61060f81856105eb565b935061061f818560208601610369565b610628816102b1565b840191505092915050565b5f6020820190508181035f83015261064b81846105fb565b905092915050565b5f81519050919050565b5f819050602082019050919050565b5f819050919050565b5f610680825161066c565b80915050919050565b5f82821b905092915050565b5f61069f82610653565b826106a98461065d565b90506106b481610675565b925060208210156106f4576106ef7fffffffffffffffffffffffffffffffffffffffffffffffffffffffffffffffff83602003600802610689565b831692505b5050919050565b7f496e697469616c697a61626c653a20636f6e747261637420697320696e6974695f8201527f616c697a696e6700000000000000000000000000000000000000000000000000602082015250565b5f6107556027836105eb565b9150610760826106fb565b604082019050919050565b5f6020820190508181035f83015261078281610749565b9050919050565b5f60ff82169050919050565b61079e81610789565b82525050565b5f6020820190506107b75f830184610795565b92915050565b60805160a05160c05160e05161010051610120516150736108905f395f8181610887015261250401525f8181611050015281816111270152818161156701528181611768015281816117f80152818161187e015281816118c50152818161208c0152612be501525f81816106ac0152818161190b015261197601525f818161065d015281816110e00152612b9e01525f81816107270152818161152b015281816115d101528181611659015281816116df0152818161219801526125f701525f818161079d0152612dc401526150735ff3fe608060405234801561000f575f5ffd5b50600436106101cd575f3560e01c80639ffbdce611610102578063d49fec2b116100a0578063e70b81b11161006f578063e70b81b11461057a578063ef6d92c614610596578063f36618ac146105b4578063f698da25146105e5576101cd565b8063d49fec2b146104e2578063d5aae178146104fe578063d66f77711461052e578063d80a956b1461054a576101cd565b8063a60daa8f116100dc578063a60daa8f1461045c578063a8aa2bd31461048c578063b438c141146104aa578063c4d66de8146104c6576101cd565b80639ffbdce6146103dd578063a37e7e441461040d578063a46530a21461043e576101cd565b806354fd4d501161016f5780638a52d0b5116101495780638a52d0b5146103555780638a7f922c1461037357806390e2196b146103915780639690b7e7146103ad576101cd565b806354fd4d50146102d757806367962d48146102f55780636eb2099f14610325576101cd565b80633fc4cbfd116101ab5780633fc4cbfd1461024f57806340f70a9e1461026d5780634657e26a1461029d5780634dd8ef81146102bb576101cd565b80630c2199fb146101d15780630d78573e1461020157806336b188741461021f575b5f5ffd5b6101eb60048036038101906101e6919061301c565b610603565b6040516101f89190613065565b60405180910390f35b61020961065b565b60405161021691906130d9565b60405180910390f35b61023960048036038101906102349190613125565b61067f565b6040516102469190613183565b60405180910390f35b6102576106aa565b60405161026491906131bc565b60405180910390f35b6102876004803603810190610282919061301c565b6106ce565b6040516102949190613065565b60405180910390f35b6102a5610725565b6040516102b291906131f5565b60405180910390f35b6102d560048036038101906102d09190613249565b610749565b005b6102df610796565b6040516102ec91906132e4565b60405180910390f35b61030f600480360381019061030a9190613249565b6107c6565b60405161031c9190613313565b60405180910390f35b61033f600480360381019061033a9190613249565b61082d565b60405161034c9190613065565b60405180910390f35b61035d610885565b60405161036a919061334c565b60405180910390f35b61037b6108a9565b6040516103889190613374565b60405180910390f35b6103ab60048036038101906103a69190613249565b6108cd565b005b6103c760048036038101906103c29190613415565b610a6e565b6040516103d49190613374565b60405180910390f35b6103f760048036038101906103f29190613249565b610aca565b6040516104049190613065565b60405180910390f35b61042760048036038101906104229190613453565b610b22565b6040516104359291906136d4565b60405180910390f35b610446610ea2565b6040516104539190613065565b60405180910390f35b6104766004803603810190610471919061372b565b610eb7565b6040516104839190613183565b60405180910390f35b6104946113a1565b6040516104a19190613065565b60405180910390f35b6104c460048036038101906104bf91906137af565b6113b7565b005b6104e060048036038101906104db919061301c565b611452565b005b6104fc60048036038101906104f791906137da565b611a57565b005b61051860048036038101906105139190613249565b611b47565b6040516105259190613827565b60405180910390f35b61054860048036038101906105439190613249565b611b9c565b005b610564600480360381019061055f9190613840565b611d80565b60405161057191906138a9565b60405180910390f35b610594600480360381019061058f9190613249565b611f28565b005b61059e61208a565b6040516105ab91906138e2565b60405180910390f35b6105ce60048036038101906105c991906138fb565b6120ae565b6040516105dc9291906136d4565b60405180910390f35b6105ed612413565b6040516105fa9190613374565b60405180910390f35b5f60045f8373ffffffffffffffffffffffffffffffffffffffff1673ffffffffffffffffffffffffffffffffffffffff1681526020019081526020015f205f0160049054906101000a900463ffffffff169050919050565b7f000000000000000000000000000000000000000000000000000000000000000081565b5f6106a261068d84846124b2565b610696856124e4565b805190602001206125e0565b905092915050565b7f000000000000000000000000000000000000000000000000000000000000000081565b5f60045f8373ffffffffffffffffffffffffffffffffffffffff1673ffffffffffffffffffffffffffffffffffffffff1681526020019081526020015f205f015f9054906101000a900463ffffffff169050919050565b7f000000000000000000000000000000000000000000000000000000000000000081565b80610753816125f4565b610789576040517f932d94f700000000000000000000000000000000000000000000000000000000815260040160405180910390fd5b610792826126be565b5050565b60606107c17f000000000000000000000000000000000000000000000000000000000000000061276c565b905090565b5f60035f8373ffffffffffffffffffffffffffffffffffffffff1673ffffffffffffffffffffffffffffffffffffffff1681526020019081526020015f205f015f9054906101000a900473ffffffffffffffffffffffffffffffffffffffff169050919050565b5f60035f8373ffffffffffffffffffffffffffffffffffffffff1673ffffffffffffffffffffffffffffffffffffffff1681526020019081526020015f205f0160149054906101000a900463ffffffff169050919050565b7f000000000000000000000000000000000000000000000000000000000000000081565b7facd45e8bd36cea31aec6cd4552b994e6bfbda89766b3171349ace038b1b8267f81565b806108d7816125f4565b61090d576040517f932d94f700000000000000000000000000000000000000000000000000000000815260040160405180910390fd5b816003808111156109215761092061358f565b5b60035f8373ffffffffffffffffffffffffffffffffffffffff1673ffffffffffffffffffffffffffffffffffffffff1681526020019081526020015f205f01601c9054906101000a900460ff1660038111156109805761097f61358f565b5b036109b7576040517f609749e200000000000000000000000000000000000000000000000000000000815260040160405180910390fd5b5f60038111156109ca576109c961358f565b5b60035f8373ffffffffffffffffffffffffffffffffffffffff1673ffffffffffffffffffffffffffffffffffffffff1681526020019081526020015f205f01601c9054906101000a900460ff166003811115610a2957610a2861358f565b5b03610a60576040517f609749e200000000000000000000000000000000000000000000000000000000815260040160405180910390fd5b610a69836127de565b505050565b5f610ac27facd45e8bd36cea31aec6cd4552b994e6bfbda89766b3171349ace038b1b8267f8484604051602001610aa79392919061395a565b604051602081830303815290604052805190602001206129ad565b905092915050565b5f60035f8373ffffffffffffffffffffffffffffffffffffffff1673ffffffffffffffffffffffffffffffffffffffff1681526020019081526020015f205f0160189054906101000a900463ffffffff169050919050565b6060805f610b3060016129e5565b9050808510610be0575f67ffffffffffffffff811115610b5357610b5261398f565b5b604051908082528060200260200182016040528015610b815781602001602082028036833780820191505090505b505f67ffffffffffffffff811115610b9c57610b9b61398f565b5b604051908082528060200260200182016040528015610bd557816020015b610bc2612f62565b815260200190600190039081610bba5790505b509250925050610e9b565b5f818587610bee91906139e9565b11610c04578486610bff91906139e9565b610c06565b815b90505f8682610c159190613a1c565b90508067ffffffffffffffff811115610c3157610c3061398f565b5b604051908082528060200260200182016040528015610c5f5781602001602082028036833780820191505090505b5094508067ffffffffffffffff811115610c7c57610c7b61398f565b5b604051908082528060200260200182016040528015610cb557816020015b610ca2612f62565b815260200190600190039081610c9a5790505b5093505f5f90505b81811015610e9657610ce48189610cd491906139e9565b60016129f890919063ffffffff16565b868281518110610cf757610cf6613a4f565b5b602002602001019073ffffffffffffffffffffffffffffffffffffffff16908173ffffffffffffffffffffffffffffffffffffffff168152505060035f878381518110610d4757610d46613a4f565b5b602002602001015173ffffffffffffffffffffffffffffffffffffffff1673ffffffffffffffffffffffffffffffffffffffff1681526020019081526020015f206040518060800160405290815f82015f9054906101000a900473ffffffffffffffffffffffffffffffffffffffff1673ffffffffffffffffffffffffffffffffffffffff1673ffffffffffffffffffffffffffffffffffffffff1681526020015f820160149054906101000a900463ffffffff1663ffffffff1663ffffffff1681526020015f820160189054906101000a900463ffffffff1663ffffffff1663ffffffff1681526020015f8201601c9054906101000a900460ff166003811115610e5557610e5461358f565b5b6003811115610e6757610e6661358f565b5b81525050858281518110610e7e57610e7d613a4f565b5b60200260200101819052508080600101915050610cbd565b505050505b9250929050565b60055f9054906101000a900463ffffffff1681565b5f5f60045f3373ffffffffffffffffffffffffffffffffffffffff1673ffffffffffffffffffffffffffffffffffffffff1681526020019081526020015f20905060055f9054906101000a900463ffffffff1663ffffffff16600560049054906101000a900463ffffffff1663ffffffff1610610f60576040517f42ca568f00000000000000000000000000000000000000000000000000000000815260040160405180910390fd5b805f015f9054906101000a900463ffffffff1663ffffffff16815f0160049054906101000a900463ffffffff1663ffffffff1610610fca576040517f82d7ade600000000000000000000000000000000000000000000000000000000815260040160405180910390fd5b6005600481819054906101000a900463ffffffff1680929190610fec90613a7c565b91906101000a81548163ffffffff021916908363ffffffff16021790555050805f01600481819054906101000a900463ffffffff168092919061102e90613a7c565b91906101000a81548163ffffffff021916908363ffffffff160217905550505f7f000000000000000000000000000000000000000000000000000000000000000073ffffffffffffffffffffffffffffffffffffffff16633a10eef76040518163ffffffff1660e01b81526004016020604051808303815f875af11580156110b8573d5f5f3e3d5ffd5b505050506040513d601f19601f820116820180604052508101906110dc9190613abb565b90507f000000000000000000000000000000000000000000000000000000000000000073ffffffffffffffffffffffffffffffffffffffff16634840a67c60405180604001604052807f000000000000000000000000000000000000000000000000000000000000000073ffffffffffffffffffffffffffffffffffffffff1681526020018463ffffffff168152506040518263ffffffff1660e01b81526004016111879190613b5d565b5f604051808303815f87803b15801561119e575f5ffd5b505af11580156111b0573d5f5f3e3d5ffd5b505050506111d05f6111c233886124b2565b6111cb336124e4565b612a0f565b92508060035f8573ffffffffffffffffffffffffffffffffffffffff1673ffffffffffffffffffffffffffffffffffffffff1681526020019081526020015f205f0160146101000a81548163ffffffff021916908363ffffffff1602179055505f60035f8573ffffffffffffffffffffffffffffffffffffffff1673ffffffffffffffffffffffffffffffffffffffff1681526020019081526020015f205f0160186101000a81548163ffffffff021916908363ffffffff1602179055503360035f8573ffffffffffffffffffffffffffffffffffffffff1673ffffffffffffffffffffffffffffffffffffffff1681526020019081526020015f205f015f6101000a81548173ffffffffffffffffffffffffffffffffffffffff021916908373ffffffffffffffffffffffffffffffffffffffff16021790555061131f836001612b1690919063ffffffff16565b508273ffffffffffffffffffffffffffffffffffffffff163373ffffffffffffffffffffffffffffffffffffffff167fe9e6e5409b80e2dab7d38194fb370b2e8045a1af28177b94ddcf19d2495d75898360405161137d9190613065565b60405180910390a361138f8385612b43565b50611399836126be565b505092915050565b600560049054906101000a900463ffffffff1681565b306113c1816125f4565b6113f7576040517f932d94f700000000000000000000000000000000000000000000000000000000815260040160405180910390fd5b8160055f6101000a81548163ffffffff021916908363ffffffff1602179055507fc3c99803ad2e80be7382791ca0b23147a94739b9e66a656b9c8c47f9d6963414826040516114469190613065565b60405180910390a15050565b5f5f60019054906101000a900460ff16159050808015611482575060015f5f9054906101000a900460ff1660ff16105b806114af575061149130612d9a565b1580156114ae575060015f5f9054906101000a900460ff1660ff16145b5b6114ee576040517f08c379a00000000000000000000000000000000000000000000000000000000081526004016114e590613bf9565b60405180910390fd5b60015f5f6101000a81548160ff021916908360ff16021790555080156115295760015f60016101000a81548160ff0219169083151502179055505b7f000000000000000000000000000000000000000000000000000000000000000073ffffffffffffffffffffffffffffffffffffffff1663628806ef7f00000000000000000000000000000000000000000000000000000000000000006040518263ffffffff1660e01b81526004016115a29190613313565b5f604051808303815f87803b1580156115b9575f5ffd5b505af11580156115cb573d5f5f3e3d5ffd5b505050507f000000000000000000000000000000000000000000000000000000000000000073ffffffffffffffffffffffffffffffffffffffff1663eb5a4e8730306040518363ffffffff1660e01b815260040161162a929190613c17565b5f604051808303815f87803b158015611641575f5ffd5b505af1158015611653573d5f5f3e3d5ffd5b505050507f000000000000000000000000000000000000000000000000000000000000000073ffffffffffffffffffffffffffffffffffffffff1663628806ef306040518263ffffffff1660e01b81526004016116b09190613313565b5f604051808303815f87803b1580156116c7575f5ffd5b505af11580156116d9573d5f5f3e3d5ffd5b505050507f000000000000000000000000000000000000000000000000000000000000000073ffffffffffffffffffffffffffffffffffffffff1663eb5a4e8730846040518363ffffffff1660e01b8152600401611738929190613c17565b5f604051808303815f87803b15801561174f575f5ffd5b505af1158015611761573d5f5f3e3d5ffd5b505050505f7f000000000000000000000000000000000000000000000000000000000000000073ffffffffffffffffffffffffffffffffffffffff16633a10eef76040518163ffffffff1660e01b81526004016020604051808303815f875af11580156117d0573d5f5f3e3d5ffd5b505050506040513d601f19601f820116820180604052508101906117f49190613abb565b90507f000000000000000000000000000000000000000000000000000000000000000073ffffffffffffffffffffffffffffffffffffffff166374da4713826040518263ffffffff1660e01b815260040161184f9190613065565b5f604051808303815f87803b158015611866575f5ffd5b505af1158015611878573d5f5f3e3d5ffd5b505050507f000000000000000000000000000000000000000000000000000000000000000073ffffffffffffffffffffffffffffffffffffffff16631017873a60405180604001604052807f000000000000000000000000000000000000000000000000000000000000000073ffffffffffffffffffffffffffffffffffffffff1681526020018463ffffffff168152507f00000000000000000000000000000000000000000000000000000000000000006040518363ffffffff1660e01b8152600401611947929190613c3e565b5f604051808303815f87803b15801561195e575f5ffd5b505af1158015611970573d5f5f3e3d5ffd5b505050507f000000000000000000000000000000000000000000000000000000000000000073ffffffffffffffffffffffffffffffffffffffff16634ca62978826040518263ffffffff1660e01b81526004016119cd9190613065565b5f604051808303815f87803b1580156119e4575f5ffd5b505af11580156119f6573d5f5f3e3d5ffd5b50505050508015611a53575f5f60016101000a81548160ff0219169083151502179055507f7f26b83ff96e1f2b6a682f133852f6798a09c465da95921460cefb38474024986001604051611a4a9190613caa565b60405180910390a15b5050565b30611a61816125f4565b611a97576040517f932d94f700000000000000000000000000000000000000000000000000000000815260040160405180910390fd5b8160045f8573ffffffffffffffffffffffffffffffffffffffff1673ffffffffffffffffffffffffffffffffffffffff1681526020019081526020015f205f015f6101000a81548163ffffffff021916908363ffffffff1602179055508273ffffffffffffffffffffffffffffffffffffffff167f708c955faa87ece750a9700c153a20797167e2fcbde9fca9186801f874663a9983604051611b3a9190613065565b60405180910390a2505050565b5f60035f8373ffffffffffffffffffffffffffffffffffffffff1673ffffffffffffffffffffffffffffffffffffffff1681526020019081526020015f205f01601c9054906101000a900460ff169050919050565b30611ba6816125f4565b611bdc576040517f932d94f700000000000000000000000000000000000000000000000000000000815260040160405180910390fd5b81600380811115611bf057611bef61358f565b5b60035f8373ffffffffffffffffffffffffffffffffffffffff1673ffffffffffffffffffffffffffffffffffffffff1681526020019081526020015f205f01601c9054906101000a900460ff166003811115611c4f57611c4e61358f565b5b03611c86576040517f609749e200000000000000000000000000000000000000000000000000000000815260040160405180910390fd5b5f6003811115611c9957611c9861358f565b5b60035f8373ffffffffffffffffffffffffffffffffffffffff1673ffffffffffffffffffffffffffffffffffffffff1681526020019081526020015f205f01601c9054906101000a900460ff166003811115611cf857611cf761358f565b5b03611d2f576040517f609749e200000000000000000000000000000000000000000000000000000000815260040160405180910390fd5b611d38836127de565b8273ffffffffffffffffffffffffffffffffffffffff167f4636ad9a0a072d9c8b05a5bcda7d33256c5401515e612c25c13273b378cb280960405160405180910390a2505050565b5f82611d8b816125f4565b611dc1576040517f932d94f700000000000000000000000000000000000000000000000000000000815260040160405180910390fd5b83600380811115611dd557611dd461358f565b5b60035f8373ffffffffffffffffffffffffffffffffffffffff1673ffffffffffffffffffffffffffffffffffffffff1681526020019081526020015f205f01601c9054906101000a900460ff166003811115611e3457611e3361358f565b5b03611e6b576040517f609749e200000000000000000000000000000000000000000000000000000000815260040160405180910390fd5b5f6003811115611e7e57611e7d61358f565b5b60035f8373ffffffffffffffffffffffffffffffffffffffff1673ffffffffffffffffffffffffffffffffffffffff1681526020019081526020015f205f01601c9054906101000a900460ff166003811115611edd57611edc61358f565b5b03611f14576040517f609749e200000000000000000000000000000000000000000000000000000000815260040160405180910390fd5b611f1e8585612b43565b9250505092915050565b80611f32816125f4565b611f68576040517f932d94f700000000000000000000000000000000000000000000000000000000815260040160405180910390fd5b5f60035f8473ffffffffffffffffffffffffffffffffffffffff1673ffffffffffffffffffffffffffffffffffffffff1681526020019081526020015f20905060016003811115611fbc57611fbb61358f565b5b815f01601c9054906101000a900460ff166003811115611fdf57611fde61358f565b5b14612016576040517f609749e200000000000000000000000000000000000000000000000000000000815260040160405180910390fd5b6002815f01601c6101000a81548160ff0219169083600381111561203d5761203c61358f565b5b02179055508273ffffffffffffffffffffffffffffffffffffffff167f143b9e3b5aa0fb8cf19b1bdb2eb8d7a94657d4b505070c667433d322b90b1f7860405160405180910390a2505050565b7f000000000000000000000000000000000000000000000000000000000000000081565b6060805f6120bc60016129e5565b90508367ffffffffffffffff8111156120d8576120d761398f565b5b6040519080825280602002602001820160405280156121065781602001602082028036833780820191505090505b5092508367ffffffffffffffff8111156121235761212261398f565b5b60405190808252806020026020018201604052801561215c57816020015b612149612f62565b8152602001906001900390816121415790505b5091505f5f90505f5f90505f5f90505b838110801561217a57508682105b15612401575f6121948260016129f890919063ffffffff16565b90507f000000000000000000000000000000000000000000000000000000000000000073ffffffffffffffffffffffffffffffffffffffff166391006745828c6040518363ffffffff1660e01b81526004016121f1929190613c17565b602060405180830381865afa15801561220c573d5f5f3e3d5ffd5b505050506040513d601f19601f820116820180604052508101906122309190613cf8565b156123ec578884101561225157838061224890613d23565b945050506123ee565b8087848151811061226557612264613a4f565b5b602002602001019073ffffffffffffffffffffffffffffffffffffffff16908173ffffffffffffffffffffffffffffffffffffffff168152505060035f8273ffffffffffffffffffffffffffffffffffffffff1673ffffffffffffffffffffffffffffffffffffffff1681526020019081526020015f206040518060800160405290815f82015f9054906101000a900473ffffffffffffffffffffffffffffffffffffffff1673ffffffffffffffffffffffffffffffffffffffff1673ffffffffffffffffffffffffffffffffffffffff1681526020015f820160149054906101000a900463ffffffff1663ffffffff1663ffffffff1681526020015f820160189054906101000a900463ffffffff1663ffffffff1663ffffffff1681526020015f8201601c9054906101000a900460ff1660038111156123a9576123a861358f565b5b60038111156123bb576123ba61358f565b5b815250508684815181106123d2576123d1613a4f565b5b602002602001018190525082806123e890613d23565b9350505b505b80806123f990613d23565b91505061216c565b50808552808452505050935093915050565b5f7f8b73c3c69bb8fe3d512ecc4cf759cc79239f7b179b0ffacaa9a75d522b39400f6040518060400160405280600a81526020017f456967656e4c61796572000000000000000000000000000000000000000000008152508051906020012061247a612dbc565b805190602001204630604051602001612497959493929190613d6a565b60405160208183030381529060405280519060200120905090565b5f82826040516020016124c6929190613e20565b60405160208183030381529060405280519060200120905092915050565b606060405180610940016040528061090e815260200161473061090e91397f000000000000000000000000000000000000000000000000000000000000000063c4d66de860e01b8460405160240161253c9190613313565b604051602081830303815290604052907bffffffffffffffffffffffffffffffffffffffffffffffffffffffff19166020820180517bffffffffffffffffffffffffffffffffffffffffffffffffffffffff83818316178352505050506040516020016125aa929190613e9d565b6040516020818303038152906040526040516020016125ca929190613f05565b6040516020818303038152906040529050919050565b5f6125ec838330612e2d565b905092915050565b5f7f000000000000000000000000000000000000000000000000000000000000000073ffffffffffffffffffffffffffffffffffffffff1663df595cb88333305f357fffffffff00000000000000000000000000000000000000000000000000000000166040518563ffffffff1660e01b81526004016126779493929190613f28565b6020604051808303815f875af1158015612693573d5f5f3e3d5ffd5b505050506040513d601f19601f820116820180604052508101906126b79190613cf8565b9050919050565b600160035f8373ffffffffffffffffffffffffffffffffffffffff1673ffffffffffffffffffffffffffffffffffffffff1681526020019081526020015f205f01601c6101000a81548160ff021916908360038111156127215761272061358f565b5b02179055508073ffffffffffffffffffffffffffffffffffffffff167f8426864999f5f9244a203f75107b05f8b474838bc43ff0d8abe18ee5f442751360405160405180910390a250565b60605f61277883612e57565b90505f602067ffffffffffffffff8111156127965761279561398f565b5b6040519080825280601f01601f1916602001820160405280156127c85781602001600182028036833780820191505090505b5090508181528360208201528092505050919050565b6003805f8373ffffffffffffffffffffffffffffffffffffffff1673ffffffffffffffffffffffffffffffffffffffff1681526020019081526020015f205f01601c6101000a81548160ff021916908360038111156128405761283f61358f565b5b02179055506005600481819054906101000a900463ffffffff168092919061286790613f6b565b91906101000a81548163ffffffff021916908363ffffffff160217905550505f60035f8373ffffffffffffffffffffffffffffffffffffffff1673ffffffffffffffffffffffffffffffffffffffff1681526020019081526020015f205f015f9054906101000a900473ffffffffffffffffffffffffffffffffffffffff16905060045f8273ffffffffffffffffffffffffffffffffffffffff1673ffffffffffffffffffffffffffffffffffffffff1681526020019081526020015f205f01600481819054906101000a900463ffffffff168092919061294790613f6b565b91906101000a81548163ffffffff021916908363ffffffff160217905550508173ffffffffffffffffffffffffffffffffffffffff167f2465e924a1e9a02843493e65702fd09152c8a631caf7b9b58e4b01ee20ced41660405160405180910390a25050565b5f6129b6612413565b826040516020016129c8929190613fe6565b604051602081830303815290604052805190602001209050919050565b5f6129f1825f01612ea5565b9050919050565b5f612a05835f0183612eb4565b5f1c905092915050565b5f83471015612a53576040517f08c379a0000000000000000000000000000000000000000000000000000000008152600401612a4a90614066565b60405180910390fd5b5f825103612a96576040517f08c379a0000000000000000000000000000000000000000000000000000000008152600401612a8d906140ce565b60405180910390fd5b8282516020840186f590505f73ffffffffffffffffffffffffffffffffffffffff168173ffffffffffffffffffffffffffffffffffffffff1603612b0f576040517f08c379a0000000000000000000000000000000000000000000000000000000008152600401612b0690614136565b60405180910390fd5b9392505050565b5f612b3b835f018373ffffffffffffffffffffffffffffffffffffffff165f1b612edb565b905092915050565b5f600182805f0190612b559190614160565b805f0190612b639190614187565b905014612b9c576040517f98c82cef00000000000000000000000000000000000000000000000000000000815260040160405180910390fd5b7f000000000000000000000000000000000000000000000000000000000000000073ffffffffffffffffffffffffffffffffffffffff16637c09ea8260405180604001604052807f000000000000000000000000000000000000000000000000000000000000000073ffffffffffffffffffffffffffffffffffffffff16815260200160035f8873ffffffffffffffffffffffffffffffffffffffff1673ffffffffffffffffffffffffffffffffffffffff1681526020019081526020015f205f0160149054906101000a900463ffffffff1663ffffffff1681525084805f0190612c879190614160565b6040518363ffffffff1660e01b8152600401612ca49291906144a7565b6020604051808303815f875af1158015612cc0573d5f5f3e3d5ffd5b505050506040513d601f19601f82011682018060405250810190612ce491906144e9565b90504360035f8573ffffffffffffffffffffffffffffffffffffffff1673ffffffffffffffffffffffffffffffffffffffff1681526020019081526020015f205f0160186101000a81548163ffffffff021916908363ffffffff1602179055508273ffffffffffffffffffffffffffffffffffffffff167fb5d2b7df0352a87a587a430bfceab43859b3b3c404f0425c4c1ab0675ed57b948284604051612d8c92919061469c565b60405180910390a292915050565b5f5f8273ffffffffffffffffffffffffffffffffffffffff163b119050919050565b60605f612de87f000000000000000000000000000000000000000000000000000000000000000061276c565b9050805f81518110612dfd57612dfc613a4f565b5b602001015160f81c60f81b604051602001612e189190614715565b60405160208183030381529060405291505090565b5f604051836040820152846020820152828152600b810160ff815360558120925050509392505050565b5f5f60ff835f1c169050601f811115612e9c576040517fb3512b0c00000000000000000000000000000000000000000000000000000000815260040160405180910390fd5b80915050919050565b5f815f01805490509050919050565b5f825f018281548110612eca57612ec9613a4f565b5b905f5260205f200154905092915050565b5f612ee68383612f42565b612f3857825f0182908060018154018082558091505060019003905f5260205f20015f9091909190915055825f0180549050836001015f8481526020019081526020015f208190555060019050612f3c565b5f90505b92915050565b5f5f836001015f8481526020019081526020015f20541415905092915050565b60405180608001604052805f73ffffffffffffffffffffffffffffffffffffffff1681526020015f63ffffffff1681526020015f63ffffffff1681526020015f6003811115612fb457612fb361358f565b5b81525090565b5f5ffd5b5f5ffd5b5f73ffffffffffffffffffffffffffffffffffffffff82169050919050565b5f612feb82612fc2565b9050919050565b612ffb81612fe1565b8114613005575f5ffd5b50565b5f8135905061301681612ff2565b92915050565b5f6020828403121561303157613030612fba565b5b5f61303e84828501613008565b91505092915050565b5f63ffffffff82169050919050565b61305f81613047565b82525050565b5f6020820190506130785f830184613056565b92915050565b5f819050919050565b5f6130a161309c61309784612fc2565b61307e565b612fc2565b9050919050565b5f6130b282613087565b9050919050565b5f6130c3826130a8565b9050919050565b6130d3816130b9565b82525050565b5f6020820190506130ec5f8301846130ca565b92915050565b5f819050919050565b613104816130f2565b811461310e575f5ffd5b50565b5f8135905061311f816130fb565b92915050565b5f5f6040838503121561313b5761313a612fba565b5b5f61314885828601613008565b925050602061315985828601613111565b9150509250929050565b5f61316d826130a8565b9050919050565b61317d81613163565b82525050565b5f6020820190506131965f830184613174565b92915050565b5f6131a6826130a8565b9050919050565b6131b68161319c565b82525050565b5f6020820190506131cf5f8301846131ad565b92915050565b5f6131df826130a8565b9050919050565b6131ef816131d5565b82525050565b5f6020820190506132085f8301846131e6565b92915050565b5f61321882612fe1565b9050919050565b6132288161320e565b8114613232575f5ffd5b50565b5f813590506132438161321f565b92915050565b5f6020828403121561325e5761325d612fba565b5b5f61326b84828501613235565b91505092915050565b5f81519050919050565b5f82825260208201905092915050565b8281835e5f83830152505050565b5f601f19601f8301169050919050565b5f6132b682613274565b6132c0818561327e565b93506132d081856020860161328e565b6132d98161329c565b840191505092915050565b5f6020820190508181035f8301526132fc81846132ac565b905092915050565b61330d81612fe1565b82525050565b5f6020820190506133265f830184613304565b92915050565b5f613336826130a8565b9050919050565b6133468161332c565b82525050565b5f60208201905061335f5f83018461333d565b92915050565b61336e816130f2565b82525050565b5f6020820190506133875f830184613365565b92915050565b5f7fffffffff0000000000000000000000000000000000000000000000000000000082169050919050565b6133c18161338d565b81146133cb575f5ffd5b50565b5f813590506133dc816133b8565b92915050565b5f819050919050565b6133f4816133e2565b81146133fe575f5ffd5b50565b5f8135905061340f816133eb565b92915050565b5f5f6040838503121561342b5761342a612fba565b5b5f613438858286016133ce565b925050602061344985828601613401565b9150509250929050565b5f5f6040838503121561346957613468612fba565b5b5f61347685828601613401565b925050602061348785828601613401565b9150509250929050565b5f81519050919050565b5f82825260208201905092915050565b5f819050602082019050919050565b6134c381613163565b82525050565b5f6134d483836134ba565b60208301905092915050565b5f602082019050919050565b5f6134f682613491565b613500818561349b565b935061350b836134ab565b805f5b8381101561353b57815161352288826134c9565b975061352d836134e0565b92505060018101905061350e565b5085935050505092915050565b5f81519050919050565b5f82825260208201905092915050565b5f819050602082019050919050565b61357a81612fe1565b82525050565b61358981613047565b82525050565b7f4e487b71000000000000000000000000000000000000000000000000000000005f52602160045260245ffd5b600481106135cd576135cc61358f565b5b50565b5f8190506135dd826135bc565b919050565b5f6135ec826135d0565b9050919050565b6135fc816135e2565b82525050565b608082015f8201516136165f850182613571565b5060208201516136296020850182613580565b50604082015161363c6040850182613580565b50606082015161364f60608501826135f3565b50505050565b5f6136608383613602565b60808301905092915050565b5f602082019050919050565b5f61368282613548565b61368c8185613552565b935061369783613562565b805f5b838110156136c75781516136ae8882613655565b97506136b98361366c565b92505060018101905061369a565b5085935050505092915050565b5f6040820190508181035f8301526136ec81856134ec565b905081810360208301526137008184613678565b90509392505050565b5f5ffd5b5f6060828403121561372257613721613709565b5b81905092915050565b5f5f6040838503121561374157613740612fba565b5b5f61374e85828601613111565b925050602083013567ffffffffffffffff81111561376f5761376e612fbe565b5b61377b8582860161370d565b9150509250929050565b61378e81613047565b8114613798575f5ffd5b50565b5f813590506137a981613785565b92915050565b5f602082840312156137c4576137c3612fba565b5b5f6137d18482850161379b565b91505092915050565b5f5f604083850312156137f0576137ef612fba565b5b5f6137fd85828601613008565b925050602061380e8582860161379b565b9150509250929050565b613821816135e2565b82525050565b5f60208201905061383a5f830184613818565b92915050565b5f5f6040838503121561385657613855612fba565b5b5f61386385828601613235565b925050602083013567ffffffffffffffff81111561388457613883612fbe565b5b6138908582860161370d565b9150509250929050565b6138a3816133e2565b82525050565b5f6020820190506138bc5f83018461389a565b92915050565b5f6138cc826130a8565b9050919050565b6138dc816138c2565b82525050565b5f6020820190506138f55f8301846138d3565b92915050565b5f5f5f6060848603121561391257613911612fba565b5b5f61391f86828701613008565b935050602061393086828701613401565b925050604061394186828701613401565b9150509250925092565b6139548161338d565b82525050565b5f60608201905061396d5f830186613365565b61397a602083018561394b565b613987604083018461389a565b949350505050565b7f4e487b71000000000000000000000000000000000000000000000000000000005f52604160045260245ffd5b7f4e487b71000000000000000000000000000000000000000000000000000000005f52601160045260245ffd5b5f6139f3826133e2565b91506139fe836133e2565b9250828201905080821115613a1657613a156139bc565b5b92915050565b5f613a26826133e2565b9150613a31836133e2565b9250828203905081811115613a4957613a486139bc565b5b92915050565b7f4e487b71000000000000000000000000000000000000000000000000000000005f52603260045260245ffd5b5f613a8682613047565b915063ffffffff8203613a9c57613a9b6139bc565b5b600182019050919050565b5f81519050613ab581613785565b92915050565b5f60208284031215613ad057613acf612fba565b5b5f613add84828501613aa7565b91505092915050565b604082015f820151613afa5f850182613571565b506020820151613b0d6020850182613580565b50505050565b7f68747470733a2f2f656967656e636c6f75642e78797a000000000000000000005f82015250565b5f613b4760168361327e565b9150613b5282613b13565b602082019050919050565b5f606082019050613b705f830184613ae6565b8181036040830152613b8181613b3b565b905092915050565b7f496e697469616c697a61626c653a20636f6e747261637420697320616c7265615f8201527f647920696e697469616c697a6564000000000000000000000000000000000000602082015250565b5f613be3602e8361327e565b9150613bee82613b89565b604082019050919050565b5f6020820190508181035f830152613c1081613bd7565b9050919050565b5f604082019050613c2a5f830185613304565b613c376020830184613304565b9392505050565b5f606082019050613c515f830185613ae6565b613c5e6040830184613304565b9392505050565b5f819050919050565b5f60ff82169050919050565b5f613c94613c8f613c8a84613c65565b61307e565b613c6e565b9050919050565b613ca481613c7a565b82525050565b5f602082019050613cbd5f830184613c9b565b92915050565b5f8115159050919050565b613cd781613cc3565b8114613ce1575f5ffd5b50565b5f81519050613cf281613cce565b92915050565b5f60208284031215613d0d57613d0c612fba565b5b5f613d1a84828501613ce4565b91505092915050565b5f613d2d826133e2565b91507fffffffffffffffffffffffffffffffffffffffffffffffffffffffffffffffff8203613d5f57613d5e6139bc565b5b600182019050919050565b5f60a082019050613d7d5f830188613365565b613d8a6020830187613365565b613d976040830186613365565b613da4606083018561389a565b613db16080830184613304565b9695505050505050565b5f8160601b9050919050565b5f613dd182613dbb565b9050919050565b5f613de282613dc7565b9050919050565b613dfa613df582612fe1565b613dd8565b82525050565b5f819050919050565b613e1a613e15826130f2565b613e00565b82525050565b5f613e2b8285613de9565b601482019150613e3b8284613e09565b6020820191508190509392505050565b5f81519050919050565b5f82825260208201905092915050565b5f613e6f82613e4b565b613e798185613e55565b9350613e8981856020860161328e565b613e928161329c565b840191505092915050565b5f604082019050613eb05f83018561333d565b8181036020830152613ec28184613e65565b90509392505050565b5f81905092915050565b5f613edf82613e4b565b613ee98185613ecb565b9350613ef981856020860161328e565b80840191505092915050565b5f613f108285613ed5565b9150613f1c8284613ed5565b91508190509392505050565b5f608082019050613f3b5f830187613304565b613f486020830186613304565b613f556040830185613304565b613f62606083018461394b565b95945050505050565b5f613f7582613047565b91505f8203613f8757613f866139bc565b5b600182039050919050565b5f81905092915050565b7f19010000000000000000000000000000000000000000000000000000000000005f82015250565b5f613fd0600283613f92565b9150613fdb82613f9c565b600282019050919050565b5f613ff082613fc4565b9150613ffc8285613e09565b60208201915061400c8284613e09565b6020820191508190509392505050565b7f437265617465323a20696e73756666696369656e742062616c616e63650000005f82015250565b5f614050601d8361327e565b915061405b8261401c565b602082019050919050565b5f6020820190508181035f83015261407d81614044565b9050919050565b7f437265617465323a2062797465636f6465206c656e677468206973207a65726f5f82015250565b5f6140b860208361327e565b91506140c382614084565b602082019050919050565b5f6020820190508181035f8301526140e5816140ac565b9050919050565b7f437265617465323a204661696c6564206f6e206465706c6f79000000000000005f82015250565b5f61412060198361327e565b915061412b826140ec565b602082019050919050565b5f6020820190508181035f83015261414d81614114565b9050919050565b5f5ffd5b5f5ffd5b5f5ffd5b5f8235600160400383360303811261417b5761417a614154565b5b80830191505092915050565b5f5f833560016020038436030381126141a3576141a2614154565b5b80840192508235915067ffffffffffffffff8211156141c5576141c4614158565b5b6020830192506020820236038313156141e1576141e061415c565b5b509250929050565b5f5ffd5b5f5ffd5b5f5ffd5b5f5f83356001602003843603038112614211576142106141f1565b5b83810192508235915060208301925067ffffffffffffffff821115614239576142386141e9565b5b60208202360383131561424f5761424e6141ed565b5b509250929050565b5f82825260208201905092915050565b5f819050919050565b5f61427e6020840184613111565b905092915050565b61428f816130f2565b82525050565b5f5f833560016020038436030381126142b1576142b06141f1565b5b83810192508235915060208301925067ffffffffffffffff8211156142d9576142d86141e9565b5b6001820236038313156142ef576142ee6141ed565b5b509250929050565b5f82825260208201905092915050565b828183375f83830152505050565b5f61432083856142f7565b935061432d838584614307565b6143368361329c565b840190509392505050565b5f604083016143525f840184614270565b61435e5f860182614286565b5061436c6020840184614295565b858303602087015261437f838284614315565b925050508091505092915050565b5f6143988383614341565b905092915050565b5f823560016040038336030381126143bb576143ba6141f1565b5b82810191505092915050565b5f602082019050919050565b5f6143de8385614257565b9350836020840285016143f084614267565b805f5b8781101561443357848403895261440a82846143a0565b614414858261438d565b945061441f836143c7565b925060208a019950506001810190506143f3565b50829750879450505050509392505050565b5f614453602084018461379b565b905092915050565b5f6040830161446c5f8401846141f5565b8583035f87015261447e8382846143d3565b9250505061448f6020840184614445565b61449c6020860182613580565b508091505092915050565b5f6060820190506144ba5f830185613ae6565b81810360408301526144cc818461445b565b90509392505050565b5f815190506144e3816133eb565b92915050565b5f602082840312156144fe576144fd612fba565b5b5f61450b848285016144d5565b91505092915050565b5f8235600160400383360303811261452f5761452e6141f1565b5b82810191505092915050565b5f6040830161454c5f8401846141f5565b8583035f87015261455e8382846143d3565b9250505061456f6020840184614445565b61457c6020860182613580565b508091505092915050565b5f5f833560016020038436030381126145a3576145a26141f1565b5b83810192508235915060208301925067ffffffffffffffff8211156145cb576145ca6141e9565b5b6001820236038313156145e1576145e06141ed565b5b509250929050565b5f82825260208201905092915050565b5f61460483856145e9565b9350614611838584614307565b61461a8361329c565b840190509392505050565b5f606083016146365f840184614514565b8482035f860152614647828261453b565b9150506146576020840184614587565b858303602087015261466a8382846145f9565b9250505061467b6040840184614587565b858303604087015261468e8382846145f9565b925050508091505092915050565b5f6040820190506146af5f83018561389a565b81810360208301526146c18184614625565b90509392505050565b5f7fff0000000000000000000000000000000000000000000000000000000000000082169050919050565b5f819050919050565b61470f61470a826146ca565b6146f5565b82525050565b5f61472082846146fe565b6001820191508190509291505056fe608060405260405161090e38038061090e83398101604081905261002291610460565b61002e82826000610035565b505061058a565b61003e83610100565b6040516001600160a01b038416907f1cf3b03a6cf19fa2baba4df148e9dcabedea7f8a5c07840e207e5c089be95d3e90600090a260008251118061007f5750805b156100fb576100f9836001600160a01b0316635c60da1b6040518163ffffffff1660e01b8152600401602060405180830381865afa1580156100c5573d6000803e3d6000fd5b505050506040513d601f19601f820116820180604052508101906100e99190610520565b836102a360201b6100291760201c565b505b505050565b610113816102cf60201b6100551760201c565b6101725760405162461bcd60e51b815260206004820152602560248201527f455243313936373a206e657720626561636f6e206973206e6f74206120636f6e6044820152641d1c9858dd60da1b60648201526084015b60405180910390fd5b6101e6816001600160a01b0316635c60da1b6040518163ffffffff1660e01b8152600401602060405180830381865afa1580156101b3573d6000803e3d6000fd5b505050506040513d601f19601f820116820180604052508101906101d79190610520565b6102cf60201b6100551760201c565b61024b5760405162461bcd60e51b815260206004820152603060248201527f455243313936373a20626561636f6e20696d706c656d656e746174696f6e206960448201526f1cc81b9bdd08184818dbdb9d1c9858dd60821b6064820152608401610169565b806102827fa3f0ad74e5423aebfd80d3ef4346578335a9a72aeaee59ff6cb3582b35133d5060001b6102de60201b6100641760201c565b80546001600160a01b0319166001600160a01b039290921691909117905550565b60606102c883836040518060600160405280602781526020016108e7602791396102e1565b9392505050565b6001600160a01b03163b151590565b90565b6060600080856001600160a01b0316856040516102fe919061053b565b600060405180830381855af49150503d8060008114610339576040519150601f19603f3d011682016040523d82523d6000602084013e61033e565b606091505b5090925090506103508683838761035a565b9695505050505050565b606083156103c65782516103bf576001600160a01b0385163b6103bf5760405162461bcd60e51b815260206004820152601d60248201527f416464726573733a2063616c6c20746f206e6f6e2d636f6e74726163740000006044820152606401610169565b50816103d0565b6103d083836103d8565b949350505050565b8151156103e85781518083602001fd5b8060405162461bcd60e51b81526004016101699190610557565b80516001600160a01b038116811461041957600080fd5b919050565b634e487b7160e01b600052604160045260246000fd5b60005b8381101561044f578181015183820152602001610437565b838111156100f95750506000910152565b6000806040838503121561047357600080fd5b61047c83610402565b60208401519092506001600160401b038082111561049957600080fd5b818501915085601f8301126104ad57600080fd5b8151818111156104bf576104bf61041e565b604051601f8201601f19908116603f011681019083821181831017156104e7576104e761041e565b8160405282815288602084870101111561050057600080fd5b610511836020830160208801610434565b80955050505050509250929050565b60006020828403121561053257600080fd5b6102c882610402565b6000825161054d818460208701610434565b9190910192915050565b6020815260008251806020840152610576816040850160208701610434565b601f01601f19169190910160400192915050565b61034e806105996000396000f3fe60806040523661001357610011610017565b005b6100115b610027610022610067565b610100565b565b606061004e83836040518060600160405280602781526020016102f260279139610124565b9392505050565b6001600160a01b03163b151590565b90565b600061009a7fa3f0ad74e5423aebfd80d3ef4346578335a9a72aeaee59ff6cb3582b35133d50546001600160a01b031690565b6001600160a01b0316635c60da1b6040518163ffffffff1660e01b8152600401602060405180830381865afa1580156100d7573d6000803e3d6000fd5b505050506040513d601f19601f820116820180604052508101906100fb9190610249565b905090565b3660008037600080366000845af43d6000803e80801561011f573d6000f35b3d6000fd5b6060600080856001600160a01b03168560405161014191906102a2565b600060405180830381855af49150503d806000811461017c576040519150601f19603f3d011682016040523d82523d6000602084013e610181565b606091505b50915091506101928683838761019c565b9695505050505050565b6060831561020d578251610206576001600160a01b0385163b6102065760405162461bcd60e51b815260206004820152601d60248201527f416464726573733a2063616c6c20746f206e6f6e2d636f6e747261637400000060448201526064015b60405180910390fd5b5081610217565b610217838361021f565b949350505050565b81511561022f5781518083602001fd5b8060405162461bcd60e51b81526004016101fd91906102be565b60006020828403121561025b57600080fd5b81516001600160a01b038116811461004e57600080fd5b60005b8381101561028d578181015183820152602001610275565b8381111561029c576000848401525b50505050565b600082516102b4818460208701610272565b9190910192915050565b60208152600082518060208401526102dd816040850160208701610272565b601f01601f1916919091016040019291505056fe416464726573733a206c6f772d6c6576656c2064656c65676174652063616c6c206661696c6564a2646970667358221220d51e81d3bc5ed20a26aeb05dce7e825c503b2061aa78628027300c8d65b9d89a64736f6c634300080c0033416464726573733a206c6f772d6c6576656c2064656c65676174652063616c6c206661696c6564a26469706673582212207d531b50d1113e334f40451e3e8cd620d45d7589439e96c12188273537ac591464736f6c634300081b0033",
    "linkReferences": {}
  },
  "methodIdentifiers": {
    "API_PERMISSION_TYPEHASH()": "8a7f922c",
    "appBeacon()": "8a52d0b5",
    "calculateApiPermissionDigestHash(bytes4,uint256)": "9690b7e7",
    "calculateAppId(address,bytes32)": "36b18874",
    "computeAVSRegistrar()": "ef6d92c6",
    "computeOperator()": "3fc4cbfd",
    "createApp(bytes32,(((bytes32,string)[],uint32),bytes,bytes))": "a60daa8f",
    "domainSeparator()": "f698da25",
    "getActiveAppCount(address)": "0c2199fb",
    "getAppCreator(address)": "67962d48",
    "getAppLatestReleaseBlockNumber(address)": "9ffbdce6",
    "getAppOperatorSetId(address)": "6eb2099f",
    "getAppStatus(address)": "d5aae178",
    "getApps(uint256,uint256)": "a37e7e44",
    "getAppsByDeveloper(address,uint256,uint256)": "f36618ac",
    "getMaxActiveAppsPerUser(address)": "40f70a9e",
    "globalActiveAppCount()": "a8aa2bd3",
    "initialize(address)": "c4d66de8",
    "maxGlobalActiveApps()": "a46530a2",
    "permissionController()": "4657e26a",
    "releaseManager()": "0d78573e",
    "setMaxActiveAppsPerUser(address,uint32)": "d49fec2b",
    "setMaxGlobalActiveApps(uint32)": "b438c141",
    "startApp(address)": "4dd8ef81",
    "stopApp(address)": "e70b81b1",
    "terminateApp(address)": "90e2196b",
    "terminateAppByAdmin(address)": "d66f7771",
    "upgradeApp(address,(((bytes32,string)[],uint32),bytes,bytes))": "d80a956b",
    "version()": "54fd4d50"
  },
  "id": 118
}