{
  "abi": [
    {
      "type": "constructor",
      "inputs": [
        {
          "name": "_version",
          "type": "string",
          "internalType": "string"
        },
        {
          "name": "_permissionController",
          "type": "address",
          "internalType": "contract IPermissionController"
        },
        {
          "name": "_releaseManager",
          "type": "address",
          "internalType": "contract IReleaseManager"
        },
        {
          "name": "_computeAVSRegistrar",
          "type": "address",
          "internalType": "contract IComputeAVSRegistrar"
        },
        {
          "name": "_computeOperator",
          "type": "address",
          "internalType": "contract IComputeOperator"
        },
        {
          "name": "_appBeacon",
          "type": "address",
          "internalType": "contract IBeacon"
        }
      ],
      "stateMutability": "nonpayable"
    },
    {
      "type": "function",
      "name": "API_PERMISSION_TYPEHASH",
      "inputs": [],
      "outputs": [
        {
          "name": "",
          "type": "bytes32",
          "internalType": "bytes32"
        }
      ],
      "stateMutability": "view"
    },
    {
      "type": "function",
      "name": "appBeacon",
      "inputs": [],
      "outputs": [
        {
          "name": "",
          "type": "address",
          "internalType": "contract IBeacon"
        }
      ],
      "stateMutability": "view"
    },
    {
      "type": "function",
      "name": "calculateApiPermissionDigestHash",
      "inputs": [
        {
          "name": "permission",
          "type": "bytes4",
          "internalType": "bytes4"
        },
        {
          "name": "expiry",
          "type": "uint256",
          "internalType": "uint256"
        }
      ],
      "outputs": [
        {
          "name": "",
          "type": "bytes32",
          "internalType": "bytes32"
        }
      ],
      "stateMutability": "view"
    },
    {
      "type": "function",
      "name": "calculateAppId",
      "inputs": [
        {
          "name": "deployer",
          "type": "address",
          "internalType": "address"
        },
        {
          "name": "salt",
          "type": "bytes32",
          "internalType": "bytes32"
        }
      ],
      "outputs": [
        {
          "name": "",
          "type": "address",
          "internalType": "contract IApp"
        }
      ],
      "stateMutability": "view"
    },
    {
      "type": "function",
      "name": "computeAVSRegistrar",
      "inputs": [],
      "outputs": [
        {
          "name": "",
          "type": "address",
          "internalType": "contract IComputeAVSRegistrar"
        }
      ],
      "stateMutability": "view"
    },
    {
      "type": "function",
      "name": "computeOperator",
      "inputs": [],
      "outputs": [
        {
          "name": "",
          "type": "address",
          "internalType": "contract IComputeOperator"
        }
      ],
      "stateMutability": "view"
    },
    {
      "type": "function",
      "name": "confirmUpgrade",
      "inputs": [
        {
          "name": "app",
          "type": "address",
          "internalType": "contract IApp"
        }
      ],
      "outputs": [],
      "stateMutability": "nonpayable"
    },
    {
      "type": "function",
      "name": "createApp",
      "inputs": [
        {
          "name": "salt",
          "type": "bytes32",
          "internalType": "bytes32"
        },
        {
          "name": "release",
          "type": "tuple",
          "internalType": "struct IAppController.Release",
          "components": [
            {
              "name": "rmsRelease",
              "type": "tuple",
              "internalType": "struct IReleaseManagerTypes.Release",
              "components": [
                {
                  "name": "artifacts",
                  "type": "tuple[]",
                  "internalType": "struct IReleaseManagerTypes.Artifact[]",
                  "components": [
                    {
                      "name": "digest",
                      "type": "bytes32",
                      "internalType": "bytes32"
                    },
                    {
                      "name": "registry",
                      "type": "string",
                      "internalType": "string"
                    }
                  ]
                },
                {
                  "name": "upgradeByTime",
                  "type": "uint32",
                  "internalType": "uint32"
                }
              ]
            },
            {
              "name": "publicEnv",
              "type": "bytes",
              "internalType": "bytes"
            },
            {
              "name": "encryptedEnv",
              "type": "bytes",
              "internalType": "bytes"
            },
            {
              "name": "containerPolicy",
              "type": "tuple",
              "internalType": "struct IAppController.ContainerPolicy",
              "components": [
                {
                  "name": "args",
                  "type": "string[]",
                  "internalType": "string[]"
                },
                {
                  "name": "cmdOverride",
                  "type": "string[]",
                  "internalType": "string[]"
                },
                {
                  "name": "env",
                  "type": "tuple[]",
                  "internalType": "struct IAppController.EnvVar[]",
                  "components": [
                    {
                      "name": "key",
                      "type": "string",
                      "internalType": "string"
                    },
                    {
                      "name": "value",
                      "type": "string",
                      "internalType": "string"
                    }
                  ]
                },
                {
                  "name": "envOverride",
                  "type": "tuple[]",
                  "internalType": "struct IAppController.EnvVar[]",
                  "components": [
                    {
                      "name": "key",
                      "type": "string",
                      "internalType": "string"
                    },
                    {
                      "name": "value",
                      "type": "string",
                      "internalType": "string"
                    }
                  ]
                },
                {
                  "name": "restartPolicy",
                  "type": "string",
                  "internalType": "string"
                }
              ]
            }
          ]
        }
      ],
      "outputs": [
        {
          "name": "app",
          "type": "address",
          "internalType": "contract IApp"
        }
      ],
      "stateMutability": "nonpayable"
    },
    {
      "type": "function",
      "name": "createAppWithIsolatedBilling",
      "inputs": [
        {
          "name": "salt",
          "type": "bytes32",
          "internalType": "bytes32"
        },
        {
          "name": "release",
          "type": "tuple",
          "internalType": "struct IAppController.Release",
          "components": [
            {
              "name": "rmsRelease",
              "type": "tuple",
              "internalType": "struct IReleaseManagerTypes.Release",
              "components": [
                {
                  "name": "artifacts",
                  "type": "tuple[]",
                  "internalType": "struct IReleaseManagerTypes.Artifact[]",
                  "components": [
                    {
                      "name": "digest",
                      "type": "bytes32",
                      "internalType": "bytes32"
                    },
                    {
                      "name": "registry",
                      "type": "string",
                      "internalType": "string"
                    }
                  ]
                },
                {
                  "name": "upgradeByTime",
                  "type": "uint32",
                  "internalType": "uint32"
                }
              ]
            },
            {
              "name": "publicEnv",
              "type": "bytes",
              "internalType": "bytes"
            },
            {
              "name": "encryptedEnv",
              "type": "bytes",
              "internalType": "bytes"
            },
            {
              "name": "containerPolicy",
              "type": "tuple",
              "internalType": "struct IAppController.ContainerPolicy",
              "components": [
                {
                  "name": "args",
                  "type": "string[]",
                  "internalType": "string[]"
                },
                {
                  "name": "cmdOverride",
                  "type": "string[]",
                  "internalType": "string[]"
                },
                {
                  "name": "env",
                  "type": "tuple[]",
                  "internalType": "struct IAppController.EnvVar[]",
                  "components": [
                    {
                      "name": "key",
                      "type": "string",
                      "internalType": "string"
                    },
                    {
                      "name": "value",
                      "type": "string",
                      "internalType": "string"
                    }
                  ]
                },
                {
                  "name": "envOverride",
                  "type": "tuple[]",
                  "internalType": "struct IAppController.EnvVar[]",
                  "components": [
                    {
                      "name": "key",
                      "type": "string",
                      "internalType": "string"
                    },
                    {
                      "name": "value",
                      "type": "string",
                      "internalType": "string"
                    }
                  ]
                },
                {
                  "name": "restartPolicy",
                  "type": "string",
                  "internalType": "string"
                }
              ]
            }
          ]
        }
      ],
      "outputs": [
        {
          "name": "app",
          "type": "address",
          "internalType": "contract IApp"
        }
      ],
      "stateMutability": "nonpayable"
    },
    {
      "type": "function",
      "name": "createEmptyApp",
      "inputs": [
        {
          "name": "salt",
          "type": "bytes32",
          "internalType": "bytes32"
        }
      ],
      "outputs": [
        {
          "name": "app",
          "type": "address",
          "internalType": "contract IApp"
        }
      ],
      "stateMutability": "nonpayable"
    },
    {
      "type": "function",
      "name": "createEmptyAppWithIsolatedBilling",
      "inputs": [
        {
          "name": "salt",
          "type": "bytes32",
          "internalType": "bytes32"
        }
      ],
      "outputs": [
        {
          "name": "app",
          "type": "address",
          "internalType": "contract IApp"
        }
      ],
      "stateMutability": "nonpayable"
    },
    {
      "type": "function",
      "name": "domainSeparator",
      "inputs": [],
      "outputs": [
        {
          "name": "",
          "type": "bytes32",
          "internalType": "bytes32"
        }
      ],
      "stateMutability": "view"
    },
    {
      "type": "function",
      "name": "getActiveAppCount",
      "inputs": [
        {
          "name": "user",
          "type": "address",
          "internalType": "address"
        }
      ],
      "outputs": [
        {
          "name": "",
          "type": "uint32",
          "internalType": "uint32"
        }
      ],
      "stateMutability": "view"
    },
    {
      "type": "function",
      "name": "getAppCreator",
      "inputs": [
        {
          "name": "app",
          "type": "address",
          "internalType": "contract IApp"
        }
      ],
      "outputs": [
        {
          "name": "",
          "type": "address",
          "internalType": "address"
        }
      ],
      "stateMutability": "view"
    },
    {
      "type": "function",
      "name": "getAppLatestReleaseBlockNumber",
      "inputs": [
        {
          "name": "app",
          "type": "address",
          "internalType": "contract IApp"
        }
      ],
      "outputs": [
        {
          "name": "",
          "type": "uint32",
          "internalType": "uint32"
        }
      ],
      "stateMutability": "view"
    },
    {
      "type": "function",
      "name": "getAppOperatorSetId",
      "inputs": [
        {
          "name": "app",
          "type": "address",
          "internalType": "contract IApp"
        }
      ],
      "outputs": [
        {
          "name": "",
          "type": "uint32",
          "internalType": "uint32"
        }
      ],
      "stateMutability": "view"
    },
    {
      "type": "function",
      "name": "getAppPendingReleaseBlockNumber",
      "inputs": [
        {
          "name": "app",
          "type": "address",
          "internalType": "contract IApp"
        }
      ],
      "outputs": [
        {
          "name": "",
          "type": "uint32",
          "internalType": "uint32"
        }
      ],
      "stateMutability": "view"
    },
    {
      "type": "function",
      "name": "getAppStatus",
      "inputs": [
        {
          "name": "app",
          "type": "address",
          "internalType": "contract IApp"
        }
      ],
      "outputs": [
        {
          "name": "",
          "type": "uint8",
          "internalType": "enum IAppController.AppStatus"
        }
      ],
      "stateMutability": "view"
    },
    {
      "type": "function",
      "name": "getApps",
      "inputs": [
        {
          "name": "offset",
          "type": "uint256",
          "internalType": "uint256"
        },
        {
          "name": "limit",
          "type": "uint256",
          "internalType": "uint256"
        }
      ],
      "outputs": [
        {
          "name": "apps",
          "type": "address[]",
          "internalType": "contract IApp[]"
        },
        {
          "name": "appConfigsMem",
          "type": "tuple[]",
          "internalType": "struct IAppController.AppConfig[]",
          "components": [
            {
              "name": "creator",
              "type": "address",
              "internalType": "address"
            },
            {
              "name": "operatorSetId",
              "type": "uint32",
              "internalType": "uint32"
            },
            {
              "name": "latestReleaseBlockNumber",
              "type": "uint32",
              "internalType": "uint32"
            },
            {
              "name": "pendingReleaseBlockNumber",
              "type": "uint32",
              "internalType": "uint32"
            },
            {
              "name": "status",
              "type": "uint8",
              "internalType": "enum IAppController.AppStatus"
            }
          ]
        }
      ],
      "stateMutability": "view"
    },
    {
      "type": "function",
      "name": "getAppsByBillingAccount",
      "inputs": [
        {
          "name": "account",
          "type": "address",
          "internalType": "address"
        },
        {
          "name": "offset",
          "type": "uint256",
          "internalType": "uint256"
        },
        {
          "name": "limit",
          "type": "uint256",
          "internalType": "uint256"
        }
      ],
      "outputs": [
        {
          "name": "apps",
          "type": "address[]",
          "internalType": "contract IApp[]"
        },
        {
          "name": "appConfigsMem",
          "type": "tuple[]",
          "internalType": "struct IAppController.AppConfig[]",
          "components": [
            {
              "name": "creator",
              "type": "address",
              "internalType": "address"
            },
            {
              "name": "operatorSetId",
              "type": "uint32",
              "internalType": "uint32"
            },
            {
              "name": "latestReleaseBlockNumber",
              "type": "uint32",
              "internalType": "uint32"
            },
            {
              "name": "pendingReleaseBlockNumber",
              "type": "uint32",
              "internalType": "uint32"
            },
            {
              "name": "status",
              "type": "uint8",
              "internalType": "enum IAppController.AppStatus"
            }
          ]
        }
      ],
      "stateMutability": "view"
    },
    {
      "type": "function",
      "name": "getAppsByCreator",
      "inputs": [
        {
          "name": "creator",
          "type": "address",
          "internalType": "address"
        },
        {
          "name": "offset",
          "type": "uint256",
          "internalType": "uint256"
        },
        {
          "name": "limit",
          "type": "uint256",
          "internalType": "uint256"
        }
      ],
      "outputs": [
        {
          "name": "apps",
          "type": "address[]",
          "internalType": "contract IApp[]"
        },
        {
          "name": "appConfigsMem",
          "type": "tuple[]",
          "internalType": "struct IAppController.AppConfig[]",
          "components": [
            {
              "name": "creator",
              "type": "address",
              "internalType": "address"
            },
            {
              "name": "operatorSetId",
              "type": "uint32",
              "internalType": "uint32"
            },
            {
              "name": "latestReleaseBlockNumber",
              "type": "uint32",
              "internalType": "uint32"
            },
            {
              "name": "pendingReleaseBlockNumber",
              "type": "uint32",
              "internalType": "uint32"
            },
            {
              "name": "status",
              "type": "uint8",
              "internalType": "enum IAppController.AppStatus"
            }
          ]
        }
      ],
      "stateMutability": "view"
    },
    {
      "type": "function",
      "name": "getAppsByDeveloper",
      "inputs": [
        {
          "name": "developer",
          "type": "address",
          "internalType": "address"
        },
        {
          "name": "offset",
          "type": "uint256",
          "internalType": "uint256"
        },
        {
          "name": "limit",
          "type": "uint256",
          "internalType": "uint256"
        }
      ],
      "outputs": [
        {
          "name": "apps",
          "type": "address[]",
          "internalType": "contract IApp[]"
        },
        {
          "name": "appConfigsMem",
          "type": "tuple[]",
          "internalType": "struct IAppController.AppConfig[]",
          "components": [
            {
              "name": "creator",
              "type": "address",
              "internalType": "address"
            },
            {
              "name": "operatorSetId",
              "type": "uint32",
              "internalType": "uint32"
            },
            {
              "name": "latestReleaseBlockNumber",
              "type": "uint32",
              "internalType": "uint32"
            },
            {
              "name": "pendingReleaseBlockNumber",
              "type": "uint32",
              "internalType": "uint32"
            },
            {
              "name": "status",
              "type": "uint8",
              "internalType": "enum IAppController.AppStatus"
            }
          ]
        }
      ],
      "stateMutability": "view"
    },
    {
      "type": "function",
      "name": "getBillingAccount",
      "inputs": [
        {
          "name": "app",
          "type": "address",
          "internalType": "contract IApp"
        }
      ],
      "outputs": [
        {
          "name": "",
          "type": "address",
          "internalType": "address"
        }
      ],
      "stateMutability": "view"
    },
    {
      "type": "function",
      "name": "getBillingType",
      "inputs": [
        {
          "name": "app",
          "type": "address",
          "internalType": "contract IApp"
        }
      ],
      "outputs": [
        {
          "name": "",
          "type": "uint8",
          "internalType": "enum IAppController.BillingType"
        }
      ],
      "stateMutability": "view"
    },
    {
      "type": "function",
      "name": "getMaxActiveAppsPerUser",
      "inputs": [
        {
          "name": "user",
          "type": "address",
          "internalType": "address"
        }
      ],
      "outputs": [
        {
          "name": "",
          "type": "uint32",
          "internalType": "uint32"
        }
      ],
      "stateMutability": "view"
    },
    {
      "type": "function",
      "name": "globalActiveAppCount",
      "inputs": [],
      "outputs": [
        {
          "name": "",
          "type": "uint32",
          "internalType": "uint32"
        }
      ],
      "stateMutability": "view"
    },
    {
      "type": "function",
      "name": "initialize",
      "inputs": [
        {
          "name": "admin",
          "type": "address",
          "internalType": "address"
        }
      ],
      "outputs": [],
      "stateMutability": "nonpayable"
    },
    {
      "type": "function",
      "name": "maxGlobalActiveApps",
      "inputs": [],
      "outputs": [
        {
          "name": "",
          "type": "uint32",
          "internalType": "uint32"
        }
      ],
      "stateMutability": "view"
    },
    {
      "type": "function",
      "name": "permissionController",
      "inputs": [],
      "outputs": [
        {
          "name": "",
          "type": "address",
          "internalType": "contract IPermissionController"
        }
      ],
      "stateMutability": "view"
    },
    {
      "type": "function",
      "name": "releaseManager",
      "inputs": [],
      "outputs": [
        {
          "name": "",
          "type": "address",
          "internalType": "contract IReleaseManager"
        }
      ],
      "stateMutability": "view"
    },
    {
      "type": "function",
      "name": "setMaxActiveAppsPerUser",
      "inputs": [
        {
          "name": "user",
          "type": "address",
          "internalType": "address"
        },
        {
          "name": "limit",
          "type": "uint32",
          "internalType": "uint32"
        }
      ],
      "outputs": [],
      "stateMutability": "nonpayable"
    },
    {
      "type": "function",
      "name": "setMaxGlobalActiveApps",
      "inputs": [
        {
          "name": "limit",
          "type": "uint32",
          "internalType": "uint32"
        }
      ],
      "outputs": [],
      "stateMutability": "nonpayable"
    },
    {
      "type": "function",
      "name": "startApp",
      "inputs": [
        {
          "name": "app",
          "type": "address",
          "internalType": "contract IApp"
        }
      ],
      "outputs": [],
      "stateMutability": "nonpayable"
    },
    {
      "type": "function",
      "name": "stopApp",
      "inputs": [
        {
          "name": "app",
          "type": "address",
          "internalType": "contract IApp"
        }
      ],
      "outputs": [],
      "stateMutability": "nonpayable"
    },
    {
      "type": "function",
      "name": "suspend",
      "inputs": [
        {
          "name": "account",
          "type": "address",
          "internalType": "address"
        },
        {
          "name": "apps",
          "type": "address[]",
          "internalType": "contract IApp[]"
        }
      ],
      "outputs": [],
      "stateMutability": "nonpayable"
    },
    {
      "type": "function",
      "name": "terminateApp",
      "inputs": [
        {
          "name": "app",
          "type": "address",
          "internalType": "contract IApp"
        }
      ],
      "outputs": [],
      "stateMutability": "nonpayable"
    },
    {
      "type": "function",
      "name": "terminateAppByAdmin",
      "inputs": [
        {
          "name": "app",
          "type": "address",
          "internalType": "contract IApp"
        }
      ],
      "outputs": [],
      "stateMutability": "nonpayable"
    },
    {
      "type": "function",
      "name": "updateAppMetadataURI",
      "inputs": [
        {
          "name": "app",
          "type": "address",
          "internalType": "contract IApp"
        },
        {
          "name": "metadataURI",
          "type": "string",
          "internalType": "string"
        }
      ],
      "outputs": [],
      "stateMutability": "nonpayable"
    },
    {
      "type": "function",
      "name": "upgradeApp",
      "inputs": [
        {
          "name": "app",
          "type": "address",
          "internalType": "contract IApp"
        },
        {
          "name": "release",
          "type": "tuple",
          "internalType": "struct IAppController.Release",
          "components": [
            {
              "name": "rmsRelease",
              "type": "tuple",
              "internalType": "struct IReleaseManagerTypes.Release",
              "components": [
                {
                  "name": "artifacts",
                  "type": "tuple[]",
                  "internalType": "struct IReleaseManagerTypes.Artifact[]",
                  "components": [
                    {
                      "name": "digest",
                      "type": "bytes32",
                      "internalType": "bytes32"
                    },
                    {
                      "name": "registry",
                      "type": "string",
                      "internalType": "string"
                    }
                  ]
                },
                {
                  "name": "upgradeByTime",
                  "type": "uint32",
                  "internalType": "uint32"
                }
              ]
            },
            {
              "name": "publicEnv",
              "type": "bytes",
              "internalType": "bytes"
            },
            {
              "name": "encryptedEnv",
              "type": "bytes",
              "internalType": "bytes"
            },
            {
              "name": "containerPolicy",
              "type": "tuple",
              "internalType": "struct IAppController.ContainerPolicy",
              "components": [
                {
                  "name": "args",
                  "type": "string[]",
                  "internalType": "string[]"
                },
                {
                  "name": "cmdOverride",
                  "type": "string[]",
                  "internalType": "string[]"
                },
                {
                  "name": "env",
                  "type": "tuple[]",
                  "internalType": "struct IAppController.EnvVar[]",
                  "components": [
                    {
                      "name": "key",
                      "type": "string",
                      "internalType": "string"
                    },
                    {
                      "name": "value",
                      "type": "string",
                      "internalType": "string"
                    }
                  ]
                },
                {
                  "name": "envOverride",
                  "type": "tuple[]",
                  "internalType": "struct IAppController.EnvVar[]",
                  "components": [
                    {
                      "name": "key",
                      "type": "string",
                      "internalType": "string"
                    },
                    {
                      "name": "value",
                      "type": "string",
                      "internalType": "string"
                    }
                  ]
                },
                {
                  "name": "restartPolicy",
                  "type": "string",
                  "internalType": "string"
                }
              ]
            }
          ]
        }
      ],
      "outputs": [
        {
          "name": "",
          "type": "uint256",
          "internalType": "uint256"
        }
      ],
      "stateMutability": "nonpayable"
    },
    {
      "type": "function",
      "name": "version",
      "inputs": [],
      "outputs": [
        {
          "name": "",
          "type": "string",
          "internalType": "string"
        }
      ],
      "stateMutability": "view"
    },
    {
      "type": "event",
      "name": "AppCreated",
      "inputs": [
        {
          "name": "creator",
          "type": "address",
          "indexed": true,
          "internalType": "address"
        },
        {
          "name": "app",
          "type": "address",
          "indexed": true,
          "internalType": "contract IApp"
        },
        {
          "name": "operatorSetId",
          "type": "uint32",
          "indexed": false,
          "internalType": "uint32"
        }
      ],
      "anonymous": false
    },
    {
      "type": "event",
      "name": "AppMetadataURIUpdated",
      "inputs": [
        {
          "name": "app",
          "type": "address",
          "indexed": true,
          "internalType": "contract IApp"
        },
        {
          "name": "metadataURI",
          "type": "string",
          "indexed": false,
          "internalType": "string"
        }
      ],
      "anonymous": false
    },
    {
      "type": "event",
      "name": "AppStarted",
      "inputs": [
        {
          "name": "app",
          "type": "address",
          "indexed": true,
          "internalType": "contract IApp"
        }
      ],
      "anonymous": false
    },
    {
      "type": "event",
      "name": "AppStopped",
      "inputs": [
        {
          "name": "app",
          "type": "address",
          "indexed": true,
          "internalType": "contract IApp"
        }
      ],
      "anonymous": false
    },
    {
      "type": "event",
      "name": "AppSuspended",
      "inputs": [
        {
          "name": "app",
          "type": "address",
          "indexed": true,
          "internalType": "contract IApp"
        }
      ],
      "anonymous": false
    },
    {
      "type": "event",
      "name": "AppTerminated",
      "inputs": [
        {
          "name": "app",
          "type": "address",
          "indexed": true,
          "internalType": "contract IApp"
        }
      ],
      "anonymous": false
    },
    {
      "type": "event",
      "name": "AppTerminatedByAdmin",
      "inputs": [
        {
          "name": "app",
          "type": "address",
          "indexed": true,
          "internalType": "contract IApp"
        }
      ],
      "anonymous": false
    },
    {
      "type": "event",
      "name": "AppUpgraded",
      "inputs": [
        {
          "name": "app",
          "type": "address",
          "indexed": true,
          "internalType": "contract IApp"
        },
        {
          "name": "rmsReleaseId",
          "type": "uint256",
          "indexed": false,
          "internalType": "uint256"
        },
        {
          "name": "release",
          "type": "tuple",
          "indexed": false,
          "internalType": "struct IAppController.Release",
          "components": [
            {
              "name": "rmsRelease",
              "type": "tuple",
              "internalType": "struct IReleaseManagerTypes.Release",
              "components": [
                {
                  "name": "artifacts",
                  "type": "tuple[]",
                  "internalType": "struct IReleaseManagerTypes.Artifact[]",
                  "components": [
                    {
                      "name": "digest",
                      "type": "bytes32",
                      "internalType": "bytes32"
                    },
                    {
                      "name": "registry",
                      "type": "string",
                      "internalType": "string"
                    }
                  ]
                },
                {
                  "name": "upgradeByTime",
                  "type": "uint32",
                  "internalType": "uint32"
                }
              ]
            },
            {
              "name": "publicEnv",
              "type": "bytes",
              "internalType": "bytes"
            },
            {
              "name": "encryptedEnv",
              "type": "bytes",
              "internalType": "bytes"
            },
            {
              "name": "containerPolicy",
              "type": "tuple",
              "internalType": "struct IAppController.ContainerPolicy",
              "components": [
                {
                  "name": "args",
                  "type": "string[]",
                  "internalType": "string[]"
                },
                {
                  "name": "cmdOverride",
                  "type": "string[]",
                  "internalType": "string[]"
                },
                {
                  "name": "env",
                  "type": "tuple[]",
                  "internalType": "struct IAppController.EnvVar[]",
                  "components": [
                    {
                      "name": "key",
                      "type": "string",
                      "internalType": "string"
                    },
                    {
                      "name": "value",
                      "type": "string",
                      "internalType": "string"
                    }
                  ]
                },
                {
                  "name": "envOverride",
                  "type": "tuple[]",
                  "internalType": "struct IAppController.EnvVar[]",
                  "components": [
                    {
                      "name": "key",
                      "type": "string",
                      "internalType": "string"
                    },
                    {
                      "name": "value",
                      "type": "string",
                      "internalType": "string"
                    }
                  ]
                },
                {
                  "name": "restartPolicy",
                  "type": "string",
                  "internalType": "string"
                }
              ]
            }
          ]
        }
      ],
      "anonymous": false
    },
    {
      "type": "event",
      "name": "GlobalMaxActiveAppsSet",
      "inputs": [
        {
          "name": "limit",
          "type": "uint32",
          "indexed": false,
          "internalType": "uint32"
        }
      ],
      "anonymous": false
    },
    {
      "type": "event",
      "name": "Initialized",
      "inputs": [
        {
          "name": "version",
          "type": "uint8",
          "indexed": false,
          "internalType": "uint8"
        }
      ],
      "anonymous": false
    },
    {
      "type": "event",
      "name": "MaxActiveAppsSet",
      "inputs": [
        {
          "name": "user",
          "type": "address",
          "indexed": true,
          "internalType": "address"
        },
        {
          "name": "limit",
          "type": "uint32",
          "indexed": false,
          "internalType": "uint32"
        }
      ],
      "anonymous": false
    },
    {
      "type": "event",
      "name": "UpgradeConfirmed",
      "inputs": [
        {
          "name": "app",
          "type": "address",
          "indexed": true,
          "internalType": "contract IApp"
        },
        {
          "name": "pendingReleaseBlockNumber",
          "type": "uint32",
          "indexed": false,
          "internalType": "uint32"
        }
      ],
      "anonymous": false
    },
    {
      "type": "error",
      "name": "AccountHasActiveApps",
      "inputs": []
    },
    {
      "type": "error",
      "name": "AppAlreadyExists",
      "inputs": []
    },
    {
      "type": "error",
      "name": "AppDoesNotExist",
      "inputs": []
    },
    {
      "type": "error",
      "name": "GlobalMaxActiveAppsExceeded",
      "inputs": []
    },
    {
      "type": "error",
      "name": "InvalidAppStatus",
      "inputs": []
    },
    {
      "type": "error",
      "name": "InvalidPermissions",
      "inputs": []
    },
    {
      "type": "error",
      "name": "InvalidReleaseMetadataURI",
      "inputs": []
    },
    {
      "type": "error",
      "name": "InvalidShortString",
      "inputs": []
    },
    {
      "type": "error",
      "name": "InvalidSignature",
      "inputs": []
    },
    {
      "type": "error",
      "name": "MaxActiveAppsExceeded",
      "inputs": []
    },
    {
      "type": "error",
      "name": "MoreThanOneArtifact",
      "inputs": []
    },
    {
      "type": "error",
      "name": "NoPendingUpgrade",
      "inputs": []
    },
    {
      "type": "error",
      "name": "SignatureExpired",
      "inputs": []
    },
    {
      "type": "error",
      "name": "StringTooLong",
      "inputs": [
        {
          "name": "str",
          "type": "string",
          "internalType": "string"
        }
      ]
    }
  ],
  "bytecode": {
    "object": "0x610140604052348015610010575f5ffd5b506040516140ba3803806140ba83398101604081905261002f916101a9565b83828483888a8061003f8161007c565b60805250506001600160a01b0390811660a05293841660c05291831660e05282166101005216610120526100716100c2565b505050505050610304565b5f5f829050601f815111156100af578260405163305a27a960e01b81526004016100a691906102a9565b60405180910390fd5b80516100ba826102de565b179392505050565b5f54610100900460ff16156101295760405162461bcd60e51b815260206004820152602760248201527f496e697469616c697a61626c653a20636f6e747261637420697320696e697469604482015266616c697a696e6760c81b60648201526084016100a6565b5f5460ff90811614610178575f805460ff191660ff9081179091556040519081527f7f26b83ff96e1f2b6a682f133852f6798a09c465da95921460cefb38474024989060200160405180910390a15b565b634e487b7160e01b5f52604160045260245ffd5b80516001600160a01b03811681146101a4575f5ffd5b919050565b5f5f5f5f5f5f60c087890312156101be575f5ffd5b86516001600160401b038111156101d3575f5ffd5b8701601f810189136101e3575f5ffd5b80516001600160401b038111156101fc576101fc61017a565b604051601f8201601f19908116603f011681016001600160401b038111828210171561022a5761022a61017a565b6040528181528282016020018b1015610241575f5ffd5b8160208401602083015e5f602083830101528098505050506102656020880161018e565b94506102736040880161018e565b93506102816060880161018e565b925061028f6080880161018e565b915061029d60a0880161018e565b90509295509295509295565b602081525f82518060208401528060208501604085015e5f604082850101526040601f19601f83011684010191505092915050565b805160208083015191908110156102fe575f198160200360031b1b821691505b50919050565b60805160a05160c05160e0516101005161012051613cea6103d05f395f81816104890152611a1001525f81816106bb01528181610f3401528181611121015281816111be0152818161122e015281816120fd0152818161218f01526124eb01525f81816102fc0152818161128201526112fa01525f818161029701528181612212015261253601525f818161035101528181610f5c01528181610fcd01528181611041015281816110c501528181611ab5015261266501525f818161080d01526126d80152613cea5ff3fe608060405234801561000f575f5ffd5b506004361061023f575f3560e01c8063a37e7e4411610135578063d49fec2b116100b4578063e71ad40411610079578063e71ad404146106a3578063ef6d92c6146106b6578063f36618ac146106dd578063f698da25146106f0578063f6e842d3146106f8575f5ffd5b8063d49fec2b1461061c578063d5aae1781461062f578063d66f77711461066a578063dbb1c4e11461067d578063e70b81b114610690575f5ffd5b8063b7fe2169116100fa578063b7fe21691461059b578063bbc1c204146105ae578063c3478d14146105c1578063c4d66de8146105f6578063cb1e6ff714610609575f5ffd5b8063a37e7e441461053b578063a46530a21461054e578063a8aa2bd31461055e578063ae7001b314610575578063b438c14114610588575f5ffd5b806365aa9a65116101c15780638a52d0b5116101865780638a52d0b5146104845780638a7f922c146104ab57806390e2196b146104e05780639690b7e7146104f35780639ffbdce614610506575f5ffd5b806365aa9a65146103b057806367962d48146103c35780636eb2099f146103ee5780638099ef2e1461042357806385e9babb14610444575f5ffd5b806340f70a9e1161020757806340f70a9e1461031e5780634657e26a1461034c5780634dd8ef811461037357806354fd4d50146103885780635e92a19f1461039d575f5ffd5b80630c2199fb146102435780630d78573e1461029257806336b18874146102d15780633e032115146102e45780633fc4cbfd146102f7575b5f5ffd5b6102786102513660046129d9565b6001600160a01b03165f90815260046020526040902054600160201b900463ffffffff1690565b60405163ffffffff90911681526020015b60405180910390f35b6102b97f000000000000000000000000000000000000000000000000000000000000000081565b6040516001600160a01b039091168152602001610289565b6102b96102df3660046129f4565b61070b565b6102b96102f23660046129d9565b610737565b6102b97f000000000000000000000000000000000000000000000000000000000000000081565b61027861032c3660046129d9565b6001600160a01b03165f9081526004602052604090205463ffffffff1690565b6102b97f000000000000000000000000000000000000000000000000000000000000000081565b6103866103813660046129d9565b61078b565b005b610390610806565b6040516102899190612a4c565b6102b96103ab366004612a74565b610836565b6103866103be366004612ab7565b61084b565b6102b96103d13660046129d9565b6001600160a01b039081165f908152600360205260409020541690565b6102786103fc3660046129d9565b6001600160a01b03165f90815260036020526040902054600160a01b900463ffffffff1690565b610436610431366004612b35565b610902565b604051610289929190612b8f565b6104776104523660046129d9565b6001600160a01b03165f90815260036020526040902060010154610100900460ff1690565b6040516102899190612c6b565b6102b97f000000000000000000000000000000000000000000000000000000000000000081565b6104d27facd45e8bd36cea31aec6cd4552b994e6bfbda89766b3171349ace038b1b8267f81565b604051908152602001610289565b6103866104ee3660046129d9565b61091f565b6104d2610501366004612c85565b6109e4565b6102786105143660046129d9565b6001600160a01b03165f90815260036020526040902054600160c01b900463ffffffff1690565b610436610549366004612cad565b610a4b565b6005546102789063ffffffff1681565b60055461027890600160201b900463ffffffff1681565b6102b9610583366004612ccd565b610c80565b610386610596366004612d05565b610c94565b6102b96105a9366004612a74565b610d0b565b6103866105bc3660046129d9565b610d2a565b6102786105cf3660046129d9565b6001600160a01b03165f90815260036020526040902054600160e01b900463ffffffff1690565b6103866106043660046129d9565b610e5d565b610386610617366004612d20565b6113a1565b61038661062a366004612d90565b6115ae565b61065d61063d3660046129d9565b6001600160a01b03165f9081526003602052604090206001015460ff1690565b6040516102899190612dc7565b6103866106783660046129d9565b6115df565b61043661068b366004612b35565b6116dc565b61038661069e3660046129d9565b6116ed565b6104d26106b1366004612dd5565b6117aa565b6102b97f000000000000000000000000000000000000000000000000000000000000000081565b6104366106eb366004612b35565b61187e565b6104d261188f565b6102b9610706366004612ccd565b611948565b5f61072e6107198484611961565b610722856119a7565b80519060200120611a6b565b90505b92915050565b6001600160a01b0381165f90815260036020526040812060018082810154610100900460ff169081111561076d5761076d612b67565b146107825780546001600160a01b0316610784565b825b9392505050565b8061079581611a77565b6107b25760405163932d94f760e01b815260040160405180910390fd5b6001600160a01b0382165f9081526003602052604090206001015482906107db9060ff16611b21565b6107f85760405163304ba4f160e11b815260040160405180910390fd5b61080183611b3d565b505050565b60606108317f0000000000000000000000000000000000000000000000000000000000000000611c02565b905090565b5f61084033611c3f565b61072e83835f611d2e565b8261085581611a77565b6108725760405163932d94f760e01b815260040160405180910390fd5b6001600160a01b0384165f90815260036020526040902060010154849061089b9060ff16611b21565b6108b85760405163304ba4f160e11b815260040160405180910390fd5b846001600160a01b03167fc874c4e2852c19bd03d42a5232ce93e85f2da325dddac46c2472043b7f0d7e8d85856040516108f3929190612e33565b60405180910390a25050505050565b606080610913611d92868686611db3565b91509150935093915050565b8061092981611a77565b6109465760405163932d94f760e01b815260040160405180910390fd5b6001600160a01b0382165f90815260036020526040902060010154829061096f9060ff16611b21565b61098c5760405163304ba4f160e11b815260040160405180910390fd5b60036001600160a01b0384165f9081526003602052604090206001015460ff1660058111156109bd576109bd612b67565b036109db5760405163304ba4f160e11b815260040160405180910390fd5b61080183611f6d565b604080517facd45e8bd36cea31aec6cd4552b994e6bfbda89766b3171349ace038b1b8267f60208201526001600160e01b0319841691810191909152606081018290525f9061072e9060800160405160208183030381529060405280519060200120612001565b6060805f610a596001612047565b9050808510610acb57604080515f80825260208201818152828401909352909190610ac0565b610aad6040805160a0810182525f808252602082018190529181018290526060810182905290608082015290565b815260200190600190039081610a7f5790505b509250925050610c79565b5f81610ad78688612e76565b11610aeb57610ae68587612e76565b610aed565b815b90505f610afa8783612e89565b9050806001600160401b03811115610b1457610b14612e4e565b604051908082528060200260200182016040528015610b3d578160200160208202803683370190505b509450806001600160401b03811115610b5857610b58612e4e565b604051908082528060200260200182016040528015610bb757816020015b610ba46040805160a0810182525f808252602082018190529181018290526060810182905290608082015290565b815260200190600190039081610b765790505b5093505f5b81811015610c7457610bd9610bd1828a612e76565b600190612050565b868281518110610beb57610beb612e9c565b60200260200101906001600160a01b031690816001600160a01b031681525050610c4f60035f888481518110610c2357610c23612e9c565b60200260200101516001600160a01b03166001600160a01b031681526020019081526020015f2061205b565b858281518110610c6157610c61612e9c565b6020908102919091010152600101610bbc565b505050505b9250929050565b5f610c8a33611c3f565b610731825f6120f9565b30610c9e81611a77565b610cbb5760405163932d94f760e01b815260040160405180910390fd5b6005805463ffffffff191663ffffffff84169081179091556040519081527fc3c99803ad2e80be7382791ca0b23147a94739b9e66a656b9c8c47f9d6963414906020015b60405180910390a15050565b5f610d1e610d19338561070b565b611c3f565b61072e83836001611d2e565b30610d3481611a77565b610d515760405163932d94f760e01b815260040160405180910390fd5b6001600160a01b0382165f908152600360205260409020600101548290610d7a9060ff1661237c565b610d975760405163304ba4f160e11b815260040160405180910390fd5b6001600160a01b0383165f90815260036020526040812080549091600160e01b90910463ffffffff169003610ddf57604051636eb093af60e11b815260040160405180910390fd5b805463ffffffff60c01b198116600160e01b9182900463ffffffff908116600160c01b02919091178084556040519290041681526001600160a01b038516907f49f25db622ae262096322c8be00886655e649a53333641c2c34004f9458042f79060200160405180910390a280546001600160e01b03169055505050565b5f54610100900460ff1615808015610e7b57505f54600160ff909116105b80610e945750303b158015610e9457505f5460ff166001145b610efc5760405162461bcd60e51b815260206004820152602e60248201527f496e697469616c697a61626c653a20636f6e747261637420697320616c72656160448201526d191e481a5b9a5d1a585b1a5e995960921b60648201526084015b60405180910390fd5b5f805460ff191660011790558015610f1d575f805461ff0019166101001790555b60405163628806ef60e01b81526001600160a01b037f0000000000000000000000000000000000000000000000000000000000000000811660048301527f0000000000000000000000000000000000000000000000000000000000000000169063628806ef906024015f604051808303815f87803b158015610f9d575f5ffd5b505af1158015610faf573d5f5f3e3d5ffd5b505060405163eb5a4e8760e01b8152306004820181905260248201527f00000000000000000000000000000000000000000000000000000000000000006001600160a01b0316925063eb5a4e8791506044015f604051808303815f87803b158015611018575f5ffd5b505af115801561102a573d5f5f3e3d5ffd5b505060405163628806ef60e01b81523060048201527f00000000000000000000000000000000000000000000000000000000000000006001600160a01b0316925063628806ef91506024015f604051808303815f87803b15801561108c575f5ffd5b505af115801561109e573d5f5f3e3d5ffd5b505060405163eb5a4e8760e01b81523060048201526001600160a01b0385811660248301527f000000000000000000000000000000000000000000000000000000000000000016925063eb5a4e8791506044015f604051808303815f87803b158015611108575f5ffd5b505af115801561111a573d5f5f3e3d5ffd5b505050505f7f00000000000000000000000000000000000000000000000000000000000000006001600160a01b0316633a10eef76040518163ffffffff1660e01b81526004016020604051808303815f875af115801561117c573d5f5f3e3d5ffd5b505050506040513d601f19601f820116820180604052508101906111a09190612eb0565b6040516374da471360e01b815263ffffffff821660048201529091507f00000000000000000000000000000000000000000000000000000000000000006001600160a01b0316906374da4713906024015f604051808303815f87803b158015611207575f5ffd5b505af1158015611219573d5f5f3e3d5ffd5b50506040805180820182526001600160a01b037f0000000000000000000000000000000000000000000000000000000000000000811680835263ffffffff87811660208501908152945163080bc39d60e11b8152935183166004850152935190931660248301527f0000000000000000000000000000000000000000000000000000000000000000166044820152909250631017873a91506064015f604051808303815f87803b1580156112cb575f5ffd5b505af11580156112dd573d5f5f3e3d5ffd5b5050604051630994c52f60e31b815263ffffffff841660048201527f00000000000000000000000000000000000000000000000000000000000000006001600160a01b03169250634ca6297891506024015f604051808303815f87803b158015611345575f5ffd5b505af1158015611357573d5f5f3e3d5ffd5b5050505050801561139d575f805461ff0019169055604051600181527f7f26b83ff96e1f2b6a682f133852f6798a09c465da95921460cefb384740249890602001610cff565b5050565b336001600160a01b03841614806113bc57506113bc30611a77565b6113d95760405163932d94f760e01b815260040160405180910390fd5b5f5b81811015611560575f8383838181106113f6576113f6612e9c565b905060200201602081019061140b91906129d9565b6001600160a01b038082165f908152600360209081526040808320815160c0810183528154958616815263ffffffff600160a01b8704811694820194909452600160c01b8604841692810192909252600160e01b909404909116606082015260018301549394509092909190608083019060ff16600581111561149057611490612b67565b60058111156114a1576114a1612b67565b81526020016001820160019054906101000a900460ff1660018111156114c9576114c9612b67565b60018111156114da576114da612b67565b90525090505f60018260a0015160018111156114f8576114f8612b67565b14611504578151611506565b825b9050866001600160a01b0316816001600160a01b03161461153a5760405163304ba4f160e11b815260040160405180910390fd5b611547826080015161237c565b1561155557611555836123b3565b5050506001016113db565b506001600160a01b0383165f90815260046020526040902054600160201b900463ffffffff16156115a457604051630b9a8c7960e01b815260040160405180910390fd5b610801835f612417565b306115b881611a77565b6115d55760405163932d94f760e01b815260040160405180910390fd5b6108018383612417565b306115e981611a77565b6116065760405163932d94f760e01b815260040160405180910390fd5b6001600160a01b0382165f90815260036020526040902060010154829061162f9060ff16611b21565b61164c5760405163304ba4f160e11b815260040160405180910390fd5b60036001600160a01b0384165f9081526003602052604090206001015460ff16600581111561167d5761167d612b67565b0361169b5760405163304ba4f160e11b815260040160405180910390fd5b6116a483611f6d565b6040516001600160a01b038416907f4636ad9a0a072d9c8b05a5bcda7d33256c5401515e612c25c13273b378cb2809905f90a2505050565b60608061091361247c868686611db3565b806116f781611a77565b6117145760405163932d94f760e01b815260040160405180910390fd5b6001600160a01b0382165f90815260036020526040902060018082015460ff16600581111561174557611745612b67565b146117635760405163304ba4f160e11b815260040160405180910390fd5b60018101805460ff191660021790556040516001600160a01b038416907f143b9e3b5aa0fb8cf19b1bdb2eb8d7a94657d4b505070c667433d322b90b1f78905f90a2505050565b5f826117b581611a77565b6117d25760405163932d94f760e01b815260040160405180910390fd5b6001600160a01b0384165f9081526003602052604090206001015484906117fb9060ff16611b21565b6118185760405163304ba4f160e11b815260040160405180910390fd5b6001600160a01b0385165f9081526003602081905260409091206001015460ff169081600581111561184c5761184c612b67565b0361186a5760405163304ba4f160e11b815260040160405180910390fd5b61187486866124a1565b9695505050505050565b60608061091361263c868686611db3565b60408051808201909152600a81526922b4b3b2b72630bcb2b960b11b6020909101525f7f8b73c3c69bb8fe3d512ecc4cf759cc79239f7b179b0ffacaa9a75d522b39400f7f71b625cfad44bac63b13dba07f2e1d6084ee04b6f8752101ece6126d584ee6ea6118fc6126d0565b805160209182012060408051928301949094529281019190915260608101919091524660808201523060a082015260c00160405160208183030381529060405280519060200120905090565b5f611956610d19338461070b565b6107318260016120f9565b6040516bffffffffffffffffffffffff19606084901b166020820152603481018290525f9060540160405160208183030381529060405280519060200120905092915050565b606060405180610940016040528061090e81526020016133d061090e9139604080516001600160a01b0385166024808301919091528251808303909101815260449091018252602080820180516001600160e01b031663189acdbd60e31b1790529151611a37927f0000000000000000000000000000000000000000000000000000000000000000929101612ecb565b60408051601f1981840301815290829052611a559291602001612f05565b6040516020818303038152906040529050919050565b5f61072e838330612745565b604051631beb2b9760e31b81526001600160a01b0382811660048301523360248301523060448301525f80356001600160e01b0319166064840152917f00000000000000000000000000000000000000000000000000000000000000009091169063df595cb8906084016020604051808303815f875af1158015611afd573d5f5f3e3d5ffd5b505050506040513d601f19601f820116820180604052508101906107319190612f19565b5f80826005811115611b3557611b35612b67565b141592915050565b6001600160a01b0381165f90815260036020819052604090912090600182015460ff166005811115611b7157611b71612b67565b03611b8f5760405163304ba4f160e11b815260040160405180910390fd5b6004600182015460ff166005811115611baa57611baa612b67565b03611bbb57611bbb610d1983610737565b6001818101805460ff191690911790556040516001600160a01b038316907f8426864999f5f9244a203f75107b05f8b474838bc43ff0d8abe18ee5f4427513905f90a25050565b60605f611c0e8361276e565b6040805160208082528183019092529192505f91906020820181803683375050509182525060208101929092525090565b6001600160a01b0381165f90815260046020526040902060055463ffffffff808216600160201b9092041610611c88576040516342ca568f60e01b815260040160405180910390fd5b805463ffffffff808216600160201b9092041610611cb95760405163416bd6f360e11b815260040160405180910390fd5b60058054600160201b900463ffffffff16906004611cd683612f38565b82546101009290920a63ffffffff8181021990931691831602179091558254600160201b9004169050816004611d0b83612f38565b91906101000a81548163ffffffff021916908363ffffffff160217905550505050565b5f611d3984836120f9565b9050611d4581846124a1565b506001600160a01b0381165f90815260036020526040902080546001600160e01b03600160c01b63ffffffff600160e01b84041602166001600160c01b0390911617905561078481611b3d565b6001600160a01b039182165f90815260036020526040902054821691161490565b6060805f611dc16001612047565b9050836001600160401b03811115611ddb57611ddb612e4e565b604051908082528060200260200182016040528015611e04578160200160208202803683370190505b509250836001600160401b03811115611e1f57611e1f612e4e565b604051908082528060200260200182016040528015611e7e57816020015b611e6b6040805160a0810182525f808252602082018190529181018290526060810182905290608082015290565b815260200190600190039081611e3d5790505b5091505f80805b8381108015611e9357508682105b15611f5a575f611ea4600183612050565b9050611eb4818b8d63ffffffff16565b15611f465788841015611ed45783611ecb81612f5c565b94505050611f48565b80878481518110611ee757611ee7612e9c565b6001600160a01b039283166020918202929092018101919091529082165f908152600390915260409020611f1a9061205b565b868481518110611f2c57611f2c612e9c565b60200260200101819052508280611f4290612f5c565b9350505b505b80611f5281612f5c565b915050611e85565b5080855280845250505094509492505050565b6001600160a01b0381165f908152600360208190526040909120600101805460ff198116909217905560ff1660058181811115611fac57611fac612b67565b1480611fbc5750611fbc8161237c565b15611fca57611fca82612795565b6040516001600160a01b038316907f2465e924a1e9a02843493e65702fd09152c8a631caf7b9b58e4b01ee20ced416905f90a25050565b5f61200a61188f565b60405161190160f01b6020820152602281019190915260428101839052606201604051602081830303815290604052805190602001209050919050565b5f610731825490565b5f61072e8383612832565b6120896040805160a0810182525f808252602082018190529181018290526060810182905290608082015290565b6040805160a08101825283546001600160a01b038116825263ffffffff600160a01b820481166020840152600160c01b8204811693830193909352600160e01b900490911660608201526001830154608082019060ff1660058111156120f1576120f1612b67565b905292915050565b5f5f7f00000000000000000000000000000000000000000000000000000000000000006001600160a01b0316633a10eef76040518163ffffffff1660e01b81526004016020604051808303815f875af1158015612158573d5f5f3e3d5ffd5b505050506040513d601f19601f8201168201806040525081019061217c9190612eb0565b6040805180820182526001600160a01b037f00000000000000000000000000000000000000000000000000000000000000008116825263ffffffff848116602084019081529351631210299f60e21b815292518216600484015292519092166024820152606060448201526016606482015275343a3a38399d1797b2b4b3b2b731b637bab2173c3cbd60511b60848201529192507f00000000000000000000000000000000000000000000000000000000000000001690634840a67c9060a4015f604051808303815f87803b158015612253575f5ffd5b505af1158015612265573d5f5f3e3d5ffd5b505050506122855f6122773387611961565b612280336119a7565b612858565b6001600160a01b0381165f9081526003602052604090208054600167ffffffff0000000160a01b031963ffffffff8516600160a01b02166001600160e01b03199091161733178155600190810180549294508592909161ff0019909116906101009084908111156122f8576122f8612b67565b02179055506001600160a01b0382165f9081526003602052604090206001908101805460ff1916600517905561232e908361295a565b5060405163ffffffff821681526001600160a01b0383169033907fe9e6e5409b80e2dab7d38194fb370b2e8045a1af28177b94ddcf19d2495d75899060200160405180910390a35092915050565b5f600182600581111561239157612391612b67565b1480610731575060028260058111156123ac576123ac612b67565b1492915050565b6001600160a01b0381165f908152600360205260409020600101805460ff191660041790556123e181612795565b6040516001600160a01b038216907fbb85757a09bd73484c9fb6857c3e9f8dbf92c3e22ce1655213c9481dacf81c62905f90a250565b6001600160a01b0382165f81815260046020908152604091829020805463ffffffff191663ffffffff861690811790915591519182527f708c955faa87ece750a9700c153a20797167e2fcbde9fca9186801f874663a99910160405180910390a25050565b5f816001600160a01b031661249084610737565b6001600160a01b0316149392505050565b5f6124ac8280612f74565b6124b69080612f92565b90506001146124d8576040516398c82cef60e01b815260040160405180910390fd5b6040805180820182526001600160a01b037f0000000000000000000000000000000000000000000000000000000000000000811682528581165f9081526003602090815293902054600160a01b900463ffffffff16928201929092527f000000000000000000000000000000000000000000000000000000000000000090911690637c09ea82906125698580612f74565b6040518363ffffffff1660e01b8152600401612586929190613123565b6020604051808303815f875af11580156125a2573d5f5f3e3d5ffd5b505050506040513d601f19601f820116820180604052508101906125c69190613155565b6001600160a01b0384165f818152600360205260409081902080546001600160e01b0316600160e01b4363ffffffff160217905551919250907f5e69c7a791a6bb49176e938952d5ebf7b706e399ca57a98ea0de48d5ed2484089061262e9084908690613259565b60405180910390a292915050565b604051639100674560e01b81526001600160a01b03838116600483015282811660248301525f917f000000000000000000000000000000000000000000000000000000000000000090911690639100674590604401602060405180830381865afa1580156126ac573d5f5f3e3d5ffd5b505050506040513d601f19601f8201168201806040525081019061072e9190612f19565b60605f6126fc7f0000000000000000000000000000000000000000000000000000000000000000611c02565b9050805f8151811061271057612710612e9c565b016020908101516040516001600160f81b03199091169181019190915260210160405160208183030381529060405291505090565b5f604051836040820152846020820152828152600b8101905060ff815360559020949350505050565b5f60ff8216601f81111561073157604051632cd44ac360e21b815260040160405180910390fd5b60058054600160201b900463ffffffff169060046127b2836133b1565b91906101000a81548163ffffffff021916908363ffffffff1602179055505060045f6127dd83610737565b6001600160a01b0316815260208101919091526040015f208054600160201b900463ffffffff16906004612810836133b1565b91906101000a81548163ffffffff021916908363ffffffff1602179055505050565b5f825f01828154811061284757612847612e9c565b905f5260205f200154905092915050565b5f834710156128a95760405162461bcd60e51b815260206004820152601d60248201527f437265617465323a20696e73756666696369656e742062616c616e63650000006044820152606401610ef3565b81515f036128f95760405162461bcd60e51b815260206004820181905260248201527f437265617465323a2062797465636f6465206c656e677468206973207a65726f6044820152606401610ef3565b8282516020840186f590506001600160a01b0381166107845760405162461bcd60e51b815260206004820152601960248201527f437265617465323a204661696c6564206f6e206465706c6f79000000000000006044820152606401610ef3565b5f61072e836001600160a01b0384165f61298683835f9081526001919091016020526040902054151590565b6129bb57508154600181810184555f848152602080822090930184905584548482528286019093526040902091909155610731565b505f610731565b6001600160a01b03811681146129d6575f5ffd5b50565b5f602082840312156129e9575f5ffd5b8135610784816129c2565b5f5f60408385031215612a05575f5ffd5b8235612a10816129c2565b946020939093013593505050565b5f81518084528060208401602086015e5f602082860101526020601f19601f83011685010191505092915050565b602081525f61072e6020830184612a1e565b5f60808284031215612a6e575f5ffd5b50919050565b5f5f60408385031215612a85575f5ffd5b8235915060208301356001600160401b03811115612aa1575f5ffd5b612aad85828601612a5e565b9150509250929050565b5f5f5f60408486031215612ac9575f5ffd5b8335612ad4816129c2565b925060208401356001600160401b03811115612aee575f5ffd5b8401601f81018613612afe575f5ffd5b80356001600160401b03811115612b13575f5ffd5b866020828401011115612b24575f5ffd5b939660209190910195509293505050565b5f5f5f60608486031215612b47575f5ffd5b8335612b52816129c2565b95602085013595506040909401359392505050565b634e487b7160e01b5f52602160045260245ffd5b60068110612b8b57612b8b612b67565b9052565b604080825283519082018190525f9060208501906060840190835b81811015612bd15783516001600160a01b0316835260209384019390920191600101612baa565b5050838103602080860191909152855180835291810192508501905f5b81811015612c5f57825160018060a01b03815116855263ffffffff602082015116602086015263ffffffff604082015116604086015263ffffffff606082015116606086015260808101519050612c486080860182612b7b565b5060a0939093019260209290920191600101612bee565b50919695505050505050565b6020810160028310612c7f57612c7f612b67565b91905290565b5f5f60408385031215612c96575f5ffd5b82356001600160e01b031981168114612a10575f5ffd5b5f5f60408385031215612cbe575f5ffd5b50508035926020909101359150565b5f60208284031215612cdd575f5ffd5b5035919050565b63ffffffff811681146129d6575f5ffd5b8035612d0081612ce4565b919050565b5f60208284031215612d15575f5ffd5b813561078481612ce4565b5f5f5f60408486031215612d32575f5ffd5b8335612d3d816129c2565b925060208401356001600160401b03811115612d57575f5ffd5b8401601f81018613612d67575f5ffd5b80356001600160401b03811115612d7c575f5ffd5b8660208260051b8401011115612b24575f5ffd5b5f5f60408385031215612da1575f5ffd5b8235612dac816129c2565b91506020830135612dbc81612ce4565b809150509250929050565b602081016107318284612b7b565b5f5f60408385031215612de6575f5ffd5b8235612df1816129c2565b915060208301356001600160401b03811115612aa1575f5ffd5b81835281816020850137505f828201602090810191909152601f909101601f19169091010190565b602081525f612e46602083018486612e0b565b949350505050565b634e487b7160e01b5f52604160045260245ffd5b634e487b7160e01b5f52601160045260245ffd5b8082018082111561073157610731612e62565b8181038181111561073157610731612e62565b634e487b7160e01b5f52603260045260245ffd5b5f60208284031215612ec0575f5ffd5b815161078481612ce4565b6001600160a01b03831681526040602082018190525f90612e4690830184612a1e565b5f81518060208401855e5f93019283525090919050565b5f612e46612f138386612eee565b84612eee565b5f60208284031215612f29575f5ffd5b81518015158114610784575f5ffd5b5f63ffffffff821663ffffffff8103612f5357612f53612e62565b60010192915050565b5f60018201612f6d57612f6d612e62565b5060010190565b5f8235603e19833603018112612f88575f5ffd5b9190910192915050565b5f5f8335601e19843603018112612fa7575f5ffd5b8301803591506001600160401b03821115612fc0575f5ffd5b6020019150600581901b3603821315610c79575f5ffd5b5f5f8335601e19843603018112612fec575f5ffd5b83016020810192503590506001600160401b0381111561300a575f5ffd5b8060051b3603821315610c79575f5ffd5b5f5f8335601e19843603018112613030575f5ffd5b83016020810192503590506001600160401b0381111561304e575f5ffd5b803603821315610c79575f5ffd5b5f8235603e19833603018112613070575f5ffd5b90910192915050565b5f604083016130888384612fd7565b604086528281845260608701905060608260051b8801019350825f5b838110156130fe57888603605f190183526130bf828661305c565b803587526130d0602082018261301b565b9150604060208901526130e7604089018383612e0b565b9750505060209283019291909101906001016130a4565b505050505061310f60208401612cf5565b63ffffffff81166020860152509392505050565b82516001600160a01b0316815260208084015163ffffffff1690820152606060408201525f612e466060830184613079565b5f60208284031215613165575f5ffd5b5051919050565b5f8383855260208501945060208460051b820101835f5b868110156131c157838303601f1901885261319e828761301b565b6131a9858284612e0b565b60209a8b019a90955093909301925050600101613183565b50909695505050505050565b5f8383855260208501945060208460051b820101835f5b868110156131c157838303601f190188526131ff828761305c565b613209818261301b565b6040865261321b604087018284612e0b565b91505061322b602083018361301b565b92508582036020870152613240828483612e0b565b60209b8c019b90965094909401935050506001016131e4565b828152604060208201525f61326e838461305c565b6080604084015261328260c0840182613079565b9050613291602085018561301b565b848303603f190160608601526132a8838284612e0b565b925050506132b9604085018561301b565b848303603f190160808601526132d0838284612e0b565b925050506060840135609e198536030181126132ea575f5ffd5b838203603f190160a085015284016133028180612fd7565b60a0845261331460a08501828461316c565b9150506133246020830183612fd7565b848303602086015261333783828461316c565b925050506133486040830183612fd7565b848303604086015261335b8382846131cd565b9250505061336c6060830183612fd7565b848303606086015261337f8382846131cd565b92505050613390608083018361301b565b925083820360808501526133a5828483612e0b565b98975050505050505050565b5f63ffffffff8216806133c6576133c6612e62565b5f19019291505056fe608060405260405161090e38038061090e83398101604081905261002291610460565b61002e82826000610035565b505061058a565b61003e83610100565b6040516001600160a01b038416907f1cf3b03a6cf19fa2baba4df148e9dcabedea7f8a5c07840e207e5c089be95d3e90600090a260008251118061007f5750805b156100fb576100f9836001600160a01b0316635c60da1b6040518163ffffffff1660e01b8152600401602060405180830381865afa1580156100c5573d6000803e3d6000fd5b505050506040513d601f19601f820116820180604052508101906100e99190610520565b836102a360201b6100291760201c565b505b505050565b610113816102cf60201b6100551760201c565b6101725760405162461bcd60e51b815260206004820152602560248201527f455243313936373a206e657720626561636f6e206973206e6f74206120636f6e6044820152641d1c9858dd60da1b60648201526084015b60405180910390fd5b6101e6816001600160a01b0316635c60da1b6040518163ffffffff1660e01b8152600401602060405180830381865afa1580156101b3573d6000803e3d6000fd5b505050506040513d601f19601f820116820180604052508101906101d79190610520565b6102cf60201b6100551760201c565b61024b5760405162461bcd60e51b815260206004820152603060248201527f455243313936373a20626561636f6e20696d706c656d656e746174696f6e206960448201526f1cc81b9bdd08184818dbdb9d1c9858dd60821b6064820152608401610169565b806102827fa3f0ad74e5423aebfd80d3ef4346578335a9a72aeaee59ff6cb3582b35133d5060001b6102de60201b6100641760201c565b80546001600160a01b0319166001600160a01b039290921691909117905550565b60606102c883836040518060600160405280602781526020016108e7602791396102e1565b9392505050565b6001600160a01b03163b151590565b90565b6060600080856001600160a01b0316856040516102fe919061053b565b600060405180830381855af49150503d8060008114610339576040519150601f19603f3d011682016040523d82523d6000602084013e61033e565b606091505b5090925090506103508683838761035a565b9695505050505050565b606083156103c65782516103bf576001600160a01b0385163b6103bf5760405162461bcd60e51b815260206004820152601d60248201527f416464726573733a2063616c6c20746f206e6f6e2d636f6e74726163740000006044820152606401610169565b50816103d0565b6103d083836103d8565b949350505050565b8151156103e85781518083602001fd5b8060405162461bcd60e51b81526004016101699190610557565b80516001600160a01b038116811461041957600080fd5b919050565b634e487b7160e01b600052604160045260246000fd5b60005b8381101561044f578181015183820152602001610437565b838111156100f95750506000910152565b6000806040838503121561047357600080fd5b61047c83610402565b60208401519092506001600160401b038082111561049957600080fd5b818501915085601f8301126104ad57600080fd5b8151818111156104bf576104bf61041e565b604051601f8201601f19908116603f011681019083821181831017156104e7576104e761041e565b8160405282815288602084870101111561050057600080fd5b610511836020830160208801610434565b80955050505050509250929050565b60006020828403121561053257600080fd5b6102c882610402565b6000825161054d818460208701610434565b9190910192915050565b6020815260008251806020840152610576816040850160208701610434565b601f01601f19169190910160400192915050565b61034e806105996000396000f3fe60806040523661001357610011610017565b005b6100115b610027610022610067565b610100565b565b606061004e83836040518060600160405280602781526020016102f260279139610124565b9392505050565b6001600160a01b03163b151590565b90565b600061009a7fa3f0ad74e5423aebfd80d3ef4346578335a9a72aeaee59ff6cb3582b35133d50546001600160a01b031690565b6001600160a01b0316635c60da1b6040518163ffffffff1660e01b8152600401602060405180830381865afa1580156100d7573d6000803e3d6000fd5b505050506040513d601f19601f820116820180604052508101906100fb9190610249565b905090565b3660008037600080366000845af43d6000803e80801561011f573d6000f35b3d6000fd5b6060600080856001600160a01b03168560405161014191906102a2565b600060405180830381855af49150503d806000811461017c576040519150601f19603f3d011682016040523d82523d6000602084013e610181565b606091505b50915091506101928683838761019c565b9695505050505050565b6060831561020d578251610206576001600160a01b0385163b6102065760405162461bcd60e51b815260206004820152601d60248201527f416464726573733a2063616c6c20746f206e6f6e2d636f6e747261637400000060448201526064015b60405180910390fd5b5081610217565b610217838361021f565b949350505050565b81511561022f5781518083602001fd5b8060405162461bcd60e51b81526004016101fd91906102be565b60006020828403121561025b57600080fd5b81516001600160a01b038116811461004e57600080fd5b60005b8381101561028d578181015183820152602001610275565b8381111561029c576000848401525b50505050565b600082516102b4818460208701610272565b9190910192915050565b60208152600082518060208401526102dd816040850160208701610272565b601f01601f1916919091016040019291505056fe416464726573733a206c6f772d6c6576656c2064656c65676174652063616c6c206661696c6564a2646970667358221220d51e81d3bc5ed20a26aeb05dce7e825c503b2061aa78628027300c8d65b9d89a64736f6c634300080c0033416464726573733a206c6f772d6c6576656c2064656c65676174652063616c6c206661696c6564a164736f6c634300081b000a",
    "linkReferences": {}
  },
  "methodIdentifiers": {
    "API_PERMISSION_TYPEHASH()": "8a7f922c",
    "appBeacon()": "8a52d0b5",
    "calculateApiPermissionDigestHash(bytes4,uint256)": "9690b7e7",
    "calculateAppId(address,bytes32)": "36b18874",
    "computeAVSRegistrar()": "ef6d92c6",
    "computeOperator()": "3fc4cbfd",
    "confirmUpgrade(address)": "bbc1c204",
    "createApp(bytes32,(((bytes32,string)[],uint32),bytes,bytes,(string[],string[],(string,string)[],(string,string)[],string)))": "5e92a19f",
    "createAppWithIsolatedBilling(bytes32,(((bytes32,string)[],uint32),bytes,bytes,(string[],string[],(string,string)[],(string,string)[],string)))": "b7fe2169",
    "createEmptyApp(bytes32)": "ae7001b3",
    "createEmptyAppWithIsolatedBilling(bytes32)": "f6e842d3",
    "domainSeparator()": "f698da25",
    "getActiveAppCount(address)": "0c2199fb",
    "getAppCreator(address)": "67962d48",
    "getAppLatestReleaseBlockNumber(address)": "9ffbdce6",
    "getAppOperatorSetId(address)": "6eb2099f",
    "getAppPendingReleaseBlockNumber(address)": "c3478d14",
    "getAppStatus(address)": "d5aae178",
    "getApps(uint256,uint256)": "a37e7e44",
    "getAppsByBillingAccount(address,uint256,uint256)": "dbb1c4e1",
    "getAppsByCreator(address,uint256,uint256)": "8099ef2e",
    "getAppsByDeveloper(address,uint256,uint256)": "f36618ac",
    "getBillingAccount(address)": "3e032115",
    "getBillingType(address)": "85e9babb",
    "getMaxActiveAppsPerUser(address)": "40f70a9e",
    "globalActiveAppCount()": "a8aa2bd3",
    "initialize(address)": "c4d66de8",
    "maxGlobalActiveApps()": "a46530a2",
    "permissionController()": "4657e26a",
    "releaseManager()": "0d78573e",
    "setMaxActiveAppsPerUser(address,uint32)": "d49fec2b",
    "setMaxGlobalActiveApps(uint32)": "b438c141",
    "startApp(address)": "4dd8ef81",
    "stopApp(address)": "e70b81b1",
    "suspend(address,address[])": "cb1e6ff7",
    "terminateApp(address)": "90e2196b",
    "terminateAppByAdmin(address)": "d66f7771",
    "updateAppMetadataURI(address,string)": "65aa9a65",
    "upgradeApp(address,(((bytes32,string)[],uint32),bytes,bytes,(string[],string[],(string,string)[],(string,string)[],string)))": "e71ad404",
    "version()": "54fd4d50"
  },
  "id": 145
}